{"contracts/RequirementEngineering.sol":{"Reqiurement":{"abi":[{"inputs":[{"internalType":"uint256","name":"_id","type":"uint256"},{"internalType":"string","name":"_name","type":"string"},{"internalType":"string","name":"_description","type":"string"},{"internalType":"address","name":"_creator","type":"address"},{"internalType":"address","name":"_manager","type":"address"}],"stateMutability":"nonpayable","type":"constructor"},{"inputs":[],"name":"getCreator","outputs":[{"internalType":"address","name":"","type":"address"}],"stateMutability":"view","type":"function"},{"inputs":[],"name":"getDescription","outputs":[{"internalType":"string","name":"","type":"string"}],"stateMutability":"view","type":"function"},{"inputs":[],"name":"getId","outputs":[{"internalType":"uint256","name":"","type":"uint256"}],"stateMutability":"view","type":"function"},{"inputs":[],"name":"getName","outputs":[{"internalType":"string","name":"","type":"string"}],"stateMutability":"view","type":"function"},{"inputs":[],"name":"getPriority","outputs":[{"internalType":"uint256","name":"","type":"uint256"}],"stateMutability":"view","type":"function"},{"inputs":[],"name":"getRisk","outputs":[{"internalType":"uint256","name":"","type":"uint256"}],"stateMutability":"view","type":"function"},{"inputs":[],"name":"getStage","outputs":[{"internalType":"uint256","name":"","type":"uint256"}],"stateMutability":"view","type":"function"},{"inputs":[],"name":"getType","outputs":[{"internalType":"uint256","name":"","type":"uint256"}],"stateMutability":"view","type":"function"},{"inputs":[],"name":"isValidate","outputs":[{"internalType":"bool","name":"","type":"bool"}],"stateMutability":"view","type":"function"},{"inputs":[],"name":"isVerified","outputs":[{"internalType":"bool","name":"","type":"bool"}],"stateMutability":"view","type":"function"},{"inputs":[],"name":"priorityToString","outputs":[{"internalType":"string","name":"","type":"string"}],"stateMutability":"view","type":"function"},{"inputs":[],"name":"riskToString","outputs":[{"internalType":"string","name":"","type":"string"}],"stateMutability":"view","type":"function"},{"inputs":[],"name":"seeReq","outputs":[{"internalType":"string","name":"","type":"string"}],"stateMutability":"view","type":"function"},{"inputs":[],"name":"seeReq1","outputs":[{"internalType":"string","name":"","type":"string"}],"stateMutability":"view","type":"function"},{"inputs":[],"name":"seeReq2","outputs":[{"internalType":"string","name":"","type":"string"}],"stateMutability":"view","type":"function"},{"inputs":[],"name":"seeReq3","outputs":[{"internalType":"string","name":"","type":"string"}],"stateMutability":"view","type":"function"},{"inputs":[],"name":"seeUsers","outputs":[{"internalType":"string","name":"","type":"string"}],"stateMutability":"view","type":"function"},{"inputs":[{"internalType":"string","name":"_description","type":"string"}],"name":"setDescription","outputs":[],"stateMutability":"nonpayable","type":"function"},{"inputs":[{"internalType":"uint256","name":"_priority","type":"uint256"}],"name":"setPriority","outputs":[],"stateMutability":"nonpayable","type":"function"},{"inputs":[{"internalType":"address","name":"_reqAnalyst","type":"address"}],"name":"setRequirementAnalyst","outputs":[],"stateMutability":"nonpayable","type":"function"},{"inputs":[{"internalType":"address","name":"_reqEngineer","type":"address"}],"name":"setRequirementEngineer","outputs":[],"stateMutability":"nonpayable","type":"function"},{"inputs":[{"internalType":"uint256","name":"_risk","type":"uint256"}],"name":"setRisk","outputs":[],"stateMutability":"nonpayable","type":"function"},{"inputs":[{"internalType":"uint256","name":"_stage","type":"uint256"}],"name":"setStage","outputs":[],"stateMutability":"nonpayable","type":"function"},{"inputs":[{"internalType":"uint256","name":"_typeOfIt","type":"uint256"}],"name":"setType","outputs":[],"stateMutability":"nonpayable","type":"function"},{"inputs":[],"name":"stageToString","outputs":[{"internalType":"string","name":"","type":"string"}],"stateMutability":"view","type":"function"},{"inputs":[{"internalType":"address","name":"account","type":"address"}],"name":"toString","outputs":[{"internalType":"string","name":"","type":"string"}],"stateMutability":"pure","type":"function"},{"inputs":[{"internalType":"uint256","name":"value","type":"uint256"}],"name":"toString","outputs":[{"internalType":"string","name":"","type":"string"}],"stateMutability":"pure","type":"function"},{"inputs":[{"internalType":"bytes","name":"data","type":"bytes"}],"name":"toString","outputs":[{"internalType":"string","name":"","type":"string"}],"stateMutability":"pure","type":"function"},{"inputs":[{"internalType":"bool","name":"value","type":"bool"}],"name":"toString","outputs":[{"internalType":"string","name":"","type":"string"}],"stateMutability":"pure","type":"function"},{"inputs":[{"internalType":"bytes32","name":"value","type":"bytes32"}],"name":"toString","outputs":[{"internalType":"string","name":"","type":"string"}],"stateMutability":"pure","type":"function"},{"inputs":[],"name":"typeToString","outputs":[{"internalType":"string","name":"","type":"string"}],"stateMutability":"view","type":"function"},{"inputs":[],"name":"validate","outputs":[],"stateMutability":"nonpayable","type":"function"},{"inputs":[],"name":"verify","outputs":[],"stateMutability":"nonpayable","type":"function"}],"devdoc":{"details":"Bytes operations to convert to string and remove null characters","kind":"dev","methods":{},"title":"BytesToString","version":1},"evm":{"bytecode":{"linkReferences":{},"object":"60806040526000600760056101000a81548160ff021916908360048111156200002d576200002c62000181565b5b02179055503480156200003f57600080fd5b50604051620038be380380620038be8339818101604052810190620000659190620003e3565b8460008190555083600190816200007d9190620006ea565b5082600690816200008f9190620006ea565b5081600260006101000a81548173ffffffffffffffffffffffffffffffffffffffff021916908373ffffffffffffffffffffffffffffffffffffffff16021790555080600560006101000a81548173ffffffffffffffffffffffffffffffffffffffff021916908373ffffffffffffffffffffffffffffffffffffffff1602179055506000600760006101000a81548160ff0219169083151502179055506000600760016101000a81548160ff0219169083151502179055506001600760056101000a81548160ff0219169083600481111562000171576200017062000181565b5b02179055505050505050620007d1565b7f4e487b7100000000000000000000000000000000000000000000000000000000600052602160045260246000fd5b6000604051905090565b600080fd5b600080fd5b6000819050919050565b620001d981620001c4565b8114620001e557600080fd5b50565b600081519050620001f981620001ce565b92915050565b600080fd5b600080fd5b6000601f19601f8301169050919050565b7f4e487b7100000000000000000000000000000000000000000000000000000000600052604160045260246000fd5b620002548262000209565b810181811067ffffffffffffffff821117156200027657620002756200021a565b5b80604052505050565b60006200028b620001b0565b905062000299828262000249565b919050565b600067ffffffffffffffff821115620002bc57620002bb6200021a565b5b620002c78262000209565b9050602081019050919050565b60005b83811015620002f4578082015181840152602081019050620002d7565b60008484015250505050565b60006200031762000311846200029e565b6200027f565b90508281526020810184848401111562000336576200033562000204565b5b62000343848285620002d4565b509392505050565b600082601f830112620003635762000362620001ff565b5b81516200037584826020860162000300565b91505092915050565b600073ffffffffffffffffffffffffffffffffffffffff82169050919050565b6000620003ab826200037e565b9050919050565b620003bd816200039e565b8114620003c957600080fd5b50565b600081519050620003dd81620003b2565b92915050565b600080600080600060a08688031215620004025762000401620001ba565b5b60006200041288828901620001e8565b955050602086015167ffffffffffffffff811115620004365762000435620001bf565b5b62000444888289016200034b565b945050604086015167ffffffffffffffff811115620004685762000467620001bf565b5b62000476888289016200034b565b93505060606200048988828901620003cc565b92505060806200049c88828901620003cc565b9150509295509295909350565b600081519050919050565b7f4e487b7100000000000000000000000000000000000000000000000000000000600052602260045260246000fd5b60006002820490506001821680620004fc57607f821691505b602082108103620005125762000511620004b4565b5b50919050565b60008190508160005260206000209050919050565b60006020601f8301049050919050565b600082821b905092915050565b6000600883026200057c7fffffffffffffffffffffffffffffffffffffffffffffffffffffffffffffffff826200053d565b6200058886836200053d565b95508019841693508086168417925050509392505050565b6000819050919050565b6000620005cb620005c5620005bf84620001c4565b620005a0565b620001c4565b9050919050565b6000819050919050565b620005e783620005aa565b620005ff620005f682620005d2565b8484546200054a565b825550505050565b600090565b6200061662000607565b62000623818484620005dc565b505050565b5b818110156200064b576200063f6000826200060c565b60018101905062000629565b5050565b601f8211156200069a57620006648162000518565b6200066f846200052d565b810160208510156200067f578190505b620006976200068e856200052d565b83018262000628565b50505b505050565b600082821c905092915050565b6000620006bf600019846008026200069f565b1980831691505092915050565b6000620006da8383620006ac565b9150826002028217905092915050565b620006f582620004a9565b67ffffffffffffffff8111156200071157620007106200021a565b5b6200071d8254620004e3565b6200072a8282856200064f565b600060209050601f8311600181146200076257600084156200074d578287015190505b620007598582620006cc565b865550620007c9565b601f198416620007728662000518565b60005b828110156200079c5784890151825560018201915060208501945060208101905062000775565b86831015620007bc5784890151620007b8601f891682620006ac565b8355505b6001600288020188555050505b505050505050565b6130dd80620007e16000396000f3fe608060405234801561001057600080fd5b50600436106101fb5760003560e01c80635d8c6faa1161011a578063a813dea6116100ad578063d75088a11161007c578063d75088a114610582578063eeb1191a146105a0578063f6c8f7e1146105bc578063fc735e99146105da578063fcaa7664146105e4576101fb565b8063a813dea6146104fa578063b11a19e814610516578063b3205dfa14610546578063d05c662714610564576101fb565b806371dce7da116100e957806371dce7da1461047257806380007e83146104a257806390c3f38f146104c0578063a8113654146104dc576101fb565b80635d8c6faa146103ea5780636900a3ae146104085780636901f6681461043857806371aad10d14610442576101fb565b806321a50a931161019257806351b7aa301161016157806351b7aa3014610362578063524fa88e1461038057806356ca623e1461039c5780635d1ca631146103cc576101fb565b806321a50a93146102f057806324a872f81461030c5780633bcbe08a1461032a5780633eb1d77714610346576101fb565b806315dae03e116101ce57806315dae03e1461027857806317a2da081461029657806317d7de7c146102b45780631a092541146102d2576101fb565b806302676d391461020057806302955b141461021e5780630d0ccfb61461023c5780630ee2cb101461025a575b600080fd5b610208610602565b6040516102159190611dd0565b60405180910390f35b61022661062b565b6040516102339190611e7b565b60405180910390f35b610244610759565b6040516102519190611e7b565b60405180910390f35b6102626108be565b60405161026f9190611ede565b60405180910390f35b6102806108e8565b60405161028d9190611dd0565b60405180910390f35b61029e610911565b6040516102ab9190611e7b565b60405180910390f35b6102bc6109fa565b6040516102c99190611e7b565b60405180910390f35b6102da610a8c565b6040516102e79190611e7b565b60405180910390f35b61030a60048036038101906103059190611f39565b610b1e565b005b610314610c51565b6040516103219190611f81565b60405180910390f35b610344600480360381019061033f9190611fc8565b610c68565b005b610360600480360381019061035b9190611f39565b610cac565b005b61036a610e05565b6040516103779190611e7b565b60405180910390f35b61039a60048036038101906103959190611fc8565b610f7a565b005b6103b660048036038101906103b19190611fc8565b610fbe565b6040516103c39190611e7b565b60405180910390f35b6103d4610fef565b6040516103e19190611dd0565b60405180910390f35b6103f2610ff8565b6040516103ff9190611e7b565b60405180910390f35b610422600480360381019061041d9190611f39565b611126565b60405161042f9190611e7b565b60405180910390f35b610440611157565b005b61045c6004803603810190610457919061212a565b611210565b6040516104699190611e7b565b60405180910390f35b61048c6004803603810190610487919061219f565b611504565b6040516104999190611e7b565b60405180910390f35b6104aa611587565b6040516104b79190611f81565b60405180910390f35b6104da60048036038101906104d5919061226d565b61159e565b005b6104e46115fd565b6040516104f19190611e7b565b60405180910390f35b610514600480360381019061050f9190611f39565b61164f565b005b610530600480360381019061052b91906122ec565b611749565b60405161053d9190611e7b565b60405180910390f35b61054e61177a565b60405161055b9190611e7b565b60405180910390f35b61056c611998565b6040516105799190611e7b565b60405180910390f35b61058a611a4e565b6040516105979190611dd0565b60405180910390f35b6105ba60048036038101906105b59190611f39565b611a77565b005b6105c4611baa565b6040516105d19190611e7b565b60405180910390f35b6105e2611cd5565b005b6105ec611d8e565b6040516105f99190611dd0565b60405180910390f35b6000600760049054906101000a900460ff16600281111561062657610625612319565b5b905090565b60606000600281111561064157610640612319565b5b600760039054906101000a900460ff16600281111561066357610662612319565b5b036106a5576040518060400160405280600381526020017f6c6f7700000000000000000000000000000000000000000000000000000000008152509050610756565b600160028111156106b9576106b8612319565b5b600760039054906101000a900460ff1660028111156106db576106da612319565b5b0361071d576040518060400160405280600681526020017f6d656469756d00000000000000000000000000000000000000000000000000008152509050610756565b6040518060400160405280600481526020017f686967680000000000000000000000000000000000000000000000000000000081525090505b90565b60606000610788600260009054906101000a900473ffffffffffffffffffffffffffffffffffffffff16610fbe565b90508060405160200161079b91906123aa565b6040516020818303038152906040529050806040516020016107bd91906123f6565b604051602081830303815290604052905060006107fb600360009054906101000a900473ffffffffffffffffffffffffffffffffffffffff16610fbe565b90508060405160200161080e9190612442565b60405160208183030381529060405290508060405160200161083091906123f6565b6040516020818303038152906040529050600061086e600460009054906101000a900473ffffffffffffffffffffffffffffffffffffffff16610fbe565b905080604051602001610881919061248e565b60405160208183030381529060405290508282826040516020016108a7939291906124b4565b604051602081830303815290604052935050505090565b6000600260009054906101000a900473ffffffffffffffffffffffffffffffffffffffff16905090565b6000600760029054906101000a900460ff16600181111561090c5761090b612319565b5b905090565b6060600061091d611998565b905080604051602001610930919061250b565b6040516020818303038152906040529050600061094b61062b565b90508060405160200161095e9190612566565b60405160208183030381529060405290506000610979610ff8565b90508060405160200161098c91906125c1565b604051602081830303815290604052905060006109a761177a565b9050806040516020016109ba919061261c565b6040516020818303038152906040529050838383836040516020016109e29493929190612651565b60405160208183030381529060405294505050505090565b606060018054610a09906126be565b80601f0160208091040260200160405190810160405280929190818152602001828054610a35906126be565b8015610a825780601f10610a5757610100808354040283529160200191610a82565b820191906000526020600020905b815481529060010190602001808311610a6557829003601f168201915b5050505050905090565b606060068054610a9b906126be565b80601f0160208091040260200160405190810160405280929190818152602001828054610ac7906126be565b8015610b145780601f10610ae957610100808354040283529160200191610b14565b820191906000526020600020905b815481529060010190602001808311610af757829003601f168201915b5050505050905090565b600381818110610b63576040517f08c379a0000000000000000000000000000000000000000000000000000000008152600401610b5a9061273b565b60405180910390fd5b600180610b6e611d8e565b14610bae576040517f08c379a0000000000000000000000000000000000000000000000000000000008152600401610ba5906127a7565b60405180910390fd5b60008403610be6576000600760036101000a81548160ff02191690836002811115610bdc57610bdb612319565b5b0217905550610c4b565b60018403610c1e576001600760036101000a81548160ff02191690836002811115610c1457610c13612319565b5b0217905550610c4a565b6002600760036101000a81548160ff02191690836002811115610c4457610c43612319565b5b02179055505b5b50505050565b6000600760019054906101000a900460ff16905090565b80600360006101000a81548173ffffffffffffffffffffffffffffffffffffffff021916908373ffffffffffffffffffffffffffffffffffffffff16021790555050565b600581818110610cf1576040517f08c379a0000000000000000000000000000000000000000000000000000000008152600401610ce89061273b565b60405180910390fd5b60008303610d29576000600760056101000a81548160ff02191690836004811115610d1f57610d1e612319565b5b0217905550610e00565b60018303610d61576001600760056101000a81548160ff02191690836004811115610d5757610d56612319565b5b0217905550610dff565b60028303610d99576002600760056101000a81548160ff02191690836004811115610d8f57610d8e612319565b5b0217905550610dfe565b60038303610dd1576003600760056101000a81548160ff02191690836004811115610dc757610dc6612319565b5b0217905550610dfd565b6004600760056101000a81548160ff02191690836004811115610df757610df6612319565b5b02179055505b5b5b5b505050565b60606000610e34600260009054906101000a900473ffffffffffffffffffffffffffffffffffffffff16610fbe565b905080604051602001610e4791906127c7565b60405160208183030381529060405290506000610e85600360009054906101000a900473ffffffffffffffffffffffffffffffffffffffff16610fbe565b905080604051602001610e989190612822565b60405160208183030381529060405290506000610ed6600460009054906101000a900473ffffffffffffffffffffffffffffffffffffffff16610fbe565b905080604051602001610ee9919061287d565b60405160208183030381529060405290506000610f27600560009054906101000a900473ffffffffffffffffffffffffffffffffffffffff16610fbe565b905080604051602001610f3a91906128d8565b604051602081830303815290604052905083838383604051602001610f629493929190612651565b60405160208183030381529060405294505050505090565b80600460006101000a81548173ffffffffffffffffffffffffffffffffffffffff021916908373ffffffffffffffffffffffffffffffffffffffff16021790555050565b6060610fe882604051602001610fd49190612955565b604051602081830303815290604052611210565b9050919050565b60008054905090565b60606000600281111561100e5761100d612319565b5b600760049054906101000a900460ff1660028111156110305761102f612319565b5b03611072576040518060400160405280600381526020017f6c6f7700000000000000000000000000000000000000000000000000000000008152509050611123565b6001600281111561108657611085612319565b5b600760049054906101000a900460ff1660028111156110a8576110a7612319565b5b036110ea576040518060400160405280600681526020017f6d656469756d00000000000000000000000000000000000000000000000000008152509050611123565b6040518060400160405280600481526020017f686967680000000000000000000000000000000000000000000000000000000081525090505b90565b60606111508260405160200161113c9190612991565b604051602081830303815290604052611210565b9050919050565b600760019054906101000a900460ff16156111a7576040517f08c379a000000000000000000000000000000000000000000000000000000000815260040161119e906129f8565b60405180910390fd5b6003806111b2611d8e565b146111f2576040517f08c379a00000000000000000000000000000000000000000000000000000000081526004016111e9906127a7565b60405180910390fd5b6001600760016101000a81548160ff02191690831515021790555050565b606060006040518060400160405280601081526020017f3031323334353637383961626364656600000000000000000000000000000000815250905060006002845161125c9190612a47565b60026112689190612a89565b67ffffffffffffffff81111561128157611280611fff565b5b6040519080825280601f01601f1916602001820160405280156112b35781602001600182028036833780820191505090505b5090507f3000000000000000000000000000000000000000000000000000000000000000816000815181106112eb576112ea612abd565b5b60200101907effffffffffffffffffffffffffffffffffffffffffffffffffffffffffffff1916908160001a9053507f78000000000000000000000000000000000000000000000000000000000000008160018151811061134f5761134e612abd565b5b60200101907effffffffffffffffffffffffffffffffffffffffffffffffffffffffffffff1916908160001a90535060005b84518110156114f9578260048683815181106113a05761139f612abd565b5b602001015160f81c60f81b7effffffffffffffffffffffffffffffffffffffffffffffffffffffffffffff1916901c60f81c60ff16815181106113e6576113e5612abd565b5b602001015160f81c60f81b826002836113ff9190612a47565b600261140b9190612a89565b8151811061141c5761141b612abd565b5b60200101907effffffffffffffffffffffffffffffffffffffffffffffffffffffffffffff1916908160001a90535082600f60f81b86838151811061146457611463612abd565b5b602001015160f81c60f81b1660f81c60ff168151811061148757611486612abd565b5b602001015160f81c60f81b826002836114a09190612a47565b60036114ac9190612a89565b815181106114bd576114bc612abd565b5b60200101907effffffffffffffffffffffffffffffffffffffffffffffffffffffffffffff1916908160001a9053508080600101915050611381565b508092505050919050565b60608115611549576040518060400160405280600481526020017f74727565000000000000000000000000000000000000000000000000000000008152509050611582565b6040518060400160405280600581526020017f66616c736500000000000000000000000000000000000000000000000000000081525090505b919050565b6000600760009054906101000a900460ff16905090565b6001806115a9611d8e565b146115e9576040517f08c379a00000000000000000000000000000000000000000000000000000000081526004016115e0906127a7565b60405180910390fd5b81600690816115f89190612c98565b505050565b60606000611609611baa565b90506000611615610911565b90506000611621610e05565b9050828282604051602001611638939291906124b4565b604051602081830303815290604052935050505090565b600281818110611694576040517f08c379a000000000000000000000000000000000000000000000000000000000815260040161168b9061273b565b60405180910390fd5b60018061169f611d8e565b146116df576040517f08c379a00000000000000000000000000000000000000000000000000000000081526004016116d6906127a7565b60405180910390fd5b60008403611717576000600760026101000a81548160ff0219169083600181111561170d5761170c612319565b5b0217905550611743565b6001600760026101000a81548160ff0219169083600181111561173d5761173c612319565b5b02179055505b50505050565b60606117738260405160200161175f9190612d8b565b604051602081830303815290604052611210565b9050919050565b6060600060048111156117905761178f612319565b5b600760059054906101000a900460ff1660048111156117b2576117b1612319565b5b036117f4576040518060400160405280600781526020017f646566696e6564000000000000000000000000000000000000000000000000008152509050611995565b6001600481111561180857611807612319565b5b600760059054906101000a900460ff16600481111561182a57611829612319565b5b0361186c576040518060400160405280600781526020017f726566696e6564000000000000000000000000000000000000000000000000008152509050611995565b600260048111156118805761187f612319565b5b600760059054906101000a900460ff1660048111156118a2576118a1612319565b5b036118e4576040518060400160405280600881526020017f76657269666965640000000000000000000000000000000000000000000000008152509050611995565b600360048111156118f8576118f7612319565b5b600760059054906101000a900460ff16600481111561191a57611919612319565b5b0361195c576040518060400160405280600981526020017f56616c69646174656400000000000000000000000000000000000000000000008152509050611995565b6040518060400160405280600881526020017f66696e697368656400000000000000000000000000000000000000000000000081525090505b90565b6060600060018111156119ae576119ad612319565b5b600760029054906101000a900460ff1660018111156119d0576119cf612319565b5b03611a12576040518060400160405280600a81526020017f66756e6374696f6e616c000000000000000000000000000000000000000000008152509050611a4b565b6040518060400160405280600e81526020017f4e6f6e2d46756e6374696f6e616c00000000000000000000000000000000000081525090505b90565b6000600760039054906101000a900460ff166002811115611a7257611a71612319565b5b905090565b600381818110611abc576040517f08c379a0000000000000000000000000000000000000000000000000000000008152600401611ab39061273b565b60405180910390fd5b600180611ac7611d8e565b14611b07576040517f08c379a0000000000000000000000000000000000000000000000000000000008152600401611afe906127a7565b60405180910390fd5b60008403611b3f576000600760046101000a81548160ff02191690836002811115611b3557611b34612319565b5b0217905550611ba4565b60018403611b77576001600760046101000a81548160ff02191690836002811115611b6d57611b6c612319565b5b0217905550611ba3565b6002600760046101000a81548160ff02191690836002811115611b9d57611b9c612319565b5b02179055505b5b50505050565b60606000611bb9600054611126565b905080604051602001611bcc9190612dcc565b604051602081830303815290604052905060006001604051602001611bf19190612eaa565b604051602081830303815290604052905060006006604051602001611c169190612f05565b60405160208183030381529060405290506000611c41600760019054906101000a900460ff16611504565b905080604051602001611c549190612f60565b60405160208183030381529060405290506000611c7f600760009054906101000a900460ff16611504565b905080604051602001611c929190612fbb565b60405160208183030381529060405290508484848385604051602001611cbc959493929190612ff0565b6040516020818303038152906040529550505050505090565b600760009054906101000a900460ff1615611d25576040517f08c379a0000000000000000000000000000000000000000000000000000000008152600401611d1c90613087565b60405180910390fd5b600280611d30611d8e565b14611d70576040517f08c379a0000000000000000000000000000000000000000000000000000000008152600401611d67906127a7565b60405180910390fd5b6001600760006101000a81548160ff02191690831515021790555050565b6000600760059054906101000a900460ff166004811115611db257611db1612319565b5b905090565b6000819050919050565b611dca81611db7565b82525050565b6000602082019050611de56000830184611dc1565b92915050565b600081519050919050565b600082825260208201905092915050565b60005b83811015611e25578082015181840152602081019050611e0a565b60008484015250505050565b6000601f19601f8301169050919050565b6000611e4d82611deb565b611e578185611df6565b9350611e67818560208601611e07565b611e7081611e31565b840191505092915050565b60006020820190508181036000830152611e958184611e42565b905092915050565b600073ffffffffffffffffffffffffffffffffffffffff82169050919050565b6000611ec882611e9d565b9050919050565b611ed881611ebd565b82525050565b6000602082019050611ef36000830184611ecf565b92915050565b6000604051905090565b600080fd5b600080fd5b611f1681611db7565b8114611f2157600080fd5b50565b600081359050611f3381611f0d565b92915050565b600060208284031215611f4f57611f4e611f03565b5b6000611f5d84828501611f24565b91505092915050565b60008115159050919050565b611f7b81611f66565b82525050565b6000602082019050611f966000830184611f72565b92915050565b611fa581611ebd565b8114611fb057600080fd5b50565b600081359050611fc281611f9c565b92915050565b600060208284031215611fde57611fdd611f03565b5b6000611fec84828501611fb3565b91505092915050565b600080fd5b600080fd5b7f4e487b7100000000000000000000000000000000000000000000000000000000600052604160045260246000fd5b61203782611e31565b810181811067ffffffffffffffff8211171561205657612055611fff565b5b80604052505050565b6000612069611ef9565b9050612075828261202e565b919050565b600067ffffffffffffffff82111561209557612094611fff565b5b61209e82611e31565b9050602081019050919050565b82818337600083830152505050565b60006120cd6120c88461207a565b61205f565b9050828152602081018484840111156120e9576120e8611ffa565b5b6120f48482856120ab565b509392505050565b600082601f83011261211157612110611ff5565b5b81356121218482602086016120ba565b91505092915050565b6000602082840312156121405761213f611f03565b5b600082013567ffffffffffffffff81111561215e5761215d611f08565b5b61216a848285016120fc565b91505092915050565b61217c81611f66565b811461218757600080fd5b50565b60008135905061219981612173565b92915050565b6000602082840312156121b5576121b4611f03565b5b60006121c38482850161218a565b91505092915050565b600067ffffffffffffffff8211156121e7576121e6611fff565b5b6121f082611e31565b9050602081019050919050565b600061221061220b846121cc565b61205f565b90508281526020810184848401111561222c5761222b611ffa565b5b6122378482856120ab565b509392505050565b600082601f83011261225457612253611ff5565b5b81356122648482602086016121fd565b91505092915050565b60006020828403121561228357612282611f03565b5b600082013567ffffffffffffffff8111156122a1576122a0611f08565b5b6122ad8482850161223f565b91505092915050565b6000819050919050565b6122c9816122b6565b81146122d457600080fd5b50565b6000813590506122e6816122c0565b92915050565b60006020828403121561230257612301611f03565b5b6000612310848285016122d7565b91505092915050565b7f4e487b7100000000000000000000000000000000000000000000000000000000600052602160045260246000fd5b7f63726561746f723a200000000000000000000000000000000000000000000000815250565b600081905092915050565b600061238482611deb565b61238e818561236e565b935061239e818560208601611e07565b80840191505092915050565b60006123b582612348565b6009820191506123c58284612379565b915081905092915050565b7f202d2d2d20000000000000000000000000000000000000000000000000000000815250565b60006124028284612379565b915061240d826123d0565b60058201915081905092915050565b7f526571756972656d656e7420456e67696e6565723a2000000000000000000000815250565b600061244d8261241c565b60168201915061245d8284612379565b915081905092915050565b7f526571756972656d656e7420416e616c7973743a200000000000000000000000815250565b600061249982612468565b6015820191506124a98284612379565b915081905092915050565b60006124c08286612379565b91506124cc8285612379565b91506124d88284612379565b9150819050949350505050565b7f747970653a000000000000000000000000000000000000000000000000000000815250565b6000612516826124e5565b6005820191506125268284612379565b9150612531826123d0565b60058201915081905092915050565b7f7072696f726974793a2000000000000000000000000000000000000000000000815250565b600061257182612540565b600a820191506125818284612379565b915061258c826123d0565b60058201915081905092915050565b7f7269736b3a200000000000000000000000000000000000000000000000000000815250565b60006125cc8261259b565b6006820191506125dc8284612379565b91506125e7826123d0565b60058201915081905092915050565b7f73746167653a2000000000000000000000000000000000000000000000000000815250565b6000612627826125f6565b6007820191506126378284612379565b9150612642826123d0565b60058201915081905092915050565b600061265d8287612379565b91506126698286612379565b91506126758285612379565b91506126818284612379565b915081905095945050505050565b7f4e487b7100000000000000000000000000000000000000000000000000000000600052602260045260246000fd5b600060028204905060018216806126d657607f821691505b6020821081036126e9576126e861268f565b5b50919050565b7f4261642072616e67652e00000000000000000000000000000000000000000000600082015250565b6000612725600a83611df6565b9150612730826126ef565b602082019050919050565b6000602082019050818103600083015261275481612718565b9050919050565b7f496e636f72726563742053746167652100000000000000000000000000000000600082015250565b6000612791601083611df6565b915061279c8261275b565b602082019050919050565b600060208201905081810360008301526127c081612784565b9050919050565b60006127d282612348565b6009820191506127e28284612379565b91506127ed826123d0565b60058201915081905092915050565b7f726571756972656d656e7420656e67696e6565723a2000000000000000000000815250565b600061282d826127fc565b60168201915061283d8284612379565b9150612848826123d0565b60058201915081905092915050565b7f726571756972656d656e7420616e616c7973743a200000000000000000000000815250565b600061288882612857565b6015820191506128988284612379565b91506128a3826123d0565b60058201915081905092915050565b7f6d616e616765723a200000000000000000000000000000000000000000000000815250565b60006128e3826128b2565b6009820191506128f38284612379565b91506128fe826123d0565b60058201915081905092915050565b60008160601b9050919050565b60006129258261290d565b9050919050565b60006129378261291a565b9050919050565b61294f61294a82611ebd565b61292c565b82525050565b6000612961828461293e565b60148201915081905092915050565b6000819050919050565b61298b61298682611db7565b612970565b82525050565b600061299d828461297a565b60208201915081905092915050565b7f497420686173206265656e2076616c6964617465642e00000000000000000000600082015250565b60006129e2601683611df6565b91506129ed826129ac565b602082019050919050565b60006020820190508181036000830152612a11816129d5565b9050919050565b7f4e487b7100000000000000000000000000000000000000000000000000000000600052601160045260246000fd5b6000612a5282611db7565b9150612a5d83611db7565b9250828202612a6b81611db7565b91508282048414831517612a8257612a81612a18565b5b5092915050565b6000612a9482611db7565b9150612a9f83611db7565b9250828201905080821115612ab757612ab6612a18565b5b92915050565b7f4e487b7100000000000000000000000000000000000000000000000000000000600052603260045260246000fd5b60008190508160005260206000209050919050565b60006020601f8301049050919050565b600082821b905092915050565b600060088302612b4e7fffffffffffffffffffffffffffffffffffffffffffffffffffffffffffffffff82612b11565b612b588683612b11565b95508019841693508086168417925050509392505050565b6000819050919050565b6000612b95612b90612b8b84611db7565b612b70565b611db7565b9050919050565b6000819050919050565b612baf83612b7a565b612bc3612bbb82612b9c565b848454612b1e565b825550505050565b600090565b612bd8612bcb565b612be3818484612ba6565b505050565b5b81811015612c0757612bfc600082612bd0565b600181019050612be9565b5050565b601f821115612c4c57612c1d81612aec565b612c2684612b01565b81016020851015612c35578190505b612c49612c4185612b01565b830182612be8565b50505b505050565b600082821c905092915050565b6000612c6f60001984600802612c51565b1980831691505092915050565b6000612c888383612c5e565b9150826002028217905092915050565b612ca182611deb565b67ffffffffffffffff811115612cba57612cb9611fff565b5b612cc482546126be565b612ccf828285612c0b565b600060209050601f831160018114612d025760008415612cf0578287015190505b612cfa8582612c7c565b865550612d62565b601f198416612d1086612aec565b60005b82811015612d3857848901518255600182019150602085019450602081019050612d13565b86831015612d555784890151612d51601f891682612c5e565b8355505b6001600288020188555050505b505050505050565b6000819050919050565b612d85612d80826122b6565b612d6a565b82525050565b6000612d978284612d74565b60208201915081905092915050565b7f69643a2000000000000000000000000000000000000000000000000000000000815250565b6000612dd782612da6565b600482019150612de78284612379565b9150612df2826123d0565b60058201915081905092915050565b7f6e616d653a200000000000000000000000000000000000000000000000000000815250565b60008154612e34816126be565b612e3e818661236e565b94506001821660008114612e595760018114612e6e57612ea1565b60ff1983168652811515820286019350612ea1565b612e7785612aec565b60005b83811015612e9957815481890152600182019150602081019050612e7a565b838801955050505b50505092915050565b6000612eb582612e01565b600682019150612ec58284612e27565b9150612ed0826123d0565b60058201915081905092915050565b7f6465736372697074696f6e3a2000000000000000000000000000000000000000815250565b6000612f1082612edf565b600d82019150612f208284612e27565b9150612f2b826123d0565b60058201915081905092915050565b7f76616c6964617465643a20000000000000000000000000000000000000000000815250565b6000612f6b82612f3a565b600b82019150612f7b8284612379565b9150612f86826123d0565b60058201915081905092915050565b7f76657269666965643a2000000000000000000000000000000000000000000000815250565b6000612fc682612f95565b600a82019150612fd68284612379565b9150612fe1826123d0565b60058201915081905092915050565b6000612ffc8288612379565b91506130088287612379565b91506130148286612379565b91506130208285612379565b915061302c8284612379565b91508190509695505050505050565b7f497420686173206265656e2076657269666965642e0000000000000000000000600082015250565b6000613071601583611df6565b915061307c8261303b565b602082019050919050565b600060208201905081810360008301526130a081613064565b905091905056fea2646970667358221220d201dc9da01f89feefed4ece818ab6c79b08c461e6f19e355d6cef7bf7caaba264736f6c63430008180033","opcodes":"PUSH1 0x80 PUSH1 0x40 MSTORE PUSH1 0x0 PUSH1 0x7 PUSH1 0x5 PUSH2 0x100 EXP DUP2 SLOAD DUP2 PUSH1 0xFF MUL NOT AND SWAP1 DUP4 PUSH1 0x4 DUP2 GT ISZERO PUSH3 0x2D JUMPI PUSH3 0x2C PUSH3 0x181 JUMP JUMPDEST JUMPDEST MUL OR SWAP1 SSTORE POP CALLVALUE DUP1 ISZERO PUSH3 0x3F JUMPI PUSH1 0x0 DUP1 REVERT JUMPDEST POP PUSH1 0x40 MLOAD PUSH3 0x38BE CODESIZE SUB DUP1 PUSH3 0x38BE DUP4 CODECOPY DUP2 DUP2 ADD PUSH1 0x40 MSTORE DUP2 ADD SWAP1 PUSH3 0x65 SWAP2 SWAP1 PUSH3 0x3E3 JUMP JUMPDEST DUP5 PUSH1 0x0 DUP2 SWAP1 SSTORE POP DUP4 PUSH1 0x1 SWAP1 DUP2 PUSH3 0x7D SWAP2 SWAP1 PUSH3 0x6EA JUMP JUMPDEST POP DUP3 PUSH1 0x6 SWAP1 DUP2 PUSH3 0x8F SWAP2 SWAP1 PUSH3 0x6EA JUMP JUMPDEST POP DUP2 PUSH1 0x2 PUSH1 0x0 PUSH2 0x100 EXP DUP2 SLOAD DUP2 PUSH20 0xFFFFFFFFFFFFFFFFFFFFFFFFFFFFFFFFFFFFFFFF MUL NOT AND SWAP1 DUP4 PUSH20 0xFFFFFFFFFFFFFFFFFFFFFFFFFFFFFFFFFFFFFFFF AND MUL OR SWAP1 SSTORE POP DUP1 PUSH1 0x5 PUSH1 0x0 PUSH2 0x100 EXP DUP2 SLOAD DUP2 PUSH20 0xFFFFFFFFFFFFFFFFFFFFFFFFFFFFFFFFFFFFFFFF MUL NOT AND SWAP1 DUP4 PUSH20 0xFFFFFFFFFFFFFFFFFFFFFFFFFFFFFFFFFFFFFFFF AND MUL OR SWAP1 SSTORE POP PUSH1 0x0 PUSH1 0x7 PUSH1 0x0 PUSH2 0x100 EXP DUP2 SLOAD DUP2 PUSH1 0xFF MUL NOT AND SWAP1 DUP4 ISZERO ISZERO MUL OR SWAP1 SSTORE POP PUSH1 0x0 PUSH1 0x7 PUSH1 0x1 PUSH2 0x100 EXP DUP2 SLOAD DUP2 PUSH1 0xFF MUL NOT AND SWAP1 DUP4 ISZERO ISZERO MUL OR SWAP1 SSTORE POP PUSH1 0x1 PUSH1 0x7 PUSH1 0x5 PUSH2 0x100 EXP DUP2 SLOAD DUP2 PUSH1 0xFF MUL NOT AND SWAP1 DUP4 PUSH1 0x4 DUP2 GT ISZERO PUSH3 0x171 JUMPI PUSH3 0x170 PUSH3 0x181 JUMP JUMPDEST JUMPDEST MUL OR SWAP1 SSTORE POP POP POP POP POP POP PUSH3 0x7D1 JUMP JUMPDEST PUSH32 0x4E487B7100000000000000000000000000000000000000000000000000000000 PUSH1 0x0 MSTORE PUSH1 0x21 PUSH1 0x4 MSTORE PUSH1 0x24 PUSH1 0x0 REVERT JUMPDEST PUSH1 0x0 PUSH1 0x40 MLOAD SWAP1 POP SWAP1 JUMP JUMPDEST PUSH1 0x0 DUP1 REVERT JUMPDEST PUSH1 0x0 DUP1 REVERT JUMPDEST PUSH1 0x0 DUP2 SWAP1 POP SWAP2 SWAP1 POP JUMP JUMPDEST PUSH3 0x1D9 DUP2 PUSH3 0x1C4 JUMP JUMPDEST DUP2 EQ PUSH3 0x1E5 JUMPI PUSH1 0x0 DUP1 REVERT JUMPDEST POP JUMP JUMPDEST PUSH1 0x0 DUP2 MLOAD SWAP1 POP PUSH3 0x1F9 DUP2 PUSH3 0x1CE JUMP JUMPDEST SWAP3 SWAP2 POP POP JUMP JUMPDEST PUSH1 0x0 DUP1 REVERT JUMPDEST PUSH1 0x0 DUP1 REVERT JUMPDEST PUSH1 0x0 PUSH1 0x1F NOT PUSH1 0x1F DUP4 ADD AND SWAP1 POP SWAP2 SWAP1 POP JUMP JUMPDEST PUSH32 0x4E487B7100000000000000000000000000000000000000000000000000000000 PUSH1 0x0 MSTORE PUSH1 0x41 PUSH1 0x4 MSTORE PUSH1 0x24 PUSH1 0x0 REVERT JUMPDEST PUSH3 0x254 DUP3 PUSH3 0x209 JUMP JUMPDEST DUP2 ADD DUP2 DUP2 LT PUSH8 0xFFFFFFFFFFFFFFFF DUP3 GT OR ISZERO PUSH3 0x276 JUMPI PUSH3 0x275 PUSH3 0x21A JUMP JUMPDEST JUMPDEST DUP1 PUSH1 0x40 MSTORE POP POP POP JUMP JUMPDEST PUSH1 0x0 PUSH3 0x28B PUSH3 0x1B0 JUMP JUMPDEST SWAP1 POP PUSH3 0x299 DUP3 DUP3 PUSH3 0x249 JUMP JUMPDEST SWAP2 SWAP1 POP JUMP JUMPDEST PUSH1 0x0 PUSH8 0xFFFFFFFFFFFFFFFF DUP3 GT ISZERO PUSH3 0x2BC JUMPI PUSH3 0x2BB PUSH3 0x21A JUMP JUMPDEST JUMPDEST PUSH3 0x2C7 DUP3 PUSH3 0x209 JUMP JUMPDEST SWAP1 POP PUSH1 0x20 DUP2 ADD SWAP1 POP SWAP2 SWAP1 POP JUMP JUMPDEST PUSH1 0x0 JUMPDEST DUP4 DUP2 LT ISZERO PUSH3 0x2F4 JUMPI DUP1 DUP3 ADD MLOAD DUP2 DUP5 ADD MSTORE PUSH1 0x20 DUP2 ADD SWAP1 POP PUSH3 0x2D7 JUMP JUMPDEST PUSH1 0x0 DUP5 DUP5 ADD MSTORE POP POP POP POP JUMP JUMPDEST PUSH1 0x0 PUSH3 0x317 PUSH3 0x311 DUP5 PUSH3 0x29E JUMP JUMPDEST PUSH3 0x27F JUMP JUMPDEST SWAP1 POP DUP3 DUP2 MSTORE PUSH1 0x20 DUP2 ADD DUP5 DUP5 DUP5 ADD GT ISZERO PUSH3 0x336 JUMPI PUSH3 0x335 PUSH3 0x204 JUMP JUMPDEST JUMPDEST PUSH3 0x343 DUP5 DUP3 DUP6 PUSH3 0x2D4 JUMP JUMPDEST POP SWAP4 SWAP3 POP POP POP JUMP JUMPDEST PUSH1 0x0 DUP3 PUSH1 0x1F DUP4 ADD SLT PUSH3 0x363 JUMPI PUSH3 0x362 PUSH3 0x1FF JUMP JUMPDEST JUMPDEST DUP2 MLOAD PUSH3 0x375 DUP5 DUP3 PUSH1 0x20 DUP7 ADD PUSH3 0x300 JUMP JUMPDEST SWAP2 POP POP SWAP3 SWAP2 POP POP JUMP JUMPDEST PUSH1 0x0 PUSH20 0xFFFFFFFFFFFFFFFFFFFFFFFFFFFFFFFFFFFFFFFF DUP3 AND SWAP1 POP SWAP2 SWAP1 POP JUMP JUMPDEST PUSH1 0x0 PUSH3 0x3AB DUP3 PUSH3 0x37E JUMP JUMPDEST SWAP1 POP SWAP2 SWAP1 POP JUMP JUMPDEST PUSH3 0x3BD DUP2 PUSH3 0x39E JUMP JUMPDEST DUP2 EQ PUSH3 0x3C9 JUMPI PUSH1 0x0 DUP1 REVERT JUMPDEST POP JUMP JUMPDEST PUSH1 0x0 DUP2 MLOAD SWAP1 POP PUSH3 0x3DD DUP2 PUSH3 0x3B2 JUMP JUMPDEST SWAP3 SWAP2 POP POP JUMP JUMPDEST PUSH1 0x0 DUP1 PUSH1 0x0 DUP1 PUSH1 0x0 PUSH1 0xA0 DUP7 DUP9 SUB SLT ISZERO PUSH3 0x402 JUMPI PUSH3 0x401 PUSH3 0x1BA JUMP JUMPDEST JUMPDEST PUSH1 0x0 PUSH3 0x412 DUP9 DUP3 DUP10 ADD PUSH3 0x1E8 JUMP JUMPDEST SWAP6 POP POP PUSH1 0x20 DUP7 ADD MLOAD PUSH8 0xFFFFFFFFFFFFFFFF DUP2 GT ISZERO PUSH3 0x436 JUMPI PUSH3 0x435 PUSH3 0x1BF JUMP JUMPDEST JUMPDEST PUSH3 0x444 DUP9 DUP3 DUP10 ADD PUSH3 0x34B JUMP JUMPDEST SWAP5 POP POP PUSH1 0x40 DUP7 ADD MLOAD PUSH8 0xFFFFFFFFFFFFFFFF DUP2 GT ISZERO PUSH3 0x468 JUMPI PUSH3 0x467 PUSH3 0x1BF JUMP JUMPDEST JUMPDEST PUSH3 0x476 DUP9 DUP3 DUP10 ADD PUSH3 0x34B JUMP JUMPDEST SWAP4 POP POP PUSH1 0x60 PUSH3 0x489 DUP9 DUP3 DUP10 ADD PUSH3 0x3CC JUMP JUMPDEST SWAP3 POP POP PUSH1 0x80 PUSH3 0x49C DUP9 DUP3 DUP10 ADD PUSH3 0x3CC JUMP JUMPDEST SWAP2 POP POP SWAP3 SWAP6 POP SWAP3 SWAP6 SWAP1 SWAP4 POP JUMP JUMPDEST PUSH1 0x0 DUP2 MLOAD SWAP1 POP SWAP2 SWAP1 POP JUMP JUMPDEST PUSH32 0x4E487B7100000000000000000000000000000000000000000000000000000000 PUSH1 0x0 MSTORE PUSH1 0x22 PUSH1 0x4 MSTORE PUSH1 0x24 PUSH1 0x0 REVERT JUMPDEST PUSH1 0x0 PUSH1 0x2 DUP3 DIV SWAP1 POP PUSH1 0x1 DUP3 AND DUP1 PUSH3 0x4FC JUMPI PUSH1 0x7F DUP3 AND SWAP2 POP JUMPDEST PUSH1 0x20 DUP3 LT DUP2 SUB PUSH3 0x512 JUMPI PUSH3 0x511 PUSH3 0x4B4 JUMP JUMPDEST JUMPDEST POP SWAP2 SWAP1 POP JUMP JUMPDEST PUSH1 0x0 DUP2 SWAP1 POP DUP2 PUSH1 0x0 MSTORE PUSH1 0x20 PUSH1 0x0 KECCAK256 SWAP1 POP SWAP2 SWAP1 POP JUMP JUMPDEST PUSH1 0x0 PUSH1 0x20 PUSH1 0x1F DUP4 ADD DIV SWAP1 POP SWAP2 SWAP1 POP JUMP JUMPDEST PUSH1 0x0 DUP3 DUP3 SHL SWAP1 POP SWAP3 SWAP2 POP POP JUMP JUMPDEST PUSH1 0x0 PUSH1 0x8 DUP4 MUL PUSH3 0x57C PUSH32 0xFFFFFFFFFFFFFFFFFFFFFFFFFFFFFFFFFFFFFFFFFFFFFFFFFFFFFFFFFFFFFFFF DUP3 PUSH3 0x53D JUMP JUMPDEST PUSH3 0x588 DUP7 DUP4 PUSH3 0x53D JUMP JUMPDEST SWAP6 POP DUP1 NOT DUP5 AND SWAP4 POP DUP1 DUP7 AND DUP5 OR SWAP3 POP POP POP SWAP4 SWAP3 POP POP POP JUMP JUMPDEST PUSH1 0x0 DUP2 SWAP1 POP SWAP2 SWAP1 POP JUMP JUMPDEST PUSH1 0x0 PUSH3 0x5CB PUSH3 0x5C5 PUSH3 0x5BF DUP5 PUSH3 0x1C4 JUMP JUMPDEST PUSH3 0x5A0 JUMP JUMPDEST PUSH3 0x1C4 JUMP JUMPDEST SWAP1 POP SWAP2 SWAP1 POP JUMP JUMPDEST PUSH1 0x0 DUP2 SWAP1 POP SWAP2 SWAP1 POP JUMP JUMPDEST PUSH3 0x5E7 DUP4 PUSH3 0x5AA JUMP JUMPDEST PUSH3 0x5FF PUSH3 0x5F6 DUP3 PUSH3 0x5D2 JUMP JUMPDEST DUP5 DUP5 SLOAD PUSH3 0x54A JUMP JUMPDEST DUP3 SSTORE POP POP POP POP JUMP JUMPDEST PUSH1 0x0 SWAP1 JUMP JUMPDEST PUSH3 0x616 PUSH3 0x607 JUMP JUMPDEST PUSH3 0x623 DUP2 DUP5 DUP5 PUSH3 0x5DC JUMP JUMPDEST POP POP POP JUMP JUMPDEST JUMPDEST DUP2 DUP2 LT ISZERO PUSH3 0x64B JUMPI PUSH3 0x63F PUSH1 0x0 DUP3 PUSH3 0x60C JUMP JUMPDEST PUSH1 0x1 DUP2 ADD SWAP1 POP PUSH3 0x629 JUMP JUMPDEST POP POP JUMP JUMPDEST PUSH1 0x1F DUP3 GT ISZERO PUSH3 0x69A JUMPI PUSH3 0x664 DUP2 PUSH3 0x518 JUMP JUMPDEST PUSH3 0x66F DUP5 PUSH3 0x52D JUMP JUMPDEST DUP2 ADD PUSH1 0x20 DUP6 LT ISZERO PUSH3 0x67F JUMPI DUP2 SWAP1 POP JUMPDEST PUSH3 0x697 PUSH3 0x68E DUP6 PUSH3 0x52D JUMP JUMPDEST DUP4 ADD DUP3 PUSH3 0x628 JUMP JUMPDEST POP POP JUMPDEST POP POP POP JUMP JUMPDEST PUSH1 0x0 DUP3 DUP3 SHR SWAP1 POP SWAP3 SWAP2 POP POP JUMP JUMPDEST PUSH1 0x0 PUSH3 0x6BF PUSH1 0x0 NOT DUP5 PUSH1 0x8 MUL PUSH3 0x69F JUMP JUMPDEST NOT DUP1 DUP4 AND SWAP2 POP POP SWAP3 SWAP2 POP POP JUMP JUMPDEST PUSH1 0x0 PUSH3 0x6DA DUP4 DUP4 PUSH3 0x6AC JUMP JUMPDEST SWAP2 POP DUP3 PUSH1 0x2 MUL DUP3 OR SWAP1 POP SWAP3 SWAP2 POP POP JUMP JUMPDEST PUSH3 0x6F5 DUP3 PUSH3 0x4A9 JUMP JUMPDEST PUSH8 0xFFFFFFFFFFFFFFFF DUP2 GT ISZERO PUSH3 0x711 JUMPI PUSH3 0x710 PUSH3 0x21A JUMP JUMPDEST JUMPDEST PUSH3 0x71D DUP3 SLOAD PUSH3 0x4E3 JUMP JUMPDEST PUSH3 0x72A DUP3 DUP3 DUP6 PUSH3 0x64F JUMP JUMPDEST PUSH1 0x0 PUSH1 0x20 SWAP1 POP PUSH1 0x1F DUP4 GT PUSH1 0x1 DUP2 EQ PUSH3 0x762 JUMPI PUSH1 0x0 DUP5 ISZERO PUSH3 0x74D JUMPI DUP3 DUP8 ADD MLOAD SWAP1 POP JUMPDEST PUSH3 0x759 DUP6 DUP3 PUSH3 0x6CC JUMP JUMPDEST DUP7 SSTORE POP PUSH3 0x7C9 JUMP JUMPDEST PUSH1 0x1F NOT DUP5 AND PUSH3 0x772 DUP7 PUSH3 0x518 JUMP JUMPDEST PUSH1 0x0 JUMPDEST DUP3 DUP2 LT ISZERO PUSH3 0x79C JUMPI DUP5 DUP10 ADD MLOAD DUP3 SSTORE PUSH1 0x1 DUP3 ADD SWAP2 POP PUSH1 0x20 DUP6 ADD SWAP5 POP PUSH1 0x20 DUP2 ADD SWAP1 POP PUSH3 0x775 JUMP JUMPDEST DUP7 DUP4 LT ISZERO PUSH3 0x7BC JUMPI DUP5 DUP10 ADD MLOAD PUSH3 0x7B8 PUSH1 0x1F DUP10 AND DUP3 PUSH3 0x6AC JUMP JUMPDEST DUP4 SSTORE POP JUMPDEST PUSH1 0x1 PUSH1 0x2 DUP9 MUL ADD DUP9 SSTORE POP POP POP JUMPDEST POP POP POP POP POP POP JUMP JUMPDEST PUSH2 0x30DD DUP1 PUSH3 0x7E1 PUSH1 0x0 CODECOPY PUSH1 0x0 RETURN INVALID PUSH1 0x80 PUSH1 0x40 MSTORE CALLVALUE DUP1 ISZERO PUSH2 0x10 JUMPI PUSH1 0x0 DUP1 REVERT JUMPDEST POP PUSH1 0x4 CALLDATASIZE LT PUSH2 0x1FB JUMPI PUSH1 0x0 CALLDATALOAD PUSH1 0xE0 SHR DUP1 PUSH4 0x5D8C6FAA GT PUSH2 0x11A JUMPI DUP1 PUSH4 0xA813DEA6 GT PUSH2 0xAD JUMPI DUP1 PUSH4 0xD75088A1 GT PUSH2 0x7C JUMPI DUP1 PUSH4 0xD75088A1 EQ PUSH2 0x582 JUMPI DUP1 PUSH4 0xEEB1191A EQ PUSH2 0x5A0 JUMPI DUP1 PUSH4 0xF6C8F7E1 EQ PUSH2 0x5BC JUMPI DUP1 PUSH4 0xFC735E99 EQ PUSH2 0x5DA JUMPI DUP1 PUSH4 0xFCAA7664 EQ PUSH2 0x5E4 JUMPI PUSH2 0x1FB JUMP JUMPDEST DUP1 PUSH4 0xA813DEA6 EQ PUSH2 0x4FA JUMPI DUP1 PUSH4 0xB11A19E8 EQ PUSH2 0x516 JUMPI DUP1 PUSH4 0xB3205DFA EQ PUSH2 0x546 JUMPI DUP1 PUSH4 0xD05C6627 EQ PUSH2 0x564 JUMPI PUSH2 0x1FB JUMP JUMPDEST DUP1 PUSH4 0x71DCE7DA GT PUSH2 0xE9 JUMPI DUP1 PUSH4 0x71DCE7DA EQ PUSH2 0x472 JUMPI DUP1 PUSH4 0x80007E83 EQ PUSH2 0x4A2 JUMPI DUP1 PUSH4 0x90C3F38F EQ PUSH2 0x4C0 JUMPI DUP1 PUSH4 0xA8113654 EQ PUSH2 0x4DC JUMPI PUSH2 0x1FB JUMP JUMPDEST DUP1 PUSH4 0x5D8C6FAA EQ PUSH2 0x3EA JUMPI DUP1 PUSH4 0x6900A3AE EQ PUSH2 0x408 JUMPI DUP1 PUSH4 0x6901F668 EQ PUSH2 0x438 JUMPI DUP1 PUSH4 0x71AAD10D EQ PUSH2 0x442 JUMPI PUSH2 0x1FB JUMP JUMPDEST DUP1 PUSH4 0x21A50A93 GT PUSH2 0x192 JUMPI DUP1 PUSH4 0x51B7AA30 GT PUSH2 0x161 JUMPI DUP1 PUSH4 0x51B7AA30 EQ PUSH2 0x362 JUMPI DUP1 PUSH4 0x524FA88E EQ PUSH2 0x380 JUMPI DUP1 PUSH4 0x56CA623E EQ PUSH2 0x39C JUMPI DUP1 PUSH4 0x5D1CA631 EQ PUSH2 0x3CC JUMPI PUSH2 0x1FB JUMP JUMPDEST DUP1 PUSH4 0x21A50A93 EQ PUSH2 0x2F0 JUMPI DUP1 PUSH4 0x24A872F8 EQ PUSH2 0x30C JUMPI DUP1 PUSH4 0x3BCBE08A EQ PUSH2 0x32A JUMPI DUP1 PUSH4 0x3EB1D777 EQ PUSH2 0x346 JUMPI PUSH2 0x1FB JUMP JUMPDEST DUP1 PUSH4 0x15DAE03E GT PUSH2 0x1CE JUMPI DUP1 PUSH4 0x15DAE03E EQ PUSH2 0x278 JUMPI DUP1 PUSH4 0x17A2DA08 EQ PUSH2 0x296 JUMPI DUP1 PUSH4 0x17D7DE7C EQ PUSH2 0x2B4 JUMPI DUP1 PUSH4 0x1A092541 EQ PUSH2 0x2D2 JUMPI PUSH2 0x1FB JUMP JUMPDEST DUP1 PUSH4 0x2676D39 EQ PUSH2 0x200 JUMPI DUP1 PUSH4 0x2955B14 EQ PUSH2 0x21E JUMPI DUP1 PUSH4 0xD0CCFB6 EQ PUSH2 0x23C JUMPI DUP1 PUSH4 0xEE2CB10 EQ PUSH2 0x25A JUMPI JUMPDEST PUSH1 0x0 DUP1 REVERT JUMPDEST PUSH2 0x208 PUSH2 0x602 JUMP JUMPDEST PUSH1 0x40 MLOAD PUSH2 0x215 SWAP2 SWAP1 PUSH2 0x1DD0 JUMP JUMPDEST PUSH1 0x40 MLOAD DUP1 SWAP2 SUB SWAP1 RETURN JUMPDEST PUSH2 0x226 PUSH2 0x62B JUMP JUMPDEST PUSH1 0x40 MLOAD PUSH2 0x233 SWAP2 SWAP1 PUSH2 0x1E7B JUMP JUMPDEST PUSH1 0x40 MLOAD DUP1 SWAP2 SUB SWAP1 RETURN JUMPDEST PUSH2 0x244 PUSH2 0x759 JUMP JUMPDEST PUSH1 0x40 MLOAD PUSH2 0x251 SWAP2 SWAP1 PUSH2 0x1E7B JUMP JUMPDEST PUSH1 0x40 MLOAD DUP1 SWAP2 SUB SWAP1 RETURN JUMPDEST PUSH2 0x262 PUSH2 0x8BE JUMP JUMPDEST PUSH1 0x40 MLOAD PUSH2 0x26F SWAP2 SWAP1 PUSH2 0x1EDE JUMP JUMPDEST PUSH1 0x40 MLOAD DUP1 SWAP2 SUB SWAP1 RETURN JUMPDEST PUSH2 0x280 PUSH2 0x8E8 JUMP JUMPDEST PUSH1 0x40 MLOAD PUSH2 0x28D SWAP2 SWAP1 PUSH2 0x1DD0 JUMP JUMPDEST PUSH1 0x40 MLOAD DUP1 SWAP2 SUB SWAP1 RETURN JUMPDEST PUSH2 0x29E PUSH2 0x911 JUMP JUMPDEST PUSH1 0x40 MLOAD PUSH2 0x2AB SWAP2 SWAP1 PUSH2 0x1E7B JUMP JUMPDEST PUSH1 0x40 MLOAD DUP1 SWAP2 SUB SWAP1 RETURN JUMPDEST PUSH2 0x2BC PUSH2 0x9FA JUMP JUMPDEST PUSH1 0x40 MLOAD PUSH2 0x2C9 SWAP2 SWAP1 PUSH2 0x1E7B JUMP JUMPDEST PUSH1 0x40 MLOAD DUP1 SWAP2 SUB SWAP1 RETURN JUMPDEST PUSH2 0x2DA PUSH2 0xA8C JUMP JUMPDEST PUSH1 0x40 MLOAD PUSH2 0x2E7 SWAP2 SWAP1 PUSH2 0x1E7B JUMP JUMPDEST PUSH1 0x40 MLOAD DUP1 SWAP2 SUB SWAP1 RETURN JUMPDEST PUSH2 0x30A PUSH1 0x4 DUP1 CALLDATASIZE SUB DUP2 ADD SWAP1 PUSH2 0x305 SWAP2 SWAP1 PUSH2 0x1F39 JUMP JUMPDEST PUSH2 0xB1E JUMP JUMPDEST STOP JUMPDEST PUSH2 0x314 PUSH2 0xC51 JUMP JUMPDEST PUSH1 0x40 MLOAD PUSH2 0x321 SWAP2 SWAP1 PUSH2 0x1F81 JUMP JUMPDEST PUSH1 0x40 MLOAD DUP1 SWAP2 SUB SWAP1 RETURN JUMPDEST PUSH2 0x344 PUSH1 0x4 DUP1 CALLDATASIZE SUB DUP2 ADD SWAP1 PUSH2 0x33F SWAP2 SWAP1 PUSH2 0x1FC8 JUMP JUMPDEST PUSH2 0xC68 JUMP JUMPDEST STOP JUMPDEST PUSH2 0x360 PUSH1 0x4 DUP1 CALLDATASIZE SUB DUP2 ADD SWAP1 PUSH2 0x35B SWAP2 SWAP1 PUSH2 0x1F39 JUMP JUMPDEST PUSH2 0xCAC JUMP JUMPDEST STOP JUMPDEST PUSH2 0x36A PUSH2 0xE05 JUMP JUMPDEST PUSH1 0x40 MLOAD PUSH2 0x377 SWAP2 SWAP1 PUSH2 0x1E7B JUMP JUMPDEST PUSH1 0x40 MLOAD DUP1 SWAP2 SUB SWAP1 RETURN JUMPDEST PUSH2 0x39A PUSH1 0x4 DUP1 CALLDATASIZE SUB DUP2 ADD SWAP1 PUSH2 0x395 SWAP2 SWAP1 PUSH2 0x1FC8 JUMP JUMPDEST PUSH2 0xF7A JUMP JUMPDEST STOP JUMPDEST PUSH2 0x3B6 PUSH1 0x4 DUP1 CALLDATASIZE SUB DUP2 ADD SWAP1 PUSH2 0x3B1 SWAP2 SWAP1 PUSH2 0x1FC8 JUMP JUMPDEST PUSH2 0xFBE JUMP JUMPDEST PUSH1 0x40 MLOAD PUSH2 0x3C3 SWAP2 SWAP1 PUSH2 0x1E7B JUMP JUMPDEST PUSH1 0x40 MLOAD DUP1 SWAP2 SUB SWAP1 RETURN JUMPDEST PUSH2 0x3D4 PUSH2 0xFEF JUMP JUMPDEST PUSH1 0x40 MLOAD PUSH2 0x3E1 SWAP2 SWAP1 PUSH2 0x1DD0 JUMP JUMPDEST PUSH1 0x40 MLOAD DUP1 SWAP2 SUB SWAP1 RETURN JUMPDEST PUSH2 0x3F2 PUSH2 0xFF8 JUMP JUMPDEST PUSH1 0x40 MLOAD PUSH2 0x3FF SWAP2 SWAP1 PUSH2 0x1E7B JUMP JUMPDEST PUSH1 0x40 MLOAD DUP1 SWAP2 SUB SWAP1 RETURN JUMPDEST PUSH2 0x422 PUSH1 0x4 DUP1 CALLDATASIZE SUB DUP2 ADD SWAP1 PUSH2 0x41D SWAP2 SWAP1 PUSH2 0x1F39 JUMP JUMPDEST PUSH2 0x1126 JUMP JUMPDEST PUSH1 0x40 MLOAD PUSH2 0x42F SWAP2 SWAP1 PUSH2 0x1E7B JUMP JUMPDEST PUSH1 0x40 MLOAD DUP1 SWAP2 SUB SWAP1 RETURN JUMPDEST PUSH2 0x440 PUSH2 0x1157 JUMP JUMPDEST STOP JUMPDEST PUSH2 0x45C PUSH1 0x4 DUP1 CALLDATASIZE SUB DUP2 ADD SWAP1 PUSH2 0x457 SWAP2 SWAP1 PUSH2 0x212A JUMP JUMPDEST PUSH2 0x1210 JUMP JUMPDEST PUSH1 0x40 MLOAD PUSH2 0x469 SWAP2 SWAP1 PUSH2 0x1E7B JUMP JUMPDEST PUSH1 0x40 MLOAD DUP1 SWAP2 SUB SWAP1 RETURN JUMPDEST PUSH2 0x48C PUSH1 0x4 DUP1 CALLDATASIZE SUB DUP2 ADD SWAP1 PUSH2 0x487 SWAP2 SWAP1 PUSH2 0x219F JUMP JUMPDEST PUSH2 0x1504 JUMP JUMPDEST PUSH1 0x40 MLOAD PUSH2 0x499 SWAP2 SWAP1 PUSH2 0x1E7B JUMP JUMPDEST PUSH1 0x40 MLOAD DUP1 SWAP2 SUB SWAP1 RETURN JUMPDEST PUSH2 0x4AA PUSH2 0x1587 JUMP JUMPDEST PUSH1 0x40 MLOAD PUSH2 0x4B7 SWAP2 SWAP1 PUSH2 0x1F81 JUMP JUMPDEST PUSH1 0x40 MLOAD DUP1 SWAP2 SUB SWAP1 RETURN JUMPDEST PUSH2 0x4DA PUSH1 0x4 DUP1 CALLDATASIZE SUB DUP2 ADD SWAP1 PUSH2 0x4D5 SWAP2 SWAP1 PUSH2 0x226D JUMP JUMPDEST PUSH2 0x159E JUMP JUMPDEST STOP JUMPDEST PUSH2 0x4E4 PUSH2 0x15FD JUMP JUMPDEST PUSH1 0x40 MLOAD PUSH2 0x4F1 SWAP2 SWAP1 PUSH2 0x1E7B JUMP JUMPDEST PUSH1 0x40 MLOAD DUP1 SWAP2 SUB SWAP1 RETURN JUMPDEST PUSH2 0x514 PUSH1 0x4 DUP1 CALLDATASIZE SUB DUP2 ADD SWAP1 PUSH2 0x50F SWAP2 SWAP1 PUSH2 0x1F39 JUMP JUMPDEST PUSH2 0x164F JUMP JUMPDEST STOP JUMPDEST PUSH2 0x530 PUSH1 0x4 DUP1 CALLDATASIZE SUB DUP2 ADD SWAP1 PUSH2 0x52B SWAP2 SWAP1 PUSH2 0x22EC JUMP JUMPDEST PUSH2 0x1749 JUMP JUMPDEST PUSH1 0x40 MLOAD PUSH2 0x53D SWAP2 SWAP1 PUSH2 0x1E7B JUMP JUMPDEST PUSH1 0x40 MLOAD DUP1 SWAP2 SUB SWAP1 RETURN JUMPDEST PUSH2 0x54E PUSH2 0x177A JUMP JUMPDEST PUSH1 0x40 MLOAD PUSH2 0x55B SWAP2 SWAP1 PUSH2 0x1E7B JUMP JUMPDEST PUSH1 0x40 MLOAD DUP1 SWAP2 SUB SWAP1 RETURN JUMPDEST PUSH2 0x56C PUSH2 0x1998 JUMP JUMPDEST PUSH1 0x40 MLOAD PUSH2 0x579 SWAP2 SWAP1 PUSH2 0x1E7B JUMP JUMPDEST PUSH1 0x40 MLOAD DUP1 SWAP2 SUB SWAP1 RETURN JUMPDEST PUSH2 0x58A PUSH2 0x1A4E JUMP JUMPDEST PUSH1 0x40 MLOAD PUSH2 0x597 SWAP2 SWAP1 PUSH2 0x1DD0 JUMP JUMPDEST PUSH1 0x40 MLOAD DUP1 SWAP2 SUB SWAP1 RETURN JUMPDEST PUSH2 0x5BA PUSH1 0x4 DUP1 CALLDATASIZE SUB DUP2 ADD SWAP1 PUSH2 0x5B5 SWAP2 SWAP1 PUSH2 0x1F39 JUMP JUMPDEST PUSH2 0x1A77 JUMP JUMPDEST STOP JUMPDEST PUSH2 0x5C4 PUSH2 0x1BAA JUMP JUMPDEST PUSH1 0x40 MLOAD PUSH2 0x5D1 SWAP2 SWAP1 PUSH2 0x1E7B JUMP JUMPDEST PUSH1 0x40 MLOAD DUP1 SWAP2 SUB SWAP1 RETURN JUMPDEST PUSH2 0x5E2 PUSH2 0x1CD5 JUMP JUMPDEST STOP JUMPDEST PUSH2 0x5EC PUSH2 0x1D8E JUMP JUMPDEST PUSH1 0x40 MLOAD PUSH2 0x5F9 SWAP2 SWAP1 PUSH2 0x1DD0 JUMP JUMPDEST PUSH1 0x40 MLOAD DUP1 SWAP2 SUB SWAP1 RETURN JUMPDEST PUSH1 0x0 PUSH1 0x7 PUSH1 0x4 SWAP1 SLOAD SWAP1 PUSH2 0x100 EXP SWAP1 DIV PUSH1 0xFF AND PUSH1 0x2 DUP2 GT ISZERO PUSH2 0x626 JUMPI PUSH2 0x625 PUSH2 0x2319 JUMP JUMPDEST JUMPDEST SWAP1 POP SWAP1 JUMP JUMPDEST PUSH1 0x60 PUSH1 0x0 PUSH1 0x2 DUP2 GT ISZERO PUSH2 0x641 JUMPI PUSH2 0x640 PUSH2 0x2319 JUMP JUMPDEST JUMPDEST PUSH1 0x7 PUSH1 0x3 SWAP1 SLOAD SWAP1 PUSH2 0x100 EXP SWAP1 DIV PUSH1 0xFF AND PUSH1 0x2 DUP2 GT ISZERO PUSH2 0x663 JUMPI PUSH2 0x662 PUSH2 0x2319 JUMP JUMPDEST JUMPDEST SUB PUSH2 0x6A5 JUMPI PUSH1 0x40 MLOAD DUP1 PUSH1 0x40 ADD PUSH1 0x40 MSTORE DUP1 PUSH1 0x3 DUP2 MSTORE PUSH1 0x20 ADD PUSH32 0x6C6F770000000000000000000000000000000000000000000000000000000000 DUP2 MSTORE POP SWAP1 POP PUSH2 0x756 JUMP JUMPDEST PUSH1 0x1 PUSH1 0x2 DUP2 GT ISZERO PUSH2 0x6B9 JUMPI PUSH2 0x6B8 PUSH2 0x2319 JUMP JUMPDEST JUMPDEST PUSH1 0x7 PUSH1 0x3 SWAP1 SLOAD SWAP1 PUSH2 0x100 EXP SWAP1 DIV PUSH1 0xFF AND PUSH1 0x2 DUP2 GT ISZERO PUSH2 0x6DB JUMPI PUSH2 0x6DA PUSH2 0x2319 JUMP JUMPDEST JUMPDEST SUB PUSH2 0x71D JUMPI PUSH1 0x40 MLOAD DUP1 PUSH1 0x40 ADD PUSH1 0x40 MSTORE DUP1 PUSH1 0x6 DUP2 MSTORE PUSH1 0x20 ADD PUSH32 0x6D656469756D0000000000000000000000000000000000000000000000000000 DUP2 MSTORE POP SWAP1 POP PUSH2 0x756 JUMP JUMPDEST PUSH1 0x40 MLOAD DUP1 PUSH1 0x40 ADD PUSH1 0x40 MSTORE DUP1 PUSH1 0x4 DUP2 MSTORE PUSH1 0x20 ADD PUSH32 0x6869676800000000000000000000000000000000000000000000000000000000 DUP2 MSTORE POP SWAP1 POP JUMPDEST SWAP1 JUMP JUMPDEST PUSH1 0x60 PUSH1 0x0 PUSH2 0x788 PUSH1 0x2 PUSH1 0x0 SWAP1 SLOAD SWAP1 PUSH2 0x100 EXP SWAP1 DIV PUSH20 0xFFFFFFFFFFFFFFFFFFFFFFFFFFFFFFFFFFFFFFFF AND PUSH2 0xFBE JUMP JUMPDEST SWAP1 POP DUP1 PUSH1 0x40 MLOAD PUSH1 0x20 ADD PUSH2 0x79B SWAP2 SWAP1 PUSH2 0x23AA JUMP JUMPDEST PUSH1 0x40 MLOAD PUSH1 0x20 DUP2 DUP4 SUB SUB DUP2 MSTORE SWAP1 PUSH1 0x40 MSTORE SWAP1 POP DUP1 PUSH1 0x40 MLOAD PUSH1 0x20 ADD PUSH2 0x7BD SWAP2 SWAP1 PUSH2 0x23F6 JUMP JUMPDEST PUSH1 0x40 MLOAD PUSH1 0x20 DUP2 DUP4 SUB SUB DUP2 MSTORE SWAP1 PUSH1 0x40 MSTORE SWAP1 POP PUSH1 0x0 PUSH2 0x7FB PUSH1 0x3 PUSH1 0x0 SWAP1 SLOAD SWAP1 PUSH2 0x100 EXP SWAP1 DIV PUSH20 0xFFFFFFFFFFFFFFFFFFFFFFFFFFFFFFFFFFFFFFFF AND PUSH2 0xFBE JUMP JUMPDEST SWAP1 POP DUP1 PUSH1 0x40 MLOAD PUSH1 0x20 ADD PUSH2 0x80E SWAP2 SWAP1 PUSH2 0x2442 JUMP JUMPDEST PUSH1 0x40 MLOAD PUSH1 0x20 DUP2 DUP4 SUB SUB DUP2 MSTORE SWAP1 PUSH1 0x40 MSTORE SWAP1 POP DUP1 PUSH1 0x40 MLOAD PUSH1 0x20 ADD PUSH2 0x830 SWAP2 SWAP1 PUSH2 0x23F6 JUMP JUMPDEST PUSH1 0x40 MLOAD PUSH1 0x20 DUP2 DUP4 SUB SUB DUP2 MSTORE SWAP1 PUSH1 0x40 MSTORE SWAP1 POP PUSH1 0x0 PUSH2 0x86E PUSH1 0x4 PUSH1 0x0 SWAP1 SLOAD SWAP1 PUSH2 0x100 EXP SWAP1 DIV PUSH20 0xFFFFFFFFFFFFFFFFFFFFFFFFFFFFFFFFFFFFFFFF AND PUSH2 0xFBE JUMP JUMPDEST SWAP1 POP DUP1 PUSH1 0x40 MLOAD PUSH1 0x20 ADD PUSH2 0x881 SWAP2 SWAP1 PUSH2 0x248E JUMP JUMPDEST PUSH1 0x40 MLOAD PUSH1 0x20 DUP2 DUP4 SUB SUB DUP2 MSTORE SWAP1 PUSH1 0x40 MSTORE SWAP1 POP DUP3 DUP3 DUP3 PUSH1 0x40 MLOAD PUSH1 0x20 ADD PUSH2 0x8A7 SWAP4 SWAP3 SWAP2 SWAP1 PUSH2 0x24B4 JUMP JUMPDEST PUSH1 0x40 MLOAD PUSH1 0x20 DUP2 DUP4 SUB SUB DUP2 MSTORE SWAP1 PUSH1 0x40 MSTORE SWAP4 POP POP POP POP SWAP1 JUMP JUMPDEST PUSH1 0x0 PUSH1 0x2 PUSH1 0x0 SWAP1 SLOAD SWAP1 PUSH2 0x100 EXP SWAP1 DIV PUSH20 0xFFFFFFFFFFFFFFFFFFFFFFFFFFFFFFFFFFFFFFFF AND SWAP1 POP SWAP1 JUMP JUMPDEST PUSH1 0x0 PUSH1 0x7 PUSH1 0x2 SWAP1 SLOAD SWAP1 PUSH2 0x100 EXP SWAP1 DIV PUSH1 0xFF AND PUSH1 0x1 DUP2 GT ISZERO PUSH2 0x90C JUMPI PUSH2 0x90B PUSH2 0x2319 JUMP JUMPDEST JUMPDEST SWAP1 POP SWAP1 JUMP JUMPDEST PUSH1 0x60 PUSH1 0x0 PUSH2 0x91D PUSH2 0x1998 JUMP JUMPDEST SWAP1 POP DUP1 PUSH1 0x40 MLOAD PUSH1 0x20 ADD PUSH2 0x930 SWAP2 SWAP1 PUSH2 0x250B JUMP JUMPDEST PUSH1 0x40 MLOAD PUSH1 0x20 DUP2 DUP4 SUB SUB DUP2 MSTORE SWAP1 PUSH1 0x40 MSTORE SWAP1 POP PUSH1 0x0 PUSH2 0x94B PUSH2 0x62B JUMP JUMPDEST SWAP1 POP DUP1 PUSH1 0x40 MLOAD PUSH1 0x20 ADD PUSH2 0x95E SWAP2 SWAP1 PUSH2 0x2566 JUMP JUMPDEST PUSH1 0x40 MLOAD PUSH1 0x20 DUP2 DUP4 SUB SUB DUP2 MSTORE SWAP1 PUSH1 0x40 MSTORE SWAP1 POP PUSH1 0x0 PUSH2 0x979 PUSH2 0xFF8 JUMP JUMPDEST SWAP1 POP DUP1 PUSH1 0x40 MLOAD PUSH1 0x20 ADD PUSH2 0x98C SWAP2 SWAP1 PUSH2 0x25C1 JUMP JUMPDEST PUSH1 0x40 MLOAD PUSH1 0x20 DUP2 DUP4 SUB SUB DUP2 MSTORE SWAP1 PUSH1 0x40 MSTORE SWAP1 POP PUSH1 0x0 PUSH2 0x9A7 PUSH2 0x177A JUMP JUMPDEST SWAP1 POP DUP1 PUSH1 0x40 MLOAD PUSH1 0x20 ADD PUSH2 0x9BA SWAP2 SWAP1 PUSH2 0x261C JUMP JUMPDEST PUSH1 0x40 MLOAD PUSH1 0x20 DUP2 DUP4 SUB SUB DUP2 MSTORE SWAP1 PUSH1 0x40 MSTORE SWAP1 POP DUP4 DUP4 DUP4 DUP4 PUSH1 0x40 MLOAD PUSH1 0x20 ADD PUSH2 0x9E2 SWAP5 SWAP4 SWAP3 SWAP2 SWAP1 PUSH2 0x2651 JUMP JUMPDEST PUSH1 0x40 MLOAD PUSH1 0x20 DUP2 DUP4 SUB SUB DUP2 MSTORE SWAP1 PUSH1 0x40 MSTORE SWAP5 POP POP POP POP POP SWAP1 JUMP JUMPDEST PUSH1 0x60 PUSH1 0x1 DUP1 SLOAD PUSH2 0xA09 SWAP1 PUSH2 0x26BE JUMP JUMPDEST DUP1 PUSH1 0x1F ADD PUSH1 0x20 DUP1 SWAP2 DIV MUL PUSH1 0x20 ADD PUSH1 0x40 MLOAD SWAP1 DUP2 ADD PUSH1 0x40 MSTORE DUP1 SWAP3 SWAP2 SWAP1 DUP2 DUP2 MSTORE PUSH1 0x20 ADD DUP3 DUP1 SLOAD PUSH2 0xA35 SWAP1 PUSH2 0x26BE JUMP JUMPDEST DUP1 ISZERO PUSH2 0xA82 JUMPI DUP1 PUSH1 0x1F LT PUSH2 0xA57 JUMPI PUSH2 0x100 DUP1 DUP4 SLOAD DIV MUL DUP4 MSTORE SWAP2 PUSH1 0x20 ADD SWAP2 PUSH2 0xA82 JUMP JUMPDEST DUP3 ADD SWAP2 SWAP1 PUSH1 0x0 MSTORE PUSH1 0x20 PUSH1 0x0 KECCAK256 SWAP1 JUMPDEST DUP2 SLOAD DUP2 MSTORE SWAP1 PUSH1 0x1 ADD SWAP1 PUSH1 0x20 ADD DUP1 DUP4 GT PUSH2 0xA65 JUMPI DUP3 SWAP1 SUB PUSH1 0x1F AND DUP3 ADD SWAP2 JUMPDEST POP POP POP POP POP SWAP1 POP SWAP1 JUMP JUMPDEST PUSH1 0x60 PUSH1 0x6 DUP1 SLOAD PUSH2 0xA9B SWAP1 PUSH2 0x26BE JUMP JUMPDEST DUP1 PUSH1 0x1F ADD PUSH1 0x20 DUP1 SWAP2 DIV MUL PUSH1 0x20 ADD PUSH1 0x40 MLOAD SWAP1 DUP2 ADD PUSH1 0x40 MSTORE DUP1 SWAP3 SWAP2 SWAP1 DUP2 DUP2 MSTORE PUSH1 0x20 ADD DUP3 DUP1 SLOAD PUSH2 0xAC7 SWAP1 PUSH2 0x26BE JUMP JUMPDEST DUP1 ISZERO PUSH2 0xB14 JUMPI DUP1 PUSH1 0x1F LT PUSH2 0xAE9 JUMPI PUSH2 0x100 DUP1 DUP4 SLOAD DIV MUL DUP4 MSTORE SWAP2 PUSH1 0x20 ADD SWAP2 PUSH2 0xB14 JUMP JUMPDEST DUP3 ADD SWAP2 SWAP1 PUSH1 0x0 MSTORE PUSH1 0x20 PUSH1 0x0 KECCAK256 SWAP1 JUMPDEST DUP2 SLOAD DUP2 MSTORE SWAP1 PUSH1 0x1 ADD SWAP1 PUSH1 0x20 ADD DUP1 DUP4 GT PUSH2 0xAF7 JUMPI DUP3 SWAP1 SUB PUSH1 0x1F AND DUP3 ADD SWAP2 JUMPDEST POP POP POP POP POP SWAP1 POP SWAP1 JUMP JUMPDEST PUSH1 0x3 DUP2 DUP2 DUP2 LT PUSH2 0xB63 JUMPI PUSH1 0x40 MLOAD PUSH32 0x8C379A000000000000000000000000000000000000000000000000000000000 DUP2 MSTORE PUSH1 0x4 ADD PUSH2 0xB5A SWAP1 PUSH2 0x273B JUMP JUMPDEST PUSH1 0x40 MLOAD DUP1 SWAP2 SUB SWAP1 REVERT JUMPDEST PUSH1 0x1 DUP1 PUSH2 0xB6E PUSH2 0x1D8E JUMP JUMPDEST EQ PUSH2 0xBAE JUMPI PUSH1 0x40 MLOAD PUSH32 0x8C379A000000000000000000000000000000000000000000000000000000000 DUP2 MSTORE PUSH1 0x4 ADD PUSH2 0xBA5 SWAP1 PUSH2 0x27A7 JUMP JUMPDEST PUSH1 0x40 MLOAD DUP1 SWAP2 SUB SWAP1 REVERT JUMPDEST PUSH1 0x0 DUP5 SUB PUSH2 0xBE6 JUMPI PUSH1 0x0 PUSH1 0x7 PUSH1 0x3 PUSH2 0x100 EXP DUP2 SLOAD DUP2 PUSH1 0xFF MUL NOT AND SWAP1 DUP4 PUSH1 0x2 DUP2 GT ISZERO PUSH2 0xBDC JUMPI PUSH2 0xBDB PUSH2 0x2319 JUMP JUMPDEST JUMPDEST MUL OR SWAP1 SSTORE POP PUSH2 0xC4B JUMP JUMPDEST PUSH1 0x1 DUP5 SUB PUSH2 0xC1E JUMPI PUSH1 0x1 PUSH1 0x7 PUSH1 0x3 PUSH2 0x100 EXP DUP2 SLOAD DUP2 PUSH1 0xFF MUL NOT AND SWAP1 DUP4 PUSH1 0x2 DUP2 GT ISZERO PUSH2 0xC14 JUMPI PUSH2 0xC13 PUSH2 0x2319 JUMP JUMPDEST JUMPDEST MUL OR SWAP1 SSTORE POP PUSH2 0xC4A JUMP JUMPDEST PUSH1 0x2 PUSH1 0x7 PUSH1 0x3 PUSH2 0x100 EXP DUP2 SLOAD DUP2 PUSH1 0xFF MUL NOT AND SWAP1 DUP4 PUSH1 0x2 DUP2 GT ISZERO PUSH2 0xC44 JUMPI PUSH2 0xC43 PUSH2 0x2319 JUMP JUMPDEST JUMPDEST MUL OR SWAP1 SSTORE POP JUMPDEST JUMPDEST POP POP POP POP JUMP JUMPDEST PUSH1 0x0 PUSH1 0x7 PUSH1 0x1 SWAP1 SLOAD SWAP1 PUSH2 0x100 EXP SWAP1 DIV PUSH1 0xFF AND SWAP1 POP SWAP1 JUMP JUMPDEST DUP1 PUSH1 0x3 PUSH1 0x0 PUSH2 0x100 EXP DUP2 SLOAD DUP2 PUSH20 0xFFFFFFFFFFFFFFFFFFFFFFFFFFFFFFFFFFFFFFFF MUL NOT AND SWAP1 DUP4 PUSH20 0xFFFFFFFFFFFFFFFFFFFFFFFFFFFFFFFFFFFFFFFF AND MUL OR SWAP1 SSTORE POP POP JUMP JUMPDEST PUSH1 0x5 DUP2 DUP2 DUP2 LT PUSH2 0xCF1 JUMPI PUSH1 0x40 MLOAD PUSH32 0x8C379A000000000000000000000000000000000000000000000000000000000 DUP2 MSTORE PUSH1 0x4 ADD PUSH2 0xCE8 SWAP1 PUSH2 0x273B JUMP JUMPDEST PUSH1 0x40 MLOAD DUP1 SWAP2 SUB SWAP1 REVERT JUMPDEST PUSH1 0x0 DUP4 SUB PUSH2 0xD29 JUMPI PUSH1 0x0 PUSH1 0x7 PUSH1 0x5 PUSH2 0x100 EXP DUP2 SLOAD DUP2 PUSH1 0xFF MUL NOT AND SWAP1 DUP4 PUSH1 0x4 DUP2 GT ISZERO PUSH2 0xD1F JUMPI PUSH2 0xD1E PUSH2 0x2319 JUMP JUMPDEST JUMPDEST MUL OR SWAP1 SSTORE POP PUSH2 0xE00 JUMP JUMPDEST PUSH1 0x1 DUP4 SUB PUSH2 0xD61 JUMPI PUSH1 0x1 PUSH1 0x7 PUSH1 0x5 PUSH2 0x100 EXP DUP2 SLOAD DUP2 PUSH1 0xFF MUL NOT AND SWAP1 DUP4 PUSH1 0x4 DUP2 GT ISZERO PUSH2 0xD57 JUMPI PUSH2 0xD56 PUSH2 0x2319 JUMP JUMPDEST JUMPDEST MUL OR SWAP1 SSTORE POP PUSH2 0xDFF JUMP JUMPDEST PUSH1 0x2 DUP4 SUB PUSH2 0xD99 JUMPI PUSH1 0x2 PUSH1 0x7 PUSH1 0x5 PUSH2 0x100 EXP DUP2 SLOAD DUP2 PUSH1 0xFF MUL NOT AND SWAP1 DUP4 PUSH1 0x4 DUP2 GT ISZERO PUSH2 0xD8F JUMPI PUSH2 0xD8E PUSH2 0x2319 JUMP JUMPDEST JUMPDEST MUL OR SWAP1 SSTORE POP PUSH2 0xDFE JUMP JUMPDEST PUSH1 0x3 DUP4 SUB PUSH2 0xDD1 JUMPI PUSH1 0x3 PUSH1 0x7 PUSH1 0x5 PUSH2 0x100 EXP DUP2 SLOAD DUP2 PUSH1 0xFF MUL NOT AND SWAP1 DUP4 PUSH1 0x4 DUP2 GT ISZERO PUSH2 0xDC7 JUMPI PUSH2 0xDC6 PUSH2 0x2319 JUMP JUMPDEST JUMPDEST MUL OR SWAP1 SSTORE POP PUSH2 0xDFD JUMP JUMPDEST PUSH1 0x4 PUSH1 0x7 PUSH1 0x5 PUSH2 0x100 EXP DUP2 SLOAD DUP2 PUSH1 0xFF MUL NOT AND SWAP1 DUP4 PUSH1 0x4 DUP2 GT ISZERO PUSH2 0xDF7 JUMPI PUSH2 0xDF6 PUSH2 0x2319 JUMP JUMPDEST JUMPDEST MUL OR SWAP1 SSTORE POP JUMPDEST JUMPDEST JUMPDEST JUMPDEST POP POP POP JUMP JUMPDEST PUSH1 0x60 PUSH1 0x0 PUSH2 0xE34 PUSH1 0x2 PUSH1 0x0 SWAP1 SLOAD SWAP1 PUSH2 0x100 EXP SWAP1 DIV PUSH20 0xFFFFFFFFFFFFFFFFFFFFFFFFFFFFFFFFFFFFFFFF AND PUSH2 0xFBE JUMP JUMPDEST SWAP1 POP DUP1 PUSH1 0x40 MLOAD PUSH1 0x20 ADD PUSH2 0xE47 SWAP2 SWAP1 PUSH2 0x27C7 JUMP JUMPDEST PUSH1 0x40 MLOAD PUSH1 0x20 DUP2 DUP4 SUB SUB DUP2 MSTORE SWAP1 PUSH1 0x40 MSTORE SWAP1 POP PUSH1 0x0 PUSH2 0xE85 PUSH1 0x3 PUSH1 0x0 SWAP1 SLOAD SWAP1 PUSH2 0x100 EXP SWAP1 DIV PUSH20 0xFFFFFFFFFFFFFFFFFFFFFFFFFFFFFFFFFFFFFFFF AND PUSH2 0xFBE JUMP JUMPDEST SWAP1 POP DUP1 PUSH1 0x40 MLOAD PUSH1 0x20 ADD PUSH2 0xE98 SWAP2 SWAP1 PUSH2 0x2822 JUMP JUMPDEST PUSH1 0x40 MLOAD PUSH1 0x20 DUP2 DUP4 SUB SUB DUP2 MSTORE SWAP1 PUSH1 0x40 MSTORE SWAP1 POP PUSH1 0x0 PUSH2 0xED6 PUSH1 0x4 PUSH1 0x0 SWAP1 SLOAD SWAP1 PUSH2 0x100 EXP SWAP1 DIV PUSH20 0xFFFFFFFFFFFFFFFFFFFFFFFFFFFFFFFFFFFFFFFF AND PUSH2 0xFBE JUMP JUMPDEST SWAP1 POP DUP1 PUSH1 0x40 MLOAD PUSH1 0x20 ADD PUSH2 0xEE9 SWAP2 SWAP1 PUSH2 0x287D JUMP JUMPDEST PUSH1 0x40 MLOAD PUSH1 0x20 DUP2 DUP4 SUB SUB DUP2 MSTORE SWAP1 PUSH1 0x40 MSTORE SWAP1 POP PUSH1 0x0 PUSH2 0xF27 PUSH1 0x5 PUSH1 0x0 SWAP1 SLOAD SWAP1 PUSH2 0x100 EXP SWAP1 DIV PUSH20 0xFFFFFFFFFFFFFFFFFFFFFFFFFFFFFFFFFFFFFFFF AND PUSH2 0xFBE JUMP JUMPDEST SWAP1 POP DUP1 PUSH1 0x40 MLOAD PUSH1 0x20 ADD PUSH2 0xF3A SWAP2 SWAP1 PUSH2 0x28D8 JUMP JUMPDEST PUSH1 0x40 MLOAD PUSH1 0x20 DUP2 DUP4 SUB SUB DUP2 MSTORE SWAP1 PUSH1 0x40 MSTORE SWAP1 POP DUP4 DUP4 DUP4 DUP4 PUSH1 0x40 MLOAD PUSH1 0x20 ADD PUSH2 0xF62 SWAP5 SWAP4 SWAP3 SWAP2 SWAP1 PUSH2 0x2651 JUMP JUMPDEST PUSH1 0x40 MLOAD PUSH1 0x20 DUP2 DUP4 SUB SUB DUP2 MSTORE SWAP1 PUSH1 0x40 MSTORE SWAP5 POP POP POP POP POP SWAP1 JUMP JUMPDEST DUP1 PUSH1 0x4 PUSH1 0x0 PUSH2 0x100 EXP DUP2 SLOAD DUP2 PUSH20 0xFFFFFFFFFFFFFFFFFFFFFFFFFFFFFFFFFFFFFFFF MUL NOT AND SWAP1 DUP4 PUSH20 0xFFFFFFFFFFFFFFFFFFFFFFFFFFFFFFFFFFFFFFFF AND MUL OR SWAP1 SSTORE POP POP JUMP JUMPDEST PUSH1 0x60 PUSH2 0xFE8 DUP3 PUSH1 0x40 MLOAD PUSH1 0x20 ADD PUSH2 0xFD4 SWAP2 SWAP1 PUSH2 0x2955 JUMP JUMPDEST PUSH1 0x40 MLOAD PUSH1 0x20 DUP2 DUP4 SUB SUB DUP2 MSTORE SWAP1 PUSH1 0x40 MSTORE PUSH2 0x1210 JUMP JUMPDEST SWAP1 POP SWAP2 SWAP1 POP JUMP JUMPDEST PUSH1 0x0 DUP1 SLOAD SWAP1 POP SWAP1 JUMP JUMPDEST PUSH1 0x60 PUSH1 0x0 PUSH1 0x2 DUP2 GT ISZERO PUSH2 0x100E JUMPI PUSH2 0x100D PUSH2 0x2319 JUMP JUMPDEST JUMPDEST PUSH1 0x7 PUSH1 0x4 SWAP1 SLOAD SWAP1 PUSH2 0x100 EXP SWAP1 DIV PUSH1 0xFF AND PUSH1 0x2 DUP2 GT ISZERO PUSH2 0x1030 JUMPI PUSH2 0x102F PUSH2 0x2319 JUMP JUMPDEST JUMPDEST SUB PUSH2 0x1072 JUMPI PUSH1 0x40 MLOAD DUP1 PUSH1 0x40 ADD PUSH1 0x40 MSTORE DUP1 PUSH1 0x3 DUP2 MSTORE PUSH1 0x20 ADD PUSH32 0x6C6F770000000000000000000000000000000000000000000000000000000000 DUP2 MSTORE POP SWAP1 POP PUSH2 0x1123 JUMP JUMPDEST PUSH1 0x1 PUSH1 0x2 DUP2 GT ISZERO PUSH2 0x1086 JUMPI PUSH2 0x1085 PUSH2 0x2319 JUMP JUMPDEST JUMPDEST PUSH1 0x7 PUSH1 0x4 SWAP1 SLOAD SWAP1 PUSH2 0x100 EXP SWAP1 DIV PUSH1 0xFF AND PUSH1 0x2 DUP2 GT ISZERO PUSH2 0x10A8 JUMPI PUSH2 0x10A7 PUSH2 0x2319 JUMP JUMPDEST JUMPDEST SUB PUSH2 0x10EA JUMPI PUSH1 0x40 MLOAD DUP1 PUSH1 0x40 ADD PUSH1 0x40 MSTORE DUP1 PUSH1 0x6 DUP2 MSTORE PUSH1 0x20 ADD PUSH32 0x6D656469756D0000000000000000000000000000000000000000000000000000 DUP2 MSTORE POP SWAP1 POP PUSH2 0x1123 JUMP JUMPDEST PUSH1 0x40 MLOAD DUP1 PUSH1 0x40 ADD PUSH1 0x40 MSTORE DUP1 PUSH1 0x4 DUP2 MSTORE PUSH1 0x20 ADD PUSH32 0x6869676800000000000000000000000000000000000000000000000000000000 DUP2 MSTORE POP SWAP1 POP JUMPDEST SWAP1 JUMP JUMPDEST PUSH1 0x60 PUSH2 0x1150 DUP3 PUSH1 0x40 MLOAD PUSH1 0x20 ADD PUSH2 0x113C SWAP2 SWAP1 PUSH2 0x2991 JUMP JUMPDEST PUSH1 0x40 MLOAD PUSH1 0x20 DUP2 DUP4 SUB SUB DUP2 MSTORE SWAP1 PUSH1 0x40 MSTORE PUSH2 0x1210 JUMP JUMPDEST SWAP1 POP SWAP2 SWAP1 POP JUMP JUMPDEST PUSH1 0x7 PUSH1 0x1 SWAP1 SLOAD SWAP1 PUSH2 0x100 EXP SWAP1 DIV PUSH1 0xFF AND ISZERO PUSH2 0x11A7 JUMPI PUSH1 0x40 MLOAD PUSH32 0x8C379A000000000000000000000000000000000000000000000000000000000 DUP2 MSTORE PUSH1 0x4 ADD PUSH2 0x119E SWAP1 PUSH2 0x29F8 JUMP JUMPDEST PUSH1 0x40 MLOAD DUP1 SWAP2 SUB SWAP1 REVERT JUMPDEST PUSH1 0x3 DUP1 PUSH2 0x11B2 PUSH2 0x1D8E JUMP JUMPDEST EQ PUSH2 0x11F2 JUMPI PUSH1 0x40 MLOAD PUSH32 0x8C379A000000000000000000000000000000000000000000000000000000000 DUP2 MSTORE PUSH1 0x4 ADD PUSH2 0x11E9 SWAP1 PUSH2 0x27A7 JUMP JUMPDEST PUSH1 0x40 MLOAD DUP1 SWAP2 SUB SWAP1 REVERT JUMPDEST PUSH1 0x1 PUSH1 0x7 PUSH1 0x1 PUSH2 0x100 EXP DUP2 SLOAD DUP2 PUSH1 0xFF MUL NOT AND SWAP1 DUP4 ISZERO ISZERO MUL OR SWAP1 SSTORE POP POP JUMP JUMPDEST PUSH1 0x60 PUSH1 0x0 PUSH1 0x40 MLOAD DUP1 PUSH1 0x40 ADD PUSH1 0x40 MSTORE DUP1 PUSH1 0x10 DUP2 MSTORE PUSH1 0x20 ADD PUSH32 0x3031323334353637383961626364656600000000000000000000000000000000 DUP2 MSTORE POP SWAP1 POP PUSH1 0x0 PUSH1 0x2 DUP5 MLOAD PUSH2 0x125C SWAP2 SWAP1 PUSH2 0x2A47 JUMP JUMPDEST PUSH1 0x2 PUSH2 0x1268 SWAP2 SWAP1 PUSH2 0x2A89 JUMP JUMPDEST PUSH8 0xFFFFFFFFFFFFFFFF DUP2 GT ISZERO PUSH2 0x1281 JUMPI PUSH2 0x1280 PUSH2 0x1FFF JUMP JUMPDEST JUMPDEST PUSH1 0x40 MLOAD SWAP1 DUP1 DUP3 MSTORE DUP1 PUSH1 0x1F ADD PUSH1 0x1F NOT AND PUSH1 0x20 ADD DUP3 ADD PUSH1 0x40 MSTORE DUP1 ISZERO PUSH2 0x12B3 JUMPI DUP2 PUSH1 0x20 ADD PUSH1 0x1 DUP3 MUL DUP1 CALLDATASIZE DUP4 CALLDATACOPY DUP1 DUP3 ADD SWAP2 POP POP SWAP1 POP JUMPDEST POP SWAP1 POP PUSH32 0x3000000000000000000000000000000000000000000000000000000000000000 DUP2 PUSH1 0x0 DUP2 MLOAD DUP2 LT PUSH2 0x12EB JUMPI PUSH2 0x12EA PUSH2 0x2ABD JUMP JUMPDEST JUMPDEST PUSH1 0x20 ADD ADD SWAP1 PUSH31 0xFFFFFFFFFFFFFFFFFFFFFFFFFFFFFFFFFFFFFFFFFFFFFFFFFFFFFFFFFFFFFF NOT AND SWAP1 DUP2 PUSH1 0x0 BYTE SWAP1 MSTORE8 POP PUSH32 0x7800000000000000000000000000000000000000000000000000000000000000 DUP2 PUSH1 0x1 DUP2 MLOAD DUP2 LT PUSH2 0x134F JUMPI PUSH2 0x134E PUSH2 0x2ABD JUMP JUMPDEST JUMPDEST PUSH1 0x20 ADD ADD SWAP1 PUSH31 0xFFFFFFFFFFFFFFFFFFFFFFFFFFFFFFFFFFFFFFFFFFFFFFFFFFFFFFFFFFFFFF NOT AND SWAP1 DUP2 PUSH1 0x0 BYTE SWAP1 MSTORE8 POP PUSH1 0x0 JUMPDEST DUP5 MLOAD DUP2 LT ISZERO PUSH2 0x14F9 JUMPI DUP3 PUSH1 0x4 DUP7 DUP4 DUP2 MLOAD DUP2 LT PUSH2 0x13A0 JUMPI PUSH2 0x139F PUSH2 0x2ABD JUMP JUMPDEST JUMPDEST PUSH1 0x20 ADD ADD MLOAD PUSH1 0xF8 SHR PUSH1 0xF8 SHL PUSH31 0xFFFFFFFFFFFFFFFFFFFFFFFFFFFFFFFFFFFFFFFFFFFFFFFFFFFFFFFFFFFFFF NOT AND SWAP1 SHR PUSH1 0xF8 SHR PUSH1 0xFF AND DUP2 MLOAD DUP2 LT PUSH2 0x13E6 JUMPI PUSH2 0x13E5 PUSH2 0x2ABD JUMP JUMPDEST JUMPDEST PUSH1 0x20 ADD ADD MLOAD PUSH1 0xF8 SHR PUSH1 0xF8 SHL DUP3 PUSH1 0x2 DUP4 PUSH2 0x13FF SWAP2 SWAP1 PUSH2 0x2A47 JUMP JUMPDEST PUSH1 0x2 PUSH2 0x140B SWAP2 SWAP1 PUSH2 0x2A89 JUMP JUMPDEST DUP2 MLOAD DUP2 LT PUSH2 0x141C JUMPI PUSH2 0x141B PUSH2 0x2ABD JUMP JUMPDEST JUMPDEST PUSH1 0x20 ADD ADD SWAP1 PUSH31 0xFFFFFFFFFFFFFFFFFFFFFFFFFFFFFFFFFFFFFFFFFFFFFFFFFFFFFFFFFFFFFF NOT AND SWAP1 DUP2 PUSH1 0x0 BYTE SWAP1 MSTORE8 POP DUP3 PUSH1 0xF PUSH1 0xF8 SHL DUP7 DUP4 DUP2 MLOAD DUP2 LT PUSH2 0x1464 JUMPI PUSH2 0x1463 PUSH2 0x2ABD JUMP JUMPDEST JUMPDEST PUSH1 0x20 ADD ADD MLOAD PUSH1 0xF8 SHR PUSH1 0xF8 SHL AND PUSH1 0xF8 SHR PUSH1 0xFF AND DUP2 MLOAD DUP2 LT PUSH2 0x1487 JUMPI PUSH2 0x1486 PUSH2 0x2ABD JUMP JUMPDEST JUMPDEST PUSH1 0x20 ADD ADD MLOAD PUSH1 0xF8 SHR PUSH1 0xF8 SHL DUP3 PUSH1 0x2 DUP4 PUSH2 0x14A0 SWAP2 SWAP1 PUSH2 0x2A47 JUMP JUMPDEST PUSH1 0x3 PUSH2 0x14AC SWAP2 SWAP1 PUSH2 0x2A89 JUMP JUMPDEST DUP2 MLOAD DUP2 LT PUSH2 0x14BD JUMPI PUSH2 0x14BC PUSH2 0x2ABD JUMP JUMPDEST JUMPDEST PUSH1 0x20 ADD ADD SWAP1 PUSH31 0xFFFFFFFFFFFFFFFFFFFFFFFFFFFFFFFFFFFFFFFFFFFFFFFFFFFFFFFFFFFFFF NOT AND SWAP1 DUP2 PUSH1 0x0 BYTE SWAP1 MSTORE8 POP DUP1 DUP1 PUSH1 0x1 ADD SWAP2 POP POP PUSH2 0x1381 JUMP JUMPDEST POP DUP1 SWAP3 POP POP POP SWAP2 SWAP1 POP JUMP JUMPDEST PUSH1 0x60 DUP2 ISZERO PUSH2 0x1549 JUMPI PUSH1 0x40 MLOAD DUP1 PUSH1 0x40 ADD PUSH1 0x40 MSTORE DUP1 PUSH1 0x4 DUP2 MSTORE PUSH1 0x20 ADD PUSH32 0x7472756500000000000000000000000000000000000000000000000000000000 DUP2 MSTORE POP SWAP1 POP PUSH2 0x1582 JUMP JUMPDEST PUSH1 0x40 MLOAD DUP1 PUSH1 0x40 ADD PUSH1 0x40 MSTORE DUP1 PUSH1 0x5 DUP2 MSTORE PUSH1 0x20 ADD PUSH32 0x66616C7365000000000000000000000000000000000000000000000000000000 DUP2 MSTORE POP SWAP1 POP JUMPDEST SWAP2 SWAP1 POP JUMP JUMPDEST PUSH1 0x0 PUSH1 0x7 PUSH1 0x0 SWAP1 SLOAD SWAP1 PUSH2 0x100 EXP SWAP1 DIV PUSH1 0xFF AND SWAP1 POP SWAP1 JUMP JUMPDEST PUSH1 0x1 DUP1 PUSH2 0x15A9 PUSH2 0x1D8E JUMP JUMPDEST EQ PUSH2 0x15E9 JUMPI PUSH1 0x40 MLOAD PUSH32 0x8C379A000000000000000000000000000000000000000000000000000000000 DUP2 MSTORE PUSH1 0x4 ADD PUSH2 0x15E0 SWAP1 PUSH2 0x27A7 JUMP JUMPDEST PUSH1 0x40 MLOAD DUP1 SWAP2 SUB SWAP1 REVERT JUMPDEST DUP2 PUSH1 0x6 SWAP1 DUP2 PUSH2 0x15F8 SWAP2 SWAP1 PUSH2 0x2C98 JUMP JUMPDEST POP POP POP JUMP JUMPDEST PUSH1 0x60 PUSH1 0x0 PUSH2 0x1609 PUSH2 0x1BAA JUMP JUMPDEST SWAP1 POP PUSH1 0x0 PUSH2 0x1615 PUSH2 0x911 JUMP JUMPDEST SWAP1 POP PUSH1 0x0 PUSH2 0x1621 PUSH2 0xE05 JUMP JUMPDEST SWAP1 POP DUP3 DUP3 DUP3 PUSH1 0x40 MLOAD PUSH1 0x20 ADD PUSH2 0x1638 SWAP4 SWAP3 SWAP2 SWAP1 PUSH2 0x24B4 JUMP JUMPDEST PUSH1 0x40 MLOAD PUSH1 0x20 DUP2 DUP4 SUB SUB DUP2 MSTORE SWAP1 PUSH1 0x40 MSTORE SWAP4 POP POP POP POP SWAP1 JUMP JUMPDEST PUSH1 0x2 DUP2 DUP2 DUP2 LT PUSH2 0x1694 JUMPI PUSH1 0x40 MLOAD PUSH32 0x8C379A000000000000000000000000000000000000000000000000000000000 DUP2 MSTORE PUSH1 0x4 ADD PUSH2 0x168B SWAP1 PUSH2 0x273B JUMP JUMPDEST PUSH1 0x40 MLOAD DUP1 SWAP2 SUB SWAP1 REVERT JUMPDEST PUSH1 0x1 DUP1 PUSH2 0x169F PUSH2 0x1D8E JUMP JUMPDEST EQ PUSH2 0x16DF JUMPI PUSH1 0x40 MLOAD PUSH32 0x8C379A000000000000000000000000000000000000000000000000000000000 DUP2 MSTORE PUSH1 0x4 ADD PUSH2 0x16D6 SWAP1 PUSH2 0x27A7 JUMP JUMPDEST PUSH1 0x40 MLOAD DUP1 SWAP2 SUB SWAP1 REVERT JUMPDEST PUSH1 0x0 DUP5 SUB PUSH2 0x1717 JUMPI PUSH1 0x0 PUSH1 0x7 PUSH1 0x2 PUSH2 0x100 EXP DUP2 SLOAD DUP2 PUSH1 0xFF MUL NOT AND SWAP1 DUP4 PUSH1 0x1 DUP2 GT ISZERO PUSH2 0x170D JUMPI PUSH2 0x170C PUSH2 0x2319 JUMP JUMPDEST JUMPDEST MUL OR SWAP1 SSTORE POP PUSH2 0x1743 JUMP JUMPDEST PUSH1 0x1 PUSH1 0x7 PUSH1 0x2 PUSH2 0x100 EXP DUP2 SLOAD DUP2 PUSH1 0xFF MUL NOT AND SWAP1 DUP4 PUSH1 0x1 DUP2 GT ISZERO PUSH2 0x173D JUMPI PUSH2 0x173C PUSH2 0x2319 JUMP JUMPDEST JUMPDEST MUL OR SWAP1 SSTORE POP JUMPDEST POP POP POP POP JUMP JUMPDEST PUSH1 0x60 PUSH2 0x1773 DUP3 PUSH1 0x40 MLOAD PUSH1 0x20 ADD PUSH2 0x175F SWAP2 SWAP1 PUSH2 0x2D8B JUMP JUMPDEST PUSH1 0x40 MLOAD PUSH1 0x20 DUP2 DUP4 SUB SUB DUP2 MSTORE SWAP1 PUSH1 0x40 MSTORE PUSH2 0x1210 JUMP JUMPDEST SWAP1 POP SWAP2 SWAP1 POP JUMP JUMPDEST PUSH1 0x60 PUSH1 0x0 PUSH1 0x4 DUP2 GT ISZERO PUSH2 0x1790 JUMPI PUSH2 0x178F PUSH2 0x2319 JUMP JUMPDEST JUMPDEST PUSH1 0x7 PUSH1 0x5 SWAP1 SLOAD SWAP1 PUSH2 0x100 EXP SWAP1 DIV PUSH1 0xFF AND PUSH1 0x4 DUP2 GT ISZERO PUSH2 0x17B2 JUMPI PUSH2 0x17B1 PUSH2 0x2319 JUMP JUMPDEST JUMPDEST SUB PUSH2 0x17F4 JUMPI PUSH1 0x40 MLOAD DUP1 PUSH1 0x40 ADD PUSH1 0x40 MSTORE DUP1 PUSH1 0x7 DUP2 MSTORE PUSH1 0x20 ADD PUSH32 0x646566696E656400000000000000000000000000000000000000000000000000 DUP2 MSTORE POP SWAP1 POP PUSH2 0x1995 JUMP JUMPDEST PUSH1 0x1 PUSH1 0x4 DUP2 GT ISZERO PUSH2 0x1808 JUMPI PUSH2 0x1807 PUSH2 0x2319 JUMP JUMPDEST JUMPDEST PUSH1 0x7 PUSH1 0x5 SWAP1 SLOAD SWAP1 PUSH2 0x100 EXP SWAP1 DIV PUSH1 0xFF AND PUSH1 0x4 DUP2 GT ISZERO PUSH2 0x182A JUMPI PUSH2 0x1829 PUSH2 0x2319 JUMP JUMPDEST JUMPDEST SUB PUSH2 0x186C JUMPI PUSH1 0x40 MLOAD DUP1 PUSH1 0x40 ADD PUSH1 0x40 MSTORE DUP1 PUSH1 0x7 DUP2 MSTORE PUSH1 0x20 ADD PUSH32 0x726566696E656400000000000000000000000000000000000000000000000000 DUP2 MSTORE POP SWAP1 POP PUSH2 0x1995 JUMP JUMPDEST PUSH1 0x2 PUSH1 0x4 DUP2 GT ISZERO PUSH2 0x1880 JUMPI PUSH2 0x187F PUSH2 0x2319 JUMP JUMPDEST JUMPDEST PUSH1 0x7 PUSH1 0x5 SWAP1 SLOAD SWAP1 PUSH2 0x100 EXP SWAP1 DIV PUSH1 0xFF AND PUSH1 0x4 DUP2 GT ISZERO PUSH2 0x18A2 JUMPI PUSH2 0x18A1 PUSH2 0x2319 JUMP JUMPDEST JUMPDEST SUB PUSH2 0x18E4 JUMPI PUSH1 0x40 MLOAD DUP1 PUSH1 0x40 ADD PUSH1 0x40 MSTORE DUP1 PUSH1 0x8 DUP2 MSTORE PUSH1 0x20 ADD PUSH32 0x7665726966696564000000000000000000000000000000000000000000000000 DUP2 MSTORE POP SWAP1 POP PUSH2 0x1995 JUMP JUMPDEST PUSH1 0x3 PUSH1 0x4 DUP2 GT ISZERO PUSH2 0x18F8 JUMPI PUSH2 0x18F7 PUSH2 0x2319 JUMP JUMPDEST JUMPDEST PUSH1 0x7 PUSH1 0x5 SWAP1 SLOAD SWAP1 PUSH2 0x100 EXP SWAP1 DIV PUSH1 0xFF AND PUSH1 0x4 DUP2 GT ISZERO PUSH2 0x191A JUMPI PUSH2 0x1919 PUSH2 0x2319 JUMP JUMPDEST JUMPDEST SUB PUSH2 0x195C JUMPI PUSH1 0x40 MLOAD DUP1 PUSH1 0x40 ADD PUSH1 0x40 MSTORE DUP1 PUSH1 0x9 DUP2 MSTORE PUSH1 0x20 ADD PUSH32 0x56616C6964617465640000000000000000000000000000000000000000000000 DUP2 MSTORE POP SWAP1 POP PUSH2 0x1995 JUMP JUMPDEST PUSH1 0x40 MLOAD DUP1 PUSH1 0x40 ADD PUSH1 0x40 MSTORE DUP1 PUSH1 0x8 DUP2 MSTORE PUSH1 0x20 ADD PUSH32 0x66696E6973686564000000000000000000000000000000000000000000000000 DUP2 MSTORE POP SWAP1 POP JUMPDEST SWAP1 JUMP JUMPDEST PUSH1 0x60 PUSH1 0x0 PUSH1 0x1 DUP2 GT ISZERO PUSH2 0x19AE JUMPI PUSH2 0x19AD PUSH2 0x2319 JUMP JUMPDEST JUMPDEST PUSH1 0x7 PUSH1 0x2 SWAP1 SLOAD SWAP1 PUSH2 0x100 EXP SWAP1 DIV PUSH1 0xFF AND PUSH1 0x1 DUP2 GT ISZERO PUSH2 0x19D0 JUMPI PUSH2 0x19CF PUSH2 0x2319 JUMP JUMPDEST JUMPDEST SUB PUSH2 0x1A12 JUMPI PUSH1 0x40 MLOAD DUP1 PUSH1 0x40 ADD PUSH1 0x40 MSTORE DUP1 PUSH1 0xA DUP2 MSTORE PUSH1 0x20 ADD PUSH32 0x66756E6374696F6E616C00000000000000000000000000000000000000000000 DUP2 MSTORE POP SWAP1 POP PUSH2 0x1A4B JUMP JUMPDEST PUSH1 0x40 MLOAD DUP1 PUSH1 0x40 ADD PUSH1 0x40 MSTORE DUP1 PUSH1 0xE DUP2 MSTORE PUSH1 0x20 ADD PUSH32 0x4E6F6E2D46756E6374696F6E616C000000000000000000000000000000000000 DUP2 MSTORE POP SWAP1 POP JUMPDEST SWAP1 JUMP JUMPDEST PUSH1 0x0 PUSH1 0x7 PUSH1 0x3 SWAP1 SLOAD SWAP1 PUSH2 0x100 EXP SWAP1 DIV PUSH1 0xFF AND PUSH1 0x2 DUP2 GT ISZERO PUSH2 0x1A72 JUMPI PUSH2 0x1A71 PUSH2 0x2319 JUMP JUMPDEST JUMPDEST SWAP1 POP SWAP1 JUMP JUMPDEST PUSH1 0x3 DUP2 DUP2 DUP2 LT PUSH2 0x1ABC JUMPI PUSH1 0x40 MLOAD PUSH32 0x8C379A000000000000000000000000000000000000000000000000000000000 DUP2 MSTORE PUSH1 0x4 ADD PUSH2 0x1AB3 SWAP1 PUSH2 0x273B JUMP JUMPDEST PUSH1 0x40 MLOAD DUP1 SWAP2 SUB SWAP1 REVERT JUMPDEST PUSH1 0x1 DUP1 PUSH2 0x1AC7 PUSH2 0x1D8E JUMP JUMPDEST EQ PUSH2 0x1B07 JUMPI PUSH1 0x40 MLOAD PUSH32 0x8C379A000000000000000000000000000000000000000000000000000000000 DUP2 MSTORE PUSH1 0x4 ADD PUSH2 0x1AFE SWAP1 PUSH2 0x27A7 JUMP JUMPDEST PUSH1 0x40 MLOAD DUP1 SWAP2 SUB SWAP1 REVERT JUMPDEST PUSH1 0x0 DUP5 SUB PUSH2 0x1B3F JUMPI PUSH1 0x0 PUSH1 0x7 PUSH1 0x4 PUSH2 0x100 EXP DUP2 SLOAD DUP2 PUSH1 0xFF MUL NOT AND SWAP1 DUP4 PUSH1 0x2 DUP2 GT ISZERO PUSH2 0x1B35 JUMPI PUSH2 0x1B34 PUSH2 0x2319 JUMP JUMPDEST JUMPDEST MUL OR SWAP1 SSTORE POP PUSH2 0x1BA4 JUMP JUMPDEST PUSH1 0x1 DUP5 SUB PUSH2 0x1B77 JUMPI PUSH1 0x1 PUSH1 0x7 PUSH1 0x4 PUSH2 0x100 EXP DUP2 SLOAD DUP2 PUSH1 0xFF MUL NOT AND SWAP1 DUP4 PUSH1 0x2 DUP2 GT ISZERO PUSH2 0x1B6D JUMPI PUSH2 0x1B6C PUSH2 0x2319 JUMP JUMPDEST JUMPDEST MUL OR SWAP1 SSTORE POP PUSH2 0x1BA3 JUMP JUMPDEST PUSH1 0x2 PUSH1 0x7 PUSH1 0x4 PUSH2 0x100 EXP DUP2 SLOAD DUP2 PUSH1 0xFF MUL NOT AND SWAP1 DUP4 PUSH1 0x2 DUP2 GT ISZERO PUSH2 0x1B9D JUMPI PUSH2 0x1B9C PUSH2 0x2319 JUMP JUMPDEST JUMPDEST MUL OR SWAP1 SSTORE POP JUMPDEST JUMPDEST POP POP POP POP JUMP JUMPDEST PUSH1 0x60 PUSH1 0x0 PUSH2 0x1BB9 PUSH1 0x0 SLOAD PUSH2 0x1126 JUMP JUMPDEST SWAP1 POP DUP1 PUSH1 0x40 MLOAD PUSH1 0x20 ADD PUSH2 0x1BCC SWAP2 SWAP1 PUSH2 0x2DCC JUMP JUMPDEST PUSH1 0x40 MLOAD PUSH1 0x20 DUP2 DUP4 SUB SUB DUP2 MSTORE SWAP1 PUSH1 0x40 MSTORE SWAP1 POP PUSH1 0x0 PUSH1 0x1 PUSH1 0x40 MLOAD PUSH1 0x20 ADD PUSH2 0x1BF1 SWAP2 SWAP1 PUSH2 0x2EAA JUMP JUMPDEST PUSH1 0x40 MLOAD PUSH1 0x20 DUP2 DUP4 SUB SUB DUP2 MSTORE SWAP1 PUSH1 0x40 MSTORE SWAP1 POP PUSH1 0x0 PUSH1 0x6 PUSH1 0x40 MLOAD PUSH1 0x20 ADD PUSH2 0x1C16 SWAP2 SWAP1 PUSH2 0x2F05 JUMP JUMPDEST PUSH1 0x40 MLOAD PUSH1 0x20 DUP2 DUP4 SUB SUB DUP2 MSTORE SWAP1 PUSH1 0x40 MSTORE SWAP1 POP PUSH1 0x0 PUSH2 0x1C41 PUSH1 0x7 PUSH1 0x1 SWAP1 SLOAD SWAP1 PUSH2 0x100 EXP SWAP1 DIV PUSH1 0xFF AND PUSH2 0x1504 JUMP JUMPDEST SWAP1 POP DUP1 PUSH1 0x40 MLOAD PUSH1 0x20 ADD PUSH2 0x1C54 SWAP2 SWAP1 PUSH2 0x2F60 JUMP JUMPDEST PUSH1 0x40 MLOAD PUSH1 0x20 DUP2 DUP4 SUB SUB DUP2 MSTORE SWAP1 PUSH1 0x40 MSTORE SWAP1 POP PUSH1 0x0 PUSH2 0x1C7F PUSH1 0x7 PUSH1 0x0 SWAP1 SLOAD SWAP1 PUSH2 0x100 EXP SWAP1 DIV PUSH1 0xFF AND PUSH2 0x1504 JUMP JUMPDEST SWAP1 POP DUP1 PUSH1 0x40 MLOAD PUSH1 0x20 ADD PUSH2 0x1C92 SWAP2 SWAP1 PUSH2 0x2FBB JUMP JUMPDEST PUSH1 0x40 MLOAD PUSH1 0x20 DUP2 DUP4 SUB SUB DUP2 MSTORE SWAP1 PUSH1 0x40 MSTORE SWAP1 POP DUP5 DUP5 DUP5 DUP4 DUP6 PUSH1 0x40 MLOAD PUSH1 0x20 ADD PUSH2 0x1CBC SWAP6 SWAP5 SWAP4 SWAP3 SWAP2 SWAP1 PUSH2 0x2FF0 JUMP JUMPDEST PUSH1 0x40 MLOAD PUSH1 0x20 DUP2 DUP4 SUB SUB DUP2 MSTORE SWAP1 PUSH1 0x40 MSTORE SWAP6 POP POP POP POP POP POP SWAP1 JUMP JUMPDEST PUSH1 0x7 PUSH1 0x0 SWAP1 SLOAD SWAP1 PUSH2 0x100 EXP SWAP1 DIV PUSH1 0xFF AND ISZERO PUSH2 0x1D25 JUMPI PUSH1 0x40 MLOAD PUSH32 0x8C379A000000000000000000000000000000000000000000000000000000000 DUP2 MSTORE PUSH1 0x4 ADD PUSH2 0x1D1C SWAP1 PUSH2 0x3087 JUMP JUMPDEST PUSH1 0x40 MLOAD DUP1 SWAP2 SUB SWAP1 REVERT JUMPDEST PUSH1 0x2 DUP1 PUSH2 0x1D30 PUSH2 0x1D8E JUMP JUMPDEST EQ PUSH2 0x1D70 JUMPI PUSH1 0x40 MLOAD PUSH32 0x8C379A000000000000000000000000000000000000000000000000000000000 DUP2 MSTORE PUSH1 0x4 ADD PUSH2 0x1D67 SWAP1 PUSH2 0x27A7 JUMP JUMPDEST PUSH1 0x40 MLOAD DUP1 SWAP2 SUB SWAP1 REVERT JUMPDEST PUSH1 0x1 PUSH1 0x7 PUSH1 0x0 PUSH2 0x100 EXP DUP2 SLOAD DUP2 PUSH1 0xFF MUL NOT AND SWAP1 DUP4 ISZERO ISZERO MUL OR SWAP1 SSTORE POP POP JUMP JUMPDEST PUSH1 0x0 PUSH1 0x7 PUSH1 0x5 SWAP1 SLOAD SWAP1 PUSH2 0x100 EXP SWAP1 DIV PUSH1 0xFF AND PUSH1 0x4 DUP2 GT ISZERO PUSH2 0x1DB2 JUMPI PUSH2 0x1DB1 PUSH2 0x2319 JUMP JUMPDEST JUMPDEST SWAP1 POP SWAP1 JUMP JUMPDEST PUSH1 0x0 DUP2 SWAP1 POP SWAP2 SWAP1 POP JUMP JUMPDEST PUSH2 0x1DCA DUP2 PUSH2 0x1DB7 JUMP JUMPDEST DUP3 MSTORE POP POP JUMP JUMPDEST PUSH1 0x0 PUSH1 0x20 DUP3 ADD SWAP1 POP PUSH2 0x1DE5 PUSH1 0x0 DUP4 ADD DUP5 PUSH2 0x1DC1 JUMP JUMPDEST SWAP3 SWAP2 POP POP JUMP JUMPDEST PUSH1 0x0 DUP2 MLOAD SWAP1 POP SWAP2 SWAP1 POP JUMP JUMPDEST PUSH1 0x0 DUP3 DUP3 MSTORE PUSH1 0x20 DUP3 ADD SWAP1 POP SWAP3 SWAP2 POP POP JUMP JUMPDEST PUSH1 0x0 JUMPDEST DUP4 DUP2 LT ISZERO PUSH2 0x1E25 JUMPI DUP1 DUP3 ADD MLOAD DUP2 DUP5 ADD MSTORE PUSH1 0x20 DUP2 ADD SWAP1 POP PUSH2 0x1E0A JUMP JUMPDEST PUSH1 0x0 DUP5 DUP5 ADD MSTORE POP POP POP POP JUMP JUMPDEST PUSH1 0x0 PUSH1 0x1F NOT PUSH1 0x1F DUP4 ADD AND SWAP1 POP SWAP2 SWAP1 POP JUMP JUMPDEST PUSH1 0x0 PUSH2 0x1E4D DUP3 PUSH2 0x1DEB JUMP JUMPDEST PUSH2 0x1E57 DUP2 DUP6 PUSH2 0x1DF6 JUMP JUMPDEST SWAP4 POP PUSH2 0x1E67 DUP2 DUP6 PUSH1 0x20 DUP7 ADD PUSH2 0x1E07 JUMP JUMPDEST PUSH2 0x1E70 DUP2 PUSH2 0x1E31 JUMP JUMPDEST DUP5 ADD SWAP2 POP POP SWAP3 SWAP2 POP POP JUMP JUMPDEST PUSH1 0x0 PUSH1 0x20 DUP3 ADD SWAP1 POP DUP2 DUP2 SUB PUSH1 0x0 DUP4 ADD MSTORE PUSH2 0x1E95 DUP2 DUP5 PUSH2 0x1E42 JUMP JUMPDEST SWAP1 POP SWAP3 SWAP2 POP POP JUMP JUMPDEST PUSH1 0x0 PUSH20 0xFFFFFFFFFFFFFFFFFFFFFFFFFFFFFFFFFFFFFFFF DUP3 AND SWAP1 POP SWAP2 SWAP1 POP JUMP JUMPDEST PUSH1 0x0 PUSH2 0x1EC8 DUP3 PUSH2 0x1E9D JUMP JUMPDEST SWAP1 POP SWAP2 SWAP1 POP JUMP JUMPDEST PUSH2 0x1ED8 DUP2 PUSH2 0x1EBD JUMP JUMPDEST DUP3 MSTORE POP POP JUMP JUMPDEST PUSH1 0x0 PUSH1 0x20 DUP3 ADD SWAP1 POP PUSH2 0x1EF3 PUSH1 0x0 DUP4 ADD DUP5 PUSH2 0x1ECF JUMP JUMPDEST SWAP3 SWAP2 POP POP JUMP JUMPDEST PUSH1 0x0 PUSH1 0x40 MLOAD SWAP1 POP SWAP1 JUMP JUMPDEST PUSH1 0x0 DUP1 REVERT JUMPDEST PUSH1 0x0 DUP1 REVERT JUMPDEST PUSH2 0x1F16 DUP2 PUSH2 0x1DB7 JUMP JUMPDEST DUP2 EQ PUSH2 0x1F21 JUMPI PUSH1 0x0 DUP1 REVERT JUMPDEST POP JUMP JUMPDEST PUSH1 0x0 DUP2 CALLDATALOAD SWAP1 POP PUSH2 0x1F33 DUP2 PUSH2 0x1F0D JUMP JUMPDEST SWAP3 SWAP2 POP POP JUMP JUMPDEST PUSH1 0x0 PUSH1 0x20 DUP3 DUP5 SUB SLT ISZERO PUSH2 0x1F4F JUMPI PUSH2 0x1F4E PUSH2 0x1F03 JUMP JUMPDEST JUMPDEST PUSH1 0x0 PUSH2 0x1F5D DUP5 DUP3 DUP6 ADD PUSH2 0x1F24 JUMP JUMPDEST SWAP2 POP POP SWAP3 SWAP2 POP POP JUMP JUMPDEST PUSH1 0x0 DUP2 ISZERO ISZERO SWAP1 POP SWAP2 SWAP1 POP JUMP JUMPDEST PUSH2 0x1F7B DUP2 PUSH2 0x1F66 JUMP JUMPDEST DUP3 MSTORE POP POP JUMP JUMPDEST PUSH1 0x0 PUSH1 0x20 DUP3 ADD SWAP1 POP PUSH2 0x1F96 PUSH1 0x0 DUP4 ADD DUP5 PUSH2 0x1F72 JUMP JUMPDEST SWAP3 SWAP2 POP POP JUMP JUMPDEST PUSH2 0x1FA5 DUP2 PUSH2 0x1EBD JUMP JUMPDEST DUP2 EQ PUSH2 0x1FB0 JUMPI PUSH1 0x0 DUP1 REVERT JUMPDEST POP JUMP JUMPDEST PUSH1 0x0 DUP2 CALLDATALOAD SWAP1 POP PUSH2 0x1FC2 DUP2 PUSH2 0x1F9C JUMP JUMPDEST SWAP3 SWAP2 POP POP JUMP JUMPDEST PUSH1 0x0 PUSH1 0x20 DUP3 DUP5 SUB SLT ISZERO PUSH2 0x1FDE JUMPI PUSH2 0x1FDD PUSH2 0x1F03 JUMP JUMPDEST JUMPDEST PUSH1 0x0 PUSH2 0x1FEC DUP5 DUP3 DUP6 ADD PUSH2 0x1FB3 JUMP JUMPDEST SWAP2 POP POP SWAP3 SWAP2 POP POP JUMP JUMPDEST PUSH1 0x0 DUP1 REVERT JUMPDEST PUSH1 0x0 DUP1 REVERT JUMPDEST PUSH32 0x4E487B7100000000000000000000000000000000000000000000000000000000 PUSH1 0x0 MSTORE PUSH1 0x41 PUSH1 0x4 MSTORE PUSH1 0x24 PUSH1 0x0 REVERT JUMPDEST PUSH2 0x2037 DUP3 PUSH2 0x1E31 JUMP JUMPDEST DUP2 ADD DUP2 DUP2 LT PUSH8 0xFFFFFFFFFFFFFFFF DUP3 GT OR ISZERO PUSH2 0x2056 JUMPI PUSH2 0x2055 PUSH2 0x1FFF JUMP JUMPDEST JUMPDEST DUP1 PUSH1 0x40 MSTORE POP POP POP JUMP JUMPDEST PUSH1 0x0 PUSH2 0x2069 PUSH2 0x1EF9 JUMP JUMPDEST SWAP1 POP PUSH2 0x2075 DUP3 DUP3 PUSH2 0x202E JUMP JUMPDEST SWAP2 SWAP1 POP JUMP JUMPDEST PUSH1 0x0 PUSH8 0xFFFFFFFFFFFFFFFF DUP3 GT ISZERO PUSH2 0x2095 JUMPI PUSH2 0x2094 PUSH2 0x1FFF JUMP JUMPDEST JUMPDEST PUSH2 0x209E DUP3 PUSH2 0x1E31 JUMP JUMPDEST SWAP1 POP PUSH1 0x20 DUP2 ADD SWAP1 POP SWAP2 SWAP1 POP JUMP JUMPDEST DUP3 DUP2 DUP4 CALLDATACOPY PUSH1 0x0 DUP4 DUP4 ADD MSTORE POP POP POP JUMP JUMPDEST PUSH1 0x0 PUSH2 0x20CD PUSH2 0x20C8 DUP5 PUSH2 0x207A JUMP JUMPDEST PUSH2 0x205F JUMP JUMPDEST SWAP1 POP DUP3 DUP2 MSTORE PUSH1 0x20 DUP2 ADD DUP5 DUP5 DUP5 ADD GT ISZERO PUSH2 0x20E9 JUMPI PUSH2 0x20E8 PUSH2 0x1FFA JUMP JUMPDEST JUMPDEST PUSH2 0x20F4 DUP5 DUP3 DUP6 PUSH2 0x20AB JUMP JUMPDEST POP SWAP4 SWAP3 POP POP POP JUMP JUMPDEST PUSH1 0x0 DUP3 PUSH1 0x1F DUP4 ADD SLT PUSH2 0x2111 JUMPI PUSH2 0x2110 PUSH2 0x1FF5 JUMP JUMPDEST JUMPDEST DUP2 CALLDATALOAD PUSH2 0x2121 DUP5 DUP3 PUSH1 0x20 DUP7 ADD PUSH2 0x20BA JUMP JUMPDEST SWAP2 POP POP SWAP3 SWAP2 POP POP JUMP JUMPDEST PUSH1 0x0 PUSH1 0x20 DUP3 DUP5 SUB SLT ISZERO PUSH2 0x2140 JUMPI PUSH2 0x213F PUSH2 0x1F03 JUMP JUMPDEST JUMPDEST PUSH1 0x0 DUP3 ADD CALLDATALOAD PUSH8 0xFFFFFFFFFFFFFFFF DUP2 GT ISZERO PUSH2 0x215E JUMPI PUSH2 0x215D PUSH2 0x1F08 JUMP JUMPDEST JUMPDEST PUSH2 0x216A DUP5 DUP3 DUP6 ADD PUSH2 0x20FC JUMP JUMPDEST SWAP2 POP POP SWAP3 SWAP2 POP POP JUMP JUMPDEST PUSH2 0x217C DUP2 PUSH2 0x1F66 JUMP JUMPDEST DUP2 EQ PUSH2 0x2187 JUMPI PUSH1 0x0 DUP1 REVERT JUMPDEST POP JUMP JUMPDEST PUSH1 0x0 DUP2 CALLDATALOAD SWAP1 POP PUSH2 0x2199 DUP2 PUSH2 0x2173 JUMP JUMPDEST SWAP3 SWAP2 POP POP JUMP JUMPDEST PUSH1 0x0 PUSH1 0x20 DUP3 DUP5 SUB SLT ISZERO PUSH2 0x21B5 JUMPI PUSH2 0x21B4 PUSH2 0x1F03 JUMP JUMPDEST JUMPDEST PUSH1 0x0 PUSH2 0x21C3 DUP5 DUP3 DUP6 ADD PUSH2 0x218A JUMP JUMPDEST SWAP2 POP POP SWAP3 SWAP2 POP POP JUMP JUMPDEST PUSH1 0x0 PUSH8 0xFFFFFFFFFFFFFFFF DUP3 GT ISZERO PUSH2 0x21E7 JUMPI PUSH2 0x21E6 PUSH2 0x1FFF JUMP JUMPDEST JUMPDEST PUSH2 0x21F0 DUP3 PUSH2 0x1E31 JUMP JUMPDEST SWAP1 POP PUSH1 0x20 DUP2 ADD SWAP1 POP SWAP2 SWAP1 POP JUMP JUMPDEST PUSH1 0x0 PUSH2 0x2210 PUSH2 0x220B DUP5 PUSH2 0x21CC JUMP JUMPDEST PUSH2 0x205F JUMP JUMPDEST SWAP1 POP DUP3 DUP2 MSTORE PUSH1 0x20 DUP2 ADD DUP5 DUP5 DUP5 ADD GT ISZERO PUSH2 0x222C JUMPI PUSH2 0x222B PUSH2 0x1FFA JUMP JUMPDEST JUMPDEST PUSH2 0x2237 DUP5 DUP3 DUP6 PUSH2 0x20AB JUMP JUMPDEST POP SWAP4 SWAP3 POP POP POP JUMP JUMPDEST PUSH1 0x0 DUP3 PUSH1 0x1F DUP4 ADD SLT PUSH2 0x2254 JUMPI PUSH2 0x2253 PUSH2 0x1FF5 JUMP JUMPDEST JUMPDEST DUP2 CALLDATALOAD PUSH2 0x2264 DUP5 DUP3 PUSH1 0x20 DUP7 ADD PUSH2 0x21FD JUMP JUMPDEST SWAP2 POP POP SWAP3 SWAP2 POP POP JUMP JUMPDEST PUSH1 0x0 PUSH1 0x20 DUP3 DUP5 SUB SLT ISZERO PUSH2 0x2283 JUMPI PUSH2 0x2282 PUSH2 0x1F03 JUMP JUMPDEST JUMPDEST PUSH1 0x0 DUP3 ADD CALLDATALOAD PUSH8 0xFFFFFFFFFFFFFFFF DUP2 GT ISZERO PUSH2 0x22A1 JUMPI PUSH2 0x22A0 PUSH2 0x1F08 JUMP JUMPDEST JUMPDEST PUSH2 0x22AD DUP5 DUP3 DUP6 ADD PUSH2 0x223F JUMP JUMPDEST SWAP2 POP POP SWAP3 SWAP2 POP POP JUMP JUMPDEST PUSH1 0x0 DUP2 SWAP1 POP SWAP2 SWAP1 POP JUMP JUMPDEST PUSH2 0x22C9 DUP2 PUSH2 0x22B6 JUMP JUMPDEST DUP2 EQ PUSH2 0x22D4 JUMPI PUSH1 0x0 DUP1 REVERT JUMPDEST POP JUMP JUMPDEST PUSH1 0x0 DUP2 CALLDATALOAD SWAP1 POP PUSH2 0x22E6 DUP2 PUSH2 0x22C0 JUMP JUMPDEST SWAP3 SWAP2 POP POP JUMP JUMPDEST PUSH1 0x0 PUSH1 0x20 DUP3 DUP5 SUB SLT ISZERO PUSH2 0x2302 JUMPI PUSH2 0x2301 PUSH2 0x1F03 JUMP JUMPDEST JUMPDEST PUSH1 0x0 PUSH2 0x2310 DUP5 DUP3 DUP6 ADD PUSH2 0x22D7 JUMP JUMPDEST SWAP2 POP POP SWAP3 SWAP2 POP POP JUMP JUMPDEST PUSH32 0x4E487B7100000000000000000000000000000000000000000000000000000000 PUSH1 0x0 MSTORE PUSH1 0x21 PUSH1 0x4 MSTORE PUSH1 0x24 PUSH1 0x0 REVERT JUMPDEST PUSH32 0x63726561746F723A200000000000000000000000000000000000000000000000 DUP2 MSTORE POP JUMP JUMPDEST PUSH1 0x0 DUP2 SWAP1 POP SWAP3 SWAP2 POP POP JUMP JUMPDEST PUSH1 0x0 PUSH2 0x2384 DUP3 PUSH2 0x1DEB JUMP JUMPDEST PUSH2 0x238E DUP2 DUP6 PUSH2 0x236E JUMP JUMPDEST SWAP4 POP PUSH2 0x239E DUP2 DUP6 PUSH1 0x20 DUP7 ADD PUSH2 0x1E07 JUMP JUMPDEST DUP1 DUP5 ADD SWAP2 POP POP SWAP3 SWAP2 POP POP JUMP JUMPDEST PUSH1 0x0 PUSH2 0x23B5 DUP3 PUSH2 0x2348 JUMP JUMPDEST PUSH1 0x9 DUP3 ADD SWAP2 POP PUSH2 0x23C5 DUP3 DUP5 PUSH2 0x2379 JUMP JUMPDEST SWAP2 POP DUP2 SWAP1 POP SWAP3 SWAP2 POP POP JUMP JUMPDEST PUSH32 0x202D2D2D20000000000000000000000000000000000000000000000000000000 DUP2 MSTORE POP JUMP JUMPDEST PUSH1 0x0 PUSH2 0x2402 DUP3 DUP5 PUSH2 0x2379 JUMP JUMPDEST SWAP2 POP PUSH2 0x240D DUP3 PUSH2 0x23D0 JUMP JUMPDEST PUSH1 0x5 DUP3 ADD SWAP2 POP DUP2 SWAP1 POP SWAP3 SWAP2 POP POP JUMP JUMPDEST PUSH32 0x526571756972656D656E7420456E67696E6565723A2000000000000000000000 DUP2 MSTORE POP JUMP JUMPDEST PUSH1 0x0 PUSH2 0x244D DUP3 PUSH2 0x241C JUMP JUMPDEST PUSH1 0x16 DUP3 ADD SWAP2 POP PUSH2 0x245D DUP3 DUP5 PUSH2 0x2379 JUMP JUMPDEST SWAP2 POP DUP2 SWAP1 POP SWAP3 SWAP2 POP POP JUMP JUMPDEST PUSH32 0x526571756972656D656E7420416E616C7973743A200000000000000000000000 DUP2 MSTORE POP JUMP JUMPDEST PUSH1 0x0 PUSH2 0x2499 DUP3 PUSH2 0x2468 JUMP JUMPDEST PUSH1 0x15 DUP3 ADD SWAP2 POP PUSH2 0x24A9 DUP3 DUP5 PUSH2 0x2379 JUMP JUMPDEST SWAP2 POP DUP2 SWAP1 POP SWAP3 SWAP2 POP POP JUMP JUMPDEST PUSH1 0x0 PUSH2 0x24C0 DUP3 DUP7 PUSH2 0x2379 JUMP JUMPDEST SWAP2 POP PUSH2 0x24CC DUP3 DUP6 PUSH2 0x2379 JUMP JUMPDEST SWAP2 POP PUSH2 0x24D8 DUP3 DUP5 PUSH2 0x2379 JUMP JUMPDEST SWAP2 POP DUP2 SWAP1 POP SWAP5 SWAP4 POP POP POP POP JUMP JUMPDEST PUSH32 0x747970653A000000000000000000000000000000000000000000000000000000 DUP2 MSTORE POP JUMP JUMPDEST PUSH1 0x0 PUSH2 0x2516 DUP3 PUSH2 0x24E5 JUMP JUMPDEST PUSH1 0x5 DUP3 ADD SWAP2 POP PUSH2 0x2526 DUP3 DUP5 PUSH2 0x2379 JUMP JUMPDEST SWAP2 POP PUSH2 0x2531 DUP3 PUSH2 0x23D0 JUMP JUMPDEST PUSH1 0x5 DUP3 ADD SWAP2 POP DUP2 SWAP1 POP SWAP3 SWAP2 POP POP JUMP JUMPDEST PUSH32 0x7072696F726974793A2000000000000000000000000000000000000000000000 DUP2 MSTORE POP JUMP JUMPDEST PUSH1 0x0 PUSH2 0x2571 DUP3 PUSH2 0x2540 JUMP JUMPDEST PUSH1 0xA DUP3 ADD SWAP2 POP PUSH2 0x2581 DUP3 DUP5 PUSH2 0x2379 JUMP JUMPDEST SWAP2 POP PUSH2 0x258C DUP3 PUSH2 0x23D0 JUMP JUMPDEST PUSH1 0x5 DUP3 ADD SWAP2 POP DUP2 SWAP1 POP SWAP3 SWAP2 POP POP JUMP JUMPDEST PUSH32 0x7269736B3A200000000000000000000000000000000000000000000000000000 DUP2 MSTORE POP JUMP JUMPDEST PUSH1 0x0 PUSH2 0x25CC DUP3 PUSH2 0x259B JUMP JUMPDEST PUSH1 0x6 DUP3 ADD SWAP2 POP PUSH2 0x25DC DUP3 DUP5 PUSH2 0x2379 JUMP JUMPDEST SWAP2 POP PUSH2 0x25E7 DUP3 PUSH2 0x23D0 JUMP JUMPDEST PUSH1 0x5 DUP3 ADD SWAP2 POP DUP2 SWAP1 POP SWAP3 SWAP2 POP POP JUMP JUMPDEST PUSH32 0x73746167653A2000000000000000000000000000000000000000000000000000 DUP2 MSTORE POP JUMP JUMPDEST PUSH1 0x0 PUSH2 0x2627 DUP3 PUSH2 0x25F6 JUMP JUMPDEST PUSH1 0x7 DUP3 ADD SWAP2 POP PUSH2 0x2637 DUP3 DUP5 PUSH2 0x2379 JUMP JUMPDEST SWAP2 POP PUSH2 0x2642 DUP3 PUSH2 0x23D0 JUMP JUMPDEST PUSH1 0x5 DUP3 ADD SWAP2 POP DUP2 SWAP1 POP SWAP3 SWAP2 POP POP JUMP JUMPDEST PUSH1 0x0 PUSH2 0x265D DUP3 DUP8 PUSH2 0x2379 JUMP JUMPDEST SWAP2 POP PUSH2 0x2669 DUP3 DUP7 PUSH2 0x2379 JUMP JUMPDEST SWAP2 POP PUSH2 0x2675 DUP3 DUP6 PUSH2 0x2379 JUMP JUMPDEST SWAP2 POP PUSH2 0x2681 DUP3 DUP5 PUSH2 0x2379 JUMP JUMPDEST SWAP2 POP DUP2 SWAP1 POP SWAP6 SWAP5 POP POP POP POP POP JUMP JUMPDEST PUSH32 0x4E487B7100000000000000000000000000000000000000000000000000000000 PUSH1 0x0 MSTORE PUSH1 0x22 PUSH1 0x4 MSTORE PUSH1 0x24 PUSH1 0x0 REVERT JUMPDEST PUSH1 0x0 PUSH1 0x2 DUP3 DIV SWAP1 POP PUSH1 0x1 DUP3 AND DUP1 PUSH2 0x26D6 JUMPI PUSH1 0x7F DUP3 AND SWAP2 POP JUMPDEST PUSH1 0x20 DUP3 LT DUP2 SUB PUSH2 0x26E9 JUMPI PUSH2 0x26E8 PUSH2 0x268F JUMP JUMPDEST JUMPDEST POP SWAP2 SWAP1 POP JUMP JUMPDEST PUSH32 0x4261642072616E67652E00000000000000000000000000000000000000000000 PUSH1 0x0 DUP3 ADD MSTORE POP JUMP JUMPDEST PUSH1 0x0 PUSH2 0x2725 PUSH1 0xA DUP4 PUSH2 0x1DF6 JUMP JUMPDEST SWAP2 POP PUSH2 0x2730 DUP3 PUSH2 0x26EF JUMP JUMPDEST PUSH1 0x20 DUP3 ADD SWAP1 POP SWAP2 SWAP1 POP JUMP JUMPDEST PUSH1 0x0 PUSH1 0x20 DUP3 ADD SWAP1 POP DUP2 DUP2 SUB PUSH1 0x0 DUP4 ADD MSTORE PUSH2 0x2754 DUP2 PUSH2 0x2718 JUMP JUMPDEST SWAP1 POP SWAP2 SWAP1 POP JUMP JUMPDEST PUSH32 0x496E636F72726563742053746167652100000000000000000000000000000000 PUSH1 0x0 DUP3 ADD MSTORE POP JUMP JUMPDEST PUSH1 0x0 PUSH2 0x2791 PUSH1 0x10 DUP4 PUSH2 0x1DF6 JUMP JUMPDEST SWAP2 POP PUSH2 0x279C DUP3 PUSH2 0x275B JUMP JUMPDEST PUSH1 0x20 DUP3 ADD SWAP1 POP SWAP2 SWAP1 POP JUMP JUMPDEST PUSH1 0x0 PUSH1 0x20 DUP3 ADD SWAP1 POP DUP2 DUP2 SUB PUSH1 0x0 DUP4 ADD MSTORE PUSH2 0x27C0 DUP2 PUSH2 0x2784 JUMP JUMPDEST SWAP1 POP SWAP2 SWAP1 POP JUMP JUMPDEST PUSH1 0x0 PUSH2 0x27D2 DUP3 PUSH2 0x2348 JUMP JUMPDEST PUSH1 0x9 DUP3 ADD SWAP2 POP PUSH2 0x27E2 DUP3 DUP5 PUSH2 0x2379 JUMP JUMPDEST SWAP2 POP PUSH2 0x27ED DUP3 PUSH2 0x23D0 JUMP JUMPDEST PUSH1 0x5 DUP3 ADD SWAP2 POP DUP2 SWAP1 POP SWAP3 SWAP2 POP POP JUMP JUMPDEST PUSH32 0x726571756972656D656E7420656E67696E6565723A2000000000000000000000 DUP2 MSTORE POP JUMP JUMPDEST PUSH1 0x0 PUSH2 0x282D DUP3 PUSH2 0x27FC JUMP JUMPDEST PUSH1 0x16 DUP3 ADD SWAP2 POP PUSH2 0x283D DUP3 DUP5 PUSH2 0x2379 JUMP JUMPDEST SWAP2 POP PUSH2 0x2848 DUP3 PUSH2 0x23D0 JUMP JUMPDEST PUSH1 0x5 DUP3 ADD SWAP2 POP DUP2 SWAP1 POP SWAP3 SWAP2 POP POP JUMP JUMPDEST PUSH32 0x726571756972656D656E7420616E616C7973743A200000000000000000000000 DUP2 MSTORE POP JUMP JUMPDEST PUSH1 0x0 PUSH2 0x2888 DUP3 PUSH2 0x2857 JUMP JUMPDEST PUSH1 0x15 DUP3 ADD SWAP2 POP PUSH2 0x2898 DUP3 DUP5 PUSH2 0x2379 JUMP JUMPDEST SWAP2 POP PUSH2 0x28A3 DUP3 PUSH2 0x23D0 JUMP JUMPDEST PUSH1 0x5 DUP3 ADD SWAP2 POP DUP2 SWAP1 POP SWAP3 SWAP2 POP POP JUMP JUMPDEST PUSH32 0x6D616E616765723A200000000000000000000000000000000000000000000000 DUP2 MSTORE POP JUMP JUMPDEST PUSH1 0x0 PUSH2 0x28E3 DUP3 PUSH2 0x28B2 JUMP JUMPDEST PUSH1 0x9 DUP3 ADD SWAP2 POP PUSH2 0x28F3 DUP3 DUP5 PUSH2 0x2379 JUMP JUMPDEST SWAP2 POP PUSH2 0x28FE DUP3 PUSH2 0x23D0 JUMP JUMPDEST PUSH1 0x5 DUP3 ADD SWAP2 POP DUP2 SWAP1 POP SWAP3 SWAP2 POP POP JUMP JUMPDEST PUSH1 0x0 DUP2 PUSH1 0x60 SHL SWAP1 POP SWAP2 SWAP1 POP JUMP JUMPDEST PUSH1 0x0 PUSH2 0x2925 DUP3 PUSH2 0x290D JUMP JUMPDEST SWAP1 POP SWAP2 SWAP1 POP JUMP JUMPDEST PUSH1 0x0 PUSH2 0x2937 DUP3 PUSH2 0x291A JUMP JUMPDEST SWAP1 POP SWAP2 SWAP1 POP JUMP JUMPDEST PUSH2 0x294F PUSH2 0x294A DUP3 PUSH2 0x1EBD JUMP JUMPDEST PUSH2 0x292C JUMP JUMPDEST DUP3 MSTORE POP POP JUMP JUMPDEST PUSH1 0x0 PUSH2 0x2961 DUP3 DUP5 PUSH2 0x293E JUMP JUMPDEST PUSH1 0x14 DUP3 ADD SWAP2 POP DUP2 SWAP1 POP SWAP3 SWAP2 POP POP JUMP JUMPDEST PUSH1 0x0 DUP2 SWAP1 POP SWAP2 SWAP1 POP JUMP JUMPDEST PUSH2 0x298B PUSH2 0x2986 DUP3 PUSH2 0x1DB7 JUMP JUMPDEST PUSH2 0x2970 JUMP JUMPDEST DUP3 MSTORE POP POP JUMP JUMPDEST PUSH1 0x0 PUSH2 0x299D DUP3 DUP5 PUSH2 0x297A JUMP JUMPDEST PUSH1 0x20 DUP3 ADD SWAP2 POP DUP2 SWAP1 POP SWAP3 SWAP2 POP POP JUMP JUMPDEST PUSH32 0x497420686173206265656E2076616C6964617465642E00000000000000000000 PUSH1 0x0 DUP3 ADD MSTORE POP JUMP JUMPDEST PUSH1 0x0 PUSH2 0x29E2 PUSH1 0x16 DUP4 PUSH2 0x1DF6 JUMP JUMPDEST SWAP2 POP PUSH2 0x29ED DUP3 PUSH2 0x29AC JUMP JUMPDEST PUSH1 0x20 DUP3 ADD SWAP1 POP SWAP2 SWAP1 POP JUMP JUMPDEST PUSH1 0x0 PUSH1 0x20 DUP3 ADD SWAP1 POP DUP2 DUP2 SUB PUSH1 0x0 DUP4 ADD MSTORE PUSH2 0x2A11 DUP2 PUSH2 0x29D5 JUMP JUMPDEST SWAP1 POP SWAP2 SWAP1 POP JUMP JUMPDEST PUSH32 0x4E487B7100000000000000000000000000000000000000000000000000000000 PUSH1 0x0 MSTORE PUSH1 0x11 PUSH1 0x4 MSTORE PUSH1 0x24 PUSH1 0x0 REVERT JUMPDEST PUSH1 0x0 PUSH2 0x2A52 DUP3 PUSH2 0x1DB7 JUMP JUMPDEST SWAP2 POP PUSH2 0x2A5D DUP4 PUSH2 0x1DB7 JUMP JUMPDEST SWAP3 POP DUP3 DUP3 MUL PUSH2 0x2A6B DUP2 PUSH2 0x1DB7 JUMP JUMPDEST SWAP2 POP DUP3 DUP3 DIV DUP5 EQ DUP4 ISZERO OR PUSH2 0x2A82 JUMPI PUSH2 0x2A81 PUSH2 0x2A18 JUMP JUMPDEST JUMPDEST POP SWAP3 SWAP2 POP POP JUMP JUMPDEST PUSH1 0x0 PUSH2 0x2A94 DUP3 PUSH2 0x1DB7 JUMP JUMPDEST SWAP2 POP PUSH2 0x2A9F DUP4 PUSH2 0x1DB7 JUMP JUMPDEST SWAP3 POP DUP3 DUP3 ADD SWAP1 POP DUP1 DUP3 GT ISZERO PUSH2 0x2AB7 JUMPI PUSH2 0x2AB6 PUSH2 0x2A18 JUMP JUMPDEST JUMPDEST SWAP3 SWAP2 POP POP JUMP JUMPDEST PUSH32 0x4E487B7100000000000000000000000000000000000000000000000000000000 PUSH1 0x0 MSTORE PUSH1 0x32 PUSH1 0x4 MSTORE PUSH1 0x24 PUSH1 0x0 REVERT JUMPDEST PUSH1 0x0 DUP2 SWAP1 POP DUP2 PUSH1 0x0 MSTORE PUSH1 0x20 PUSH1 0x0 KECCAK256 SWAP1 POP SWAP2 SWAP1 POP JUMP JUMPDEST PUSH1 0x0 PUSH1 0x20 PUSH1 0x1F DUP4 ADD DIV SWAP1 POP SWAP2 SWAP1 POP JUMP JUMPDEST PUSH1 0x0 DUP3 DUP3 SHL SWAP1 POP SWAP3 SWAP2 POP POP JUMP JUMPDEST PUSH1 0x0 PUSH1 0x8 DUP4 MUL PUSH2 0x2B4E PUSH32 0xFFFFFFFFFFFFFFFFFFFFFFFFFFFFFFFFFFFFFFFFFFFFFFFFFFFFFFFFFFFFFFFF DUP3 PUSH2 0x2B11 JUMP JUMPDEST PUSH2 0x2B58 DUP7 DUP4 PUSH2 0x2B11 JUMP JUMPDEST SWAP6 POP DUP1 NOT DUP5 AND SWAP4 POP DUP1 DUP7 AND DUP5 OR SWAP3 POP POP POP SWAP4 SWAP3 POP POP POP JUMP JUMPDEST PUSH1 0x0 DUP2 SWAP1 POP SWAP2 SWAP1 POP JUMP JUMPDEST PUSH1 0x0 PUSH2 0x2B95 PUSH2 0x2B90 PUSH2 0x2B8B DUP5 PUSH2 0x1DB7 JUMP JUMPDEST PUSH2 0x2B70 JUMP JUMPDEST PUSH2 0x1DB7 JUMP JUMPDEST SWAP1 POP SWAP2 SWAP1 POP JUMP JUMPDEST PUSH1 0x0 DUP2 SWAP1 POP SWAP2 SWAP1 POP JUMP JUMPDEST PUSH2 0x2BAF DUP4 PUSH2 0x2B7A JUMP JUMPDEST PUSH2 0x2BC3 PUSH2 0x2BBB DUP3 PUSH2 0x2B9C JUMP JUMPDEST DUP5 DUP5 SLOAD PUSH2 0x2B1E JUMP JUMPDEST DUP3 SSTORE POP POP POP POP JUMP JUMPDEST PUSH1 0x0 SWAP1 JUMP JUMPDEST PUSH2 0x2BD8 PUSH2 0x2BCB JUMP JUMPDEST PUSH2 0x2BE3 DUP2 DUP5 DUP5 PUSH2 0x2BA6 JUMP JUMPDEST POP POP POP JUMP JUMPDEST JUMPDEST DUP2 DUP2 LT ISZERO PUSH2 0x2C07 JUMPI PUSH2 0x2BFC PUSH1 0x0 DUP3 PUSH2 0x2BD0 JUMP JUMPDEST PUSH1 0x1 DUP2 ADD SWAP1 POP PUSH2 0x2BE9 JUMP JUMPDEST POP POP JUMP JUMPDEST PUSH1 0x1F DUP3 GT ISZERO PUSH2 0x2C4C JUMPI PUSH2 0x2C1D DUP2 PUSH2 0x2AEC JUMP JUMPDEST PUSH2 0x2C26 DUP5 PUSH2 0x2B01 JUMP JUMPDEST DUP2 ADD PUSH1 0x20 DUP6 LT ISZERO PUSH2 0x2C35 JUMPI DUP2 SWAP1 POP JUMPDEST PUSH2 0x2C49 PUSH2 0x2C41 DUP6 PUSH2 0x2B01 JUMP JUMPDEST DUP4 ADD DUP3 PUSH2 0x2BE8 JUMP JUMPDEST POP POP JUMPDEST POP POP POP JUMP JUMPDEST PUSH1 0x0 DUP3 DUP3 SHR SWAP1 POP SWAP3 SWAP2 POP POP JUMP JUMPDEST PUSH1 0x0 PUSH2 0x2C6F PUSH1 0x0 NOT DUP5 PUSH1 0x8 MUL PUSH2 0x2C51 JUMP JUMPDEST NOT DUP1 DUP4 AND SWAP2 POP POP SWAP3 SWAP2 POP POP JUMP JUMPDEST PUSH1 0x0 PUSH2 0x2C88 DUP4 DUP4 PUSH2 0x2C5E JUMP JUMPDEST SWAP2 POP DUP3 PUSH1 0x2 MUL DUP3 OR SWAP1 POP SWAP3 SWAP2 POP POP JUMP JUMPDEST PUSH2 0x2CA1 DUP3 PUSH2 0x1DEB JUMP JUMPDEST PUSH8 0xFFFFFFFFFFFFFFFF DUP2 GT ISZERO PUSH2 0x2CBA JUMPI PUSH2 0x2CB9 PUSH2 0x1FFF JUMP JUMPDEST JUMPDEST PUSH2 0x2CC4 DUP3 SLOAD PUSH2 0x26BE JUMP JUMPDEST PUSH2 0x2CCF DUP3 DUP3 DUP6 PUSH2 0x2C0B JUMP JUMPDEST PUSH1 0x0 PUSH1 0x20 SWAP1 POP PUSH1 0x1F DUP4 GT PUSH1 0x1 DUP2 EQ PUSH2 0x2D02 JUMPI PUSH1 0x0 DUP5 ISZERO PUSH2 0x2CF0 JUMPI DUP3 DUP8 ADD MLOAD SWAP1 POP JUMPDEST PUSH2 0x2CFA DUP6 DUP3 PUSH2 0x2C7C JUMP JUMPDEST DUP7 SSTORE POP PUSH2 0x2D62 JUMP JUMPDEST PUSH1 0x1F NOT DUP5 AND PUSH2 0x2D10 DUP7 PUSH2 0x2AEC JUMP JUMPDEST PUSH1 0x0 JUMPDEST DUP3 DUP2 LT ISZERO PUSH2 0x2D38 JUMPI DUP5 DUP10 ADD MLOAD DUP3 SSTORE PUSH1 0x1 DUP3 ADD SWAP2 POP PUSH1 0x20 DUP6 ADD SWAP5 POP PUSH1 0x20 DUP2 ADD SWAP1 POP PUSH2 0x2D13 JUMP JUMPDEST DUP7 DUP4 LT ISZERO PUSH2 0x2D55 JUMPI DUP5 DUP10 ADD MLOAD PUSH2 0x2D51 PUSH1 0x1F DUP10 AND DUP3 PUSH2 0x2C5E JUMP JUMPDEST DUP4 SSTORE POP JUMPDEST PUSH1 0x1 PUSH1 0x2 DUP9 MUL ADD DUP9 SSTORE POP POP POP JUMPDEST POP POP POP POP POP POP JUMP JUMPDEST PUSH1 0x0 DUP2 SWAP1 POP SWAP2 SWAP1 POP JUMP JUMPDEST PUSH2 0x2D85 PUSH2 0x2D80 DUP3 PUSH2 0x22B6 JUMP JUMPDEST PUSH2 0x2D6A JUMP JUMPDEST DUP3 MSTORE POP POP JUMP JUMPDEST PUSH1 0x0 PUSH2 0x2D97 DUP3 DUP5 PUSH2 0x2D74 JUMP JUMPDEST PUSH1 0x20 DUP3 ADD SWAP2 POP DUP2 SWAP1 POP SWAP3 SWAP2 POP POP JUMP JUMPDEST PUSH32 0x69643A2000000000000000000000000000000000000000000000000000000000 DUP2 MSTORE POP JUMP JUMPDEST PUSH1 0x0 PUSH2 0x2DD7 DUP3 PUSH2 0x2DA6 JUMP JUMPDEST PUSH1 0x4 DUP3 ADD SWAP2 POP PUSH2 0x2DE7 DUP3 DUP5 PUSH2 0x2379 JUMP JUMPDEST SWAP2 POP PUSH2 0x2DF2 DUP3 PUSH2 0x23D0 JUMP JUMPDEST PUSH1 0x5 DUP3 ADD SWAP2 POP DUP2 SWAP1 POP SWAP3 SWAP2 POP POP JUMP JUMPDEST PUSH32 0x6E616D653A200000000000000000000000000000000000000000000000000000 DUP2 MSTORE POP JUMP JUMPDEST PUSH1 0x0 DUP2 SLOAD PUSH2 0x2E34 DUP2 PUSH2 0x26BE JUMP JUMPDEST PUSH2 0x2E3E DUP2 DUP7 PUSH2 0x236E JUMP JUMPDEST SWAP5 POP PUSH1 0x1 DUP3 AND PUSH1 0x0 DUP2 EQ PUSH2 0x2E59 JUMPI PUSH1 0x1 DUP2 EQ PUSH2 0x2E6E JUMPI PUSH2 0x2EA1 JUMP JUMPDEST PUSH1 0xFF NOT DUP4 AND DUP7 MSTORE DUP2 ISZERO ISZERO DUP3 MUL DUP7 ADD SWAP4 POP PUSH2 0x2EA1 JUMP JUMPDEST PUSH2 0x2E77 DUP6 PUSH2 0x2AEC JUMP JUMPDEST PUSH1 0x0 JUMPDEST DUP4 DUP2 LT ISZERO PUSH2 0x2E99 JUMPI DUP2 SLOAD DUP2 DUP10 ADD MSTORE PUSH1 0x1 DUP3 ADD SWAP2 POP PUSH1 0x20 DUP2 ADD SWAP1 POP PUSH2 0x2E7A JUMP JUMPDEST DUP4 DUP9 ADD SWAP6 POP POP POP JUMPDEST POP POP POP SWAP3 SWAP2 POP POP JUMP JUMPDEST PUSH1 0x0 PUSH2 0x2EB5 DUP3 PUSH2 0x2E01 JUMP JUMPDEST PUSH1 0x6 DUP3 ADD SWAP2 POP PUSH2 0x2EC5 DUP3 DUP5 PUSH2 0x2E27 JUMP JUMPDEST SWAP2 POP PUSH2 0x2ED0 DUP3 PUSH2 0x23D0 JUMP JUMPDEST PUSH1 0x5 DUP3 ADD SWAP2 POP DUP2 SWAP1 POP SWAP3 SWAP2 POP POP JUMP JUMPDEST PUSH32 0x6465736372697074696F6E3A2000000000000000000000000000000000000000 DUP2 MSTORE POP JUMP JUMPDEST PUSH1 0x0 PUSH2 0x2F10 DUP3 PUSH2 0x2EDF JUMP JUMPDEST PUSH1 0xD DUP3 ADD SWAP2 POP PUSH2 0x2F20 DUP3 DUP5 PUSH2 0x2E27 JUMP JUMPDEST SWAP2 POP PUSH2 0x2F2B DUP3 PUSH2 0x23D0 JUMP JUMPDEST PUSH1 0x5 DUP3 ADD SWAP2 POP DUP2 SWAP1 POP SWAP3 SWAP2 POP POP JUMP JUMPDEST PUSH32 0x76616C6964617465643A20000000000000000000000000000000000000000000 DUP2 MSTORE POP JUMP JUMPDEST PUSH1 0x0 PUSH2 0x2F6B DUP3 PUSH2 0x2F3A JUMP JUMPDEST PUSH1 0xB DUP3 ADD SWAP2 POP PUSH2 0x2F7B DUP3 DUP5 PUSH2 0x2379 JUMP JUMPDEST SWAP2 POP PUSH2 0x2F86 DUP3 PUSH2 0x23D0 JUMP JUMPDEST PUSH1 0x5 DUP3 ADD SWAP2 POP DUP2 SWAP1 POP SWAP3 SWAP2 POP POP JUMP JUMPDEST PUSH32 0x76657269666965643A2000000000000000000000000000000000000000000000 DUP2 MSTORE POP JUMP JUMPDEST PUSH1 0x0 PUSH2 0x2FC6 DUP3 PUSH2 0x2F95 JUMP JUMPDEST PUSH1 0xA DUP3 ADD SWAP2 POP PUSH2 0x2FD6 DUP3 DUP5 PUSH2 0x2379 JUMP JUMPDEST SWAP2 POP PUSH2 0x2FE1 DUP3 PUSH2 0x23D0 JUMP JUMPDEST PUSH1 0x5 DUP3 ADD SWAP2 POP DUP2 SWAP1 POP SWAP3 SWAP2 POP POP JUMP JUMPDEST PUSH1 0x0 PUSH2 0x2FFC DUP3 DUP9 PUSH2 0x2379 JUMP JUMPDEST SWAP2 POP PUSH2 0x3008 DUP3 DUP8 PUSH2 0x2379 JUMP JUMPDEST SWAP2 POP PUSH2 0x3014 DUP3 DUP7 PUSH2 0x2379 JUMP JUMPDEST SWAP2 POP PUSH2 0x3020 DUP3 DUP6 PUSH2 0x2379 JUMP JUMPDEST SWAP2 POP PUSH2 0x302C DUP3 DUP5 PUSH2 0x2379 JUMP JUMPDEST SWAP2 POP DUP2 SWAP1 POP SWAP7 SWAP6 POP POP POP POP POP POP JUMP JUMPDEST PUSH32 0x497420686173206265656E2076657269666965642E0000000000000000000000 PUSH1 0x0 DUP3 ADD MSTORE POP JUMP JUMPDEST PUSH1 0x0 PUSH2 0x3071 PUSH1 0x15 DUP4 PUSH2 0x1DF6 JUMP JUMPDEST SWAP2 POP PUSH2 0x307C DUP3 PUSH2 0x303B JUMP JUMPDEST PUSH1 0x20 DUP3 ADD SWAP1 POP SWAP2 SWAP1 POP JUMP JUMPDEST PUSH1 0x0 PUSH1 0x20 DUP3 ADD SWAP1 POP DUP2 DUP2 SUB PUSH1 0x0 DUP4 ADD MSTORE PUSH2 0x30A0 DUP2 PUSH2 0x3064 JUMP JUMPDEST SWAP1 POP SWAP2 SWAP1 POP JUMP INVALID LOG2 PUSH5 0x6970667358 0x22 SLT KECCAK256 0xD2 ADD 0xDC SWAP14 LOG0 0x1F DUP10 INVALID 0xEF 0xED 0x4E 0xCE DUP2 DUP11 0xB6 0xC7 SWAP12 ADDMOD 0xC4 PUSH2 0xE6F1 SWAP15 CALLDATALOAD TSTORE PUSH13 0xEF7BF7CAABA264736F6C634300 ADDMOD XOR STOP CALLER "},"gasEstimates":{"creation":{"codeDepositCost":"2501800","executionCost":"infinite","totalCost":"infinite"},"external":{"getCreator()":"2635","getDescription()":"infinite","getId()":"2548","getName()":"infinite","getPriority()":"2593","getRisk()":"2596","getStage()":"2681","getType()":"2595","isValidate()":"2597","isVerified()":"2546","priorityToString()":"infinite","riskToString()":"infinite","seeReq()":"infinite","seeReq1()":"infinite","seeReq2()":"infinite","seeReq3()":"infinite","seeUsers()":"infinite","setDescription(string)":"infinite","setPriority(uint256)":"27155","setRequirementAnalyst(address)":"24789","setRequirementEngineer(address)":"24812","setRisk(uint256)":"27175","setStage(uint256)":"24994","setType(uint256)":"27130","stageToString()":"infinite","toString(address)":"infinite","toString(bool)":"infinite","toString(bytes)":"infinite","toString(bytes32)":"infinite","toString(uint256)":"infinite","typeToString()":"infinite","validate()":"29032","verify()":"28952"}},"methodIdentifiers":{"getCreator()":"0ee2cb10","getDescription()":"1a092541","getId()":"5d1ca631","getName()":"17d7de7c","getPriority()":"d75088a1","getRisk()":"02676d39","getStage()":"fcaa7664","getType()":"15dae03e","isValidate()":"24a872f8","isVerified()":"80007e83","priorityToString()":"02955b14","riskToString()":"5d8c6faa","seeReq()":"a8113654","seeReq1()":"f6c8f7e1","seeReq2()":"17a2da08","seeReq3()":"51b7aa30","seeUsers()":"0d0ccfb6","setDescription(string)":"90c3f38f","setPriority(uint256)":"21a50a93","setRequirementAnalyst(address)":"524fa88e","setRequirementEngineer(address)":"3bcbe08a","setRisk(uint256)":"eeb1191a","setStage(uint256)":"3eb1d777","setType(uint256)":"a813dea6","stageToString()":"b3205dfa","toString(address)":"56ca623e","toString(bool)":"71dce7da","toString(bytes)":"71aad10d","toString(bytes32)":"b11a19e8","toString(uint256)":"6900a3ae","typeToString()":"d05c6627","validate()":"6901f668","verify()":"fc735e99"}},"storageLayout":{"storage":[{"astId":21,"contract":"contracts/RequirementEngineering.sol:Reqiurement","label":"id","offset":0,"slot":"0","type":"t_uint256"},{"astId":23,"contract":"contracts/RequirementEngineering.sol:Reqiurement","label":"name","offset":0,"slot":"1","type":"t_string_storage"},{"astId":25,"contract":"contracts/RequirementEngineering.sol:Reqiurement","label":"creator","offset":0,"slot":"2","type":"t_address"},{"astId":27,"contract":"contracts/RequirementEngineering.sol:Reqiurement","label":"requirementEngineer","offset":0,"slot":"3","type":"t_address"},{"astId":29,"contract":"contracts/RequirementEngineering.sol:Reqiurement","label":"requirementAnalyst","offset":0,"slot":"4","type":"t_address"},{"astId":31,"contract":"contracts/RequirementEngineering.sol:Reqiurement","label":"manager","offset":0,"slot":"5","type":"t_address"},{"astId":33,"contract":"contracts/RequirementEngineering.sol:Reqiurement","label":"description","offset":0,"slot":"6","type":"t_string_storage"},{"astId":35,"contract":"contracts/RequirementEngineering.sol:Reqiurement","label":"verified","offset":0,"slot":"7","type":"t_bool"},{"astId":37,"contract":"contracts/RequirementEngineering.sol:Reqiurement","label":"validated","offset":1,"slot":"7","type":"t_bool"},{"astId":40,"contract":"contracts/RequirementEngineering.sol:Reqiurement","label":"typeOfIt","offset":2,"slot":"7","type":"t_enum(Type)11"},{"astId":43,"contract":"contracts/RequirementEngineering.sol:Reqiurement","label":"priority","offset":3,"slot":"7","type":"t_enum(Priority)15"},{"astId":46,"contract":"contracts/RequirementEngineering.sol:Reqiurement","label":"risk","offset":4,"slot":"7","type":"t_enum(Risk)19"},{"astId":51,"contract":"contracts/RequirementEngineering.sol:Reqiurement","label":"stage","offset":5,"slot":"7","type":"t_enum(Stage)8"}],"types":{"t_address":{"encoding":"inplace","label":"address","numberOfBytes":"20"},"t_bool":{"encoding":"inplace","label":"bool","numberOfBytes":"1"},"t_enum(Priority)15":{"encoding":"inplace","label":"enum Reqiurement.Priority","numberOfBytes":"1"},"t_enum(Risk)19":{"encoding":"inplace","label":"enum Reqiurement.Risk","numberOfBytes":"1"},"t_enum(Stage)8":{"encoding":"inplace","label":"enum Reqiurement.Stage","numberOfBytes":"1"},"t_enum(Type)11":{"encoding":"inplace","label":"enum Reqiurement.Type","numberOfBytes":"1"},"t_string_storage":{"encoding":"bytes","label":"string","numberOfBytes":"32"},"t_uint256":{"encoding":"inplace","label":"uint256","numberOfBytes":"32"}}},"userdoc":{"kind":"user","methods":{},"version":1}}}}