{"contracts/RequirementEngineering.sol":{"Reqiurement":{"abi":[{"inputs":[{"internalType":"uint256","name":"_id","type":"uint256"},{"internalType":"string","name":"_name","type":"string"},{"internalType":"string","name":"_description","type":"string"},{"internalType":"address","name":"_creator","type":"address"},{"internalType":"address","name":"_manager","type":"address"}],"stateMutability":"nonpayable","type":"constructor"},{"inputs":[],"name":"getCreator","outputs":[{"internalType":"address","name":"","type":"address"}],"stateMutability":"view","type":"function"},{"inputs":[],"name":"getDescription","outputs":[{"internalType":"string","name":"","type":"string"}],"stateMutability":"view","type":"function"},{"inputs":[],"name":"getId","outputs":[{"internalType":"uint256","name":"","type":"uint256"}],"stateMutability":"view","type":"function"},{"inputs":[],"name":"getName","outputs":[{"internalType":"string","name":"","type":"string"}],"stateMutability":"view","type":"function"},{"inputs":[],"name":"getPriority","outputs":[{"internalType":"uint256","name":"","type":"uint256"}],"stateMutability":"view","type":"function"},{"inputs":[],"name":"getRisk","outputs":[{"internalType":"uint256","name":"","type":"uint256"}],"stateMutability":"view","type":"function"},{"inputs":[],"name":"getStage","outputs":[{"internalType":"uint256","name":"","type":"uint256"}],"stateMutability":"view","type":"function"},{"inputs":[],"name":"getType","outputs":[{"internalType":"uint256","name":"","type":"uint256"}],"stateMutability":"view","type":"function"},{"inputs":[],"name":"isValidate","outputs":[{"internalType":"bool","name":"","type":"bool"}],"stateMutability":"view","type":"function"},{"inputs":[],"name":"isVerified","outputs":[{"internalType":"bool","name":"","type":"bool"}],"stateMutability":"view","type":"function"},{"inputs":[],"name":"priorityToString","outputs":[{"internalType":"string","name":"","type":"string"}],"stateMutability":"view","type":"function"},{"inputs":[],"name":"riskToString","outputs":[{"internalType":"string","name":"","type":"string"}],"stateMutability":"view","type":"function"},{"inputs":[],"name":"seeReq","outputs":[{"internalType":"string","name":"","type":"string"}],"stateMutability":"view","type":"function"},{"inputs":[],"name":"seeReq1","outputs":[{"internalType":"string","name":"","type":"string"}],"stateMutability":"view","type":"function"},{"inputs":[],"name":"seeReq2","outputs":[{"internalType":"string","name":"","type":"string"}],"stateMutability":"view","type":"function"},{"inputs":[],"name":"seeReq3","outputs":[{"internalType":"string","name":"","type":"string"}],"stateMutability":"view","type":"function"},{"inputs":[{"internalType":"string","name":"_description","type":"string"}],"name":"setDescription","outputs":[],"stateMutability":"nonpayable","type":"function"},{"inputs":[{"internalType":"uint256","name":"_priority","type":"uint256"}],"name":"setPriority","outputs":[],"stateMutability":"nonpayable","type":"function"},{"inputs":[{"internalType":"address","name":"_reqAnalyst","type":"address"}],"name":"setRequirementAnalyst","outputs":[],"stateMutability":"nonpayable","type":"function"},{"inputs":[{"internalType":"address","name":"_reqEngineer","type":"address"}],"name":"setRequirementEngineer","outputs":[],"stateMutability":"nonpayable","type":"function"},{"inputs":[{"internalType":"uint256","name":"_risk","type":"uint256"}],"name":"setRisk","outputs":[],"stateMutability":"nonpayable","type":"function"},{"inputs":[{"internalType":"uint256","name":"_stage","type":"uint256"}],"name":"setStage","outputs":[],"stateMutability":"nonpayable","type":"function"},{"inputs":[{"internalType":"uint256","name":"_typeOfIt","type":"uint256"}],"name":"setType","outputs":[],"stateMutability":"nonpayable","type":"function"},{"inputs":[],"name":"stageToString","outputs":[{"internalType":"string","name":"","type":"string"}],"stateMutability":"view","type":"function"},{"inputs":[{"internalType":"address","name":"account","type":"address"}],"name":"toString","outputs":[{"internalType":"string","name":"","type":"string"}],"stateMutability":"pure","type":"function"},{"inputs":[{"internalType":"uint256","name":"value","type":"uint256"}],"name":"toString","outputs":[{"internalType":"string","name":"","type":"string"}],"stateMutability":"pure","type":"function"},{"inputs":[{"internalType":"bytes","name":"data","type":"bytes"}],"name":"toString","outputs":[{"internalType":"string","name":"","type":"string"}],"stateMutability":"pure","type":"function"},{"inputs":[{"internalType":"bool","name":"value","type":"bool"}],"name":"toString","outputs":[{"internalType":"string","name":"","type":"string"}],"stateMutability":"pure","type":"function"},{"inputs":[{"internalType":"bytes32","name":"value","type":"bytes32"}],"name":"toString","outputs":[{"internalType":"string","name":"","type":"string"}],"stateMutability":"pure","type":"function"},{"inputs":[],"name":"typeToString","outputs":[{"internalType":"string","name":"","type":"string"}],"stateMutability":"view","type":"function"},{"inputs":[],"name":"validate","outputs":[],"stateMutability":"nonpayable","type":"function"},{"inputs":[],"name":"verify","outputs":[],"stateMutability":"nonpayable","type":"function"}],"devdoc":{"kind":"dev","methods":{},"version":1},"evm":{"bytecode":{"linkReferences":{},"object":"60806040526000600760056101000a81548160ff021916908360048111156200002d576200002c62000181565b5b02179055503480156200003f57600080fd5b506040516200364c3803806200364c8339818101604052810190620000659190620003e3565b8460008190555083600190816200007d9190620006ea565b5082600690816200008f9190620006ea565b5081600260006101000a81548173ffffffffffffffffffffffffffffffffffffffff021916908373ffffffffffffffffffffffffffffffffffffffff16021790555080600560006101000a81548173ffffffffffffffffffffffffffffffffffffffff021916908373ffffffffffffffffffffffffffffffffffffffff1602179055506000600760006101000a81548160ff0219169083151502179055506000600760016101000a81548160ff0219169083151502179055506001600760056101000a81548160ff0219169083600481111562000171576200017062000181565b5b02179055505050505050620007d1565b7f4e487b7100000000000000000000000000000000000000000000000000000000600052602160045260246000fd5b6000604051905090565b600080fd5b600080fd5b6000819050919050565b620001d981620001c4565b8114620001e557600080fd5b50565b600081519050620001f981620001ce565b92915050565b600080fd5b600080fd5b6000601f19601f8301169050919050565b7f4e487b7100000000000000000000000000000000000000000000000000000000600052604160045260246000fd5b620002548262000209565b810181811067ffffffffffffffff821117156200027657620002756200021a565b5b80604052505050565b60006200028b620001b0565b905062000299828262000249565b919050565b600067ffffffffffffffff821115620002bc57620002bb6200021a565b5b620002c78262000209565b9050602081019050919050565b60005b83811015620002f4578082015181840152602081019050620002d7565b60008484015250505050565b60006200031762000311846200029e565b6200027f565b90508281526020810184848401111562000336576200033562000204565b5b62000343848285620002d4565b509392505050565b600082601f830112620003635762000362620001ff565b5b81516200037584826020860162000300565b91505092915050565b600073ffffffffffffffffffffffffffffffffffffffff82169050919050565b6000620003ab826200037e565b9050919050565b620003bd816200039e565b8114620003c957600080fd5b50565b600081519050620003dd81620003b2565b92915050565b600080600080600060a08688031215620004025762000401620001ba565b5b60006200041288828901620001e8565b955050602086015167ffffffffffffffff811115620004365762000435620001bf565b5b62000444888289016200034b565b945050604086015167ffffffffffffffff811115620004685762000467620001bf565b5b62000476888289016200034b565b93505060606200048988828901620003cc565b92505060806200049c88828901620003cc565b9150509295509295909350565b600081519050919050565b7f4e487b7100000000000000000000000000000000000000000000000000000000600052602260045260246000fd5b60006002820490506001821680620004fc57607f821691505b602082108103620005125762000511620004b4565b5b50919050565b60008190508160005260206000209050919050565b60006020601f8301049050919050565b600082821b905092915050565b6000600883026200057c7fffffffffffffffffffffffffffffffffffffffffffffffffffffffffffffffff826200053d565b6200058886836200053d565b95508019841693508086168417925050509392505050565b6000819050919050565b6000620005cb620005c5620005bf84620001c4565b620005a0565b620001c4565b9050919050565b6000819050919050565b620005e783620005aa565b620005ff620005f682620005d2565b8484546200054a565b825550505050565b600090565b6200061662000607565b62000623818484620005dc565b505050565b5b818110156200064b576200063f6000826200060c565b60018101905062000629565b5050565b601f8211156200069a57620006648162000518565b6200066f846200052d565b810160208510156200067f578190505b620006976200068e856200052d565b83018262000628565b50505b505050565b600082821c905092915050565b6000620006bf600019846008026200069f565b1980831691505092915050565b6000620006da8383620006ac565b9150826002028217905092915050565b620006f582620004a9565b67ffffffffffffffff8111156200071157620007106200021a565b5b6200071d8254620004e3565b6200072a8282856200064f565b600060209050601f8311600181146200076257600084156200074d578287015190505b620007598582620006cc565b865550620007c9565b601f198416620007728662000518565b60005b828110156200079c5784890151825560018201915060208501945060208101905062000775565b86831015620007bc5784890151620007b8601f891682620006ac565b8355505b6001600288020188555050505b505050505050565b612e6b80620007e16000396000f3fe608060405234801561001057600080fd5b50600436106101f05760003560e01c80636900a3ae1161010f578063b11a19e8116100a2578063eeb1191a11610071578063eeb1191a14610577578063f6c8f7e114610593578063fc735e99146105b1578063fcaa7664146105bb576101f0565b8063b11a19e8146104ed578063b3205dfa1461051d578063d05c66271461053b578063d75088a114610559576101f0565b806380007e83116100de57806380007e831461047957806390c3f38f14610497578063a8113654146104b3578063a813dea6146104d1576101f0565b80636900a3ae146103df5780636901f6681461040f57806371aad10d1461041957806371dce7da14610449576101f0565b806324a872f811610187578063524fa88e11610156578063524fa88e1461035757806356ca623e146103735780635d1ca631146103a35780635d8c6faa146103c1576101f0565b806324a872f8146102e35780633bcbe08a146103015780633eb1d7771461031d57806351b7aa3014610339576101f0565b806317a2da08116101c357806317a2da081461026d57806317d7de7c1461028b5780631a092541146102a957806321a50a93146102c7576101f0565b806302676d39146101f557806302955b14146102135780630ee2cb101461023157806315dae03e1461024f575b600080fd5b6101fd6105d9565b60405161020a9190611c42565b60405180910390f35b61021b610602565b6040516102289190611ced565b60405180910390f35b610239610730565b6040516102469190611d50565b60405180910390f35b61025761075a565b6040516102649190611c42565b60405180910390f35b610275610783565b6040516102829190611ced565b60405180910390f35b61029361086c565b6040516102a09190611ced565b60405180910390f35b6102b16108fe565b6040516102be9190611ced565b60405180910390f35b6102e160048036038101906102dc9190611dab565b610990565b005b6102eb610ac3565b6040516102f89190611df3565b60405180910390f35b61031b60048036038101906103169190611e3a565b610ada565b005b61033760048036038101906103329190611dab565b610b1e565b005b610341610c77565b60405161034e9190611ced565b60405180910390f35b610371600480360381019061036c9190611e3a565b610dec565b005b61038d60048036038101906103889190611e3a565b610e30565b60405161039a9190611ced565b60405180910390f35b6103ab610e61565b6040516103b89190611c42565b60405180910390f35b6103c9610e6a565b6040516103d69190611ced565b60405180910390f35b6103f960048036038101906103f49190611dab565b610f98565b6040516104069190611ced565b60405180910390f35b610417610fc9565b005b610433600480360381019061042e9190611f9c565b611082565b6040516104409190611ced565b60405180910390f35b610463600480360381019061045e9190612011565b611376565b6040516104709190611ced565b60405180910390f35b6104816113f9565b60405161048e9190611df3565b60405180910390f35b6104b160048036038101906104ac91906120df565b611410565b005b6104bb61146f565b6040516104c89190611ced565b60405180910390f35b6104eb60048036038101906104e69190611dab565b6114c1565b005b6105076004803603810190610502919061215e565b6115bb565b6040516105149190611ced565b60405180910390f35b6105256115ec565b6040516105329190611ced565b60405180910390f35b61054361180a565b6040516105509190611ced565b60405180910390f35b6105616118c0565b60405161056e9190611c42565b60405180910390f35b610591600480360381019061058c9190611dab565b6118e9565b005b61059b611a1c565b6040516105a89190611ced565b60405180910390f35b6105b9611b47565b005b6105c3611c00565b6040516105d09190611c42565b60405180910390f35b6000600760049054906101000a900460ff1660028111156105fd576105fc61218b565b5b905090565b6060600060028111156106185761061761218b565b5b600760039054906101000a900460ff16600281111561063a5761063961218b565b5b0361067c576040518060400160405280600381526020017f6c6f770000000000000000000000000000000000000000000000000000000000815250905061072d565b600160028111156106905761068f61218b565b5b600760039054906101000a900460ff1660028111156106b2576106b161218b565b5b036106f4576040518060400160405280600681526020017f6d656469756d0000000000000000000000000000000000000000000000000000815250905061072d565b6040518060400160405280600481526020017f686967680000000000000000000000000000000000000000000000000000000081525090505b90565b6000600260009054906101000a900473ffffffffffffffffffffffffffffffffffffffff16905090565b6000600760029054906101000a900460ff16600181111561077e5761077d61218b565b5b905090565b6060600061078f61180a565b9050806040516020016107a29190612242565b604051602081830303815290604052905060006107bd610602565b9050806040516020016107d0919061229d565b604051602081830303815290604052905060006107eb610e6a565b9050806040516020016107fe91906122f8565b604051602081830303815290604052905060006108196115ec565b90508060405160200161082c9190612353565b6040516020818303038152906040529050838383836040516020016108549493929190612388565b60405160208183030381529060405294505050505090565b60606001805461087b906123f5565b80601f01602080910402602001604051908101604052809291908181526020018280546108a7906123f5565b80156108f45780601f106108c9576101008083540402835291602001916108f4565b820191906000526020600020905b8154815290600101906020018083116108d757829003601f168201915b5050505050905090565b60606006805461090d906123f5565b80601f0160208091040260200160405190810160405280929190818152602001828054610939906123f5565b80156109865780601f1061095b57610100808354040283529160200191610986565b820191906000526020600020905b81548152906001019060200180831161096957829003601f168201915b5050505050905090565b6003818181106109d5576040517f08c379a00000000000000000000000000000000000000000000000000000000081526004016109cc90612472565b60405180910390fd5b6001806109e0611c00565b14610a20576040517f08c379a0000000000000000000000000000000000000000000000000000000008152600401610a17906124de565b60405180910390fd5b60008403610a58576000600760036101000a81548160ff02191690836002811115610a4e57610a4d61218b565b5b0217905550610abd565b60018403610a90576001600760036101000a81548160ff02191690836002811115610a8657610a8561218b565b5b0217905550610abc565b6002600760036101000a81548160ff02191690836002811115610ab657610ab561218b565b5b02179055505b5b50505050565b6000600760019054906101000a900460ff16905090565b80600360006101000a81548173ffffffffffffffffffffffffffffffffffffffff021916908373ffffffffffffffffffffffffffffffffffffffff16021790555050565b600581818110610b63576040517f08c379a0000000000000000000000000000000000000000000000000000000008152600401610b5a90612472565b60405180910390fd5b60008303610b9b576000600760056101000a81548160ff02191690836004811115610b9157610b9061218b565b5b0217905550610c72565b60018303610bd3576001600760056101000a81548160ff02191690836004811115610bc957610bc861218b565b5b0217905550610c71565b60028303610c0b576002600760056101000a81548160ff02191690836004811115610c0157610c0061218b565b5b0217905550610c70565b60038303610c43576003600760056101000a81548160ff02191690836004811115610c3957610c3861218b565b5b0217905550610c6f565b6004600760056101000a81548160ff02191690836004811115610c6957610c6861218b565b5b02179055505b5b5b5b505050565b60606000610ca6600260009054906101000a900473ffffffffffffffffffffffffffffffffffffffff16610e30565b905080604051602001610cb99190612524565b60405160208183030381529060405290506000610cf7600360009054906101000a900473ffffffffffffffffffffffffffffffffffffffff16610e30565b905080604051602001610d0a919061257f565b60405160208183030381529060405290506000610d48600460009054906101000a900473ffffffffffffffffffffffffffffffffffffffff16610e30565b905080604051602001610d5b91906125da565b60405160208183030381529060405290506000610d99600560009054906101000a900473ffffffffffffffffffffffffffffffffffffffff16610e30565b905080604051602001610dac9190612635565b604051602081830303815290604052905083838383604051602001610dd49493929190612388565b60405160208183030381529060405294505050505090565b80600460006101000a81548173ffffffffffffffffffffffffffffffffffffffff021916908373ffffffffffffffffffffffffffffffffffffffff16021790555050565b6060610e5a82604051602001610e4691906126b2565b604051602081830303815290604052611082565b9050919050565b60008054905090565b606060006002811115610e8057610e7f61218b565b5b600760049054906101000a900460ff166002811115610ea257610ea161218b565b5b03610ee4576040518060400160405280600381526020017f6c6f7700000000000000000000000000000000000000000000000000000000008152509050610f95565b60016002811115610ef857610ef761218b565b5b600760049054906101000a900460ff166002811115610f1a57610f1961218b565b5b03610f5c576040518060400160405280600681526020017f6d656469756d00000000000000000000000000000000000000000000000000008152509050610f95565b6040518060400160405280600481526020017f686967680000000000000000000000000000000000000000000000000000000081525090505b90565b6060610fc282604051602001610fae91906126ee565b604051602081830303815290604052611082565b9050919050565b600760019054906101000a900460ff1615611019576040517f08c379a000000000000000000000000000000000000000000000000000000000815260040161101090612755565b60405180910390fd5b600380611024611c00565b14611064576040517f08c379a000000000000000000000000000000000000000000000000000000000815260040161105b906124de565b60405180910390fd5b6001600760016101000a81548160ff02191690831515021790555050565b606060006040518060400160405280601081526020017f303132333435363738396162636465660000000000000000000000000000000081525090506000600284516110ce91906127a4565b60026110da91906127e6565b67ffffffffffffffff8111156110f3576110f2611e71565b5b6040519080825280601f01601f1916602001820160405280156111255781602001600182028036833780820191505090505b5090507f30000000000000000000000000000000000000000000000000000000000000008160008151811061115d5761115c61281a565b5b60200101907effffffffffffffffffffffffffffffffffffffffffffffffffffffffffffff1916908160001a9053507f7800000000000000000000000000000000000000000000000000000000000000816001815181106111c1576111c061281a565b5b60200101907effffffffffffffffffffffffffffffffffffffffffffffffffffffffffffff1916908160001a90535060005b845181101561136b578260048683815181106112125761121161281a565b5b602001015160f81c60f81b7effffffffffffffffffffffffffffffffffffffffffffffffffffffffffffff1916901c60f81c60ff16815181106112585761125761281a565b5b602001015160f81c60f81b8260028361127191906127a4565b600261127d91906127e6565b8151811061128e5761128d61281a565b5b60200101907effffffffffffffffffffffffffffffffffffffffffffffffffffffffffffff1916908160001a90535082600f60f81b8683815181106112d6576112d561281a565b5b602001015160f81c60f81b1660f81c60ff16815181106112f9576112f861281a565b5b602001015160f81c60f81b8260028361131291906127a4565b600361131e91906127e6565b8151811061132f5761132e61281a565b5b60200101907effffffffffffffffffffffffffffffffffffffffffffffffffffffffffffff1916908160001a90535080806001019150506111f3565b508092505050919050565b606081156113bb576040518060400160405280600481526020017f747275650000000000000000000000000000000000000000000000000000000081525090506113f4565b6040518060400160405280600581526020017f66616c736500000000000000000000000000000000000000000000000000000081525090505b919050565b6000600760009054906101000a900460ff16905090565b60018061141b611c00565b1461145b576040517f08c379a0000000000000000000000000000000000000000000000000000000008152600401611452906124de565b60405180910390fd5b816006908161146a91906129f5565b505050565b6060600061147b611a1c565b90506000611487610783565b90506000611493610c77565b90508282826040516020016114aa93929190612ac7565b604051602081830303815290604052935050505090565b600281818110611506576040517f08c379a00000000000000000000000000000000000000000000000000000000081526004016114fd90612472565b60405180910390fd5b600180611511611c00565b14611551576040517f08c379a0000000000000000000000000000000000000000000000000000000008152600401611548906124de565b60405180910390fd5b60008403611589576000600760026101000a81548160ff0219169083600181111561157f5761157e61218b565b5b02179055506115b5565b6001600760026101000a81548160ff021916908360018111156115af576115ae61218b565b5b02179055505b50505050565b60606115e5826040516020016115d19190612b19565b604051602081830303815290604052611082565b9050919050565b6060600060048111156116025761160161218b565b5b600760059054906101000a900460ff1660048111156116245761162361218b565b5b03611666576040518060400160405280600781526020017f646566696e6564000000000000000000000000000000000000000000000000008152509050611807565b6001600481111561167a5761167961218b565b5b600760059054906101000a900460ff16600481111561169c5761169b61218b565b5b036116de576040518060400160405280600781526020017f726566696e6564000000000000000000000000000000000000000000000000008152509050611807565b600260048111156116f2576116f161218b565b5b600760059054906101000a900460ff1660048111156117145761171361218b565b5b03611756576040518060400160405280600881526020017f76657269666965640000000000000000000000000000000000000000000000008152509050611807565b6003600481111561176a5761176961218b565b5b600760059054906101000a900460ff16600481111561178c5761178b61218b565b5b036117ce576040518060400160405280600981526020017f56616c69646174656400000000000000000000000000000000000000000000008152509050611807565b6040518060400160405280600881526020017f66696e697368656400000000000000000000000000000000000000000000000081525090505b90565b6060600060018111156118205761181f61218b565b5b600760029054906101000a900460ff1660018111156118425761184161218b565b5b03611884576040518060400160405280600a81526020017f66756e6374696f6e616c0000000000000000000000000000000000000000000081525090506118bd565b6040518060400160405280600e81526020017f4e6f6e2d46756e6374696f6e616c00000000000000000000000000000000000081525090505b90565b6000600760039054906101000a900460ff1660028111156118e4576118e361218b565b5b905090565b60038181811061192e576040517f08c379a000000000000000000000000000000000000000000000000000000000815260040161192590612472565b60405180910390fd5b600180611939611c00565b14611979576040517f08c379a0000000000000000000000000000000000000000000000000000000008152600401611970906124de565b60405180910390fd5b600084036119b1576000600760046101000a81548160ff021916908360028111156119a7576119a661218b565b5b0217905550611a16565b600184036119e9576001600760046101000a81548160ff021916908360028111156119df576119de61218b565b5b0217905550611a15565b6002600760046101000a81548160ff02191690836002811115611a0f57611a0e61218b565b5b02179055505b5b50505050565b60606000611a2b600054610f98565b905080604051602001611a3e9190612b5a565b604051602081830303815290604052905060006001604051602001611a639190612c38565b604051602081830303815290604052905060006006604051602001611a889190612c93565b60405160208183030381529060405290506000611ab3600760019054906101000a900460ff16611376565b905080604051602001611ac69190612cee565b60405160208183030381529060405290506000611af1600760009054906101000a900460ff16611376565b905080604051602001611b049190612d49565b60405160208183030381529060405290508484848385604051602001611b2e959493929190612d7e565b6040516020818303038152906040529550505050505090565b600760009054906101000a900460ff1615611b97576040517f08c379a0000000000000000000000000000000000000000000000000000000008152600401611b8e90612e15565b60405180910390fd5b600280611ba2611c00565b14611be2576040517f08c379a0000000000000000000000000000000000000000000000000000000008152600401611bd9906124de565b60405180910390fd5b6001600760006101000a81548160ff02191690831515021790555050565b6000600760059054906101000a900460ff166004811115611c2457611c2361218b565b5b905090565b6000819050919050565b611c3c81611c29565b82525050565b6000602082019050611c576000830184611c33565b92915050565b600081519050919050565b600082825260208201905092915050565b60005b83811015611c97578082015181840152602081019050611c7c565b60008484015250505050565b6000601f19601f8301169050919050565b6000611cbf82611c5d565b611cc98185611c68565b9350611cd9818560208601611c79565b611ce281611ca3565b840191505092915050565b60006020820190508181036000830152611d078184611cb4565b905092915050565b600073ffffffffffffffffffffffffffffffffffffffff82169050919050565b6000611d3a82611d0f565b9050919050565b611d4a81611d2f565b82525050565b6000602082019050611d656000830184611d41565b92915050565b6000604051905090565b600080fd5b600080fd5b611d8881611c29565b8114611d9357600080fd5b50565b600081359050611da581611d7f565b92915050565b600060208284031215611dc157611dc0611d75565b5b6000611dcf84828501611d96565b91505092915050565b60008115159050919050565b611ded81611dd8565b82525050565b6000602082019050611e086000830184611de4565b92915050565b611e1781611d2f565b8114611e2257600080fd5b50565b600081359050611e3481611e0e565b92915050565b600060208284031215611e5057611e4f611d75565b5b6000611e5e84828501611e25565b91505092915050565b600080fd5b600080fd5b7f4e487b7100000000000000000000000000000000000000000000000000000000600052604160045260246000fd5b611ea982611ca3565b810181811067ffffffffffffffff82111715611ec857611ec7611e71565b5b80604052505050565b6000611edb611d6b565b9050611ee78282611ea0565b919050565b600067ffffffffffffffff821115611f0757611f06611e71565b5b611f1082611ca3565b9050602081019050919050565b82818337600083830152505050565b6000611f3f611f3a84611eec565b611ed1565b905082815260208101848484011115611f5b57611f5a611e6c565b5b611f66848285611f1d565b509392505050565b600082601f830112611f8357611f82611e67565b5b8135611f93848260208601611f2c565b91505092915050565b600060208284031215611fb257611fb1611d75565b5b600082013567ffffffffffffffff811115611fd057611fcf611d7a565b5b611fdc84828501611f6e565b91505092915050565b611fee81611dd8565b8114611ff957600080fd5b50565b60008135905061200b81611fe5565b92915050565b60006020828403121561202757612026611d75565b5b600061203584828501611ffc565b91505092915050565b600067ffffffffffffffff82111561205957612058611e71565b5b61206282611ca3565b9050602081019050919050565b600061208261207d8461203e565b611ed1565b90508281526020810184848401111561209e5761209d611e6c565b5b6120a9848285611f1d565b509392505050565b600082601f8301126120c6576120c5611e67565b5b81356120d684826020860161206f565b91505092915050565b6000602082840312156120f5576120f4611d75565b5b600082013567ffffffffffffffff81111561211357612112611d7a565b5b61211f848285016120b1565b91505092915050565b6000819050919050565b61213b81612128565b811461214657600080fd5b50565b60008135905061215881612132565b92915050565b60006020828403121561217457612173611d75565b5b600061218284828501612149565b91505092915050565b7f4e487b7100000000000000000000000000000000000000000000000000000000600052602160045260246000fd5b7f747970653a200000000000000000000000000000000000000000000000000000815250565b600081905092915050565b60006121f682611c5d565b61220081856121e0565b9350612210818560208601611c79565b80840191505092915050565b7f202c200000000000000000000000000000000000000000000000000000000000815250565b600061224d826121ba565b60068201915061225d82846121eb565b91506122688261221c565b60038201915081905092915050565b7f7072696f726974793a2000000000000000000000000000000000000000000000815250565b60006122a882612277565b600a820191506122b882846121eb565b91506122c38261221c565b60038201915081905092915050565b7f7269736b3a200000000000000000000000000000000000000000000000000000815250565b6000612303826122d2565b60068201915061231382846121eb565b915061231e8261221c565b60038201915081905092915050565b7f73746167653a2000000000000000000000000000000000000000000000000000815250565b600061235e8261232d565b60078201915061236e82846121eb565b91506123798261221c565b60038201915081905092915050565b600061239482876121eb565b91506123a082866121eb565b91506123ac82856121eb565b91506123b882846121eb565b915081905095945050505050565b7f4e487b7100000000000000000000000000000000000000000000000000000000600052602260045260246000fd5b6000600282049050600182168061240d57607f821691505b6020821081036124205761241f6123c6565b5b50919050565b7f4261642072616e67652e00000000000000000000000000000000000000000000600082015250565b600061245c600a83611c68565b915061246782612426565b602082019050919050565b6000602082019050818103600083015261248b8161244f565b9050919050565b7f496e636f72726563742053746167652100000000000000000000000000000000600082015250565b60006124c8601083611c68565b91506124d382612492565b602082019050919050565b600060208201905081810360008301526124f7816124bb565b9050919050565b7f63726561746f723a200000000000000000000000000000000000000000000000815250565b600061252f826124fe565b60098201915061253f82846121eb565b915061254a8261221c565b60038201915081905092915050565b7f726571756972656d656e7420656e67696e6565723a2000000000000000000000815250565b600061258a82612559565b60168201915061259a82846121eb565b91506125a58261221c565b60038201915081905092915050565b7f726571756972656d656e7420616e616c7973743a200000000000000000000000815250565b60006125e5826125b4565b6015820191506125f582846121eb565b91506126008261221c565b60038201915081905092915050565b7f6d616e616765723a200000000000000000000000000000000000000000000000815250565b60006126408261260f565b60098201915061265082846121eb565b915061265b8261221c565b60038201915081905092915050565b60008160601b9050919050565b60006126828261266a565b9050919050565b600061269482612677565b9050919050565b6126ac6126a782611d2f565b612689565b82525050565b60006126be828461269b565b60148201915081905092915050565b6000819050919050565b6126e86126e382611c29565b6126cd565b82525050565b60006126fa82846126d7565b60208201915081905092915050565b7f497420686173206265656e2076616c6964617465642e00000000000000000000600082015250565b600061273f601683611c68565b915061274a82612709565b602082019050919050565b6000602082019050818103600083015261276e81612732565b9050919050565b7f4e487b7100000000000000000000000000000000000000000000000000000000600052601160045260246000fd5b60006127af82611c29565b91506127ba83611c29565b92508282026127c881611c29565b915082820484148315176127df576127de612775565b5b5092915050565b60006127f182611c29565b91506127fc83611c29565b925082820190508082111561281457612813612775565b5b92915050565b7f4e487b7100000000000000000000000000000000000000000000000000000000600052603260045260246000fd5b60008190508160005260206000209050919050565b60006020601f8301049050919050565b600082821b905092915050565b6000600883026128ab7fffffffffffffffffffffffffffffffffffffffffffffffffffffffffffffffff8261286e565b6128b5868361286e565b95508019841693508086168417925050509392505050565b6000819050919050565b60006128f26128ed6128e884611c29565b6128cd565b611c29565b9050919050565b6000819050919050565b61290c836128d7565b612920612918826128f9565b84845461287b565b825550505050565b600090565b612935612928565b612940818484612903565b505050565b5b818110156129645761295960008261292d565b600181019050612946565b5050565b601f8211156129a95761297a81612849565b6129838461285e565b81016020851015612992578190505b6129a661299e8561285e565b830182612945565b50505b505050565b600082821c905092915050565b60006129cc600019846008026129ae565b1980831691505092915050565b60006129e583836129bb565b9150826002028217905092915050565b6129fe82611c5d565b67ffffffffffffffff811115612a1757612a16611e71565b5b612a2182546123f5565b612a2c828285612968565b600060209050601f831160018114612a5f5760008415612a4d578287015190505b612a5785826129d9565b865550612abf565b601f198416612a6d86612849565b60005b82811015612a9557848901518255600182019150602085019450602081019050612a70565b86831015612ab25784890151612aae601f8916826129bb565b8355505b6001600288020188555050505b505050505050565b6000612ad382866121eb565b9150612adf82856121eb565b9150612aeb82846121eb565b9150819050949350505050565b6000819050919050565b612b13612b0e82612128565b612af8565b82525050565b6000612b258284612b02565b60208201915081905092915050565b7f69643a2000000000000000000000000000000000000000000000000000000000815250565b6000612b6582612b34565b600482019150612b7582846121eb565b9150612b808261221c565b60038201915081905092915050565b7f6e616d653a200000000000000000000000000000000000000000000000000000815250565b60008154612bc2816123f5565b612bcc81866121e0565b94506001821660008114612be75760018114612bfc57612c2f565b60ff1983168652811515820286019350612c2f565b612c0585612849565b60005b83811015612c2757815481890152600182019150602081019050612c08565b838801955050505b50505092915050565b6000612c4382612b8f565b600682019150612c538284612bb5565b9150612c5e8261221c565b60038201915081905092915050565b7f6465736372697074696f6e3a2000000000000000000000000000000000000000815250565b6000612c9e82612c6d565b600d82019150612cae8284612bb5565b9150612cb98261221c565b60038201915081905092915050565b7f76616c6964617465643a20000000000000000000000000000000000000000000815250565b6000612cf982612cc8565b600b82019150612d0982846121eb565b9150612d148261221c565b60038201915081905092915050565b7f76657269666965643a2000000000000000000000000000000000000000000000815250565b6000612d5482612d23565b600a82019150612d6482846121eb565b9150612d6f8261221c565b60038201915081905092915050565b6000612d8a82886121eb565b9150612d9682876121eb565b9150612da282866121eb565b9150612dae82856121eb565b9150612dba82846121eb565b91508190509695505050505050565b7f497420686173206265656e2076657269666965642e0000000000000000000000600082015250565b6000612dff601583611c68565b9150612e0a82612dc9565b602082019050919050565b60006020820190508181036000830152612e2e81612df2565b905091905056fea26469706673582212207b6f9880f4be66e4524152de75bf6dd9f73e9d0614ac58c0935564df402a6c6164736f6c63430008180033","opcodes":"PUSH1 0x80 PUSH1 0x40 MSTORE PUSH1 0x0 PUSH1 0x7 PUSH1 0x5 PUSH2 0x100 EXP DUP2 SLOAD DUP2 PUSH1 0xFF MUL NOT AND SWAP1 DUP4 PUSH1 0x4 DUP2 GT ISZERO PUSH3 0x2D JUMPI PUSH3 0x2C PUSH3 0x181 JUMP JUMPDEST JUMPDEST MUL OR SWAP1 SSTORE POP CALLVALUE DUP1 ISZERO PUSH3 0x3F JUMPI PUSH1 0x0 DUP1 REVERT JUMPDEST POP PUSH1 0x40 MLOAD PUSH3 0x364C CODESIZE SUB DUP1 PUSH3 0x364C DUP4 CODECOPY DUP2 DUP2 ADD PUSH1 0x40 MSTORE DUP2 ADD SWAP1 PUSH3 0x65 SWAP2 SWAP1 PUSH3 0x3E3 JUMP JUMPDEST DUP5 PUSH1 0x0 DUP2 SWAP1 SSTORE POP DUP4 PUSH1 0x1 SWAP1 DUP2 PUSH3 0x7D SWAP2 SWAP1 PUSH3 0x6EA JUMP JUMPDEST POP DUP3 PUSH1 0x6 SWAP1 DUP2 PUSH3 0x8F SWAP2 SWAP1 PUSH3 0x6EA JUMP JUMPDEST POP DUP2 PUSH1 0x2 PUSH1 0x0 PUSH2 0x100 EXP DUP2 SLOAD DUP2 PUSH20 0xFFFFFFFFFFFFFFFFFFFFFFFFFFFFFFFFFFFFFFFF MUL NOT AND SWAP1 DUP4 PUSH20 0xFFFFFFFFFFFFFFFFFFFFFFFFFFFFFFFFFFFFFFFF AND MUL OR SWAP1 SSTORE POP DUP1 PUSH1 0x5 PUSH1 0x0 PUSH2 0x100 EXP DUP2 SLOAD DUP2 PUSH20 0xFFFFFFFFFFFFFFFFFFFFFFFFFFFFFFFFFFFFFFFF MUL NOT AND SWAP1 DUP4 PUSH20 0xFFFFFFFFFFFFFFFFFFFFFFFFFFFFFFFFFFFFFFFF AND MUL OR SWAP1 SSTORE POP PUSH1 0x0 PUSH1 0x7 PUSH1 0x0 PUSH2 0x100 EXP DUP2 SLOAD DUP2 PUSH1 0xFF MUL NOT AND SWAP1 DUP4 ISZERO ISZERO MUL OR SWAP1 SSTORE POP PUSH1 0x0 PUSH1 0x7 PUSH1 0x1 PUSH2 0x100 EXP DUP2 SLOAD DUP2 PUSH1 0xFF MUL NOT AND SWAP1 DUP4 ISZERO ISZERO MUL OR SWAP1 SSTORE POP PUSH1 0x1 PUSH1 0x7 PUSH1 0x5 PUSH2 0x100 EXP DUP2 SLOAD DUP2 PUSH1 0xFF MUL NOT AND SWAP1 DUP4 PUSH1 0x4 DUP2 GT ISZERO PUSH3 0x171 JUMPI PUSH3 0x170 PUSH3 0x181 JUMP JUMPDEST JUMPDEST MUL OR SWAP1 SSTORE POP POP POP POP POP POP PUSH3 0x7D1 JUMP JUMPDEST PUSH32 0x4E487B7100000000000000000000000000000000000000000000000000000000 PUSH1 0x0 MSTORE PUSH1 0x21 PUSH1 0x4 MSTORE PUSH1 0x24 PUSH1 0x0 REVERT JUMPDEST PUSH1 0x0 PUSH1 0x40 MLOAD SWAP1 POP SWAP1 JUMP JUMPDEST PUSH1 0x0 DUP1 REVERT JUMPDEST PUSH1 0x0 DUP1 REVERT JUMPDEST PUSH1 0x0 DUP2 SWAP1 POP SWAP2 SWAP1 POP JUMP JUMPDEST PUSH3 0x1D9 DUP2 PUSH3 0x1C4 JUMP JUMPDEST DUP2 EQ PUSH3 0x1E5 JUMPI PUSH1 0x0 DUP1 REVERT JUMPDEST POP JUMP JUMPDEST PUSH1 0x0 DUP2 MLOAD SWAP1 POP PUSH3 0x1F9 DUP2 PUSH3 0x1CE JUMP JUMPDEST SWAP3 SWAP2 POP POP JUMP JUMPDEST PUSH1 0x0 DUP1 REVERT JUMPDEST PUSH1 0x0 DUP1 REVERT JUMPDEST PUSH1 0x0 PUSH1 0x1F NOT PUSH1 0x1F DUP4 ADD AND SWAP1 POP SWAP2 SWAP1 POP JUMP JUMPDEST PUSH32 0x4E487B7100000000000000000000000000000000000000000000000000000000 PUSH1 0x0 MSTORE PUSH1 0x41 PUSH1 0x4 MSTORE PUSH1 0x24 PUSH1 0x0 REVERT JUMPDEST PUSH3 0x254 DUP3 PUSH3 0x209 JUMP JUMPDEST DUP2 ADD DUP2 DUP2 LT PUSH8 0xFFFFFFFFFFFFFFFF DUP3 GT OR ISZERO PUSH3 0x276 JUMPI PUSH3 0x275 PUSH3 0x21A JUMP JUMPDEST JUMPDEST DUP1 PUSH1 0x40 MSTORE POP POP POP JUMP JUMPDEST PUSH1 0x0 PUSH3 0x28B PUSH3 0x1B0 JUMP JUMPDEST SWAP1 POP PUSH3 0x299 DUP3 DUP3 PUSH3 0x249 JUMP JUMPDEST SWAP2 SWAP1 POP JUMP JUMPDEST PUSH1 0x0 PUSH8 0xFFFFFFFFFFFFFFFF DUP3 GT ISZERO PUSH3 0x2BC JUMPI PUSH3 0x2BB PUSH3 0x21A JUMP JUMPDEST JUMPDEST PUSH3 0x2C7 DUP3 PUSH3 0x209 JUMP JUMPDEST SWAP1 POP PUSH1 0x20 DUP2 ADD SWAP1 POP SWAP2 SWAP1 POP JUMP JUMPDEST PUSH1 0x0 JUMPDEST DUP4 DUP2 LT ISZERO PUSH3 0x2F4 JUMPI DUP1 DUP3 ADD MLOAD DUP2 DUP5 ADD MSTORE PUSH1 0x20 DUP2 ADD SWAP1 POP PUSH3 0x2D7 JUMP JUMPDEST PUSH1 0x0 DUP5 DUP5 ADD MSTORE POP POP POP POP JUMP JUMPDEST PUSH1 0x0 PUSH3 0x317 PUSH3 0x311 DUP5 PUSH3 0x29E JUMP JUMPDEST PUSH3 0x27F JUMP JUMPDEST SWAP1 POP DUP3 DUP2 MSTORE PUSH1 0x20 DUP2 ADD DUP5 DUP5 DUP5 ADD GT ISZERO PUSH3 0x336 JUMPI PUSH3 0x335 PUSH3 0x204 JUMP JUMPDEST JUMPDEST PUSH3 0x343 DUP5 DUP3 DUP6 PUSH3 0x2D4 JUMP JUMPDEST POP SWAP4 SWAP3 POP POP POP JUMP JUMPDEST PUSH1 0x0 DUP3 PUSH1 0x1F DUP4 ADD SLT PUSH3 0x363 JUMPI PUSH3 0x362 PUSH3 0x1FF JUMP JUMPDEST JUMPDEST DUP2 MLOAD PUSH3 0x375 DUP5 DUP3 PUSH1 0x20 DUP7 ADD PUSH3 0x300 JUMP JUMPDEST SWAP2 POP POP SWAP3 SWAP2 POP POP JUMP JUMPDEST PUSH1 0x0 PUSH20 0xFFFFFFFFFFFFFFFFFFFFFFFFFFFFFFFFFFFFFFFF DUP3 AND SWAP1 POP SWAP2 SWAP1 POP JUMP JUMPDEST PUSH1 0x0 PUSH3 0x3AB DUP3 PUSH3 0x37E JUMP JUMPDEST SWAP1 POP SWAP2 SWAP1 POP JUMP JUMPDEST PUSH3 0x3BD DUP2 PUSH3 0x39E JUMP JUMPDEST DUP2 EQ PUSH3 0x3C9 JUMPI PUSH1 0x0 DUP1 REVERT JUMPDEST POP JUMP JUMPDEST PUSH1 0x0 DUP2 MLOAD SWAP1 POP PUSH3 0x3DD DUP2 PUSH3 0x3B2 JUMP JUMPDEST SWAP3 SWAP2 POP POP JUMP JUMPDEST PUSH1 0x0 DUP1 PUSH1 0x0 DUP1 PUSH1 0x0 PUSH1 0xA0 DUP7 DUP9 SUB SLT ISZERO PUSH3 0x402 JUMPI PUSH3 0x401 PUSH3 0x1BA JUMP JUMPDEST JUMPDEST PUSH1 0x0 PUSH3 0x412 DUP9 DUP3 DUP10 ADD PUSH3 0x1E8 JUMP JUMPDEST SWAP6 POP POP PUSH1 0x20 DUP7 ADD MLOAD PUSH8 0xFFFFFFFFFFFFFFFF DUP2 GT ISZERO PUSH3 0x436 JUMPI PUSH3 0x435 PUSH3 0x1BF JUMP JUMPDEST JUMPDEST PUSH3 0x444 DUP9 DUP3 DUP10 ADD PUSH3 0x34B JUMP JUMPDEST SWAP5 POP POP PUSH1 0x40 DUP7 ADD MLOAD PUSH8 0xFFFFFFFFFFFFFFFF DUP2 GT ISZERO PUSH3 0x468 JUMPI PUSH3 0x467 PUSH3 0x1BF JUMP JUMPDEST JUMPDEST PUSH3 0x476 DUP9 DUP3 DUP10 ADD PUSH3 0x34B JUMP JUMPDEST SWAP4 POP POP PUSH1 0x60 PUSH3 0x489 DUP9 DUP3 DUP10 ADD PUSH3 0x3CC JUMP JUMPDEST SWAP3 POP POP PUSH1 0x80 PUSH3 0x49C DUP9 DUP3 DUP10 ADD PUSH3 0x3CC JUMP JUMPDEST SWAP2 POP POP SWAP3 SWAP6 POP SWAP3 SWAP6 SWAP1 SWAP4 POP JUMP JUMPDEST PUSH1 0x0 DUP2 MLOAD SWAP1 POP SWAP2 SWAP1 POP JUMP JUMPDEST PUSH32 0x4E487B7100000000000000000000000000000000000000000000000000000000 PUSH1 0x0 MSTORE PUSH1 0x22 PUSH1 0x4 MSTORE PUSH1 0x24 PUSH1 0x0 REVERT JUMPDEST PUSH1 0x0 PUSH1 0x2 DUP3 DIV SWAP1 POP PUSH1 0x1 DUP3 AND DUP1 PUSH3 0x4FC JUMPI PUSH1 0x7F DUP3 AND SWAP2 POP JUMPDEST PUSH1 0x20 DUP3 LT DUP2 SUB PUSH3 0x512 JUMPI PUSH3 0x511 PUSH3 0x4B4 JUMP JUMPDEST JUMPDEST POP SWAP2 SWAP1 POP JUMP JUMPDEST PUSH1 0x0 DUP2 SWAP1 POP DUP2 PUSH1 0x0 MSTORE PUSH1 0x20 PUSH1 0x0 KECCAK256 SWAP1 POP SWAP2 SWAP1 POP JUMP JUMPDEST PUSH1 0x0 PUSH1 0x20 PUSH1 0x1F DUP4 ADD DIV SWAP1 POP SWAP2 SWAP1 POP JUMP JUMPDEST PUSH1 0x0 DUP3 DUP3 SHL SWAP1 POP SWAP3 SWAP2 POP POP JUMP JUMPDEST PUSH1 0x0 PUSH1 0x8 DUP4 MUL PUSH3 0x57C PUSH32 0xFFFFFFFFFFFFFFFFFFFFFFFFFFFFFFFFFFFFFFFFFFFFFFFFFFFFFFFFFFFFFFFF DUP3 PUSH3 0x53D JUMP JUMPDEST PUSH3 0x588 DUP7 DUP4 PUSH3 0x53D JUMP JUMPDEST SWAP6 POP DUP1 NOT DUP5 AND SWAP4 POP DUP1 DUP7 AND DUP5 OR SWAP3 POP POP POP SWAP4 SWAP3 POP POP POP JUMP JUMPDEST PUSH1 0x0 DUP2 SWAP1 POP SWAP2 SWAP1 POP JUMP JUMPDEST PUSH1 0x0 PUSH3 0x5CB PUSH3 0x5C5 PUSH3 0x5BF DUP5 PUSH3 0x1C4 JUMP JUMPDEST PUSH3 0x5A0 JUMP JUMPDEST PUSH3 0x1C4 JUMP JUMPDEST SWAP1 POP SWAP2 SWAP1 POP JUMP JUMPDEST PUSH1 0x0 DUP2 SWAP1 POP SWAP2 SWAP1 POP JUMP JUMPDEST PUSH3 0x5E7 DUP4 PUSH3 0x5AA JUMP JUMPDEST PUSH3 0x5FF PUSH3 0x5F6 DUP3 PUSH3 0x5D2 JUMP JUMPDEST DUP5 DUP5 SLOAD PUSH3 0x54A JUMP JUMPDEST DUP3 SSTORE POP POP POP POP JUMP JUMPDEST PUSH1 0x0 SWAP1 JUMP JUMPDEST PUSH3 0x616 PUSH3 0x607 JUMP JUMPDEST PUSH3 0x623 DUP2 DUP5 DUP5 PUSH3 0x5DC JUMP JUMPDEST POP POP POP JUMP JUMPDEST JUMPDEST DUP2 DUP2 LT ISZERO PUSH3 0x64B JUMPI PUSH3 0x63F PUSH1 0x0 DUP3 PUSH3 0x60C JUMP JUMPDEST PUSH1 0x1 DUP2 ADD SWAP1 POP PUSH3 0x629 JUMP JUMPDEST POP POP JUMP JUMPDEST PUSH1 0x1F DUP3 GT ISZERO PUSH3 0x69A JUMPI PUSH3 0x664 DUP2 PUSH3 0x518 JUMP JUMPDEST PUSH3 0x66F DUP5 PUSH3 0x52D JUMP JUMPDEST DUP2 ADD PUSH1 0x20 DUP6 LT ISZERO PUSH3 0x67F JUMPI DUP2 SWAP1 POP JUMPDEST PUSH3 0x697 PUSH3 0x68E DUP6 PUSH3 0x52D JUMP JUMPDEST DUP4 ADD DUP3 PUSH3 0x628 JUMP JUMPDEST POP POP JUMPDEST POP POP POP JUMP JUMPDEST PUSH1 0x0 DUP3 DUP3 SHR SWAP1 POP SWAP3 SWAP2 POP POP JUMP JUMPDEST PUSH1 0x0 PUSH3 0x6BF PUSH1 0x0 NOT DUP5 PUSH1 0x8 MUL PUSH3 0x69F JUMP JUMPDEST NOT DUP1 DUP4 AND SWAP2 POP POP SWAP3 SWAP2 POP POP JUMP JUMPDEST PUSH1 0x0 PUSH3 0x6DA DUP4 DUP4 PUSH3 0x6AC JUMP JUMPDEST SWAP2 POP DUP3 PUSH1 0x2 MUL DUP3 OR SWAP1 POP SWAP3 SWAP2 POP POP JUMP JUMPDEST PUSH3 0x6F5 DUP3 PUSH3 0x4A9 JUMP JUMPDEST PUSH8 0xFFFFFFFFFFFFFFFF DUP2 GT ISZERO PUSH3 0x711 JUMPI PUSH3 0x710 PUSH3 0x21A JUMP JUMPDEST JUMPDEST PUSH3 0x71D DUP3 SLOAD PUSH3 0x4E3 JUMP JUMPDEST PUSH3 0x72A DUP3 DUP3 DUP6 PUSH3 0x64F JUMP JUMPDEST PUSH1 0x0 PUSH1 0x20 SWAP1 POP PUSH1 0x1F DUP4 GT PUSH1 0x1 DUP2 EQ PUSH3 0x762 JUMPI PUSH1 0x0 DUP5 ISZERO PUSH3 0x74D JUMPI DUP3 DUP8 ADD MLOAD SWAP1 POP JUMPDEST PUSH3 0x759 DUP6 DUP3 PUSH3 0x6CC JUMP JUMPDEST DUP7 SSTORE POP PUSH3 0x7C9 JUMP JUMPDEST PUSH1 0x1F NOT DUP5 AND PUSH3 0x772 DUP7 PUSH3 0x518 JUMP JUMPDEST PUSH1 0x0 JUMPDEST DUP3 DUP2 LT ISZERO PUSH3 0x79C JUMPI DUP5 DUP10 ADD MLOAD DUP3 SSTORE PUSH1 0x1 DUP3 ADD SWAP2 POP PUSH1 0x20 DUP6 ADD SWAP5 POP PUSH1 0x20 DUP2 ADD SWAP1 POP PUSH3 0x775 JUMP JUMPDEST DUP7 DUP4 LT ISZERO PUSH3 0x7BC JUMPI DUP5 DUP10 ADD MLOAD PUSH3 0x7B8 PUSH1 0x1F DUP10 AND DUP3 PUSH3 0x6AC JUMP JUMPDEST DUP4 SSTORE POP JUMPDEST PUSH1 0x1 PUSH1 0x2 DUP9 MUL ADD DUP9 SSTORE POP POP POP JUMPDEST POP POP POP POP POP POP JUMP JUMPDEST PUSH2 0x2E6B DUP1 PUSH3 0x7E1 PUSH1 0x0 CODECOPY PUSH1 0x0 RETURN INVALID PUSH1 0x80 PUSH1 0x40 MSTORE CALLVALUE DUP1 ISZERO PUSH2 0x10 JUMPI PUSH1 0x0 DUP1 REVERT JUMPDEST POP PUSH1 0x4 CALLDATASIZE LT PUSH2 0x1F0 JUMPI PUSH1 0x0 CALLDATALOAD PUSH1 0xE0 SHR DUP1 PUSH4 0x6900A3AE GT PUSH2 0x10F JUMPI DUP1 PUSH4 0xB11A19E8 GT PUSH2 0xA2 JUMPI DUP1 PUSH4 0xEEB1191A GT PUSH2 0x71 JUMPI DUP1 PUSH4 0xEEB1191A EQ PUSH2 0x577 JUMPI DUP1 PUSH4 0xF6C8F7E1 EQ PUSH2 0x593 JUMPI DUP1 PUSH4 0xFC735E99 EQ PUSH2 0x5B1 JUMPI DUP1 PUSH4 0xFCAA7664 EQ PUSH2 0x5BB JUMPI PUSH2 0x1F0 JUMP JUMPDEST DUP1 PUSH4 0xB11A19E8 EQ PUSH2 0x4ED JUMPI DUP1 PUSH4 0xB3205DFA EQ PUSH2 0x51D JUMPI DUP1 PUSH4 0xD05C6627 EQ PUSH2 0x53B JUMPI DUP1 PUSH4 0xD75088A1 EQ PUSH2 0x559 JUMPI PUSH2 0x1F0 JUMP JUMPDEST DUP1 PUSH4 0x80007E83 GT PUSH2 0xDE JUMPI DUP1 PUSH4 0x80007E83 EQ PUSH2 0x479 JUMPI DUP1 PUSH4 0x90C3F38F EQ PUSH2 0x497 JUMPI DUP1 PUSH4 0xA8113654 EQ PUSH2 0x4B3 JUMPI DUP1 PUSH4 0xA813DEA6 EQ PUSH2 0x4D1 JUMPI PUSH2 0x1F0 JUMP JUMPDEST DUP1 PUSH4 0x6900A3AE EQ PUSH2 0x3DF JUMPI DUP1 PUSH4 0x6901F668 EQ PUSH2 0x40F JUMPI DUP1 PUSH4 0x71AAD10D EQ PUSH2 0x419 JUMPI DUP1 PUSH4 0x71DCE7DA EQ PUSH2 0x449 JUMPI PUSH2 0x1F0 JUMP JUMPDEST DUP1 PUSH4 0x24A872F8 GT PUSH2 0x187 JUMPI DUP1 PUSH4 0x524FA88E GT PUSH2 0x156 JUMPI DUP1 PUSH4 0x524FA88E EQ PUSH2 0x357 JUMPI DUP1 PUSH4 0x56CA623E EQ PUSH2 0x373 JUMPI DUP1 PUSH4 0x5D1CA631 EQ PUSH2 0x3A3 JUMPI DUP1 PUSH4 0x5D8C6FAA EQ PUSH2 0x3C1 JUMPI PUSH2 0x1F0 JUMP JUMPDEST DUP1 PUSH4 0x24A872F8 EQ PUSH2 0x2E3 JUMPI DUP1 PUSH4 0x3BCBE08A EQ PUSH2 0x301 JUMPI DUP1 PUSH4 0x3EB1D777 EQ PUSH2 0x31D JUMPI DUP1 PUSH4 0x51B7AA30 EQ PUSH2 0x339 JUMPI PUSH2 0x1F0 JUMP JUMPDEST DUP1 PUSH4 0x17A2DA08 GT PUSH2 0x1C3 JUMPI DUP1 PUSH4 0x17A2DA08 EQ PUSH2 0x26D JUMPI DUP1 PUSH4 0x17D7DE7C EQ PUSH2 0x28B JUMPI DUP1 PUSH4 0x1A092541 EQ PUSH2 0x2A9 JUMPI DUP1 PUSH4 0x21A50A93 EQ PUSH2 0x2C7 JUMPI PUSH2 0x1F0 JUMP JUMPDEST DUP1 PUSH4 0x2676D39 EQ PUSH2 0x1F5 JUMPI DUP1 PUSH4 0x2955B14 EQ PUSH2 0x213 JUMPI DUP1 PUSH4 0xEE2CB10 EQ PUSH2 0x231 JUMPI DUP1 PUSH4 0x15DAE03E EQ PUSH2 0x24F JUMPI JUMPDEST PUSH1 0x0 DUP1 REVERT JUMPDEST PUSH2 0x1FD PUSH2 0x5D9 JUMP JUMPDEST PUSH1 0x40 MLOAD PUSH2 0x20A SWAP2 SWAP1 PUSH2 0x1C42 JUMP JUMPDEST PUSH1 0x40 MLOAD DUP1 SWAP2 SUB SWAP1 RETURN JUMPDEST PUSH2 0x21B PUSH2 0x602 JUMP JUMPDEST PUSH1 0x40 MLOAD PUSH2 0x228 SWAP2 SWAP1 PUSH2 0x1CED JUMP JUMPDEST PUSH1 0x40 MLOAD DUP1 SWAP2 SUB SWAP1 RETURN JUMPDEST PUSH2 0x239 PUSH2 0x730 JUMP JUMPDEST PUSH1 0x40 MLOAD PUSH2 0x246 SWAP2 SWAP1 PUSH2 0x1D50 JUMP JUMPDEST PUSH1 0x40 MLOAD DUP1 SWAP2 SUB SWAP1 RETURN JUMPDEST PUSH2 0x257 PUSH2 0x75A JUMP JUMPDEST PUSH1 0x40 MLOAD PUSH2 0x264 SWAP2 SWAP1 PUSH2 0x1C42 JUMP JUMPDEST PUSH1 0x40 MLOAD DUP1 SWAP2 SUB SWAP1 RETURN JUMPDEST PUSH2 0x275 PUSH2 0x783 JUMP JUMPDEST PUSH1 0x40 MLOAD PUSH2 0x282 SWAP2 SWAP1 PUSH2 0x1CED JUMP JUMPDEST PUSH1 0x40 MLOAD DUP1 SWAP2 SUB SWAP1 RETURN JUMPDEST PUSH2 0x293 PUSH2 0x86C JUMP JUMPDEST PUSH1 0x40 MLOAD PUSH2 0x2A0 SWAP2 SWAP1 PUSH2 0x1CED JUMP JUMPDEST PUSH1 0x40 MLOAD DUP1 SWAP2 SUB SWAP1 RETURN JUMPDEST PUSH2 0x2B1 PUSH2 0x8FE JUMP JUMPDEST PUSH1 0x40 MLOAD PUSH2 0x2BE SWAP2 SWAP1 PUSH2 0x1CED JUMP JUMPDEST PUSH1 0x40 MLOAD DUP1 SWAP2 SUB SWAP1 RETURN JUMPDEST PUSH2 0x2E1 PUSH1 0x4 DUP1 CALLDATASIZE SUB DUP2 ADD SWAP1 PUSH2 0x2DC SWAP2 SWAP1 PUSH2 0x1DAB JUMP JUMPDEST PUSH2 0x990 JUMP JUMPDEST STOP JUMPDEST PUSH2 0x2EB PUSH2 0xAC3 JUMP JUMPDEST PUSH1 0x40 MLOAD PUSH2 0x2F8 SWAP2 SWAP1 PUSH2 0x1DF3 JUMP JUMPDEST PUSH1 0x40 MLOAD DUP1 SWAP2 SUB SWAP1 RETURN JUMPDEST PUSH2 0x31B PUSH1 0x4 DUP1 CALLDATASIZE SUB DUP2 ADD SWAP1 PUSH2 0x316 SWAP2 SWAP1 PUSH2 0x1E3A JUMP JUMPDEST PUSH2 0xADA JUMP JUMPDEST STOP JUMPDEST PUSH2 0x337 PUSH1 0x4 DUP1 CALLDATASIZE SUB DUP2 ADD SWAP1 PUSH2 0x332 SWAP2 SWAP1 PUSH2 0x1DAB JUMP JUMPDEST PUSH2 0xB1E JUMP JUMPDEST STOP JUMPDEST PUSH2 0x341 PUSH2 0xC77 JUMP JUMPDEST PUSH1 0x40 MLOAD PUSH2 0x34E SWAP2 SWAP1 PUSH2 0x1CED JUMP JUMPDEST PUSH1 0x40 MLOAD DUP1 SWAP2 SUB SWAP1 RETURN JUMPDEST PUSH2 0x371 PUSH1 0x4 DUP1 CALLDATASIZE SUB DUP2 ADD SWAP1 PUSH2 0x36C SWAP2 SWAP1 PUSH2 0x1E3A JUMP JUMPDEST PUSH2 0xDEC JUMP JUMPDEST STOP JUMPDEST PUSH2 0x38D PUSH1 0x4 DUP1 CALLDATASIZE SUB DUP2 ADD SWAP1 PUSH2 0x388 SWAP2 SWAP1 PUSH2 0x1E3A JUMP JUMPDEST PUSH2 0xE30 JUMP JUMPDEST PUSH1 0x40 MLOAD PUSH2 0x39A SWAP2 SWAP1 PUSH2 0x1CED JUMP JUMPDEST PUSH1 0x40 MLOAD DUP1 SWAP2 SUB SWAP1 RETURN JUMPDEST PUSH2 0x3AB PUSH2 0xE61 JUMP JUMPDEST PUSH1 0x40 MLOAD PUSH2 0x3B8 SWAP2 SWAP1 PUSH2 0x1C42 JUMP JUMPDEST PUSH1 0x40 MLOAD DUP1 SWAP2 SUB SWAP1 RETURN JUMPDEST PUSH2 0x3C9 PUSH2 0xE6A JUMP JUMPDEST PUSH1 0x40 MLOAD PUSH2 0x3D6 SWAP2 SWAP1 PUSH2 0x1CED JUMP JUMPDEST PUSH1 0x40 MLOAD DUP1 SWAP2 SUB SWAP1 RETURN JUMPDEST PUSH2 0x3F9 PUSH1 0x4 DUP1 CALLDATASIZE SUB DUP2 ADD SWAP1 PUSH2 0x3F4 SWAP2 SWAP1 PUSH2 0x1DAB JUMP JUMPDEST PUSH2 0xF98 JUMP JUMPDEST PUSH1 0x40 MLOAD PUSH2 0x406 SWAP2 SWAP1 PUSH2 0x1CED JUMP JUMPDEST PUSH1 0x40 MLOAD DUP1 SWAP2 SUB SWAP1 RETURN JUMPDEST PUSH2 0x417 PUSH2 0xFC9 JUMP JUMPDEST STOP JUMPDEST PUSH2 0x433 PUSH1 0x4 DUP1 CALLDATASIZE SUB DUP2 ADD SWAP1 PUSH2 0x42E SWAP2 SWAP1 PUSH2 0x1F9C JUMP JUMPDEST PUSH2 0x1082 JUMP JUMPDEST PUSH1 0x40 MLOAD PUSH2 0x440 SWAP2 SWAP1 PUSH2 0x1CED JUMP JUMPDEST PUSH1 0x40 MLOAD DUP1 SWAP2 SUB SWAP1 RETURN JUMPDEST PUSH2 0x463 PUSH1 0x4 DUP1 CALLDATASIZE SUB DUP2 ADD SWAP1 PUSH2 0x45E SWAP2 SWAP1 PUSH2 0x2011 JUMP JUMPDEST PUSH2 0x1376 JUMP JUMPDEST PUSH1 0x40 MLOAD PUSH2 0x470 SWAP2 SWAP1 PUSH2 0x1CED JUMP JUMPDEST PUSH1 0x40 MLOAD DUP1 SWAP2 SUB SWAP1 RETURN JUMPDEST PUSH2 0x481 PUSH2 0x13F9 JUMP JUMPDEST PUSH1 0x40 MLOAD PUSH2 0x48E SWAP2 SWAP1 PUSH2 0x1DF3 JUMP JUMPDEST PUSH1 0x40 MLOAD DUP1 SWAP2 SUB SWAP1 RETURN JUMPDEST PUSH2 0x4B1 PUSH1 0x4 DUP1 CALLDATASIZE SUB DUP2 ADD SWAP1 PUSH2 0x4AC SWAP2 SWAP1 PUSH2 0x20DF JUMP JUMPDEST PUSH2 0x1410 JUMP JUMPDEST STOP JUMPDEST PUSH2 0x4BB PUSH2 0x146F JUMP JUMPDEST PUSH1 0x40 MLOAD PUSH2 0x4C8 SWAP2 SWAP1 PUSH2 0x1CED JUMP JUMPDEST PUSH1 0x40 MLOAD DUP1 SWAP2 SUB SWAP1 RETURN JUMPDEST PUSH2 0x4EB PUSH1 0x4 DUP1 CALLDATASIZE SUB DUP2 ADD SWAP1 PUSH2 0x4E6 SWAP2 SWAP1 PUSH2 0x1DAB JUMP JUMPDEST PUSH2 0x14C1 JUMP JUMPDEST STOP JUMPDEST PUSH2 0x507 PUSH1 0x4 DUP1 CALLDATASIZE SUB DUP2 ADD SWAP1 PUSH2 0x502 SWAP2 SWAP1 PUSH2 0x215E JUMP JUMPDEST PUSH2 0x15BB JUMP JUMPDEST PUSH1 0x40 MLOAD PUSH2 0x514 SWAP2 SWAP1 PUSH2 0x1CED JUMP JUMPDEST PUSH1 0x40 MLOAD DUP1 SWAP2 SUB SWAP1 RETURN JUMPDEST PUSH2 0x525 PUSH2 0x15EC JUMP JUMPDEST PUSH1 0x40 MLOAD PUSH2 0x532 SWAP2 SWAP1 PUSH2 0x1CED JUMP JUMPDEST PUSH1 0x40 MLOAD DUP1 SWAP2 SUB SWAP1 RETURN JUMPDEST PUSH2 0x543 PUSH2 0x180A JUMP JUMPDEST PUSH1 0x40 MLOAD PUSH2 0x550 SWAP2 SWAP1 PUSH2 0x1CED JUMP JUMPDEST PUSH1 0x40 MLOAD DUP1 SWAP2 SUB SWAP1 RETURN JUMPDEST PUSH2 0x561 PUSH2 0x18C0 JUMP JUMPDEST PUSH1 0x40 MLOAD PUSH2 0x56E SWAP2 SWAP1 PUSH2 0x1C42 JUMP JUMPDEST PUSH1 0x40 MLOAD DUP1 SWAP2 SUB SWAP1 RETURN JUMPDEST PUSH2 0x591 PUSH1 0x4 DUP1 CALLDATASIZE SUB DUP2 ADD SWAP1 PUSH2 0x58C SWAP2 SWAP1 PUSH2 0x1DAB JUMP JUMPDEST PUSH2 0x18E9 JUMP JUMPDEST STOP JUMPDEST PUSH2 0x59B PUSH2 0x1A1C JUMP JUMPDEST PUSH1 0x40 MLOAD PUSH2 0x5A8 SWAP2 SWAP1 PUSH2 0x1CED JUMP JUMPDEST PUSH1 0x40 MLOAD DUP1 SWAP2 SUB SWAP1 RETURN JUMPDEST PUSH2 0x5B9 PUSH2 0x1B47 JUMP JUMPDEST STOP JUMPDEST PUSH2 0x5C3 PUSH2 0x1C00 JUMP JUMPDEST PUSH1 0x40 MLOAD PUSH2 0x5D0 SWAP2 SWAP1 PUSH2 0x1C42 JUMP JUMPDEST PUSH1 0x40 MLOAD DUP1 SWAP2 SUB SWAP1 RETURN JUMPDEST PUSH1 0x0 PUSH1 0x7 PUSH1 0x4 SWAP1 SLOAD SWAP1 PUSH2 0x100 EXP SWAP1 DIV PUSH1 0xFF AND PUSH1 0x2 DUP2 GT ISZERO PUSH2 0x5FD JUMPI PUSH2 0x5FC PUSH2 0x218B JUMP JUMPDEST JUMPDEST SWAP1 POP SWAP1 JUMP JUMPDEST PUSH1 0x60 PUSH1 0x0 PUSH1 0x2 DUP2 GT ISZERO PUSH2 0x618 JUMPI PUSH2 0x617 PUSH2 0x218B JUMP JUMPDEST JUMPDEST PUSH1 0x7 PUSH1 0x3 SWAP1 SLOAD SWAP1 PUSH2 0x100 EXP SWAP1 DIV PUSH1 0xFF AND PUSH1 0x2 DUP2 GT ISZERO PUSH2 0x63A JUMPI PUSH2 0x639 PUSH2 0x218B JUMP JUMPDEST JUMPDEST SUB PUSH2 0x67C JUMPI PUSH1 0x40 MLOAD DUP1 PUSH1 0x40 ADD PUSH1 0x40 MSTORE DUP1 PUSH1 0x3 DUP2 MSTORE PUSH1 0x20 ADD PUSH32 0x6C6F770000000000000000000000000000000000000000000000000000000000 DUP2 MSTORE POP SWAP1 POP PUSH2 0x72D JUMP JUMPDEST PUSH1 0x1 PUSH1 0x2 DUP2 GT ISZERO PUSH2 0x690 JUMPI PUSH2 0x68F PUSH2 0x218B JUMP JUMPDEST JUMPDEST PUSH1 0x7 PUSH1 0x3 SWAP1 SLOAD SWAP1 PUSH2 0x100 EXP SWAP1 DIV PUSH1 0xFF AND PUSH1 0x2 DUP2 GT ISZERO PUSH2 0x6B2 JUMPI PUSH2 0x6B1 PUSH2 0x218B JUMP JUMPDEST JUMPDEST SUB PUSH2 0x6F4 JUMPI PUSH1 0x40 MLOAD DUP1 PUSH1 0x40 ADD PUSH1 0x40 MSTORE DUP1 PUSH1 0x6 DUP2 MSTORE PUSH1 0x20 ADD PUSH32 0x6D656469756D0000000000000000000000000000000000000000000000000000 DUP2 MSTORE POP SWAP1 POP PUSH2 0x72D JUMP JUMPDEST PUSH1 0x40 MLOAD DUP1 PUSH1 0x40 ADD PUSH1 0x40 MSTORE DUP1 PUSH1 0x4 DUP2 MSTORE PUSH1 0x20 ADD PUSH32 0x6869676800000000000000000000000000000000000000000000000000000000 DUP2 MSTORE POP SWAP1 POP JUMPDEST SWAP1 JUMP JUMPDEST PUSH1 0x0 PUSH1 0x2 PUSH1 0x0 SWAP1 SLOAD SWAP1 PUSH2 0x100 EXP SWAP1 DIV PUSH20 0xFFFFFFFFFFFFFFFFFFFFFFFFFFFFFFFFFFFFFFFF AND SWAP1 POP SWAP1 JUMP JUMPDEST PUSH1 0x0 PUSH1 0x7 PUSH1 0x2 SWAP1 SLOAD SWAP1 PUSH2 0x100 EXP SWAP1 DIV PUSH1 0xFF AND PUSH1 0x1 DUP2 GT ISZERO PUSH2 0x77E JUMPI PUSH2 0x77D PUSH2 0x218B JUMP JUMPDEST JUMPDEST SWAP1 POP SWAP1 JUMP JUMPDEST PUSH1 0x60 PUSH1 0x0 PUSH2 0x78F PUSH2 0x180A JUMP JUMPDEST SWAP1 POP DUP1 PUSH1 0x40 MLOAD PUSH1 0x20 ADD PUSH2 0x7A2 SWAP2 SWAP1 PUSH2 0x2242 JUMP JUMPDEST PUSH1 0x40 MLOAD PUSH1 0x20 DUP2 DUP4 SUB SUB DUP2 MSTORE SWAP1 PUSH1 0x40 MSTORE SWAP1 POP PUSH1 0x0 PUSH2 0x7BD PUSH2 0x602 JUMP JUMPDEST SWAP1 POP DUP1 PUSH1 0x40 MLOAD PUSH1 0x20 ADD PUSH2 0x7D0 SWAP2 SWAP1 PUSH2 0x229D JUMP JUMPDEST PUSH1 0x40 MLOAD PUSH1 0x20 DUP2 DUP4 SUB SUB DUP2 MSTORE SWAP1 PUSH1 0x40 MSTORE SWAP1 POP PUSH1 0x0 PUSH2 0x7EB PUSH2 0xE6A JUMP JUMPDEST SWAP1 POP DUP1 PUSH1 0x40 MLOAD PUSH1 0x20 ADD PUSH2 0x7FE SWAP2 SWAP1 PUSH2 0x22F8 JUMP JUMPDEST PUSH1 0x40 MLOAD PUSH1 0x20 DUP2 DUP4 SUB SUB DUP2 MSTORE SWAP1 PUSH1 0x40 MSTORE SWAP1 POP PUSH1 0x0 PUSH2 0x819 PUSH2 0x15EC JUMP JUMPDEST SWAP1 POP DUP1 PUSH1 0x40 MLOAD PUSH1 0x20 ADD PUSH2 0x82C SWAP2 SWAP1 PUSH2 0x2353 JUMP JUMPDEST PUSH1 0x40 MLOAD PUSH1 0x20 DUP2 DUP4 SUB SUB DUP2 MSTORE SWAP1 PUSH1 0x40 MSTORE SWAP1 POP DUP4 DUP4 DUP4 DUP4 PUSH1 0x40 MLOAD PUSH1 0x20 ADD PUSH2 0x854 SWAP5 SWAP4 SWAP3 SWAP2 SWAP1 PUSH2 0x2388 JUMP JUMPDEST PUSH1 0x40 MLOAD PUSH1 0x20 DUP2 DUP4 SUB SUB DUP2 MSTORE SWAP1 PUSH1 0x40 MSTORE SWAP5 POP POP POP POP POP SWAP1 JUMP JUMPDEST PUSH1 0x60 PUSH1 0x1 DUP1 SLOAD PUSH2 0x87B SWAP1 PUSH2 0x23F5 JUMP JUMPDEST DUP1 PUSH1 0x1F ADD PUSH1 0x20 DUP1 SWAP2 DIV MUL PUSH1 0x20 ADD PUSH1 0x40 MLOAD SWAP1 DUP2 ADD PUSH1 0x40 MSTORE DUP1 SWAP3 SWAP2 SWAP1 DUP2 DUP2 MSTORE PUSH1 0x20 ADD DUP3 DUP1 SLOAD PUSH2 0x8A7 SWAP1 PUSH2 0x23F5 JUMP JUMPDEST DUP1 ISZERO PUSH2 0x8F4 JUMPI DUP1 PUSH1 0x1F LT PUSH2 0x8C9 JUMPI PUSH2 0x100 DUP1 DUP4 SLOAD DIV MUL DUP4 MSTORE SWAP2 PUSH1 0x20 ADD SWAP2 PUSH2 0x8F4 JUMP JUMPDEST DUP3 ADD SWAP2 SWAP1 PUSH1 0x0 MSTORE PUSH1 0x20 PUSH1 0x0 KECCAK256 SWAP1 JUMPDEST DUP2 SLOAD DUP2 MSTORE SWAP1 PUSH1 0x1 ADD SWAP1 PUSH1 0x20 ADD DUP1 DUP4 GT PUSH2 0x8D7 JUMPI DUP3 SWAP1 SUB PUSH1 0x1F AND DUP3 ADD SWAP2 JUMPDEST POP POP POP POP POP SWAP1 POP SWAP1 JUMP JUMPDEST PUSH1 0x60 PUSH1 0x6 DUP1 SLOAD PUSH2 0x90D SWAP1 PUSH2 0x23F5 JUMP JUMPDEST DUP1 PUSH1 0x1F ADD PUSH1 0x20 DUP1 SWAP2 DIV MUL PUSH1 0x20 ADD PUSH1 0x40 MLOAD SWAP1 DUP2 ADD PUSH1 0x40 MSTORE DUP1 SWAP3 SWAP2 SWAP1 DUP2 DUP2 MSTORE PUSH1 0x20 ADD DUP3 DUP1 SLOAD PUSH2 0x939 SWAP1 PUSH2 0x23F5 JUMP JUMPDEST DUP1 ISZERO PUSH2 0x986 JUMPI DUP1 PUSH1 0x1F LT PUSH2 0x95B JUMPI PUSH2 0x100 DUP1 DUP4 SLOAD DIV MUL DUP4 MSTORE SWAP2 PUSH1 0x20 ADD SWAP2 PUSH2 0x986 JUMP JUMPDEST DUP3 ADD SWAP2 SWAP1 PUSH1 0x0 MSTORE PUSH1 0x20 PUSH1 0x0 KECCAK256 SWAP1 JUMPDEST DUP2 SLOAD DUP2 MSTORE SWAP1 PUSH1 0x1 ADD SWAP1 PUSH1 0x20 ADD DUP1 DUP4 GT PUSH2 0x969 JUMPI DUP3 SWAP1 SUB PUSH1 0x1F AND DUP3 ADD SWAP2 JUMPDEST POP POP POP POP POP SWAP1 POP SWAP1 JUMP JUMPDEST PUSH1 0x3 DUP2 DUP2 DUP2 LT PUSH2 0x9D5 JUMPI PUSH1 0x40 MLOAD PUSH32 0x8C379A000000000000000000000000000000000000000000000000000000000 DUP2 MSTORE PUSH1 0x4 ADD PUSH2 0x9CC SWAP1 PUSH2 0x2472 JUMP JUMPDEST PUSH1 0x40 MLOAD DUP1 SWAP2 SUB SWAP1 REVERT JUMPDEST PUSH1 0x1 DUP1 PUSH2 0x9E0 PUSH2 0x1C00 JUMP JUMPDEST EQ PUSH2 0xA20 JUMPI PUSH1 0x40 MLOAD PUSH32 0x8C379A000000000000000000000000000000000000000000000000000000000 DUP2 MSTORE PUSH1 0x4 ADD PUSH2 0xA17 SWAP1 PUSH2 0x24DE JUMP JUMPDEST PUSH1 0x40 MLOAD DUP1 SWAP2 SUB SWAP1 REVERT JUMPDEST PUSH1 0x0 DUP5 SUB PUSH2 0xA58 JUMPI PUSH1 0x0 PUSH1 0x7 PUSH1 0x3 PUSH2 0x100 EXP DUP2 SLOAD DUP2 PUSH1 0xFF MUL NOT AND SWAP1 DUP4 PUSH1 0x2 DUP2 GT ISZERO PUSH2 0xA4E JUMPI PUSH2 0xA4D PUSH2 0x218B JUMP JUMPDEST JUMPDEST MUL OR SWAP1 SSTORE POP PUSH2 0xABD JUMP JUMPDEST PUSH1 0x1 DUP5 SUB PUSH2 0xA90 JUMPI PUSH1 0x1 PUSH1 0x7 PUSH1 0x3 PUSH2 0x100 EXP DUP2 SLOAD DUP2 PUSH1 0xFF MUL NOT AND SWAP1 DUP4 PUSH1 0x2 DUP2 GT ISZERO PUSH2 0xA86 JUMPI PUSH2 0xA85 PUSH2 0x218B JUMP JUMPDEST JUMPDEST MUL OR SWAP1 SSTORE POP PUSH2 0xABC JUMP JUMPDEST PUSH1 0x2 PUSH1 0x7 PUSH1 0x3 PUSH2 0x100 EXP DUP2 SLOAD DUP2 PUSH1 0xFF MUL NOT AND SWAP1 DUP4 PUSH1 0x2 DUP2 GT ISZERO PUSH2 0xAB6 JUMPI PUSH2 0xAB5 PUSH2 0x218B JUMP JUMPDEST JUMPDEST MUL OR SWAP1 SSTORE POP JUMPDEST JUMPDEST POP POP POP POP JUMP JUMPDEST PUSH1 0x0 PUSH1 0x7 PUSH1 0x1 SWAP1 SLOAD SWAP1 PUSH2 0x100 EXP SWAP1 DIV PUSH1 0xFF AND SWAP1 POP SWAP1 JUMP JUMPDEST DUP1 PUSH1 0x3 PUSH1 0x0 PUSH2 0x100 EXP DUP2 SLOAD DUP2 PUSH20 0xFFFFFFFFFFFFFFFFFFFFFFFFFFFFFFFFFFFFFFFF MUL NOT AND SWAP1 DUP4 PUSH20 0xFFFFFFFFFFFFFFFFFFFFFFFFFFFFFFFFFFFFFFFF AND MUL OR SWAP1 SSTORE POP POP JUMP JUMPDEST PUSH1 0x5 DUP2 DUP2 DUP2 LT PUSH2 0xB63 JUMPI PUSH1 0x40 MLOAD PUSH32 0x8C379A000000000000000000000000000000000000000000000000000000000 DUP2 MSTORE PUSH1 0x4 ADD PUSH2 0xB5A SWAP1 PUSH2 0x2472 JUMP JUMPDEST PUSH1 0x40 MLOAD DUP1 SWAP2 SUB SWAP1 REVERT JUMPDEST PUSH1 0x0 DUP4 SUB PUSH2 0xB9B JUMPI PUSH1 0x0 PUSH1 0x7 PUSH1 0x5 PUSH2 0x100 EXP DUP2 SLOAD DUP2 PUSH1 0xFF MUL NOT AND SWAP1 DUP4 PUSH1 0x4 DUP2 GT ISZERO PUSH2 0xB91 JUMPI PUSH2 0xB90 PUSH2 0x218B JUMP JUMPDEST JUMPDEST MUL OR SWAP1 SSTORE POP PUSH2 0xC72 JUMP JUMPDEST PUSH1 0x1 DUP4 SUB PUSH2 0xBD3 JUMPI PUSH1 0x1 PUSH1 0x7 PUSH1 0x5 PUSH2 0x100 EXP DUP2 SLOAD DUP2 PUSH1 0xFF MUL NOT AND SWAP1 DUP4 PUSH1 0x4 DUP2 GT ISZERO PUSH2 0xBC9 JUMPI PUSH2 0xBC8 PUSH2 0x218B JUMP JUMPDEST JUMPDEST MUL OR SWAP1 SSTORE POP PUSH2 0xC71 JUMP JUMPDEST PUSH1 0x2 DUP4 SUB PUSH2 0xC0B JUMPI PUSH1 0x2 PUSH1 0x7 PUSH1 0x5 PUSH2 0x100 EXP DUP2 SLOAD DUP2 PUSH1 0xFF MUL NOT AND SWAP1 DUP4 PUSH1 0x4 DUP2 GT ISZERO PUSH2 0xC01 JUMPI PUSH2 0xC00 PUSH2 0x218B JUMP JUMPDEST JUMPDEST MUL OR SWAP1 SSTORE POP PUSH2 0xC70 JUMP JUMPDEST PUSH1 0x3 DUP4 SUB PUSH2 0xC43 JUMPI PUSH1 0x3 PUSH1 0x7 PUSH1 0x5 PUSH2 0x100 EXP DUP2 SLOAD DUP2 PUSH1 0xFF MUL NOT AND SWAP1 DUP4 PUSH1 0x4 DUP2 GT ISZERO PUSH2 0xC39 JUMPI PUSH2 0xC38 PUSH2 0x218B JUMP JUMPDEST JUMPDEST MUL OR SWAP1 SSTORE POP PUSH2 0xC6F JUMP JUMPDEST PUSH1 0x4 PUSH1 0x7 PUSH1 0x5 PUSH2 0x100 EXP DUP2 SLOAD DUP2 PUSH1 0xFF MUL NOT AND SWAP1 DUP4 PUSH1 0x4 DUP2 GT ISZERO PUSH2 0xC69 JUMPI PUSH2 0xC68 PUSH2 0x218B JUMP JUMPDEST JUMPDEST MUL OR SWAP1 SSTORE POP JUMPDEST JUMPDEST JUMPDEST JUMPDEST POP POP POP JUMP JUMPDEST PUSH1 0x60 PUSH1 0x0 PUSH2 0xCA6 PUSH1 0x2 PUSH1 0x0 SWAP1 SLOAD SWAP1 PUSH2 0x100 EXP SWAP1 DIV PUSH20 0xFFFFFFFFFFFFFFFFFFFFFFFFFFFFFFFFFFFFFFFF AND PUSH2 0xE30 JUMP JUMPDEST SWAP1 POP DUP1 PUSH1 0x40 MLOAD PUSH1 0x20 ADD PUSH2 0xCB9 SWAP2 SWAP1 PUSH2 0x2524 JUMP JUMPDEST PUSH1 0x40 MLOAD PUSH1 0x20 DUP2 DUP4 SUB SUB DUP2 MSTORE SWAP1 PUSH1 0x40 MSTORE SWAP1 POP PUSH1 0x0 PUSH2 0xCF7 PUSH1 0x3 PUSH1 0x0 SWAP1 SLOAD SWAP1 PUSH2 0x100 EXP SWAP1 DIV PUSH20 0xFFFFFFFFFFFFFFFFFFFFFFFFFFFFFFFFFFFFFFFF AND PUSH2 0xE30 JUMP JUMPDEST SWAP1 POP DUP1 PUSH1 0x40 MLOAD PUSH1 0x20 ADD PUSH2 0xD0A SWAP2 SWAP1 PUSH2 0x257F JUMP JUMPDEST PUSH1 0x40 MLOAD PUSH1 0x20 DUP2 DUP4 SUB SUB DUP2 MSTORE SWAP1 PUSH1 0x40 MSTORE SWAP1 POP PUSH1 0x0 PUSH2 0xD48 PUSH1 0x4 PUSH1 0x0 SWAP1 SLOAD SWAP1 PUSH2 0x100 EXP SWAP1 DIV PUSH20 0xFFFFFFFFFFFFFFFFFFFFFFFFFFFFFFFFFFFFFFFF AND PUSH2 0xE30 JUMP JUMPDEST SWAP1 POP DUP1 PUSH1 0x40 MLOAD PUSH1 0x20 ADD PUSH2 0xD5B SWAP2 SWAP1 PUSH2 0x25DA JUMP JUMPDEST PUSH1 0x40 MLOAD PUSH1 0x20 DUP2 DUP4 SUB SUB DUP2 MSTORE SWAP1 PUSH1 0x40 MSTORE SWAP1 POP PUSH1 0x0 PUSH2 0xD99 PUSH1 0x5 PUSH1 0x0 SWAP1 SLOAD SWAP1 PUSH2 0x100 EXP SWAP1 DIV PUSH20 0xFFFFFFFFFFFFFFFFFFFFFFFFFFFFFFFFFFFFFFFF AND PUSH2 0xE30 JUMP JUMPDEST SWAP1 POP DUP1 PUSH1 0x40 MLOAD PUSH1 0x20 ADD PUSH2 0xDAC SWAP2 SWAP1 PUSH2 0x2635 JUMP JUMPDEST PUSH1 0x40 MLOAD PUSH1 0x20 DUP2 DUP4 SUB SUB DUP2 MSTORE SWAP1 PUSH1 0x40 MSTORE SWAP1 POP DUP4 DUP4 DUP4 DUP4 PUSH1 0x40 MLOAD PUSH1 0x20 ADD PUSH2 0xDD4 SWAP5 SWAP4 SWAP3 SWAP2 SWAP1 PUSH2 0x2388 JUMP JUMPDEST PUSH1 0x40 MLOAD PUSH1 0x20 DUP2 DUP4 SUB SUB DUP2 MSTORE SWAP1 PUSH1 0x40 MSTORE SWAP5 POP POP POP POP POP SWAP1 JUMP JUMPDEST DUP1 PUSH1 0x4 PUSH1 0x0 PUSH2 0x100 EXP DUP2 SLOAD DUP2 PUSH20 0xFFFFFFFFFFFFFFFFFFFFFFFFFFFFFFFFFFFFFFFF MUL NOT AND SWAP1 DUP4 PUSH20 0xFFFFFFFFFFFFFFFFFFFFFFFFFFFFFFFFFFFFFFFF AND MUL OR SWAP1 SSTORE POP POP JUMP JUMPDEST PUSH1 0x60 PUSH2 0xE5A DUP3 PUSH1 0x40 MLOAD PUSH1 0x20 ADD PUSH2 0xE46 SWAP2 SWAP1 PUSH2 0x26B2 JUMP JUMPDEST PUSH1 0x40 MLOAD PUSH1 0x20 DUP2 DUP4 SUB SUB DUP2 MSTORE SWAP1 PUSH1 0x40 MSTORE PUSH2 0x1082 JUMP JUMPDEST SWAP1 POP SWAP2 SWAP1 POP JUMP JUMPDEST PUSH1 0x0 DUP1 SLOAD SWAP1 POP SWAP1 JUMP JUMPDEST PUSH1 0x60 PUSH1 0x0 PUSH1 0x2 DUP2 GT ISZERO PUSH2 0xE80 JUMPI PUSH2 0xE7F PUSH2 0x218B JUMP JUMPDEST JUMPDEST PUSH1 0x7 PUSH1 0x4 SWAP1 SLOAD SWAP1 PUSH2 0x100 EXP SWAP1 DIV PUSH1 0xFF AND PUSH1 0x2 DUP2 GT ISZERO PUSH2 0xEA2 JUMPI PUSH2 0xEA1 PUSH2 0x218B JUMP JUMPDEST JUMPDEST SUB PUSH2 0xEE4 JUMPI PUSH1 0x40 MLOAD DUP1 PUSH1 0x40 ADD PUSH1 0x40 MSTORE DUP1 PUSH1 0x3 DUP2 MSTORE PUSH1 0x20 ADD PUSH32 0x6C6F770000000000000000000000000000000000000000000000000000000000 DUP2 MSTORE POP SWAP1 POP PUSH2 0xF95 JUMP JUMPDEST PUSH1 0x1 PUSH1 0x2 DUP2 GT ISZERO PUSH2 0xEF8 JUMPI PUSH2 0xEF7 PUSH2 0x218B JUMP JUMPDEST JUMPDEST PUSH1 0x7 PUSH1 0x4 SWAP1 SLOAD SWAP1 PUSH2 0x100 EXP SWAP1 DIV PUSH1 0xFF AND PUSH1 0x2 DUP2 GT ISZERO PUSH2 0xF1A JUMPI PUSH2 0xF19 PUSH2 0x218B JUMP JUMPDEST JUMPDEST SUB PUSH2 0xF5C JUMPI PUSH1 0x40 MLOAD DUP1 PUSH1 0x40 ADD PUSH1 0x40 MSTORE DUP1 PUSH1 0x6 DUP2 MSTORE PUSH1 0x20 ADD PUSH32 0x6D656469756D0000000000000000000000000000000000000000000000000000 DUP2 MSTORE POP SWAP1 POP PUSH2 0xF95 JUMP JUMPDEST PUSH1 0x40 MLOAD DUP1 PUSH1 0x40 ADD PUSH1 0x40 MSTORE DUP1 PUSH1 0x4 DUP2 MSTORE PUSH1 0x20 ADD PUSH32 0x6869676800000000000000000000000000000000000000000000000000000000 DUP2 MSTORE POP SWAP1 POP JUMPDEST SWAP1 JUMP JUMPDEST PUSH1 0x60 PUSH2 0xFC2 DUP3 PUSH1 0x40 MLOAD PUSH1 0x20 ADD PUSH2 0xFAE SWAP2 SWAP1 PUSH2 0x26EE JUMP JUMPDEST PUSH1 0x40 MLOAD PUSH1 0x20 DUP2 DUP4 SUB SUB DUP2 MSTORE SWAP1 PUSH1 0x40 MSTORE PUSH2 0x1082 JUMP JUMPDEST SWAP1 POP SWAP2 SWAP1 POP JUMP JUMPDEST PUSH1 0x7 PUSH1 0x1 SWAP1 SLOAD SWAP1 PUSH2 0x100 EXP SWAP1 DIV PUSH1 0xFF AND ISZERO PUSH2 0x1019 JUMPI PUSH1 0x40 MLOAD PUSH32 0x8C379A000000000000000000000000000000000000000000000000000000000 DUP2 MSTORE PUSH1 0x4 ADD PUSH2 0x1010 SWAP1 PUSH2 0x2755 JUMP JUMPDEST PUSH1 0x40 MLOAD DUP1 SWAP2 SUB SWAP1 REVERT JUMPDEST PUSH1 0x3 DUP1 PUSH2 0x1024 PUSH2 0x1C00 JUMP JUMPDEST EQ PUSH2 0x1064 JUMPI PUSH1 0x40 MLOAD PUSH32 0x8C379A000000000000000000000000000000000000000000000000000000000 DUP2 MSTORE PUSH1 0x4 ADD PUSH2 0x105B SWAP1 PUSH2 0x24DE JUMP JUMPDEST PUSH1 0x40 MLOAD DUP1 SWAP2 SUB SWAP1 REVERT JUMPDEST PUSH1 0x1 PUSH1 0x7 PUSH1 0x1 PUSH2 0x100 EXP DUP2 SLOAD DUP2 PUSH1 0xFF MUL NOT AND SWAP1 DUP4 ISZERO ISZERO MUL OR SWAP1 SSTORE POP POP JUMP JUMPDEST PUSH1 0x60 PUSH1 0x0 PUSH1 0x40 MLOAD DUP1 PUSH1 0x40 ADD PUSH1 0x40 MSTORE DUP1 PUSH1 0x10 DUP2 MSTORE PUSH1 0x20 ADD PUSH32 0x3031323334353637383961626364656600000000000000000000000000000000 DUP2 MSTORE POP SWAP1 POP PUSH1 0x0 PUSH1 0x2 DUP5 MLOAD PUSH2 0x10CE SWAP2 SWAP1 PUSH2 0x27A4 JUMP JUMPDEST PUSH1 0x2 PUSH2 0x10DA SWAP2 SWAP1 PUSH2 0x27E6 JUMP JUMPDEST PUSH8 0xFFFFFFFFFFFFFFFF DUP2 GT ISZERO PUSH2 0x10F3 JUMPI PUSH2 0x10F2 PUSH2 0x1E71 JUMP JUMPDEST JUMPDEST PUSH1 0x40 MLOAD SWAP1 DUP1 DUP3 MSTORE DUP1 PUSH1 0x1F ADD PUSH1 0x1F NOT AND PUSH1 0x20 ADD DUP3 ADD PUSH1 0x40 MSTORE DUP1 ISZERO PUSH2 0x1125 JUMPI DUP2 PUSH1 0x20 ADD PUSH1 0x1 DUP3 MUL DUP1 CALLDATASIZE DUP4 CALLDATACOPY DUP1 DUP3 ADD SWAP2 POP POP SWAP1 POP JUMPDEST POP SWAP1 POP PUSH32 0x3000000000000000000000000000000000000000000000000000000000000000 DUP2 PUSH1 0x0 DUP2 MLOAD DUP2 LT PUSH2 0x115D JUMPI PUSH2 0x115C PUSH2 0x281A JUMP JUMPDEST JUMPDEST PUSH1 0x20 ADD ADD SWAP1 PUSH31 0xFFFFFFFFFFFFFFFFFFFFFFFFFFFFFFFFFFFFFFFFFFFFFFFFFFFFFFFFFFFFFF NOT AND SWAP1 DUP2 PUSH1 0x0 BYTE SWAP1 MSTORE8 POP PUSH32 0x7800000000000000000000000000000000000000000000000000000000000000 DUP2 PUSH1 0x1 DUP2 MLOAD DUP2 LT PUSH2 0x11C1 JUMPI PUSH2 0x11C0 PUSH2 0x281A JUMP JUMPDEST JUMPDEST PUSH1 0x20 ADD ADD SWAP1 PUSH31 0xFFFFFFFFFFFFFFFFFFFFFFFFFFFFFFFFFFFFFFFFFFFFFFFFFFFFFFFFFFFFFF NOT AND SWAP1 DUP2 PUSH1 0x0 BYTE SWAP1 MSTORE8 POP PUSH1 0x0 JUMPDEST DUP5 MLOAD DUP2 LT ISZERO PUSH2 0x136B JUMPI DUP3 PUSH1 0x4 DUP7 DUP4 DUP2 MLOAD DUP2 LT PUSH2 0x1212 JUMPI PUSH2 0x1211 PUSH2 0x281A JUMP JUMPDEST JUMPDEST PUSH1 0x20 ADD ADD MLOAD PUSH1 0xF8 SHR PUSH1 0xF8 SHL PUSH31 0xFFFFFFFFFFFFFFFFFFFFFFFFFFFFFFFFFFFFFFFFFFFFFFFFFFFFFFFFFFFFFF NOT AND SWAP1 SHR PUSH1 0xF8 SHR PUSH1 0xFF AND DUP2 MLOAD DUP2 LT PUSH2 0x1258 JUMPI PUSH2 0x1257 PUSH2 0x281A JUMP JUMPDEST JUMPDEST PUSH1 0x20 ADD ADD MLOAD PUSH1 0xF8 SHR PUSH1 0xF8 SHL DUP3 PUSH1 0x2 DUP4 PUSH2 0x1271 SWAP2 SWAP1 PUSH2 0x27A4 JUMP JUMPDEST PUSH1 0x2 PUSH2 0x127D SWAP2 SWAP1 PUSH2 0x27E6 JUMP JUMPDEST DUP2 MLOAD DUP2 LT PUSH2 0x128E JUMPI PUSH2 0x128D PUSH2 0x281A JUMP JUMPDEST JUMPDEST PUSH1 0x20 ADD ADD SWAP1 PUSH31 0xFFFFFFFFFFFFFFFFFFFFFFFFFFFFFFFFFFFFFFFFFFFFFFFFFFFFFFFFFFFFFF NOT AND SWAP1 DUP2 PUSH1 0x0 BYTE SWAP1 MSTORE8 POP DUP3 PUSH1 0xF PUSH1 0xF8 SHL DUP7 DUP4 DUP2 MLOAD DUP2 LT PUSH2 0x12D6 JUMPI PUSH2 0x12D5 PUSH2 0x281A JUMP JUMPDEST JUMPDEST PUSH1 0x20 ADD ADD MLOAD PUSH1 0xF8 SHR PUSH1 0xF8 SHL AND PUSH1 0xF8 SHR PUSH1 0xFF AND DUP2 MLOAD DUP2 LT PUSH2 0x12F9 JUMPI PUSH2 0x12F8 PUSH2 0x281A JUMP JUMPDEST JUMPDEST PUSH1 0x20 ADD ADD MLOAD PUSH1 0xF8 SHR PUSH1 0xF8 SHL DUP3 PUSH1 0x2 DUP4 PUSH2 0x1312 SWAP2 SWAP1 PUSH2 0x27A4 JUMP JUMPDEST PUSH1 0x3 PUSH2 0x131E SWAP2 SWAP1 PUSH2 0x27E6 JUMP JUMPDEST DUP2 MLOAD DUP2 LT PUSH2 0x132F JUMPI PUSH2 0x132E PUSH2 0x281A JUMP JUMPDEST JUMPDEST PUSH1 0x20 ADD ADD SWAP1 PUSH31 0xFFFFFFFFFFFFFFFFFFFFFFFFFFFFFFFFFFFFFFFFFFFFFFFFFFFFFFFFFFFFFF NOT AND SWAP1 DUP2 PUSH1 0x0 BYTE SWAP1 MSTORE8 POP DUP1 DUP1 PUSH1 0x1 ADD SWAP2 POP POP PUSH2 0x11F3 JUMP JUMPDEST POP DUP1 SWAP3 POP POP POP SWAP2 SWAP1 POP JUMP JUMPDEST PUSH1 0x60 DUP2 ISZERO PUSH2 0x13BB JUMPI PUSH1 0x40 MLOAD DUP1 PUSH1 0x40 ADD PUSH1 0x40 MSTORE DUP1 PUSH1 0x4 DUP2 MSTORE PUSH1 0x20 ADD PUSH32 0x7472756500000000000000000000000000000000000000000000000000000000 DUP2 MSTORE POP SWAP1 POP PUSH2 0x13F4 JUMP JUMPDEST PUSH1 0x40 MLOAD DUP1 PUSH1 0x40 ADD PUSH1 0x40 MSTORE DUP1 PUSH1 0x5 DUP2 MSTORE PUSH1 0x20 ADD PUSH32 0x66616C7365000000000000000000000000000000000000000000000000000000 DUP2 MSTORE POP SWAP1 POP JUMPDEST SWAP2 SWAP1 POP JUMP JUMPDEST PUSH1 0x0 PUSH1 0x7 PUSH1 0x0 SWAP1 SLOAD SWAP1 PUSH2 0x100 EXP SWAP1 DIV PUSH1 0xFF AND SWAP1 POP SWAP1 JUMP JUMPDEST PUSH1 0x1 DUP1 PUSH2 0x141B PUSH2 0x1C00 JUMP JUMPDEST EQ PUSH2 0x145B JUMPI PUSH1 0x40 MLOAD PUSH32 0x8C379A000000000000000000000000000000000000000000000000000000000 DUP2 MSTORE PUSH1 0x4 ADD PUSH2 0x1452 SWAP1 PUSH2 0x24DE JUMP JUMPDEST PUSH1 0x40 MLOAD DUP1 SWAP2 SUB SWAP1 REVERT JUMPDEST DUP2 PUSH1 0x6 SWAP1 DUP2 PUSH2 0x146A SWAP2 SWAP1 PUSH2 0x29F5 JUMP JUMPDEST POP POP POP JUMP JUMPDEST PUSH1 0x60 PUSH1 0x0 PUSH2 0x147B PUSH2 0x1A1C JUMP JUMPDEST SWAP1 POP PUSH1 0x0 PUSH2 0x1487 PUSH2 0x783 JUMP JUMPDEST SWAP1 POP PUSH1 0x0 PUSH2 0x1493 PUSH2 0xC77 JUMP JUMPDEST SWAP1 POP DUP3 DUP3 DUP3 PUSH1 0x40 MLOAD PUSH1 0x20 ADD PUSH2 0x14AA SWAP4 SWAP3 SWAP2 SWAP1 PUSH2 0x2AC7 JUMP JUMPDEST PUSH1 0x40 MLOAD PUSH1 0x20 DUP2 DUP4 SUB SUB DUP2 MSTORE SWAP1 PUSH1 0x40 MSTORE SWAP4 POP POP POP POP SWAP1 JUMP JUMPDEST PUSH1 0x2 DUP2 DUP2 DUP2 LT PUSH2 0x1506 JUMPI PUSH1 0x40 MLOAD PUSH32 0x8C379A000000000000000000000000000000000000000000000000000000000 DUP2 MSTORE PUSH1 0x4 ADD PUSH2 0x14FD SWAP1 PUSH2 0x2472 JUMP JUMPDEST PUSH1 0x40 MLOAD DUP1 SWAP2 SUB SWAP1 REVERT JUMPDEST PUSH1 0x1 DUP1 PUSH2 0x1511 PUSH2 0x1C00 JUMP JUMPDEST EQ PUSH2 0x1551 JUMPI PUSH1 0x40 MLOAD PUSH32 0x8C379A000000000000000000000000000000000000000000000000000000000 DUP2 MSTORE PUSH1 0x4 ADD PUSH2 0x1548 SWAP1 PUSH2 0x24DE JUMP JUMPDEST PUSH1 0x40 MLOAD DUP1 SWAP2 SUB SWAP1 REVERT JUMPDEST PUSH1 0x0 DUP5 SUB PUSH2 0x1589 JUMPI PUSH1 0x0 PUSH1 0x7 PUSH1 0x2 PUSH2 0x100 EXP DUP2 SLOAD DUP2 PUSH1 0xFF MUL NOT AND SWAP1 DUP4 PUSH1 0x1 DUP2 GT ISZERO PUSH2 0x157F JUMPI PUSH2 0x157E PUSH2 0x218B JUMP JUMPDEST JUMPDEST MUL OR SWAP1 SSTORE POP PUSH2 0x15B5 JUMP JUMPDEST PUSH1 0x1 PUSH1 0x7 PUSH1 0x2 PUSH2 0x100 EXP DUP2 SLOAD DUP2 PUSH1 0xFF MUL NOT AND SWAP1 DUP4 PUSH1 0x1 DUP2 GT ISZERO PUSH2 0x15AF JUMPI PUSH2 0x15AE PUSH2 0x218B JUMP JUMPDEST JUMPDEST MUL OR SWAP1 SSTORE POP JUMPDEST POP POP POP POP JUMP JUMPDEST PUSH1 0x60 PUSH2 0x15E5 DUP3 PUSH1 0x40 MLOAD PUSH1 0x20 ADD PUSH2 0x15D1 SWAP2 SWAP1 PUSH2 0x2B19 JUMP JUMPDEST PUSH1 0x40 MLOAD PUSH1 0x20 DUP2 DUP4 SUB SUB DUP2 MSTORE SWAP1 PUSH1 0x40 MSTORE PUSH2 0x1082 JUMP JUMPDEST SWAP1 POP SWAP2 SWAP1 POP JUMP JUMPDEST PUSH1 0x60 PUSH1 0x0 PUSH1 0x4 DUP2 GT ISZERO PUSH2 0x1602 JUMPI PUSH2 0x1601 PUSH2 0x218B JUMP JUMPDEST JUMPDEST PUSH1 0x7 PUSH1 0x5 SWAP1 SLOAD SWAP1 PUSH2 0x100 EXP SWAP1 DIV PUSH1 0xFF AND PUSH1 0x4 DUP2 GT ISZERO PUSH2 0x1624 JUMPI PUSH2 0x1623 PUSH2 0x218B JUMP JUMPDEST JUMPDEST SUB PUSH2 0x1666 JUMPI PUSH1 0x40 MLOAD DUP1 PUSH1 0x40 ADD PUSH1 0x40 MSTORE DUP1 PUSH1 0x7 DUP2 MSTORE PUSH1 0x20 ADD PUSH32 0x646566696E656400000000000000000000000000000000000000000000000000 DUP2 MSTORE POP SWAP1 POP PUSH2 0x1807 JUMP JUMPDEST PUSH1 0x1 PUSH1 0x4 DUP2 GT ISZERO PUSH2 0x167A JUMPI PUSH2 0x1679 PUSH2 0x218B JUMP JUMPDEST JUMPDEST PUSH1 0x7 PUSH1 0x5 SWAP1 SLOAD SWAP1 PUSH2 0x100 EXP SWAP1 DIV PUSH1 0xFF AND PUSH1 0x4 DUP2 GT ISZERO PUSH2 0x169C JUMPI PUSH2 0x169B PUSH2 0x218B JUMP JUMPDEST JUMPDEST SUB PUSH2 0x16DE JUMPI PUSH1 0x40 MLOAD DUP1 PUSH1 0x40 ADD PUSH1 0x40 MSTORE DUP1 PUSH1 0x7 DUP2 MSTORE PUSH1 0x20 ADD PUSH32 0x726566696E656400000000000000000000000000000000000000000000000000 DUP2 MSTORE POP SWAP1 POP PUSH2 0x1807 JUMP JUMPDEST PUSH1 0x2 PUSH1 0x4 DUP2 GT ISZERO PUSH2 0x16F2 JUMPI PUSH2 0x16F1 PUSH2 0x218B JUMP JUMPDEST JUMPDEST PUSH1 0x7 PUSH1 0x5 SWAP1 SLOAD SWAP1 PUSH2 0x100 EXP SWAP1 DIV PUSH1 0xFF AND PUSH1 0x4 DUP2 GT ISZERO PUSH2 0x1714 JUMPI PUSH2 0x1713 PUSH2 0x218B JUMP JUMPDEST JUMPDEST SUB PUSH2 0x1756 JUMPI PUSH1 0x40 MLOAD DUP1 PUSH1 0x40 ADD PUSH1 0x40 MSTORE DUP1 PUSH1 0x8 DUP2 MSTORE PUSH1 0x20 ADD PUSH32 0x7665726966696564000000000000000000000000000000000000000000000000 DUP2 MSTORE POP SWAP1 POP PUSH2 0x1807 JUMP JUMPDEST PUSH1 0x3 PUSH1 0x4 DUP2 GT ISZERO PUSH2 0x176A JUMPI PUSH2 0x1769 PUSH2 0x218B JUMP JUMPDEST JUMPDEST PUSH1 0x7 PUSH1 0x5 SWAP1 SLOAD SWAP1 PUSH2 0x100 EXP SWAP1 DIV PUSH1 0xFF AND PUSH1 0x4 DUP2 GT ISZERO PUSH2 0x178C JUMPI PUSH2 0x178B PUSH2 0x218B JUMP JUMPDEST JUMPDEST SUB PUSH2 0x17CE JUMPI PUSH1 0x40 MLOAD DUP1 PUSH1 0x40 ADD PUSH1 0x40 MSTORE DUP1 PUSH1 0x9 DUP2 MSTORE PUSH1 0x20 ADD PUSH32 0x56616C6964617465640000000000000000000000000000000000000000000000 DUP2 MSTORE POP SWAP1 POP PUSH2 0x1807 JUMP JUMPDEST PUSH1 0x40 MLOAD DUP1 PUSH1 0x40 ADD PUSH1 0x40 MSTORE DUP1 PUSH1 0x8 DUP2 MSTORE PUSH1 0x20 ADD PUSH32 0x66696E6973686564000000000000000000000000000000000000000000000000 DUP2 MSTORE POP SWAP1 POP JUMPDEST SWAP1 JUMP JUMPDEST PUSH1 0x60 PUSH1 0x0 PUSH1 0x1 DUP2 GT ISZERO PUSH2 0x1820 JUMPI PUSH2 0x181F PUSH2 0x218B JUMP JUMPDEST JUMPDEST PUSH1 0x7 PUSH1 0x2 SWAP1 SLOAD SWAP1 PUSH2 0x100 EXP SWAP1 DIV PUSH1 0xFF AND PUSH1 0x1 DUP2 GT ISZERO PUSH2 0x1842 JUMPI PUSH2 0x1841 PUSH2 0x218B JUMP JUMPDEST JUMPDEST SUB PUSH2 0x1884 JUMPI PUSH1 0x40 MLOAD DUP1 PUSH1 0x40 ADD PUSH1 0x40 MSTORE DUP1 PUSH1 0xA DUP2 MSTORE PUSH1 0x20 ADD PUSH32 0x66756E6374696F6E616C00000000000000000000000000000000000000000000 DUP2 MSTORE POP SWAP1 POP PUSH2 0x18BD JUMP JUMPDEST PUSH1 0x40 MLOAD DUP1 PUSH1 0x40 ADD PUSH1 0x40 MSTORE DUP1 PUSH1 0xE DUP2 MSTORE PUSH1 0x20 ADD PUSH32 0x4E6F6E2D46756E6374696F6E616C000000000000000000000000000000000000 DUP2 MSTORE POP SWAP1 POP JUMPDEST SWAP1 JUMP JUMPDEST PUSH1 0x0 PUSH1 0x7 PUSH1 0x3 SWAP1 SLOAD SWAP1 PUSH2 0x100 EXP SWAP1 DIV PUSH1 0xFF AND PUSH1 0x2 DUP2 GT ISZERO PUSH2 0x18E4 JUMPI PUSH2 0x18E3 PUSH2 0x218B JUMP JUMPDEST JUMPDEST SWAP1 POP SWAP1 JUMP JUMPDEST PUSH1 0x3 DUP2 DUP2 DUP2 LT PUSH2 0x192E JUMPI PUSH1 0x40 MLOAD PUSH32 0x8C379A000000000000000000000000000000000000000000000000000000000 DUP2 MSTORE PUSH1 0x4 ADD PUSH2 0x1925 SWAP1 PUSH2 0x2472 JUMP JUMPDEST PUSH1 0x40 MLOAD DUP1 SWAP2 SUB SWAP1 REVERT JUMPDEST PUSH1 0x1 DUP1 PUSH2 0x1939 PUSH2 0x1C00 JUMP JUMPDEST EQ PUSH2 0x1979 JUMPI PUSH1 0x40 MLOAD PUSH32 0x8C379A000000000000000000000000000000000000000000000000000000000 DUP2 MSTORE PUSH1 0x4 ADD PUSH2 0x1970 SWAP1 PUSH2 0x24DE JUMP JUMPDEST PUSH1 0x40 MLOAD DUP1 SWAP2 SUB SWAP1 REVERT JUMPDEST PUSH1 0x0 DUP5 SUB PUSH2 0x19B1 JUMPI PUSH1 0x0 PUSH1 0x7 PUSH1 0x4 PUSH2 0x100 EXP DUP2 SLOAD DUP2 PUSH1 0xFF MUL NOT AND SWAP1 DUP4 PUSH1 0x2 DUP2 GT ISZERO PUSH2 0x19A7 JUMPI PUSH2 0x19A6 PUSH2 0x218B JUMP JUMPDEST JUMPDEST MUL OR SWAP1 SSTORE POP PUSH2 0x1A16 JUMP JUMPDEST PUSH1 0x1 DUP5 SUB PUSH2 0x19E9 JUMPI PUSH1 0x1 PUSH1 0x7 PUSH1 0x4 PUSH2 0x100 EXP DUP2 SLOAD DUP2 PUSH1 0xFF MUL NOT AND SWAP1 DUP4 PUSH1 0x2 DUP2 GT ISZERO PUSH2 0x19DF JUMPI PUSH2 0x19DE PUSH2 0x218B JUMP JUMPDEST JUMPDEST MUL OR SWAP1 SSTORE POP PUSH2 0x1A15 JUMP JUMPDEST PUSH1 0x2 PUSH1 0x7 PUSH1 0x4 PUSH2 0x100 EXP DUP2 SLOAD DUP2 PUSH1 0xFF MUL NOT AND SWAP1 DUP4 PUSH1 0x2 DUP2 GT ISZERO PUSH2 0x1A0F JUMPI PUSH2 0x1A0E PUSH2 0x218B JUMP JUMPDEST JUMPDEST MUL OR SWAP1 SSTORE POP JUMPDEST JUMPDEST POP POP POP POP JUMP JUMPDEST PUSH1 0x60 PUSH1 0x0 PUSH2 0x1A2B PUSH1 0x0 SLOAD PUSH2 0xF98 JUMP JUMPDEST SWAP1 POP DUP1 PUSH1 0x40 MLOAD PUSH1 0x20 ADD PUSH2 0x1A3E SWAP2 SWAP1 PUSH2 0x2B5A JUMP JUMPDEST PUSH1 0x40 MLOAD PUSH1 0x20 DUP2 DUP4 SUB SUB DUP2 MSTORE SWAP1 PUSH1 0x40 MSTORE SWAP1 POP PUSH1 0x0 PUSH1 0x1 PUSH1 0x40 MLOAD PUSH1 0x20 ADD PUSH2 0x1A63 SWAP2 SWAP1 PUSH2 0x2C38 JUMP JUMPDEST PUSH1 0x40 MLOAD PUSH1 0x20 DUP2 DUP4 SUB SUB DUP2 MSTORE SWAP1 PUSH1 0x40 MSTORE SWAP1 POP PUSH1 0x0 PUSH1 0x6 PUSH1 0x40 MLOAD PUSH1 0x20 ADD PUSH2 0x1A88 SWAP2 SWAP1 PUSH2 0x2C93 JUMP JUMPDEST PUSH1 0x40 MLOAD PUSH1 0x20 DUP2 DUP4 SUB SUB DUP2 MSTORE SWAP1 PUSH1 0x40 MSTORE SWAP1 POP PUSH1 0x0 PUSH2 0x1AB3 PUSH1 0x7 PUSH1 0x1 SWAP1 SLOAD SWAP1 PUSH2 0x100 EXP SWAP1 DIV PUSH1 0xFF AND PUSH2 0x1376 JUMP JUMPDEST SWAP1 POP DUP1 PUSH1 0x40 MLOAD PUSH1 0x20 ADD PUSH2 0x1AC6 SWAP2 SWAP1 PUSH2 0x2CEE JUMP JUMPDEST PUSH1 0x40 MLOAD PUSH1 0x20 DUP2 DUP4 SUB SUB DUP2 MSTORE SWAP1 PUSH1 0x40 MSTORE SWAP1 POP PUSH1 0x0 PUSH2 0x1AF1 PUSH1 0x7 PUSH1 0x0 SWAP1 SLOAD SWAP1 PUSH2 0x100 EXP SWAP1 DIV PUSH1 0xFF AND PUSH2 0x1376 JUMP JUMPDEST SWAP1 POP DUP1 PUSH1 0x40 MLOAD PUSH1 0x20 ADD PUSH2 0x1B04 SWAP2 SWAP1 PUSH2 0x2D49 JUMP JUMPDEST PUSH1 0x40 MLOAD PUSH1 0x20 DUP2 DUP4 SUB SUB DUP2 MSTORE SWAP1 PUSH1 0x40 MSTORE SWAP1 POP DUP5 DUP5 DUP5 DUP4 DUP6 PUSH1 0x40 MLOAD PUSH1 0x20 ADD PUSH2 0x1B2E SWAP6 SWAP5 SWAP4 SWAP3 SWAP2 SWAP1 PUSH2 0x2D7E JUMP JUMPDEST PUSH1 0x40 MLOAD PUSH1 0x20 DUP2 DUP4 SUB SUB DUP2 MSTORE SWAP1 PUSH1 0x40 MSTORE SWAP6 POP POP POP POP POP POP SWAP1 JUMP JUMPDEST PUSH1 0x7 PUSH1 0x0 SWAP1 SLOAD SWAP1 PUSH2 0x100 EXP SWAP1 DIV PUSH1 0xFF AND ISZERO PUSH2 0x1B97 JUMPI PUSH1 0x40 MLOAD PUSH32 0x8C379A000000000000000000000000000000000000000000000000000000000 DUP2 MSTORE PUSH1 0x4 ADD PUSH2 0x1B8E SWAP1 PUSH2 0x2E15 JUMP JUMPDEST PUSH1 0x40 MLOAD DUP1 SWAP2 SUB SWAP1 REVERT JUMPDEST PUSH1 0x2 DUP1 PUSH2 0x1BA2 PUSH2 0x1C00 JUMP JUMPDEST EQ PUSH2 0x1BE2 JUMPI PUSH1 0x40 MLOAD PUSH32 0x8C379A000000000000000000000000000000000000000000000000000000000 DUP2 MSTORE PUSH1 0x4 ADD PUSH2 0x1BD9 SWAP1 PUSH2 0x24DE JUMP JUMPDEST PUSH1 0x40 MLOAD DUP1 SWAP2 SUB SWAP1 REVERT JUMPDEST PUSH1 0x1 PUSH1 0x7 PUSH1 0x0 PUSH2 0x100 EXP DUP2 SLOAD DUP2 PUSH1 0xFF MUL NOT AND SWAP1 DUP4 ISZERO ISZERO MUL OR SWAP1 SSTORE POP POP JUMP JUMPDEST PUSH1 0x0 PUSH1 0x7 PUSH1 0x5 SWAP1 SLOAD SWAP1 PUSH2 0x100 EXP SWAP1 DIV PUSH1 0xFF AND PUSH1 0x4 DUP2 GT ISZERO PUSH2 0x1C24 JUMPI PUSH2 0x1C23 PUSH2 0x218B JUMP JUMPDEST JUMPDEST SWAP1 POP SWAP1 JUMP JUMPDEST PUSH1 0x0 DUP2 SWAP1 POP SWAP2 SWAP1 POP JUMP JUMPDEST PUSH2 0x1C3C DUP2 PUSH2 0x1C29 JUMP JUMPDEST DUP3 MSTORE POP POP JUMP JUMPDEST PUSH1 0x0 PUSH1 0x20 DUP3 ADD SWAP1 POP PUSH2 0x1C57 PUSH1 0x0 DUP4 ADD DUP5 PUSH2 0x1C33 JUMP JUMPDEST SWAP3 SWAP2 POP POP JUMP JUMPDEST PUSH1 0x0 DUP2 MLOAD SWAP1 POP SWAP2 SWAP1 POP JUMP JUMPDEST PUSH1 0x0 DUP3 DUP3 MSTORE PUSH1 0x20 DUP3 ADD SWAP1 POP SWAP3 SWAP2 POP POP JUMP JUMPDEST PUSH1 0x0 JUMPDEST DUP4 DUP2 LT ISZERO PUSH2 0x1C97 JUMPI DUP1 DUP3 ADD MLOAD DUP2 DUP5 ADD MSTORE PUSH1 0x20 DUP2 ADD SWAP1 POP PUSH2 0x1C7C JUMP JUMPDEST PUSH1 0x0 DUP5 DUP5 ADD MSTORE POP POP POP POP JUMP JUMPDEST PUSH1 0x0 PUSH1 0x1F NOT PUSH1 0x1F DUP4 ADD AND SWAP1 POP SWAP2 SWAP1 POP JUMP JUMPDEST PUSH1 0x0 PUSH2 0x1CBF DUP3 PUSH2 0x1C5D JUMP JUMPDEST PUSH2 0x1CC9 DUP2 DUP6 PUSH2 0x1C68 JUMP JUMPDEST SWAP4 POP PUSH2 0x1CD9 DUP2 DUP6 PUSH1 0x20 DUP7 ADD PUSH2 0x1C79 JUMP JUMPDEST PUSH2 0x1CE2 DUP2 PUSH2 0x1CA3 JUMP JUMPDEST DUP5 ADD SWAP2 POP POP SWAP3 SWAP2 POP POP JUMP JUMPDEST PUSH1 0x0 PUSH1 0x20 DUP3 ADD SWAP1 POP DUP2 DUP2 SUB PUSH1 0x0 DUP4 ADD MSTORE PUSH2 0x1D07 DUP2 DUP5 PUSH2 0x1CB4 JUMP JUMPDEST SWAP1 POP SWAP3 SWAP2 POP POP JUMP JUMPDEST PUSH1 0x0 PUSH20 0xFFFFFFFFFFFFFFFFFFFFFFFFFFFFFFFFFFFFFFFF DUP3 AND SWAP1 POP SWAP2 SWAP1 POP JUMP JUMPDEST PUSH1 0x0 PUSH2 0x1D3A DUP3 PUSH2 0x1D0F JUMP JUMPDEST SWAP1 POP SWAP2 SWAP1 POP JUMP JUMPDEST PUSH2 0x1D4A DUP2 PUSH2 0x1D2F JUMP JUMPDEST DUP3 MSTORE POP POP JUMP JUMPDEST PUSH1 0x0 PUSH1 0x20 DUP3 ADD SWAP1 POP PUSH2 0x1D65 PUSH1 0x0 DUP4 ADD DUP5 PUSH2 0x1D41 JUMP JUMPDEST SWAP3 SWAP2 POP POP JUMP JUMPDEST PUSH1 0x0 PUSH1 0x40 MLOAD SWAP1 POP SWAP1 JUMP JUMPDEST PUSH1 0x0 DUP1 REVERT JUMPDEST PUSH1 0x0 DUP1 REVERT JUMPDEST PUSH2 0x1D88 DUP2 PUSH2 0x1C29 JUMP JUMPDEST DUP2 EQ PUSH2 0x1D93 JUMPI PUSH1 0x0 DUP1 REVERT JUMPDEST POP JUMP JUMPDEST PUSH1 0x0 DUP2 CALLDATALOAD SWAP1 POP PUSH2 0x1DA5 DUP2 PUSH2 0x1D7F JUMP JUMPDEST SWAP3 SWAP2 POP POP JUMP JUMPDEST PUSH1 0x0 PUSH1 0x20 DUP3 DUP5 SUB SLT ISZERO PUSH2 0x1DC1 JUMPI PUSH2 0x1DC0 PUSH2 0x1D75 JUMP JUMPDEST JUMPDEST PUSH1 0x0 PUSH2 0x1DCF DUP5 DUP3 DUP6 ADD PUSH2 0x1D96 JUMP JUMPDEST SWAP2 POP POP SWAP3 SWAP2 POP POP JUMP JUMPDEST PUSH1 0x0 DUP2 ISZERO ISZERO SWAP1 POP SWAP2 SWAP1 POP JUMP JUMPDEST PUSH2 0x1DED DUP2 PUSH2 0x1DD8 JUMP JUMPDEST DUP3 MSTORE POP POP JUMP JUMPDEST PUSH1 0x0 PUSH1 0x20 DUP3 ADD SWAP1 POP PUSH2 0x1E08 PUSH1 0x0 DUP4 ADD DUP5 PUSH2 0x1DE4 JUMP JUMPDEST SWAP3 SWAP2 POP POP JUMP JUMPDEST PUSH2 0x1E17 DUP2 PUSH2 0x1D2F JUMP JUMPDEST DUP2 EQ PUSH2 0x1E22 JUMPI PUSH1 0x0 DUP1 REVERT JUMPDEST POP JUMP JUMPDEST PUSH1 0x0 DUP2 CALLDATALOAD SWAP1 POP PUSH2 0x1E34 DUP2 PUSH2 0x1E0E JUMP JUMPDEST SWAP3 SWAP2 POP POP JUMP JUMPDEST PUSH1 0x0 PUSH1 0x20 DUP3 DUP5 SUB SLT ISZERO PUSH2 0x1E50 JUMPI PUSH2 0x1E4F PUSH2 0x1D75 JUMP JUMPDEST JUMPDEST PUSH1 0x0 PUSH2 0x1E5E DUP5 DUP3 DUP6 ADD PUSH2 0x1E25 JUMP JUMPDEST SWAP2 POP POP SWAP3 SWAP2 POP POP JUMP JUMPDEST PUSH1 0x0 DUP1 REVERT JUMPDEST PUSH1 0x0 DUP1 REVERT JUMPDEST PUSH32 0x4E487B7100000000000000000000000000000000000000000000000000000000 PUSH1 0x0 MSTORE PUSH1 0x41 PUSH1 0x4 MSTORE PUSH1 0x24 PUSH1 0x0 REVERT JUMPDEST PUSH2 0x1EA9 DUP3 PUSH2 0x1CA3 JUMP JUMPDEST DUP2 ADD DUP2 DUP2 LT PUSH8 0xFFFFFFFFFFFFFFFF DUP3 GT OR ISZERO PUSH2 0x1EC8 JUMPI PUSH2 0x1EC7 PUSH2 0x1E71 JUMP JUMPDEST JUMPDEST DUP1 PUSH1 0x40 MSTORE POP POP POP JUMP JUMPDEST PUSH1 0x0 PUSH2 0x1EDB PUSH2 0x1D6B JUMP JUMPDEST SWAP1 POP PUSH2 0x1EE7 DUP3 DUP3 PUSH2 0x1EA0 JUMP JUMPDEST SWAP2 SWAP1 POP JUMP JUMPDEST PUSH1 0x0 PUSH8 0xFFFFFFFFFFFFFFFF DUP3 GT ISZERO PUSH2 0x1F07 JUMPI PUSH2 0x1F06 PUSH2 0x1E71 JUMP JUMPDEST JUMPDEST PUSH2 0x1F10 DUP3 PUSH2 0x1CA3 JUMP JUMPDEST SWAP1 POP PUSH1 0x20 DUP2 ADD SWAP1 POP SWAP2 SWAP1 POP JUMP JUMPDEST DUP3 DUP2 DUP4 CALLDATACOPY PUSH1 0x0 DUP4 DUP4 ADD MSTORE POP POP POP JUMP JUMPDEST PUSH1 0x0 PUSH2 0x1F3F PUSH2 0x1F3A DUP5 PUSH2 0x1EEC JUMP JUMPDEST PUSH2 0x1ED1 JUMP JUMPDEST SWAP1 POP DUP3 DUP2 MSTORE PUSH1 0x20 DUP2 ADD DUP5 DUP5 DUP5 ADD GT ISZERO PUSH2 0x1F5B JUMPI PUSH2 0x1F5A PUSH2 0x1E6C JUMP JUMPDEST JUMPDEST PUSH2 0x1F66 DUP5 DUP3 DUP6 PUSH2 0x1F1D JUMP JUMPDEST POP SWAP4 SWAP3 POP POP POP JUMP JUMPDEST PUSH1 0x0 DUP3 PUSH1 0x1F DUP4 ADD SLT PUSH2 0x1F83 JUMPI PUSH2 0x1F82 PUSH2 0x1E67 JUMP JUMPDEST JUMPDEST DUP2 CALLDATALOAD PUSH2 0x1F93 DUP5 DUP3 PUSH1 0x20 DUP7 ADD PUSH2 0x1F2C JUMP JUMPDEST SWAP2 POP POP SWAP3 SWAP2 POP POP JUMP JUMPDEST PUSH1 0x0 PUSH1 0x20 DUP3 DUP5 SUB SLT ISZERO PUSH2 0x1FB2 JUMPI PUSH2 0x1FB1 PUSH2 0x1D75 JUMP JUMPDEST JUMPDEST PUSH1 0x0 DUP3 ADD CALLDATALOAD PUSH8 0xFFFFFFFFFFFFFFFF DUP2 GT ISZERO PUSH2 0x1FD0 JUMPI PUSH2 0x1FCF PUSH2 0x1D7A JUMP JUMPDEST JUMPDEST PUSH2 0x1FDC DUP5 DUP3 DUP6 ADD PUSH2 0x1F6E JUMP JUMPDEST SWAP2 POP POP SWAP3 SWAP2 POP POP JUMP JUMPDEST PUSH2 0x1FEE DUP2 PUSH2 0x1DD8 JUMP JUMPDEST DUP2 EQ PUSH2 0x1FF9 JUMPI PUSH1 0x0 DUP1 REVERT JUMPDEST POP JUMP JUMPDEST PUSH1 0x0 DUP2 CALLDATALOAD SWAP1 POP PUSH2 0x200B DUP2 PUSH2 0x1FE5 JUMP JUMPDEST SWAP3 SWAP2 POP POP JUMP JUMPDEST PUSH1 0x0 PUSH1 0x20 DUP3 DUP5 SUB SLT ISZERO PUSH2 0x2027 JUMPI PUSH2 0x2026 PUSH2 0x1D75 JUMP JUMPDEST JUMPDEST PUSH1 0x0 PUSH2 0x2035 DUP5 DUP3 DUP6 ADD PUSH2 0x1FFC JUMP JUMPDEST SWAP2 POP POP SWAP3 SWAP2 POP POP JUMP JUMPDEST PUSH1 0x0 PUSH8 0xFFFFFFFFFFFFFFFF DUP3 GT ISZERO PUSH2 0x2059 JUMPI PUSH2 0x2058 PUSH2 0x1E71 JUMP JUMPDEST JUMPDEST PUSH2 0x2062 DUP3 PUSH2 0x1CA3 JUMP JUMPDEST SWAP1 POP PUSH1 0x20 DUP2 ADD SWAP1 POP SWAP2 SWAP1 POP JUMP JUMPDEST PUSH1 0x0 PUSH2 0x2082 PUSH2 0x207D DUP5 PUSH2 0x203E JUMP JUMPDEST PUSH2 0x1ED1 JUMP JUMPDEST SWAP1 POP DUP3 DUP2 MSTORE PUSH1 0x20 DUP2 ADD DUP5 DUP5 DUP5 ADD GT ISZERO PUSH2 0x209E JUMPI PUSH2 0x209D PUSH2 0x1E6C JUMP JUMPDEST JUMPDEST PUSH2 0x20A9 DUP5 DUP3 DUP6 PUSH2 0x1F1D JUMP JUMPDEST POP SWAP4 SWAP3 POP POP POP JUMP JUMPDEST PUSH1 0x0 DUP3 PUSH1 0x1F DUP4 ADD SLT PUSH2 0x20C6 JUMPI PUSH2 0x20C5 PUSH2 0x1E67 JUMP JUMPDEST JUMPDEST DUP2 CALLDATALOAD PUSH2 0x20D6 DUP5 DUP3 PUSH1 0x20 DUP7 ADD PUSH2 0x206F JUMP JUMPDEST SWAP2 POP POP SWAP3 SWAP2 POP POP JUMP JUMPDEST PUSH1 0x0 PUSH1 0x20 DUP3 DUP5 SUB SLT ISZERO PUSH2 0x20F5 JUMPI PUSH2 0x20F4 PUSH2 0x1D75 JUMP JUMPDEST JUMPDEST PUSH1 0x0 DUP3 ADD CALLDATALOAD PUSH8 0xFFFFFFFFFFFFFFFF DUP2 GT ISZERO PUSH2 0x2113 JUMPI PUSH2 0x2112 PUSH2 0x1D7A JUMP JUMPDEST JUMPDEST PUSH2 0x211F DUP5 DUP3 DUP6 ADD PUSH2 0x20B1 JUMP JUMPDEST SWAP2 POP POP SWAP3 SWAP2 POP POP JUMP JUMPDEST PUSH1 0x0 DUP2 SWAP1 POP SWAP2 SWAP1 POP JUMP JUMPDEST PUSH2 0x213B DUP2 PUSH2 0x2128 JUMP JUMPDEST DUP2 EQ PUSH2 0x2146 JUMPI PUSH1 0x0 DUP1 REVERT JUMPDEST POP JUMP JUMPDEST PUSH1 0x0 DUP2 CALLDATALOAD SWAP1 POP PUSH2 0x2158 DUP2 PUSH2 0x2132 JUMP JUMPDEST SWAP3 SWAP2 POP POP JUMP JUMPDEST PUSH1 0x0 PUSH1 0x20 DUP3 DUP5 SUB SLT ISZERO PUSH2 0x2174 JUMPI PUSH2 0x2173 PUSH2 0x1D75 JUMP JUMPDEST JUMPDEST PUSH1 0x0 PUSH2 0x2182 DUP5 DUP3 DUP6 ADD PUSH2 0x2149 JUMP JUMPDEST SWAP2 POP POP SWAP3 SWAP2 POP POP JUMP JUMPDEST PUSH32 0x4E487B7100000000000000000000000000000000000000000000000000000000 PUSH1 0x0 MSTORE PUSH1 0x21 PUSH1 0x4 MSTORE PUSH1 0x24 PUSH1 0x0 REVERT JUMPDEST PUSH32 0x747970653A200000000000000000000000000000000000000000000000000000 DUP2 MSTORE POP JUMP JUMPDEST PUSH1 0x0 DUP2 SWAP1 POP SWAP3 SWAP2 POP POP JUMP JUMPDEST PUSH1 0x0 PUSH2 0x21F6 DUP3 PUSH2 0x1C5D JUMP JUMPDEST PUSH2 0x2200 DUP2 DUP6 PUSH2 0x21E0 JUMP JUMPDEST SWAP4 POP PUSH2 0x2210 DUP2 DUP6 PUSH1 0x20 DUP7 ADD PUSH2 0x1C79 JUMP JUMPDEST DUP1 DUP5 ADD SWAP2 POP POP SWAP3 SWAP2 POP POP JUMP JUMPDEST PUSH32 0x202C200000000000000000000000000000000000000000000000000000000000 DUP2 MSTORE POP JUMP JUMPDEST PUSH1 0x0 PUSH2 0x224D DUP3 PUSH2 0x21BA JUMP JUMPDEST PUSH1 0x6 DUP3 ADD SWAP2 POP PUSH2 0x225D DUP3 DUP5 PUSH2 0x21EB JUMP JUMPDEST SWAP2 POP PUSH2 0x2268 DUP3 PUSH2 0x221C JUMP JUMPDEST PUSH1 0x3 DUP3 ADD SWAP2 POP DUP2 SWAP1 POP SWAP3 SWAP2 POP POP JUMP JUMPDEST PUSH32 0x7072696F726974793A2000000000000000000000000000000000000000000000 DUP2 MSTORE POP JUMP JUMPDEST PUSH1 0x0 PUSH2 0x22A8 DUP3 PUSH2 0x2277 JUMP JUMPDEST PUSH1 0xA DUP3 ADD SWAP2 POP PUSH2 0x22B8 DUP3 DUP5 PUSH2 0x21EB JUMP JUMPDEST SWAP2 POP PUSH2 0x22C3 DUP3 PUSH2 0x221C JUMP JUMPDEST PUSH1 0x3 DUP3 ADD SWAP2 POP DUP2 SWAP1 POP SWAP3 SWAP2 POP POP JUMP JUMPDEST PUSH32 0x7269736B3A200000000000000000000000000000000000000000000000000000 DUP2 MSTORE POP JUMP JUMPDEST PUSH1 0x0 PUSH2 0x2303 DUP3 PUSH2 0x22D2 JUMP JUMPDEST PUSH1 0x6 DUP3 ADD SWAP2 POP PUSH2 0x2313 DUP3 DUP5 PUSH2 0x21EB JUMP JUMPDEST SWAP2 POP PUSH2 0x231E DUP3 PUSH2 0x221C JUMP JUMPDEST PUSH1 0x3 DUP3 ADD SWAP2 POP DUP2 SWAP1 POP SWAP3 SWAP2 POP POP JUMP JUMPDEST PUSH32 0x73746167653A2000000000000000000000000000000000000000000000000000 DUP2 MSTORE POP JUMP JUMPDEST PUSH1 0x0 PUSH2 0x235E DUP3 PUSH2 0x232D JUMP JUMPDEST PUSH1 0x7 DUP3 ADD SWAP2 POP PUSH2 0x236E DUP3 DUP5 PUSH2 0x21EB JUMP JUMPDEST SWAP2 POP PUSH2 0x2379 DUP3 PUSH2 0x221C JUMP JUMPDEST PUSH1 0x3 DUP3 ADD SWAP2 POP DUP2 SWAP1 POP SWAP3 SWAP2 POP POP JUMP JUMPDEST PUSH1 0x0 PUSH2 0x2394 DUP3 DUP8 PUSH2 0x21EB JUMP JUMPDEST SWAP2 POP PUSH2 0x23A0 DUP3 DUP7 PUSH2 0x21EB JUMP JUMPDEST SWAP2 POP PUSH2 0x23AC DUP3 DUP6 PUSH2 0x21EB JUMP JUMPDEST SWAP2 POP PUSH2 0x23B8 DUP3 DUP5 PUSH2 0x21EB JUMP JUMPDEST SWAP2 POP DUP2 SWAP1 POP SWAP6 SWAP5 POP POP POP POP POP JUMP JUMPDEST PUSH32 0x4E487B7100000000000000000000000000000000000000000000000000000000 PUSH1 0x0 MSTORE PUSH1 0x22 PUSH1 0x4 MSTORE PUSH1 0x24 PUSH1 0x0 REVERT JUMPDEST PUSH1 0x0 PUSH1 0x2 DUP3 DIV SWAP1 POP PUSH1 0x1 DUP3 AND DUP1 PUSH2 0x240D JUMPI PUSH1 0x7F DUP3 AND SWAP2 POP JUMPDEST PUSH1 0x20 DUP3 LT DUP2 SUB PUSH2 0x2420 JUMPI PUSH2 0x241F PUSH2 0x23C6 JUMP JUMPDEST JUMPDEST POP SWAP2 SWAP1 POP JUMP JUMPDEST PUSH32 0x4261642072616E67652E00000000000000000000000000000000000000000000 PUSH1 0x0 DUP3 ADD MSTORE POP JUMP JUMPDEST PUSH1 0x0 PUSH2 0x245C PUSH1 0xA DUP4 PUSH2 0x1C68 JUMP JUMPDEST SWAP2 POP PUSH2 0x2467 DUP3 PUSH2 0x2426 JUMP JUMPDEST PUSH1 0x20 DUP3 ADD SWAP1 POP SWAP2 SWAP1 POP JUMP JUMPDEST PUSH1 0x0 PUSH1 0x20 DUP3 ADD SWAP1 POP DUP2 DUP2 SUB PUSH1 0x0 DUP4 ADD MSTORE PUSH2 0x248B DUP2 PUSH2 0x244F JUMP JUMPDEST SWAP1 POP SWAP2 SWAP1 POP JUMP JUMPDEST PUSH32 0x496E636F72726563742053746167652100000000000000000000000000000000 PUSH1 0x0 DUP3 ADD MSTORE POP JUMP JUMPDEST PUSH1 0x0 PUSH2 0x24C8 PUSH1 0x10 DUP4 PUSH2 0x1C68 JUMP JUMPDEST SWAP2 POP PUSH2 0x24D3 DUP3 PUSH2 0x2492 JUMP JUMPDEST PUSH1 0x20 DUP3 ADD SWAP1 POP SWAP2 SWAP1 POP JUMP JUMPDEST PUSH1 0x0 PUSH1 0x20 DUP3 ADD SWAP1 POP DUP2 DUP2 SUB PUSH1 0x0 DUP4 ADD MSTORE PUSH2 0x24F7 DUP2 PUSH2 0x24BB JUMP JUMPDEST SWAP1 POP SWAP2 SWAP1 POP JUMP JUMPDEST PUSH32 0x63726561746F723A200000000000000000000000000000000000000000000000 DUP2 MSTORE POP JUMP JUMPDEST PUSH1 0x0 PUSH2 0x252F DUP3 PUSH2 0x24FE JUMP JUMPDEST PUSH1 0x9 DUP3 ADD SWAP2 POP PUSH2 0x253F DUP3 DUP5 PUSH2 0x21EB JUMP JUMPDEST SWAP2 POP PUSH2 0x254A DUP3 PUSH2 0x221C JUMP JUMPDEST PUSH1 0x3 DUP3 ADD SWAP2 POP DUP2 SWAP1 POP SWAP3 SWAP2 POP POP JUMP JUMPDEST PUSH32 0x726571756972656D656E7420656E67696E6565723A2000000000000000000000 DUP2 MSTORE POP JUMP JUMPDEST PUSH1 0x0 PUSH2 0x258A DUP3 PUSH2 0x2559 JUMP JUMPDEST PUSH1 0x16 DUP3 ADD SWAP2 POP PUSH2 0x259A DUP3 DUP5 PUSH2 0x21EB JUMP JUMPDEST SWAP2 POP PUSH2 0x25A5 DUP3 PUSH2 0x221C JUMP JUMPDEST PUSH1 0x3 DUP3 ADD SWAP2 POP DUP2 SWAP1 POP SWAP3 SWAP2 POP POP JUMP JUMPDEST PUSH32 0x726571756972656D656E7420616E616C7973743A200000000000000000000000 DUP2 MSTORE POP JUMP JUMPDEST PUSH1 0x0 PUSH2 0x25E5 DUP3 PUSH2 0x25B4 JUMP JUMPDEST PUSH1 0x15 DUP3 ADD SWAP2 POP PUSH2 0x25F5 DUP3 DUP5 PUSH2 0x21EB JUMP JUMPDEST SWAP2 POP PUSH2 0x2600 DUP3 PUSH2 0x221C JUMP JUMPDEST PUSH1 0x3 DUP3 ADD SWAP2 POP DUP2 SWAP1 POP SWAP3 SWAP2 POP POP JUMP JUMPDEST PUSH32 0x6D616E616765723A200000000000000000000000000000000000000000000000 DUP2 MSTORE POP JUMP JUMPDEST PUSH1 0x0 PUSH2 0x2640 DUP3 PUSH2 0x260F JUMP JUMPDEST PUSH1 0x9 DUP3 ADD SWAP2 POP PUSH2 0x2650 DUP3 DUP5 PUSH2 0x21EB JUMP JUMPDEST SWAP2 POP PUSH2 0x265B DUP3 PUSH2 0x221C JUMP JUMPDEST PUSH1 0x3 DUP3 ADD SWAP2 POP DUP2 SWAP1 POP SWAP3 SWAP2 POP POP JUMP JUMPDEST PUSH1 0x0 DUP2 PUSH1 0x60 SHL SWAP1 POP SWAP2 SWAP1 POP JUMP JUMPDEST PUSH1 0x0 PUSH2 0x2682 DUP3 PUSH2 0x266A JUMP JUMPDEST SWAP1 POP SWAP2 SWAP1 POP JUMP JUMPDEST PUSH1 0x0 PUSH2 0x2694 DUP3 PUSH2 0x2677 JUMP JUMPDEST SWAP1 POP SWAP2 SWAP1 POP JUMP JUMPDEST PUSH2 0x26AC PUSH2 0x26A7 DUP3 PUSH2 0x1D2F JUMP JUMPDEST PUSH2 0x2689 JUMP JUMPDEST DUP3 MSTORE POP POP JUMP JUMPDEST PUSH1 0x0 PUSH2 0x26BE DUP3 DUP5 PUSH2 0x269B JUMP JUMPDEST PUSH1 0x14 DUP3 ADD SWAP2 POP DUP2 SWAP1 POP SWAP3 SWAP2 POP POP JUMP JUMPDEST PUSH1 0x0 DUP2 SWAP1 POP SWAP2 SWAP1 POP JUMP JUMPDEST PUSH2 0x26E8 PUSH2 0x26E3 DUP3 PUSH2 0x1C29 JUMP JUMPDEST PUSH2 0x26CD JUMP JUMPDEST DUP3 MSTORE POP POP JUMP JUMPDEST PUSH1 0x0 PUSH2 0x26FA DUP3 DUP5 PUSH2 0x26D7 JUMP JUMPDEST PUSH1 0x20 DUP3 ADD SWAP2 POP DUP2 SWAP1 POP SWAP3 SWAP2 POP POP JUMP JUMPDEST PUSH32 0x497420686173206265656E2076616C6964617465642E00000000000000000000 PUSH1 0x0 DUP3 ADD MSTORE POP JUMP JUMPDEST PUSH1 0x0 PUSH2 0x273F PUSH1 0x16 DUP4 PUSH2 0x1C68 JUMP JUMPDEST SWAP2 POP PUSH2 0x274A DUP3 PUSH2 0x2709 JUMP JUMPDEST PUSH1 0x20 DUP3 ADD SWAP1 POP SWAP2 SWAP1 POP JUMP JUMPDEST PUSH1 0x0 PUSH1 0x20 DUP3 ADD SWAP1 POP DUP2 DUP2 SUB PUSH1 0x0 DUP4 ADD MSTORE PUSH2 0x276E DUP2 PUSH2 0x2732 JUMP JUMPDEST SWAP1 POP SWAP2 SWAP1 POP JUMP JUMPDEST PUSH32 0x4E487B7100000000000000000000000000000000000000000000000000000000 PUSH1 0x0 MSTORE PUSH1 0x11 PUSH1 0x4 MSTORE PUSH1 0x24 PUSH1 0x0 REVERT JUMPDEST PUSH1 0x0 PUSH2 0x27AF DUP3 PUSH2 0x1C29 JUMP JUMPDEST SWAP2 POP PUSH2 0x27BA DUP4 PUSH2 0x1C29 JUMP JUMPDEST SWAP3 POP DUP3 DUP3 MUL PUSH2 0x27C8 DUP2 PUSH2 0x1C29 JUMP JUMPDEST SWAP2 POP DUP3 DUP3 DIV DUP5 EQ DUP4 ISZERO OR PUSH2 0x27DF JUMPI PUSH2 0x27DE PUSH2 0x2775 JUMP JUMPDEST JUMPDEST POP SWAP3 SWAP2 POP POP JUMP JUMPDEST PUSH1 0x0 PUSH2 0x27F1 DUP3 PUSH2 0x1C29 JUMP JUMPDEST SWAP2 POP PUSH2 0x27FC DUP4 PUSH2 0x1C29 JUMP JUMPDEST SWAP3 POP DUP3 DUP3 ADD SWAP1 POP DUP1 DUP3 GT ISZERO PUSH2 0x2814 JUMPI PUSH2 0x2813 PUSH2 0x2775 JUMP JUMPDEST JUMPDEST SWAP3 SWAP2 POP POP JUMP JUMPDEST PUSH32 0x4E487B7100000000000000000000000000000000000000000000000000000000 PUSH1 0x0 MSTORE PUSH1 0x32 PUSH1 0x4 MSTORE PUSH1 0x24 PUSH1 0x0 REVERT JUMPDEST PUSH1 0x0 DUP2 SWAP1 POP DUP2 PUSH1 0x0 MSTORE PUSH1 0x20 PUSH1 0x0 KECCAK256 SWAP1 POP SWAP2 SWAP1 POP JUMP JUMPDEST PUSH1 0x0 PUSH1 0x20 PUSH1 0x1F DUP4 ADD DIV SWAP1 POP SWAP2 SWAP1 POP JUMP JUMPDEST PUSH1 0x0 DUP3 DUP3 SHL SWAP1 POP SWAP3 SWAP2 POP POP JUMP JUMPDEST PUSH1 0x0 PUSH1 0x8 DUP4 MUL PUSH2 0x28AB PUSH32 0xFFFFFFFFFFFFFFFFFFFFFFFFFFFFFFFFFFFFFFFFFFFFFFFFFFFFFFFFFFFFFFFF DUP3 PUSH2 0x286E JUMP JUMPDEST PUSH2 0x28B5 DUP7 DUP4 PUSH2 0x286E JUMP JUMPDEST SWAP6 POP DUP1 NOT DUP5 AND SWAP4 POP DUP1 DUP7 AND DUP5 OR SWAP3 POP POP POP SWAP4 SWAP3 POP POP POP JUMP JUMPDEST PUSH1 0x0 DUP2 SWAP1 POP SWAP2 SWAP1 POP JUMP JUMPDEST PUSH1 0x0 PUSH2 0x28F2 PUSH2 0x28ED PUSH2 0x28E8 DUP5 PUSH2 0x1C29 JUMP JUMPDEST PUSH2 0x28CD JUMP JUMPDEST PUSH2 0x1C29 JUMP JUMPDEST SWAP1 POP SWAP2 SWAP1 POP JUMP JUMPDEST PUSH1 0x0 DUP2 SWAP1 POP SWAP2 SWAP1 POP JUMP JUMPDEST PUSH2 0x290C DUP4 PUSH2 0x28D7 JUMP JUMPDEST PUSH2 0x2920 PUSH2 0x2918 DUP3 PUSH2 0x28F9 JUMP JUMPDEST DUP5 DUP5 SLOAD PUSH2 0x287B JUMP JUMPDEST DUP3 SSTORE POP POP POP POP JUMP JUMPDEST PUSH1 0x0 SWAP1 JUMP JUMPDEST PUSH2 0x2935 PUSH2 0x2928 JUMP JUMPDEST PUSH2 0x2940 DUP2 DUP5 DUP5 PUSH2 0x2903 JUMP JUMPDEST POP POP POP JUMP JUMPDEST JUMPDEST DUP2 DUP2 LT ISZERO PUSH2 0x2964 JUMPI PUSH2 0x2959 PUSH1 0x0 DUP3 PUSH2 0x292D JUMP JUMPDEST PUSH1 0x1 DUP2 ADD SWAP1 POP PUSH2 0x2946 JUMP JUMPDEST POP POP JUMP JUMPDEST PUSH1 0x1F DUP3 GT ISZERO PUSH2 0x29A9 JUMPI PUSH2 0x297A DUP2 PUSH2 0x2849 JUMP JUMPDEST PUSH2 0x2983 DUP5 PUSH2 0x285E JUMP JUMPDEST DUP2 ADD PUSH1 0x20 DUP6 LT ISZERO PUSH2 0x2992 JUMPI DUP2 SWAP1 POP JUMPDEST PUSH2 0x29A6 PUSH2 0x299E DUP6 PUSH2 0x285E JUMP JUMPDEST DUP4 ADD DUP3 PUSH2 0x2945 JUMP JUMPDEST POP POP JUMPDEST POP POP POP JUMP JUMPDEST PUSH1 0x0 DUP3 DUP3 SHR SWAP1 POP SWAP3 SWAP2 POP POP JUMP JUMPDEST PUSH1 0x0 PUSH2 0x29CC PUSH1 0x0 NOT DUP5 PUSH1 0x8 MUL PUSH2 0x29AE JUMP JUMPDEST NOT DUP1 DUP4 AND SWAP2 POP POP SWAP3 SWAP2 POP POP JUMP JUMPDEST PUSH1 0x0 PUSH2 0x29E5 DUP4 DUP4 PUSH2 0x29BB JUMP JUMPDEST SWAP2 POP DUP3 PUSH1 0x2 MUL DUP3 OR SWAP1 POP SWAP3 SWAP2 POP POP JUMP JUMPDEST PUSH2 0x29FE DUP3 PUSH2 0x1C5D JUMP JUMPDEST PUSH8 0xFFFFFFFFFFFFFFFF DUP2 GT ISZERO PUSH2 0x2A17 JUMPI PUSH2 0x2A16 PUSH2 0x1E71 JUMP JUMPDEST JUMPDEST PUSH2 0x2A21 DUP3 SLOAD PUSH2 0x23F5 JUMP JUMPDEST PUSH2 0x2A2C DUP3 DUP3 DUP6 PUSH2 0x2968 JUMP JUMPDEST PUSH1 0x0 PUSH1 0x20 SWAP1 POP PUSH1 0x1F DUP4 GT PUSH1 0x1 DUP2 EQ PUSH2 0x2A5F JUMPI PUSH1 0x0 DUP5 ISZERO PUSH2 0x2A4D JUMPI DUP3 DUP8 ADD MLOAD SWAP1 POP JUMPDEST PUSH2 0x2A57 DUP6 DUP3 PUSH2 0x29D9 JUMP JUMPDEST DUP7 SSTORE POP PUSH2 0x2ABF JUMP JUMPDEST PUSH1 0x1F NOT DUP5 AND PUSH2 0x2A6D DUP7 PUSH2 0x2849 JUMP JUMPDEST PUSH1 0x0 JUMPDEST DUP3 DUP2 LT ISZERO PUSH2 0x2A95 JUMPI DUP5 DUP10 ADD MLOAD DUP3 SSTORE PUSH1 0x1 DUP3 ADD SWAP2 POP PUSH1 0x20 DUP6 ADD SWAP5 POP PUSH1 0x20 DUP2 ADD SWAP1 POP PUSH2 0x2A70 JUMP JUMPDEST DUP7 DUP4 LT ISZERO PUSH2 0x2AB2 JUMPI DUP5 DUP10 ADD MLOAD PUSH2 0x2AAE PUSH1 0x1F DUP10 AND DUP3 PUSH2 0x29BB JUMP JUMPDEST DUP4 SSTORE POP JUMPDEST PUSH1 0x1 PUSH1 0x2 DUP9 MUL ADD DUP9 SSTORE POP POP POP JUMPDEST POP POP POP POP POP POP JUMP JUMPDEST PUSH1 0x0 PUSH2 0x2AD3 DUP3 DUP7 PUSH2 0x21EB JUMP JUMPDEST SWAP2 POP PUSH2 0x2ADF DUP3 DUP6 PUSH2 0x21EB JUMP JUMPDEST SWAP2 POP PUSH2 0x2AEB DUP3 DUP5 PUSH2 0x21EB JUMP JUMPDEST SWAP2 POP DUP2 SWAP1 POP SWAP5 SWAP4 POP POP POP POP JUMP JUMPDEST PUSH1 0x0 DUP2 SWAP1 POP SWAP2 SWAP1 POP JUMP JUMPDEST PUSH2 0x2B13 PUSH2 0x2B0E DUP3 PUSH2 0x2128 JUMP JUMPDEST PUSH2 0x2AF8 JUMP JUMPDEST DUP3 MSTORE POP POP JUMP JUMPDEST PUSH1 0x0 PUSH2 0x2B25 DUP3 DUP5 PUSH2 0x2B02 JUMP JUMPDEST PUSH1 0x20 DUP3 ADD SWAP2 POP DUP2 SWAP1 POP SWAP3 SWAP2 POP POP JUMP JUMPDEST PUSH32 0x69643A2000000000000000000000000000000000000000000000000000000000 DUP2 MSTORE POP JUMP JUMPDEST PUSH1 0x0 PUSH2 0x2B65 DUP3 PUSH2 0x2B34 JUMP JUMPDEST PUSH1 0x4 DUP3 ADD SWAP2 POP PUSH2 0x2B75 DUP3 DUP5 PUSH2 0x21EB JUMP JUMPDEST SWAP2 POP PUSH2 0x2B80 DUP3 PUSH2 0x221C JUMP JUMPDEST PUSH1 0x3 DUP3 ADD SWAP2 POP DUP2 SWAP1 POP SWAP3 SWAP2 POP POP JUMP JUMPDEST PUSH32 0x6E616D653A200000000000000000000000000000000000000000000000000000 DUP2 MSTORE POP JUMP JUMPDEST PUSH1 0x0 DUP2 SLOAD PUSH2 0x2BC2 DUP2 PUSH2 0x23F5 JUMP JUMPDEST PUSH2 0x2BCC DUP2 DUP7 PUSH2 0x21E0 JUMP JUMPDEST SWAP5 POP PUSH1 0x1 DUP3 AND PUSH1 0x0 DUP2 EQ PUSH2 0x2BE7 JUMPI PUSH1 0x1 DUP2 EQ PUSH2 0x2BFC JUMPI PUSH2 0x2C2F JUMP JUMPDEST PUSH1 0xFF NOT DUP4 AND DUP7 MSTORE DUP2 ISZERO ISZERO DUP3 MUL DUP7 ADD SWAP4 POP PUSH2 0x2C2F JUMP JUMPDEST PUSH2 0x2C05 DUP6 PUSH2 0x2849 JUMP JUMPDEST PUSH1 0x0 JUMPDEST DUP4 DUP2 LT ISZERO PUSH2 0x2C27 JUMPI DUP2 SLOAD DUP2 DUP10 ADD MSTORE PUSH1 0x1 DUP3 ADD SWAP2 POP PUSH1 0x20 DUP2 ADD SWAP1 POP PUSH2 0x2C08 JUMP JUMPDEST DUP4 DUP9 ADD SWAP6 POP POP POP JUMPDEST POP POP POP SWAP3 SWAP2 POP POP JUMP JUMPDEST PUSH1 0x0 PUSH2 0x2C43 DUP3 PUSH2 0x2B8F JUMP JUMPDEST PUSH1 0x6 DUP3 ADD SWAP2 POP PUSH2 0x2C53 DUP3 DUP5 PUSH2 0x2BB5 JUMP JUMPDEST SWAP2 POP PUSH2 0x2C5E DUP3 PUSH2 0x221C JUMP JUMPDEST PUSH1 0x3 DUP3 ADD SWAP2 POP DUP2 SWAP1 POP SWAP3 SWAP2 POP POP JUMP JUMPDEST PUSH32 0x6465736372697074696F6E3A2000000000000000000000000000000000000000 DUP2 MSTORE POP JUMP JUMPDEST PUSH1 0x0 PUSH2 0x2C9E DUP3 PUSH2 0x2C6D JUMP JUMPDEST PUSH1 0xD DUP3 ADD SWAP2 POP PUSH2 0x2CAE DUP3 DUP5 PUSH2 0x2BB5 JUMP JUMPDEST SWAP2 POP PUSH2 0x2CB9 DUP3 PUSH2 0x221C JUMP JUMPDEST PUSH1 0x3 DUP3 ADD SWAP2 POP DUP2 SWAP1 POP SWAP3 SWAP2 POP POP JUMP JUMPDEST PUSH32 0x76616C6964617465643A20000000000000000000000000000000000000000000 DUP2 MSTORE POP JUMP JUMPDEST PUSH1 0x0 PUSH2 0x2CF9 DUP3 PUSH2 0x2CC8 JUMP JUMPDEST PUSH1 0xB DUP3 ADD SWAP2 POP PUSH2 0x2D09 DUP3 DUP5 PUSH2 0x21EB JUMP JUMPDEST SWAP2 POP PUSH2 0x2D14 DUP3 PUSH2 0x221C JUMP JUMPDEST PUSH1 0x3 DUP3 ADD SWAP2 POP DUP2 SWAP1 POP SWAP3 SWAP2 POP POP JUMP JUMPDEST PUSH32 0x76657269666965643A2000000000000000000000000000000000000000000000 DUP2 MSTORE POP JUMP JUMPDEST PUSH1 0x0 PUSH2 0x2D54 DUP3 PUSH2 0x2D23 JUMP JUMPDEST PUSH1 0xA DUP3 ADD SWAP2 POP PUSH2 0x2D64 DUP3 DUP5 PUSH2 0x21EB JUMP JUMPDEST SWAP2 POP PUSH2 0x2D6F DUP3 PUSH2 0x221C JUMP JUMPDEST PUSH1 0x3 DUP3 ADD SWAP2 POP DUP2 SWAP1 POP SWAP3 SWAP2 POP POP JUMP JUMPDEST PUSH1 0x0 PUSH2 0x2D8A DUP3 DUP9 PUSH2 0x21EB JUMP JUMPDEST SWAP2 POP PUSH2 0x2D96 DUP3 DUP8 PUSH2 0x21EB JUMP JUMPDEST SWAP2 POP PUSH2 0x2DA2 DUP3 DUP7 PUSH2 0x21EB JUMP JUMPDEST SWAP2 POP PUSH2 0x2DAE DUP3 DUP6 PUSH2 0x21EB JUMP JUMPDEST SWAP2 POP PUSH2 0x2DBA DUP3 DUP5 PUSH2 0x21EB JUMP JUMPDEST SWAP2 POP DUP2 SWAP1 POP SWAP7 SWAP6 POP POP POP POP POP POP JUMP JUMPDEST PUSH32 0x497420686173206265656E2076657269666965642E0000000000000000000000 PUSH1 0x0 DUP3 ADD MSTORE POP JUMP JUMPDEST PUSH1 0x0 PUSH2 0x2DFF PUSH1 0x15 DUP4 PUSH2 0x1C68 JUMP JUMPDEST SWAP2 POP PUSH2 0x2E0A DUP3 PUSH2 0x2DC9 JUMP JUMPDEST PUSH1 0x20 DUP3 ADD SWAP1 POP SWAP2 SWAP1 POP JUMP JUMPDEST PUSH1 0x0 PUSH1 0x20 DUP3 ADD SWAP1 POP DUP2 DUP2 SUB PUSH1 0x0 DUP4 ADD MSTORE PUSH2 0x2E2E DUP2 PUSH2 0x2DF2 JUMP JUMPDEST SWAP1 POP SWAP2 SWAP1 POP JUMP INVALID LOG2 PUSH5 0x6970667358 0x22 SLT KECCAK256 PUSH28 0x6F9880F4BE66E4524152DE75BF6DD9F73E9D0614AC58C0935564DF40 0x2A PUSH13 0x6164736F6C6343000818003300 "},"gasEstimates":{"creation":{"codeDepositCost":"2376600","executionCost":"infinite","totalCost":"infinite"},"external":{"getCreator()":"2613","getDescription()":"infinite","getId()":"2526","getName()":"infinite","getPriority()":"2660","getRisk()":"2596","getStage()":"2659","getType()":"2662","isValidate()":"2575","isVerified()":"2524","priorityToString()":"infinite","riskToString()":"infinite","seeReq()":"infinite","seeReq1()":"infinite","seeReq2()":"infinite","seeReq3()":"infinite","setDescription(string)":"infinite","setPriority(uint256)":"27221","setRequirementAnalyst(address)":"24767","setRequirementEngineer(address)":"24790","setRisk(uint256)":"27153","setStage(uint256)":"24972","setType(uint256)":"27196","stageToString()":"infinite","toString(address)":"infinite","toString(bool)":"infinite","toString(bytes)":"infinite","toString(bytes32)":"infinite","toString(uint256)":"infinite","typeToString()":"infinite","validate()":"29010","verify()":"28930"}},"methodIdentifiers":{"getCreator()":"0ee2cb10","getDescription()":"1a092541","getId()":"5d1ca631","getName()":"17d7de7c","getPriority()":"d75088a1","getRisk()":"02676d39","getStage()":"fcaa7664","getType()":"15dae03e","isValidate()":"24a872f8","isVerified()":"80007e83","priorityToString()":"02955b14","riskToString()":"5d8c6faa","seeReq()":"a8113654","seeReq1()":"f6c8f7e1","seeReq2()":"17a2da08","seeReq3()":"51b7aa30","setDescription(string)":"90c3f38f","setPriority(uint256)":"21a50a93","setRequirementAnalyst(address)":"524fa88e","setRequirementEngineer(address)":"3bcbe08a","setRisk(uint256)":"eeb1191a","setStage(uint256)":"3eb1d777","setType(uint256)":"a813dea6","stageToString()":"b3205dfa","toString(address)":"56ca623e","toString(bool)":"71dce7da","toString(bytes)":"71aad10d","toString(bytes32)":"b11a19e8","toString(uint256)":"6900a3ae","typeToString()":"d05c6627","validate()":"6901f668","verify()":"fc735e99"}},"storageLayout":{"storage":[{"astId":20,"contract":"contracts/RequirementEngineering.sol:Reqiurement","label":"id","offset":0,"slot":"0","type":"t_uint256"},{"astId":22,"contract":"contracts/RequirementEngineering.sol:Reqiurement","label":"name","offset":0,"slot":"1","type":"t_string_storage"},{"astId":24,"contract":"contracts/RequirementEngineering.sol:Reqiurement","label":"creator","offset":0,"slot":"2","type":"t_address"},{"astId":26,"contract":"contracts/RequirementEngineering.sol:Reqiurement","label":"requirementEngineer","offset":0,"slot":"3","type":"t_address"},{"astId":28,"contract":"contracts/RequirementEngineering.sol:Reqiurement","label":"requirementAnalyst","offset":0,"slot":"4","type":"t_address"},{"astId":30,"contract":"contracts/RequirementEngineering.sol:Reqiurement","label":"manager","offset":0,"slot":"5","type":"t_address"},{"astId":32,"contract":"contracts/RequirementEngineering.sol:Reqiurement","label":"description","offset":0,"slot":"6","type":"t_string_storage"},{"astId":34,"contract":"contracts/RequirementEngineering.sol:Reqiurement","label":"verified","offset":0,"slot":"7","type":"t_bool"},{"astId":36,"contract":"contracts/RequirementEngineering.sol:Reqiurement","label":"validated","offset":1,"slot":"7","type":"t_bool"},{"astId":39,"contract":"contracts/RequirementEngineering.sol:Reqiurement","label":"typeOfIt","offset":2,"slot":"7","type":"t_enum(Type)10"},{"astId":42,"contract":"contracts/RequirementEngineering.sol:Reqiurement","label":"priority","offset":3,"slot":"7","type":"t_enum(Priority)14"},{"astId":45,"contract":"contracts/RequirementEngineering.sol:Reqiurement","label":"risk","offset":4,"slot":"7","type":"t_enum(Risk)18"},{"astId":50,"contract":"contracts/RequirementEngineering.sol:Reqiurement","label":"stage","offset":5,"slot":"7","type":"t_enum(Stage)7"}],"types":{"t_address":{"encoding":"inplace","label":"address","numberOfBytes":"20"},"t_bool":{"encoding":"inplace","label":"bool","numberOfBytes":"1"},"t_enum(Priority)14":{"encoding":"inplace","label":"enum Reqiurement.Priority","numberOfBytes":"1"},"t_enum(Risk)18":{"encoding":"inplace","label":"enum Reqiurement.Risk","numberOfBytes":"1"},"t_enum(Stage)7":{"encoding":"inplace","label":"enum Reqiurement.Stage","numberOfBytes":"1"},"t_enum(Type)10":{"encoding":"inplace","label":"enum Reqiurement.Type","numberOfBytes":"1"},"t_string_storage":{"encoding":"bytes","label":"string","numberOfBytes":"32"},"t_uint256":{"encoding":"inplace","label":"uint256","numberOfBytes":"32"}}},"userdoc":{"kind":"user","methods":{},"version":1}}}}