{
  "_format": "hh-sol-artifact-1",
  "contractName": "Reqiurement",
  "sourceName": "contracts/RequirementEngineering.sol",
  "abi": [
    {
      "inputs": [
        {
          "internalType": "uint256",
          "name": "_id",
          "type": "uint256"
        },
        {
          "internalType": "string",
          "name": "_name",
          "type": "string"
        },
        {
          "internalType": "string",
          "name": "_description",
          "type": "string"
        },
        {
          "internalType": "address",
          "name": "_creator",
          "type": "address"
        },
        {
          "internalType": "address",
          "name": "_manager",
          "type": "address"
        }
      ],
      "stateMutability": "nonpayable",
      "type": "constructor"
    },
    {
      "inputs": [],
      "name": "getCreator",
      "outputs": [
        {
          "internalType": "address",
          "name": "",
          "type": "address"
        }
      ],
      "stateMutability": "view",
      "type": "function"
    },
    {
      "inputs": [],
      "name": "getDescription",
      "outputs": [
        {
          "internalType": "string",
          "name": "",
          "type": "string"
        }
      ],
      "stateMutability": "view",
      "type": "function"
    },
    {
      "inputs": [],
      "name": "getId",
      "outputs": [
        {
          "internalType": "uint256",
          "name": "",
          "type": "uint256"
        }
      ],
      "stateMutability": "view",
      "type": "function"
    },
    {
      "inputs": [],
      "name": "getName",
      "outputs": [
        {
          "internalType": "string",
          "name": "",
          "type": "string"
        }
      ],
      "stateMutability": "view",
      "type": "function"
    },
    {
      "inputs": [],
      "name": "getPriority",
      "outputs": [
        {
          "internalType": "uint256",
          "name": "",
          "type": "uint256"
        }
      ],
      "stateMutability": "view",
      "type": "function"
    },
    {
      "inputs": [],
      "name": "getRisk",
      "outputs": [
        {
          "internalType": "uint256",
          "name": "",
          "type": "uint256"
        }
      ],
      "stateMutability": "view",
      "type": "function"
    },
    {
      "inputs": [],
      "name": "getStage",
      "outputs": [
        {
          "internalType": "uint256",
          "name": "",
          "type": "uint256"
        }
      ],
      "stateMutability": "view",
      "type": "function"
    },
    {
      "inputs": [],
      "name": "getType",
      "outputs": [
        {
          "internalType": "uint256",
          "name": "",
          "type": "uint256"
        }
      ],
      "stateMutability": "view",
      "type": "function"
    },
    {
      "inputs": [],
      "name": "isValidate",
      "outputs": [
        {
          "internalType": "bool",
          "name": "",
          "type": "bool"
        }
      ],
      "stateMutability": "view",
      "type": "function"
    },
    {
      "inputs": [],
      "name": "isVerified",
      "outputs": [
        {
          "internalType": "bool",
          "name": "",
          "type": "bool"
        }
      ],
      "stateMutability": "view",
      "type": "function"
    },
    {
      "inputs": [],
      "name": "priorityToString",
      "outputs": [
        {
          "internalType": "string",
          "name": "",
          "type": "string"
        }
      ],
      "stateMutability": "view",
      "type": "function"
    },
    {
      "inputs": [],
      "name": "riskToString",
      "outputs": [
        {
          "internalType": "string",
          "name": "",
          "type": "string"
        }
      ],
      "stateMutability": "view",
      "type": "function"
    },
    {
      "inputs": [],
      "name": "seeReq",
      "outputs": [
        {
          "internalType": "string",
          "name": "",
          "type": "string"
        }
      ],
      "stateMutability": "view",
      "type": "function"
    },
    {
      "inputs": [],
      "name": "seeReq1",
      "outputs": [
        {
          "internalType": "string",
          "name": "",
          "type": "string"
        }
      ],
      "stateMutability": "view",
      "type": "function"
    },
    {
      "inputs": [],
      "name": "seeReq2",
      "outputs": [
        {
          "internalType": "string",
          "name": "",
          "type": "string"
        }
      ],
      "stateMutability": "view",
      "type": "function"
    },
    {
      "inputs": [],
      "name": "seeReq3",
      "outputs": [
        {
          "internalType": "string",
          "name": "",
          "type": "string"
        }
      ],
      "stateMutability": "view",
      "type": "function"
    },
    {
      "inputs": [
        {
          "internalType": "string",
          "name": "_description",
          "type": "string"
        }
      ],
      "name": "setDescription",
      "outputs": [],
      "stateMutability": "nonpayable",
      "type": "function"
    },
    {
      "inputs": [
        {
          "internalType": "uint256",
          "name": "_priority",
          "type": "uint256"
        }
      ],
      "name": "setPriority",
      "outputs": [],
      "stateMutability": "nonpayable",
      "type": "function"
    },
    {
      "inputs": [
        {
          "internalType": "address",
          "name": "_reqAnalyst",
          "type": "address"
        }
      ],
      "name": "setRequirementAnalyst",
      "outputs": [],
      "stateMutability": "nonpayable",
      "type": "function"
    },
    {
      "inputs": [
        {
          "internalType": "address",
          "name": "_reqEngineer",
          "type": "address"
        }
      ],
      "name": "setRequirementEngineer",
      "outputs": [],
      "stateMutability": "nonpayable",
      "type": "function"
    },
    {
      "inputs": [
        {
          "internalType": "uint256",
          "name": "_risk",
          "type": "uint256"
        }
      ],
      "name": "setRisk",
      "outputs": [],
      "stateMutability": "nonpayable",
      "type": "function"
    },
    {
      "inputs": [
        {
          "internalType": "uint256",
          "name": "_stage",
          "type": "uint256"
        }
      ],
      "name": "setStage",
      "outputs": [],
      "stateMutability": "nonpayable",
      "type": "function"
    },
    {
      "inputs": [
        {
          "internalType": "uint256",
          "name": "_typeOfIt",
          "type": "uint256"
        }
      ],
      "name": "setType",
      "outputs": [],
      "stateMutability": "nonpayable",
      "type": "function"
    },
    {
      "inputs": [],
      "name": "stageToString",
      "outputs": [
        {
          "internalType": "string",
          "name": "",
          "type": "string"
        }
      ],
      "stateMutability": "view",
      "type": "function"
    },
    {
      "inputs": [
        {
          "internalType": "address",
          "name": "account",
          "type": "address"
        }
      ],
      "name": "toString",
      "outputs": [
        {
          "internalType": "string",
          "name": "",
          "type": "string"
        }
      ],
      "stateMutability": "pure",
      "type": "function"
    },
    {
      "inputs": [
        {
          "internalType": "uint256",
          "name": "value",
          "type": "uint256"
        }
      ],
      "name": "toString",
      "outputs": [
        {
          "internalType": "string",
          "name": "",
          "type": "string"
        }
      ],
      "stateMutability": "pure",
      "type": "function"
    },
    {
      "inputs": [
        {
          "internalType": "bytes",
          "name": "data",
          "type": "bytes"
        }
      ],
      "name": "toString",
      "outputs": [
        {
          "internalType": "string",
          "name": "",
          "type": "string"
        }
      ],
      "stateMutability": "pure",
      "type": "function"
    },
    {
      "inputs": [
        {
          "internalType": "bool",
          "name": "value",
          "type": "bool"
        }
      ],
      "name": "toString",
      "outputs": [
        {
          "internalType": "string",
          "name": "",
          "type": "string"
        }
      ],
      "stateMutability": "pure",
      "type": "function"
    },
    {
      "inputs": [
        {
          "internalType": "bytes32",
          "name": "value",
          "type": "bytes32"
        }
      ],
      "name": "toString",
      "outputs": [
        {
          "internalType": "string",
          "name": "",
          "type": "string"
        }
      ],
      "stateMutability": "pure",
      "type": "function"
    },
    {
      "inputs": [],
      "name": "typeToString",
      "outputs": [
        {
          "internalType": "string",
          "name": "",
          "type": "string"
        }
      ],
      "stateMutability": "view",
      "type": "function"
    },
    {
      "inputs": [],
      "name": "validate",
      "outputs": [],
      "stateMutability": "nonpayable",
      "type": "function"
    },
    {
      "inputs": [],
      "name": "verify",
      "outputs": [],
      "stateMutability": "nonpayable",
      "type": "function"
    }
  ],
  "bytecode": "0x60806040526000600760056101000a81548160ff021916908360048111156200002d576200002c62000181565b5b02179055503480156200003f57600080fd5b506040516200364c3803806200364c8339818101604052810190620000659190620003e3565b8460008190555083600190816200007d9190620006ea565b5082600690816200008f9190620006ea565b5081600260006101000a81548173ffffffffffffffffffffffffffffffffffffffff021916908373ffffffffffffffffffffffffffffffffffffffff16021790555080600560006101000a81548173ffffffffffffffffffffffffffffffffffffffff021916908373ffffffffffffffffffffffffffffffffffffffff1602179055506000600760006101000a81548160ff0219169083151502179055506000600760016101000a81548160ff0219169083151502179055506001600760056101000a81548160ff0219169083600481111562000171576200017062000181565b5b02179055505050505050620007d1565b7f4e487b7100000000000000000000000000000000000000000000000000000000600052602160045260246000fd5b6000604051905090565b600080fd5b600080fd5b6000819050919050565b620001d981620001c4565b8114620001e557600080fd5b50565b600081519050620001f981620001ce565b92915050565b600080fd5b600080fd5b6000601f19601f8301169050919050565b7f4e487b7100000000000000000000000000000000000000000000000000000000600052604160045260246000fd5b620002548262000209565b810181811067ffffffffffffffff821117156200027657620002756200021a565b5b80604052505050565b60006200028b620001b0565b905062000299828262000249565b919050565b600067ffffffffffffffff821115620002bc57620002bb6200021a565b5b620002c78262000209565b9050602081019050919050565b60005b83811015620002f4578082015181840152602081019050620002d7565b60008484015250505050565b60006200031762000311846200029e565b6200027f565b90508281526020810184848401111562000336576200033562000204565b5b62000343848285620002d4565b509392505050565b600082601f830112620003635762000362620001ff565b5b81516200037584826020860162000300565b91505092915050565b600073ffffffffffffffffffffffffffffffffffffffff82169050919050565b6000620003ab826200037e565b9050919050565b620003bd816200039e565b8114620003c957600080fd5b50565b600081519050620003dd81620003b2565b92915050565b600080600080600060a08688031215620004025762000401620001ba565b5b60006200041288828901620001e8565b955050602086015167ffffffffffffffff811115620004365762000435620001bf565b5b62000444888289016200034b565b945050604086015167ffffffffffffffff811115620004685762000467620001bf565b5b62000476888289016200034b565b93505060606200048988828901620003cc565b92505060806200049c88828901620003cc565b9150509295509295909350565b600081519050919050565b7f4e487b7100000000000000000000000000000000000000000000000000000000600052602260045260246000fd5b60006002820490506001821680620004fc57607f821691505b602082108103620005125762000511620004b4565b5b50919050565b60008190508160005260206000209050919050565b60006020601f8301049050919050565b600082821b905092915050565b6000600883026200057c7fffffffffffffffffffffffffffffffffffffffffffffffffffffffffffffffff826200053d565b6200058886836200053d565b95508019841693508086168417925050509392505050565b6000819050919050565b6000620005cb620005c5620005bf84620001c4565b620005a0565b620001c4565b9050919050565b6000819050919050565b620005e783620005aa565b620005ff620005f682620005d2565b8484546200054a565b825550505050565b600090565b6200061662000607565b62000623818484620005dc565b505050565b5b818110156200064b576200063f6000826200060c565b60018101905062000629565b5050565b601f8211156200069a57620006648162000518565b6200066f846200052d565b810160208510156200067f578190505b620006976200068e856200052d565b83018262000628565b50505b505050565b600082821c905092915050565b6000620006bf600019846008026200069f565b1980831691505092915050565b6000620006da8383620006ac565b9150826002028217905092915050565b620006f582620004a9565b67ffffffffffffffff8111156200071157620007106200021a565b5b6200071d8254620004e3565b6200072a8282856200064f565b600060209050601f8311600181146200076257600084156200074d578287015190505b620007598582620006cc565b865550620007c9565b601f198416620007728662000518565b60005b828110156200079c5784890151825560018201915060208501945060208101905062000775565b86831015620007bc5784890151620007b8601f891682620006ac565b8355505b6001600288020188555050505b505050505050565b612e6b80620007e16000396000f3fe608060405234801561001057600080fd5b50600436106101f05760003560e01c80636900a3ae1161010f578063b11a19e8116100a2578063eeb1191a11610071578063eeb1191a14610577578063f6c8f7e114610593578063fc735e99146105b1578063fcaa7664146105bb576101f0565b8063b11a19e8146104ed578063b3205dfa1461051d578063d05c66271461053b578063d75088a114610559576101f0565b806380007e83116100de57806380007e831461047957806390c3f38f14610497578063a8113654146104b3578063a813dea6146104d1576101f0565b80636900a3ae146103df5780636901f6681461040f57806371aad10d1461041957806371dce7da14610449576101f0565b806324a872f811610187578063524fa88e11610156578063524fa88e1461035757806356ca623e146103735780635d1ca631146103a35780635d8c6faa146103c1576101f0565b806324a872f8146102e35780633bcbe08a146103015780633eb1d7771461031d57806351b7aa3014610339576101f0565b806317a2da08116101c357806317a2da081461026d57806317d7de7c1461028b5780631a092541146102a957806321a50a93146102c7576101f0565b806302676d39146101f557806302955b14146102135780630ee2cb101461023157806315dae03e1461024f575b600080fd5b6101fd6105d9565b60405161020a9190611c42565b60405180910390f35b61021b610602565b6040516102289190611ced565b60405180910390f35b610239610730565b6040516102469190611d50565b60405180910390f35b61025761075a565b6040516102649190611c42565b60405180910390f35b610275610783565b6040516102829190611ced565b60405180910390f35b61029361086c565b6040516102a09190611ced565b60405180910390f35b6102b16108fe565b6040516102be9190611ced565b60405180910390f35b6102e160048036038101906102dc9190611dab565b610990565b005b6102eb610ac3565b6040516102f89190611df3565b60405180910390f35b61031b60048036038101906103169190611e3a565b610ada565b005b61033760048036038101906103329190611dab565b610b1e565b005b610341610c77565b60405161034e9190611ced565b60405180910390f35b610371600480360381019061036c9190611e3a565b610dec565b005b61038d60048036038101906103889190611e3a565b610e30565b60405161039a9190611ced565b60405180910390f35b6103ab610e61565b6040516103b89190611c42565b60405180910390f35b6103c9610e6a565b6040516103d69190611ced565b60405180910390f35b6103f960048036038101906103f49190611dab565b610f98565b6040516104069190611ced565b60405180910390f35b610417610fc9565b005b610433600480360381019061042e9190611f9c565b611082565b6040516104409190611ced565b60405180910390f35b610463600480360381019061045e9190612011565b611376565b6040516104709190611ced565b60405180910390f35b6104816113f9565b60405161048e9190611df3565b60405180910390f35b6104b160048036038101906104ac91906120df565b611410565b005b6104bb61146f565b6040516104c89190611ced565b60405180910390f35b6104eb60048036038101906104e69190611dab565b6114c1565b005b6105076004803603810190610502919061215e565b6115bb565b6040516105149190611ced565b60405180910390f35b6105256115ec565b6040516105329190611ced565b60405180910390f35b61054361180a565b6040516105509190611ced565b60405180910390f35b6105616118c0565b60405161056e9190611c42565b60405180910390f35b610591600480360381019061058c9190611dab565b6118e9565b005b61059b611a1c565b6040516105a89190611ced565b60405180910390f35b6105b9611b47565b005b6105c3611c00565b6040516105d09190611c42565b60405180910390f35b6000600760049054906101000a900460ff1660028111156105fd576105fc61218b565b5b905090565b6060600060028111156106185761061761218b565b5b600760039054906101000a900460ff16600281111561063a5761063961218b565b5b0361067c576040518060400160405280600381526020017f6c6f770000000000000000000000000000000000000000000000000000000000815250905061072d565b600160028111156106905761068f61218b565b5b600760039054906101000a900460ff1660028111156106b2576106b161218b565b5b036106f4576040518060400160405280600681526020017f6d656469756d0000000000000000000000000000000000000000000000000000815250905061072d565b6040518060400160405280600481526020017f686967680000000000000000000000000000000000000000000000000000000081525090505b90565b6000600260009054906101000a900473ffffffffffffffffffffffffffffffffffffffff16905090565b6000600760029054906101000a900460ff16600181111561077e5761077d61218b565b5b905090565b6060600061078f61180a565b9050806040516020016107a29190612242565b604051602081830303815290604052905060006107bd610602565b9050806040516020016107d0919061229d565b604051602081830303815290604052905060006107eb610e6a565b9050806040516020016107fe91906122f8565b604051602081830303815290604052905060006108196115ec565b90508060405160200161082c9190612353565b6040516020818303038152906040529050838383836040516020016108549493929190612388565b60405160208183030381529060405294505050505090565b60606001805461087b906123f5565b80601f01602080910402602001604051908101604052809291908181526020018280546108a7906123f5565b80156108f45780601f106108c9576101008083540402835291602001916108f4565b820191906000526020600020905b8154815290600101906020018083116108d757829003601f168201915b5050505050905090565b60606006805461090d906123f5565b80601f0160208091040260200160405190810160405280929190818152602001828054610939906123f5565b80156109865780601f1061095b57610100808354040283529160200191610986565b820191906000526020600020905b81548152906001019060200180831161096957829003601f168201915b5050505050905090565b6003818181106109d5576040517f08c379a00000000000000000000000000000000000000000000000000000000081526004016109cc90612472565b60405180910390fd5b6001806109e0611c00565b14610a20576040517f08c379a0000000000000000000000000000000000000000000000000000000008152600401610a17906124de565b60405180910390fd5b60008403610a58576000600760036101000a81548160ff02191690836002811115610a4e57610a4d61218b565b5b0217905550610abd565b60018403610a90576001600760036101000a81548160ff02191690836002811115610a8657610a8561218b565b5b0217905550610abc565b6002600760036101000a81548160ff02191690836002811115610ab657610ab561218b565b5b02179055505b5b50505050565b6000600760019054906101000a900460ff16905090565b80600360006101000a81548173ffffffffffffffffffffffffffffffffffffffff021916908373ffffffffffffffffffffffffffffffffffffffff16021790555050565b600581818110610b63576040517f08c379a0000000000000000000000000000000000000000000000000000000008152600401610b5a90612472565b60405180910390fd5b60008303610b9b576000600760056101000a81548160ff02191690836004811115610b9157610b9061218b565b5b0217905550610c72565b60018303610bd3576001600760056101000a81548160ff02191690836004811115610bc957610bc861218b565b5b0217905550610c71565b60028303610c0b576002600760056101000a81548160ff02191690836004811115610c0157610c0061218b565b5b0217905550610c70565b60038303610c43576003600760056101000a81548160ff02191690836004811115610c3957610c3861218b565b5b0217905550610c6f565b6004600760056101000a81548160ff02191690836004811115610c6957610c6861218b565b5b02179055505b5b5b5b505050565b60606000610ca6600260009054906101000a900473ffffffffffffffffffffffffffffffffffffffff16610e30565b905080604051602001610cb99190612524565b60405160208183030381529060405290506000610cf7600360009054906101000a900473ffffffffffffffffffffffffffffffffffffffff16610e30565b905080604051602001610d0a919061257f565b60405160208183030381529060405290506000610d48600460009054906101000a900473ffffffffffffffffffffffffffffffffffffffff16610e30565b905080604051602001610d5b91906125da565b60405160208183030381529060405290506000610d99600560009054906101000a900473ffffffffffffffffffffffffffffffffffffffff16610e30565b905080604051602001610dac9190612635565b604051602081830303815290604052905083838383604051602001610dd49493929190612388565b60405160208183030381529060405294505050505090565b80600460006101000a81548173ffffffffffffffffffffffffffffffffffffffff021916908373ffffffffffffffffffffffffffffffffffffffff16021790555050565b6060610e5a82604051602001610e4691906126b2565b604051602081830303815290604052611082565b9050919050565b60008054905090565b606060006002811115610e8057610e7f61218b565b5b600760049054906101000a900460ff166002811115610ea257610ea161218b565b5b03610ee4576040518060400160405280600381526020017f6c6f7700000000000000000000000000000000000000000000000000000000008152509050610f95565b60016002811115610ef857610ef761218b565b5b600760049054906101000a900460ff166002811115610f1a57610f1961218b565b5b03610f5c576040518060400160405280600681526020017f6d656469756d00000000000000000000000000000000000000000000000000008152509050610f95565b6040518060400160405280600481526020017f686967680000000000000000000000000000000000000000000000000000000081525090505b90565b6060610fc282604051602001610fae91906126ee565b604051602081830303815290604052611082565b9050919050565b600760019054906101000a900460ff1615611019576040517f08c379a000000000000000000000000000000000000000000000000000000000815260040161101090612755565b60405180910390fd5b600380611024611c00565b14611064576040517f08c379a000000000000000000000000000000000000000000000000000000000815260040161105b906124de565b60405180910390fd5b6001600760016101000a81548160ff02191690831515021790555050565b606060006040518060400160405280601081526020017f303132333435363738396162636465660000000000000000000000000000000081525090506000600284516110ce91906127a4565b60026110da91906127e6565b67ffffffffffffffff8111156110f3576110f2611e71565b5b6040519080825280601f01601f1916602001820160405280156111255781602001600182028036833780820191505090505b5090507f30000000000000000000000000000000000000000000000000000000000000008160008151811061115d5761115c61281a565b5b60200101907effffffffffffffffffffffffffffffffffffffffffffffffffffffffffffff1916908160001a9053507f7800000000000000000000000000000000000000000000000000000000000000816001815181106111c1576111c061281a565b5b60200101907effffffffffffffffffffffffffffffffffffffffffffffffffffffffffffff1916908160001a90535060005b845181101561136b578260048683815181106112125761121161281a565b5b602001015160f81c60f81b7effffffffffffffffffffffffffffffffffffffffffffffffffffffffffffff1916901c60f81c60ff16815181106112585761125761281a565b5b602001015160f81c60f81b8260028361127191906127a4565b600261127d91906127e6565b8151811061128e5761128d61281a565b5b60200101907effffffffffffffffffffffffffffffffffffffffffffffffffffffffffffff1916908160001a90535082600f60f81b8683815181106112d6576112d561281a565b5b602001015160f81c60f81b1660f81c60ff16815181106112f9576112f861281a565b5b602001015160f81c60f81b8260028361131291906127a4565b600361131e91906127e6565b8151811061132f5761132e61281a565b5b60200101907effffffffffffffffffffffffffffffffffffffffffffffffffffffffffffff1916908160001a90535080806001019150506111f3565b508092505050919050565b606081156113bb576040518060400160405280600481526020017f747275650000000000000000000000000000000000000000000000000000000081525090506113f4565b6040518060400160405280600581526020017f66616c736500000000000000000000000000000000000000000000000000000081525090505b919050565b6000600760009054906101000a900460ff16905090565b60018061141b611c00565b1461145b576040517f08c379a0000000000000000000000000000000000000000000000000000000008152600401611452906124de565b60405180910390fd5b816006908161146a91906129f5565b505050565b6060600061147b611a1c565b90506000611487610783565b90506000611493610c77565b90508282826040516020016114aa93929190612ac7565b604051602081830303815290604052935050505090565b600281818110611506576040517f08c379a00000000000000000000000000000000000000000000000000000000081526004016114fd90612472565b60405180910390fd5b600180611511611c00565b14611551576040517f08c379a0000000000000000000000000000000000000000000000000000000008152600401611548906124de565b60405180910390fd5b60008403611589576000600760026101000a81548160ff0219169083600181111561157f5761157e61218b565b5b02179055506115b5565b6001600760026101000a81548160ff021916908360018111156115af576115ae61218b565b5b02179055505b50505050565b60606115e5826040516020016115d19190612b19565b604051602081830303815290604052611082565b9050919050565b6060600060048111156116025761160161218b565b5b600760059054906101000a900460ff1660048111156116245761162361218b565b5b03611666576040518060400160405280600781526020017f646566696e6564000000000000000000000000000000000000000000000000008152509050611807565b6001600481111561167a5761167961218b565b5b600760059054906101000a900460ff16600481111561169c5761169b61218b565b5b036116de576040518060400160405280600781526020017f726566696e6564000000000000000000000000000000000000000000000000008152509050611807565b600260048111156116f2576116f161218b565b5b600760059054906101000a900460ff1660048111156117145761171361218b565b5b03611756576040518060400160405280600881526020017f76657269666965640000000000000000000000000000000000000000000000008152509050611807565b6003600481111561176a5761176961218b565b5b600760059054906101000a900460ff16600481111561178c5761178b61218b565b5b036117ce576040518060400160405280600981526020017f56616c69646174656400000000000000000000000000000000000000000000008152509050611807565b6040518060400160405280600881526020017f66696e697368656400000000000000000000000000000000000000000000000081525090505b90565b6060600060018111156118205761181f61218b565b5b600760029054906101000a900460ff1660018111156118425761184161218b565b5b03611884576040518060400160405280600a81526020017f66756e6374696f6e616c0000000000000000000000000000000000000000000081525090506118bd565b6040518060400160405280600e81526020017f4e6f6e2d46756e6374696f6e616c00000000000000000000000000000000000081525090505b90565b6000600760039054906101000a900460ff1660028111156118e4576118e361218b565b5b905090565b60038181811061192e576040517f08c379a000000000000000000000000000000000000000000000000000000000815260040161192590612472565b60405180910390fd5b600180611939611c00565b14611979576040517f08c379a0000000000000000000000000000000000000000000000000000000008152600401611970906124de565b60405180910390fd5b600084036119b1576000600760046101000a81548160ff021916908360028111156119a7576119a661218b565b5b0217905550611a16565b600184036119e9576001600760046101000a81548160ff021916908360028111156119df576119de61218b565b5b0217905550611a15565b6002600760046101000a81548160ff02191690836002811115611a0f57611a0e61218b565b5b02179055505b5b50505050565b60606000611a2b600054610f98565b905080604051602001611a3e9190612b5a565b604051602081830303815290604052905060006001604051602001611a639190612c38565b604051602081830303815290604052905060006006604051602001611a889190612c93565b60405160208183030381529060405290506000611ab3600760019054906101000a900460ff16611376565b905080604051602001611ac69190612cee565b60405160208183030381529060405290506000611af1600760009054906101000a900460ff16611376565b905080604051602001611b049190612d49565b60405160208183030381529060405290508484848385604051602001611b2e959493929190612d7e565b6040516020818303038152906040529550505050505090565b600760009054906101000a900460ff1615611b97576040517f08c379a0000000000000000000000000000000000000000000000000000000008152600401611b8e90612e15565b60405180910390fd5b600280611ba2611c00565b14611be2576040517f08c379a0000000000000000000000000000000000000000000000000000000008152600401611bd9906124de565b60405180910390fd5b6001600760006101000a81548160ff02191690831515021790555050565b6000600760059054906101000a900460ff166004811115611c2457611c2361218b565b5b905090565b6000819050919050565b611c3c81611c29565b82525050565b6000602082019050611c576000830184611c33565b92915050565b600081519050919050565b600082825260208201905092915050565b60005b83811015611c97578082015181840152602081019050611c7c565b60008484015250505050565b6000601f19601f8301169050919050565b6000611cbf82611c5d565b611cc98185611c68565b9350611cd9818560208601611c79565b611ce281611ca3565b840191505092915050565b60006020820190508181036000830152611d078184611cb4565b905092915050565b600073ffffffffffffffffffffffffffffffffffffffff82169050919050565b6000611d3a82611d0f565b9050919050565b611d4a81611d2f565b82525050565b6000602082019050611d656000830184611d41565b92915050565b6000604051905090565b600080fd5b600080fd5b611d8881611c29565b8114611d9357600080fd5b50565b600081359050611da581611d7f565b92915050565b600060208284031215611dc157611dc0611d75565b5b6000611dcf84828501611d96565b91505092915050565b60008115159050919050565b611ded81611dd8565b82525050565b6000602082019050611e086000830184611de4565b92915050565b611e1781611d2f565b8114611e2257600080fd5b50565b600081359050611e3481611e0e565b92915050565b600060208284031215611e5057611e4f611d75565b5b6000611e5e84828501611e25565b91505092915050565b600080fd5b600080fd5b7f4e487b7100000000000000000000000000000000000000000000000000000000600052604160045260246000fd5b611ea982611ca3565b810181811067ffffffffffffffff82111715611ec857611ec7611e71565b5b80604052505050565b6000611edb611d6b565b9050611ee78282611ea0565b919050565b600067ffffffffffffffff821115611f0757611f06611e71565b5b611f1082611ca3565b9050602081019050919050565b82818337600083830152505050565b6000611f3f611f3a84611eec565b611ed1565b905082815260208101848484011115611f5b57611f5a611e6c565b5b611f66848285611f1d565b509392505050565b600082601f830112611f8357611f82611e67565b5b8135611f93848260208601611f2c565b91505092915050565b600060208284031215611fb257611fb1611d75565b5b600082013567ffffffffffffffff811115611fd057611fcf611d7a565b5b611fdc84828501611f6e565b91505092915050565b611fee81611dd8565b8114611ff957600080fd5b50565b60008135905061200b81611fe5565b92915050565b60006020828403121561202757612026611d75565b5b600061203584828501611ffc565b91505092915050565b600067ffffffffffffffff82111561205957612058611e71565b5b61206282611ca3565b9050602081019050919050565b600061208261207d8461203e565b611ed1565b90508281526020810184848401111561209e5761209d611e6c565b5b6120a9848285611f1d565b509392505050565b600082601f8301126120c6576120c5611e67565b5b81356120d684826020860161206f565b91505092915050565b6000602082840312156120f5576120f4611d75565b5b600082013567ffffffffffffffff81111561211357612112611d7a565b5b61211f848285016120b1565b91505092915050565b6000819050919050565b61213b81612128565b811461214657600080fd5b50565b60008135905061215881612132565b92915050565b60006020828403121561217457612173611d75565b5b600061218284828501612149565b91505092915050565b7f4e487b7100000000000000000000000000000000000000000000000000000000600052602160045260246000fd5b7f747970653a200000000000000000000000000000000000000000000000000000815250565b600081905092915050565b60006121f682611c5d565b61220081856121e0565b9350612210818560208601611c79565b80840191505092915050565b7f202c200000000000000000000000000000000000000000000000000000000000815250565b600061224d826121ba565b60068201915061225d82846121eb565b91506122688261221c565b60038201915081905092915050565b7f7072696f726974793a2000000000000000000000000000000000000000000000815250565b60006122a882612277565b600a820191506122b882846121eb565b91506122c38261221c565b60038201915081905092915050565b7f7269736b3a200000000000000000000000000000000000000000000000000000815250565b6000612303826122d2565b60068201915061231382846121eb565b915061231e8261221c565b60038201915081905092915050565b7f73746167653a2000000000000000000000000000000000000000000000000000815250565b600061235e8261232d565b60078201915061236e82846121eb565b91506123798261221c565b60038201915081905092915050565b600061239482876121eb565b91506123a082866121eb565b91506123ac82856121eb565b91506123b882846121eb565b915081905095945050505050565b7f4e487b7100000000000000000000000000000000000000000000000000000000600052602260045260246000fd5b6000600282049050600182168061240d57607f821691505b6020821081036124205761241f6123c6565b5b50919050565b7f4261642072616e67652e00000000000000000000000000000000000000000000600082015250565b600061245c600a83611c68565b915061246782612426565b602082019050919050565b6000602082019050818103600083015261248b8161244f565b9050919050565b7f496e636f72726563742053746167652100000000000000000000000000000000600082015250565b60006124c8601083611c68565b91506124d382612492565b602082019050919050565b600060208201905081810360008301526124f7816124bb565b9050919050565b7f63726561746f723a200000000000000000000000000000000000000000000000815250565b600061252f826124fe565b60098201915061253f82846121eb565b915061254a8261221c565b60038201915081905092915050565b7f726571756972656d656e7420656e67696e6565723a2000000000000000000000815250565b600061258a82612559565b60168201915061259a82846121eb565b91506125a58261221c565b60038201915081905092915050565b7f726571756972656d656e7420616e616c7973743a200000000000000000000000815250565b60006125e5826125b4565b6015820191506125f582846121eb565b91506126008261221c565b60038201915081905092915050565b7f6d616e616765723a200000000000000000000000000000000000000000000000815250565b60006126408261260f565b60098201915061265082846121eb565b915061265b8261221c565b60038201915081905092915050565b60008160601b9050919050565b60006126828261266a565b9050919050565b600061269482612677565b9050919050565b6126ac6126a782611d2f565b612689565b82525050565b60006126be828461269b565b60148201915081905092915050565b6000819050919050565b6126e86126e382611c29565b6126cd565b82525050565b60006126fa82846126d7565b60208201915081905092915050565b7f497420686173206265656e2076616c6964617465642e00000000000000000000600082015250565b600061273f601683611c68565b915061274a82612709565b602082019050919050565b6000602082019050818103600083015261276e81612732565b9050919050565b7f4e487b7100000000000000000000000000000000000000000000000000000000600052601160045260246000fd5b60006127af82611c29565b91506127ba83611c29565b92508282026127c881611c29565b915082820484148315176127df576127de612775565b5b5092915050565b60006127f182611c29565b91506127fc83611c29565b925082820190508082111561281457612813612775565b5b92915050565b7f4e487b7100000000000000000000000000000000000000000000000000000000600052603260045260246000fd5b60008190508160005260206000209050919050565b60006020601f8301049050919050565b600082821b905092915050565b6000600883026128ab7fffffffffffffffffffffffffffffffffffffffffffffffffffffffffffffffff8261286e565b6128b5868361286e565b95508019841693508086168417925050509392505050565b6000819050919050565b60006128f26128ed6128e884611c29565b6128cd565b611c29565b9050919050565b6000819050919050565b61290c836128d7565b612920612918826128f9565b84845461287b565b825550505050565b600090565b612935612928565b612940818484612903565b505050565b5b818110156129645761295960008261292d565b600181019050612946565b5050565b601f8211156129a95761297a81612849565b6129838461285e565b81016020851015612992578190505b6129a661299e8561285e565b830182612945565b50505b505050565b600082821c905092915050565b60006129cc600019846008026129ae565b1980831691505092915050565b60006129e583836129bb565b9150826002028217905092915050565b6129fe82611c5d565b67ffffffffffffffff811115612a1757612a16611e71565b5b612a2182546123f5565b612a2c828285612968565b600060209050601f831160018114612a5f5760008415612a4d578287015190505b612a5785826129d9565b865550612abf565b601f198416612a6d86612849565b60005b82811015612a9557848901518255600182019150602085019450602081019050612a70565b86831015612ab25784890151612aae601f8916826129bb565b8355505b6001600288020188555050505b505050505050565b6000612ad382866121eb565b9150612adf82856121eb565b9150612aeb82846121eb565b9150819050949350505050565b6000819050919050565b612b13612b0e82612128565b612af8565b82525050565b6000612b258284612b02565b60208201915081905092915050565b7f69643a2000000000000000000000000000000000000000000000000000000000815250565b6000612b6582612b34565b600482019150612b7582846121eb565b9150612b808261221c565b60038201915081905092915050565b7f6e616d653a200000000000000000000000000000000000000000000000000000815250565b60008154612bc2816123f5565b612bcc81866121e0565b94506001821660008114612be75760018114612bfc57612c2f565b60ff1983168652811515820286019350612c2f565b612c0585612849565b60005b83811015612c2757815481890152600182019150602081019050612c08565b838801955050505b50505092915050565b6000612c4382612b8f565b600682019150612c538284612bb5565b9150612c5e8261221c565b60038201915081905092915050565b7f6465736372697074696f6e3a2000000000000000000000000000000000000000815250565b6000612c9e82612c6d565b600d82019150612cae8284612bb5565b9150612cb98261221c565b60038201915081905092915050565b7f76616c6964617465643a20000000000000000000000000000000000000000000815250565b6000612cf982612cc8565b600b82019150612d0982846121eb565b9150612d148261221c565b60038201915081905092915050565b7f76657269666965643a2000000000000000000000000000000000000000000000815250565b6000612d5482612d23565b600a82019150612d6482846121eb565b9150612d6f8261221c565b60038201915081905092915050565b6000612d8a82886121eb565b9150612d9682876121eb565b9150612da282866121eb565b9150612dae82856121eb565b9150612dba82846121eb565b91508190509695505050505050565b7f497420686173206265656e2076657269666965642e0000000000000000000000600082015250565b6000612dff601583611c68565b9150612e0a82612dc9565b602082019050919050565b60006020820190508181036000830152612e2e81612df2565b905091905056fea26469706673582212207b6f9880f4be66e4524152de75bf6dd9f73e9d0614ac58c0935564df402a6c6164736f6c63430008180033",
  "linkReferences": {},
  "deployedLinkReferences": {}
}