{
  "_format": "hh-sol-artifact-1",
  "contractName": "RequirementEngineering",
  "sourceName": "contracts/RequirementEngineering.sol",
  "abi": [
    {
      "inputs": [],
      "stateMutability": "nonpayable",
      "type": "constructor"
    },
    {
      "inputs": [
        {
          "internalType": "string",
          "name": "_name",
          "type": "string"
        },
        {
          "internalType": "string",
          "name": "_description",
          "type": "string"
        }
      ],
      "name": "addRequirement",
      "outputs": [],
      "stateMutability": "nonpayable",
      "type": "function"
    },
    {
      "inputs": [
        {
          "internalType": "address",
          "name": "_reqAnalyst",
          "type": "address"
        }
      ],
      "name": "addRequirementAnalyst",
      "outputs": [],
      "stateMutability": "nonpayable",
      "type": "function"
    },
    {
      "inputs": [
        {
          "internalType": "address",
          "name": "_reqEngineer",
          "type": "address"
        }
      ],
      "name": "addRequirementEngineer",
      "outputs": [],
      "stateMutability": "nonpayable",
      "type": "function"
    },
    {
      "inputs": [
        {
          "internalType": "address",
          "name": "",
          "type": "address"
        }
      ],
      "name": "availableRequirementAnalyst",
      "outputs": [
        {
          "internalType": "bool",
          "name": "",
          "type": "bool"
        }
      ],
      "stateMutability": "view",
      "type": "function"
    },
    {
      "inputs": [
        {
          "internalType": "address",
          "name": "",
          "type": "address"
        }
      ],
      "name": "availableRequirementEngineers",
      "outputs": [
        {
          "internalType": "bool",
          "name": "",
          "type": "bool"
        }
      ],
      "stateMutability": "view",
      "type": "function"
    },
    {
      "inputs": [
        {
          "internalType": "uint256",
          "name": "",
          "type": "uint256"
        }
      ],
      "name": "availableRequirements",
      "outputs": [
        {
          "internalType": "bool",
          "name": "",
          "type": "bool"
        }
      ],
      "stateMutability": "view",
      "type": "function"
    },
    {
      "inputs": [
        {
          "internalType": "uint256",
          "name": "_reqNumber",
          "type": "uint256"
        }
      ],
      "name": "contains",
      "outputs": [
        {
          "internalType": "bool",
          "name": "",
          "type": "bool"
        }
      ],
      "stateMutability": "view",
      "type": "function"
    },
    {
      "inputs": [],
      "name": "getManager",
      "outputs": [
        {
          "internalType": "address",
          "name": "",
          "type": "address"
        }
      ],
      "stateMutability": "view",
      "type": "function"
    },
    {
      "inputs": [
        {
          "internalType": "uint256",
          "name": "_reqNumber",
          "type": "uint256"
        }
      ],
      "name": "indexOf",
      "outputs": [
        {
          "internalType": "uint256",
          "name": "",
          "type": "uint256"
        },
        {
          "internalType": "bool",
          "name": "",
          "type": "bool"
        }
      ],
      "stateMutability": "view",
      "type": "function"
    },
    {
      "inputs": [
        {
          "internalType": "address",
          "name": "rqAn",
          "type": "address"
        }
      ],
      "name": "isRequirementAnalyst",
      "outputs": [
        {
          "internalType": "bool",
          "name": "",
          "type": "bool"
        }
      ],
      "stateMutability": "view",
      "type": "function"
    },
    {
      "inputs": [
        {
          "internalType": "address",
          "name": "rqEn",
          "type": "address"
        }
      ],
      "name": "isRequirementEngineer",
      "outputs": [
        {
          "internalType": "bool",
          "name": "",
          "type": "bool"
        }
      ],
      "stateMutability": "view",
      "type": "function"
    },
    {
      "inputs": [],
      "name": "manager",
      "outputs": [
        {
          "internalType": "address",
          "name": "",
          "type": "address"
        }
      ],
      "stateMutability": "view",
      "type": "function"
    },
    {
      "inputs": [
        {
          "internalType": "uint256",
          "name": "_reqNumber",
          "type": "uint256"
        },
        {
          "internalType": "string",
          "name": "_description",
          "type": "string"
        },
        {
          "internalType": "uint256",
          "name": "_priority",
          "type": "uint256"
        },
        {
          "internalType": "uint256",
          "name": "_type",
          "type": "uint256"
        },
        {
          "internalType": "uint256",
          "name": "_risk",
          "type": "uint256"
        }
      ],
      "name": "refine",
      "outputs": [],
      "stateMutability": "nonpayable",
      "type": "function"
    },
    {
      "inputs": [
        {
          "internalType": "uint256",
          "name": "_reqNumber",
          "type": "uint256"
        }
      ],
      "name": "removeRequirement",
      "outputs": [],
      "stateMutability": "nonpayable",
      "type": "function"
    },
    {
      "inputs": [
        {
          "internalType": "uint256",
          "name": "",
          "type": "uint256"
        }
      ],
      "name": "requirementAnalysts",
      "outputs": [
        {
          "internalType": "address",
          "name": "",
          "type": "address"
        }
      ],
      "stateMutability": "view",
      "type": "function"
    },
    {
      "inputs": [
        {
          "internalType": "uint256",
          "name": "",
          "type": "uint256"
        }
      ],
      "name": "requirementEngineers",
      "outputs": [
        {
          "internalType": "address",
          "name": "",
          "type": "address"
        }
      ],
      "stateMutability": "view",
      "type": "function"
    },
    {
      "inputs": [
        {
          "internalType": "uint256",
          "name": "_reqNumber",
          "type": "uint256"
        }
      ],
      "name": "seeReq",
      "outputs": [
        {
          "internalType": "string",
          "name": "",
          "type": "string"
        }
      ],
      "stateMutability": "view",
      "type": "function"
    },
    {
      "inputs": [
        {
          "internalType": "uint256",
          "name": "_reqNumber",
          "type": "uint256"
        }
      ],
      "name": "seeReqUser",
      "outputs": [
        {
          "internalType": "string",
          "name": "",
          "type": "string"
        }
      ],
      "stateMutability": "view",
      "type": "function"
    },
    {
      "inputs": [
        {
          "internalType": "uint256",
          "name": "_reqNumber",
          "type": "uint256"
        }
      ],
      "name": "validate",
      "outputs": [],
      "stateMutability": "nonpayable",
      "type": "function"
    },
    {
      "inputs": [
        {
          "internalType": "uint256",
          "name": "_reqNumber",
          "type": "uint256"
        }
      ],
      "name": "verify",
      "outputs": [],
      "stateMutability": "nonpayable",
      "type": "function"
    }
  ],
  "bytecode": "0x608060405234801561001057600080fd5b5033600360006101000a81548173ffffffffffffffffffffffffffffffffffffffff021916908373ffffffffffffffffffffffffffffffffffffffff160217905550600080819055506165ee806100686000396000f3fe60806040523480156200001157600080fd5b5060043610620001485760003560e01c8063b2a655bb11620000bd578063d5009584116200007b578063d500958414620003e0578063dcaaf1e91462000402578063e2b2bdb61462000438578063fae8fe041462000458578063fe1000e8146200048e5762000148565b8063b2a655bb14620002fe578063b2eda2db1462000334578063b627c0b8146200036a578063c34052e0146200038a578063ce4d01a314620003c05762000148565b80635dcdde56116200010b5780635dcdde56146200023157806374d881c814620002675780638753367f146200028757806391ac7e6514620002a7578063aae0f62814620002de5762000148565b80631f712f90146200014d5780633807610e146200016d578063481c6a7514620001a3578063577d675614620001c55780635bff0e1d14620001fb575b600080fd5b6200016b6004803603810190620001659190620020f6565b620004c4565b005b6200018b600480360381019062000185919062002163565b620006a7565b6040516200019a9190620021a6565b60405180910390f35b620001ad620006e7565b604051620001bc9190620021a6565b60405180910390f35b620001e36004803603810190620001dd919062002163565b6200070d565b604051620001f291906200225d565b60405180910390f35b620002196004803603810190620002139190620020f6565b620007df565b6040516200022891906200229e565b60405180910390f35b6200024f600480360381019062000249919062002163565b62000835565b6040516200025e91906200225d565b60405180910390f35b6200028560048036038101906200027f91906200240c565b62000907565b005b620002a560048036038101906200029f919062002163565b62000ade565b005b620002c56004803603810190620002bf919062002163565b62000dd4565b604051620002d5929190620024c4565b60405180910390f35b620002fc6004803603810190620002f69190620024f1565b62000ed3565b005b6200031c600480360381019062000316919062002163565b62000fe9565b6040516200032b91906200229e565b60405180910390f35b6200035260048036038101906200034c919062002163565b62001009565b604051620003619190620021a6565b60405180910390f35b620003886004803603810190620003829190620020f6565b62001049565b005b620003a86004803603810190620003a2919062002163565b6200122c565b604051620003b791906200229e565b60405180910390f35b620003de6004803603810190620003d8919062002163565b62001246565b005b620003ea6200153c565b604051620003f99190620021a6565b60405180910390f35b6200042060048036038101906200041a9190620020f6565b62001566565b6040516200042f91906200229e565b60405180910390f35b62000456600480360381019062000450919062002163565b620015bc565b005b620004766004803603810190620004709190620020f6565b620016be565b6040516200048591906200229e565b60405180910390f35b620004ac6004803603810190620004a69190620020f6565b620016de565b604051620004bb91906200229e565b60405180910390f35b600360009054906101000a900473ffffffffffffffffffffffffffffffffffffffff1673ffffffffffffffffffffffffffffffffffffffff163373ffffffffffffffffffffffffffffffffffffffff161462000557576040517f08c379a00000000000000000000000000000000000000000000000000000000081526004016200054e90620025c6565b60405180910390fd5b80600560008273ffffffffffffffffffffffffffffffffffffffff1673ffffffffffffffffffffffffffffffffffffffff16815260200190815260200160002060009054906101000a900460ff1615620005e8576040517f08c379a0000000000000000000000000000000000000000000000000000000008152600401620005df906200265e565b60405180910390fd5b6004829080600181540180825580915050600190039060005260206000200160009091909190916101000a81548173ffffffffffffffffffffffffffffffffffffffff021916908373ffffffffffffffffffffffffffffffffffffffff1602179055506001600560008473ffffffffffffffffffffffffffffffffffffffff1673ffffffffffffffffffffffffffffffffffffffff16815260200190815260200160002060006101000a81548160ff0219169083151502179055505050565b60048181548110620006b857600080fd5b906000526020600020016000915054906101000a900473ffffffffffffffffffffffffffffffffffffffff1681565b600360009054906101000a900473ffffffffffffffffffffffffffffffffffffffff1681565b606060006200071c8362000dd4565b5090506001818154811062000736576200073562002680565b5b9060005260206000200160009054906101000a900473ffffffffffffffffffffffffffffffffffffffff1673ffffffffffffffffffffffffffffffffffffffff1663a81136546040518163ffffffff1660e01b8152600401600060405180830381865afa158015620007ac573d6000803e3d6000fd5b505050506040513d6000823e3d601f19601f82011682018060405250810190620007d791906200272d565b915050919050565b6000600560008373ffffffffffffffffffffffffffffffffffffffff1673ffffffffffffffffffffffffffffffffffffffff16815260200190815260200160002060009054906101000a900460ff169050919050565b60606000620008448362000dd4565b509050600181815481106200085e576200085d62002680565b5b9060005260206000200160009054906101000a900473ffffffffffffffffffffffffffffffffffffffff1673ffffffffffffffffffffffffffffffffffffffff16630d0ccfb66040518163ffffffff1660e01b8152600401600060405180830381865afa158015620008d4573d6000803e3d6000fd5b505050506040513d6000823e3d601f19601f82011682018060405250810190620008ff91906200272d565b915050919050565b600560003373ffffffffffffffffffffffffffffffffffffffff1673ffffffffffffffffffffffffffffffffffffffff16815260200190815260200160002060009054906101000a900460ff1662000996576040517f08c379a00000000000000000000000000000000000000000000000000000000081526004016200098d90620027ce565b60405180910390fd5b84620009a2816200122c565b620009e4576040517f08c379a0000000000000000000000000000000000000000000000000000000008152600401620009db9062002840565b60405180910390fd5b620009f08686620016fe565b620009fc8685620018a1565b62000a08868462001a44565b62000a14868362001c97565b600062000a218762000dd4565b5090506001818154811062000a3b5762000a3a62002680565b5b9060005260206000200160009054906101000a900473ffffffffffffffffffffffffffffffffffffffff1673ffffffffffffffffffffffffffffffffffffffff16633eb1d77760026040518263ffffffff1660e01b815260040162000aa19190620028af565b600060405180830381600087803b15801562000abc57600080fd5b505af115801562000ad1573d6000803e3d6000fd5b5050505050505050505050565b600760003373ffffffffffffffffffffffffffffffffffffffff1673ffffffffffffffffffffffffffffffffffffffff16815260200190815260200160002060009054906101000a900460ff1662000b6d576040517f08c379a000000000000000000000000000000000000000000000000000000000815260040162000b64906200291c565b60405180910390fd5b8062000b79816200122c565b62000bbb576040517f08c379a000000000000000000000000000000000000000000000000000000000815260040162000bb29062002840565b60405180910390fd5b600062000bc88362000dd4565b5090506001818154811062000be25762000be162002680565b5b9060005260206000200160009054906101000a900473ffffffffffffffffffffffffffffffffffffffff1673ffffffffffffffffffffffffffffffffffffffff1663fc735e996040518163ffffffff1660e01b8152600401600060405180830381600087803b15801562000c5557600080fd5b505af115801562000c6a573d6000803e3d6000fd5b505050506001818154811062000c855762000c8462002680565b5b9060005260206000200160009054906101000a900473ffffffffffffffffffffffffffffffffffffffff1673ffffffffffffffffffffffffffffffffffffffff1663524fa88e336040518263ffffffff1660e01b815260040162000cea9190620021a6565b600060405180830381600087803b15801562000d0557600080fd5b505af115801562000d1a573d6000803e3d6000fd5b505050506001818154811062000d355762000d3462002680565b5b9060005260206000200160009054906101000a900473ffffffffffffffffffffffffffffffffffffffff1673ffffffffffffffffffffffffffffffffffffffff16633eb1d77760036040518263ffffffff1660e01b815260040162000d9b919062002981565b600060405180830381600087803b15801562000db657600080fd5b505af115801562000dcb573d6000803e3d6000fd5b50505050505050565b6000806000600180549050905060005b8181101562000ec457846001828154811062000e055762000e0462002680565b5b9060005260206000200160009054906101000a900473ffffffffffffffffffffffffffffffffffffffff1673ffffffffffffffffffffffffffffffffffffffff16635d1ca6316040518163ffffffff1660e01b8152600401602060405180830381865afa15801562000e7b573d6000803e3d6000fd5b505050506040513d601f19601f8201168201806040525081019062000ea19190620029b5565b0362000eb65780600193509350505062000ece565b808060010191505062000de4565b5060008092509250505b915091565b60008054838333600360009054906101000a900473ffffffffffffffffffffffffffffffffffffffff1660405162000f0b906200206f565b62000f1b959493929190620029e7565b604051809103906000f08015801562000f38573d6000803e3d6000fd5b5090506001819080600181540180825580915050600190039060005260206000200160009091909190916101000a81548173ffffffffffffffffffffffffffffffffffffffff021916908373ffffffffffffffffffffffffffffffffffffffff1602179055506001600260008054815260200190815260200160002060006101000a81548160ff02191690831515021790555060008081548092919062000fdf9062002a81565b9190505550505050565b60026020528060005260406000206000915054906101000a900460ff1681565b600681815481106200101a57600080fd5b906000526020600020016000915054906101000a900473ffffffffffffffffffffffffffffffffffffffff1681565b600360009054906101000a900473ffffffffffffffffffffffffffffffffffffffff1673ffffffffffffffffffffffffffffffffffffffff163373ffffffffffffffffffffffffffffffffffffffff1614620010dc576040517f08c379a0000000000000000000000000000000000000000000000000000000008152600401620010d390620025c6565b60405180910390fd5b80600760008273ffffffffffffffffffffffffffffffffffffffff1673ffffffffffffffffffffffffffffffffffffffff16815260200190815260200160002060009054906101000a900460ff16156200116d576040517f08c379a0000000000000000000000000000000000000000000000000000000008152600401620011649062002b44565b60405180910390fd5b6006829080600181540180825580915050600190039060005260206000200160009091909190916101000a81548173ffffffffffffffffffffffffffffffffffffffff021916908373ffffffffffffffffffffffffffffffffffffffff1602179055506001600760008473ffffffffffffffffffffffffffffffffffffffff1673ffffffffffffffffffffffffffffffffffffffff16815260200190815260200160002060006101000a81548160ff0219169083151502179055505050565b6000806200123a8362000dd4565b91505080915050919050565b600760003373ffffffffffffffffffffffffffffffffffffffff1673ffffffffffffffffffffffffffffffffffffffff16815260200190815260200160002060009054906101000a900460ff16620012d5576040517f08c379a0000000000000000000000000000000000000000000000000000000008152600401620012cc906200291c565b60405180910390fd5b80620012e1816200122c565b62001323576040517f08c379a00000000000000000000000000000000000000000000000000000000081526004016200131a9062002840565b60405180910390fd5b6000620013308362000dd4565b509050600181815481106200134a576200134962002680565b5b9060005260206000200160009054906101000a900473ffffffffffffffffffffffffffffffffffffffff1673ffffffffffffffffffffffffffffffffffffffff16636901f6686040518163ffffffff1660e01b8152600401600060405180830381600087803b158015620013bd57600080fd5b505af1158015620013d2573d6000803e3d6000fd5b5050505060018181548110620013ed57620013ec62002680565b5b9060005260206000200160009054906101000a900473ffffffffffffffffffffffffffffffffffffffff1673ffffffffffffffffffffffffffffffffffffffff1663524fa88e336040518263ffffffff1660e01b8152600401620014529190620021a6565b600060405180830381600087803b1580156200146d57600080fd5b505af115801562001482573d6000803e3d6000fd5b50505050600181815481106200149d576200149c62002680565b5b9060005260206000200160009054906101000a900473ffffffffffffffffffffffffffffffffffffffff1673ffffffffffffffffffffffffffffffffffffffff16633eb1d77760046040518263ffffffff1660e01b815260040162001503919062002ba9565b600060405180830381600087803b1580156200151e57600080fd5b505af115801562001533573d6000803e3d6000fd5b50505050505050565b6000600360009054906101000a900473ffffffffffffffffffffffffffffffffffffffff16905090565b6000600760008373ffffffffffffffffffffffffffffffffffffffff1673ffffffffffffffffffffffffffffffffffffffff16815260200190815260200160002060009054906101000a900460ff169050919050565b600360009054906101000a900473ffffffffffffffffffffffffffffffffffffffff1673ffffffffffffffffffffffffffffffffffffffff163373ffffffffffffffffffffffffffffffffffffffff16146200164f576040517f08c379a00000000000000000000000000000000000000000000000000000000081526004016200164690620025c6565b60405180910390fd5b806200165b816200122c565b6200169d576040517f08c379a0000000000000000000000000000000000000000000000000000000008152600401620016949062002840565b60405180910390fd5b6000620016aa8362000dd4565b509050620016b88162001e3a565b50505050565b60076020528060005260406000206000915054906101000a900460ff1681565b60056020528060005260406000206000915054906101000a900460ff1681565b600560003373ffffffffffffffffffffffffffffffffffffffff1673ffffffffffffffffffffffffffffffffffffffff16815260200190815260200160002060009054906101000a900460ff166200178d576040517f08c379a00000000000000000000000000000000000000000000000000000000081526004016200178490620027ce565b60405180910390fd5b8162001799816200122c565b620017db576040517f08c379a0000000000000000000000000000000000000000000000000000000008152600401620017d29062002840565b60405180910390fd5b6000620017e88462000dd4565b5090506001818154811062001802576200180162002680565b5b9060005260206000200160009054906101000a900473ffffffffffffffffffffffffffffffffffffffff1673ffffffffffffffffffffffffffffffffffffffff166390c3f38f846040518263ffffffff1660e01b81526004016200186791906200225d565b600060405180830381600087803b1580156200188257600080fd5b505af115801562001897573d6000803e3d6000fd5b5050505050505050565b600560003373ffffffffffffffffffffffffffffffffffffffff1673ffffffffffffffffffffffffffffffffffffffff16815260200190815260200160002060009054906101000a900460ff1662001930576040517f08c379a00000000000000000000000000000000000000000000000000000000081526004016200192790620027ce565b60405180910390fd5b816200193c816200122c565b6200197e576040517f08c379a0000000000000000000000000000000000000000000000000000000008152600401620019759062002840565b60405180910390fd5b60006200198b8462000dd4565b50905060018181548110620019a557620019a462002680565b5b9060005260206000200160009054906101000a900473ffffffffffffffffffffffffffffffffffffffff1673ffffffffffffffffffffffffffffffffffffffff166321a50a93846040518263ffffffff1660e01b815260040162001a0a919062002bc6565b600060405180830381600087803b15801562001a2557600080fd5b505af115801562001a3a573d6000803e3d6000fd5b5050505050505050565b600560003373ffffffffffffffffffffffffffffffffffffffff1673ffffffffffffffffffffffffffffffffffffffff16815260200190815260200160002060009054906101000a900460ff1662001ad3576040517f08c379a000000000000000000000000000000000000000000000000000000000815260040162001aca90620027ce565b60405180910390fd5b8162001adf816200122c565b62001b21576040517f08c379a000000000000000000000000000000000000000000000000000000000815260040162001b189062002840565b60405180910390fd5b600062001b2e8462000dd4565b5090506001818154811062001b485762001b4762002680565b5b9060005260206000200160009054906101000a900473ffffffffffffffffffffffffffffffffffffffff1673ffffffffffffffffffffffffffffffffffffffff1663a813dea6846040518263ffffffff1660e01b815260040162001bad919062002bc6565b600060405180830381600087803b15801562001bc857600080fd5b505af115801562001bdd573d6000803e3d6000fd5b505050506001818154811062001bf85762001bf762002680565b5b9060005260206000200160009054906101000a900473ffffffffffffffffffffffffffffffffffffffff1673ffffffffffffffffffffffffffffffffffffffff16633bcbe08a336040518263ffffffff1660e01b815260040162001c5d9190620021a6565b600060405180830381600087803b15801562001c7857600080fd5b505af115801562001c8d573d6000803e3d6000fd5b5050505050505050565b600560003373ffffffffffffffffffffffffffffffffffffffff1673ffffffffffffffffffffffffffffffffffffffff16815260200190815260200160002060009054906101000a900460ff1662001d26576040517f08c379a000000000000000000000000000000000000000000000000000000000815260040162001d1d90620027ce565b60405180910390fd5b8162001d32816200122c565b62001d74576040517f08c379a000000000000000000000000000000000000000000000000000000000815260040162001d6b9062002840565b60405180910390fd5b600062001d818462000dd4565b5090506001818154811062001d9b5762001d9a62002680565b5b9060005260206000200160009054906101000a900473ffffffffffffffffffffffffffffffffffffffff1673ffffffffffffffffffffffffffffffffffffffff1663eeb1191a846040518263ffffffff1660e01b815260040162001e00919062002bc6565b600060405180830381600087803b15801562001e1b57600080fd5b505af115801562001e30573d6000803e3d6000fd5b5050505050505050565b600080600180549050905080831062001e8a576040517f08c379a000000000000000000000000000000000000000000000000000000000815260040162001e819062002c33565b60405180910390fd5b60006001848154811062001ea35762001ea262002680565b5b9060005260206000200160009054906101000a900473ffffffffffffffffffffffffffffffffffffffff1673ffffffffffffffffffffffffffffffffffffffff16635d1ca6316040518163ffffffff1660e01b8152600401602060405180830381865afa15801562001f19573d6000803e3d6000fd5b505050506040513d601f19601f8201168201806040525081019062001f3f9190620029b5565b905060008490505b60018362001f56919062002c55565b8110156200201a576001808262001f6e919062002c90565b8154811062001f825762001f8162002680565b5b9060005260206000200160009054906101000a900473ffffffffffffffffffffffffffffffffffffffff166001828154811062001fc45762001fc362002680565b5b9060005260206000200160006101000a81548173ffffffffffffffffffffffffffffffffffffffff021916908373ffffffffffffffffffffffffffffffffffffffff160217905550808060010191505062001f47565b50600180548062002030576200202f62002ccb565b5b6001900381819060005260206000200160006101000a81549073ffffffffffffffffffffffffffffffffffffffff021916905590558092505050919050565b6138be8062002cfb83390190565b6000604051905090565b600080fd5b600080fd5b600073ffffffffffffffffffffffffffffffffffffffff82169050919050565b6000620020be8262002091565b9050919050565b620020d081620020b1565b8114620020dc57600080fd5b50565b600081359050620020f081620020c5565b92915050565b6000602082840312156200210f576200210e62002087565b5b60006200211f84828501620020df565b91505092915050565b6000819050919050565b6200213d8162002128565b81146200214957600080fd5b50565b6000813590506200215d8162002132565b92915050565b6000602082840312156200217c576200217b62002087565b5b60006200218c848285016200214c565b91505092915050565b620021a081620020b1565b82525050565b6000602082019050620021bd600083018462002195565b92915050565b600081519050919050565b600082825260208201905092915050565b60005b83811015620021ff578082015181840152602081019050620021e2565b60008484015250505050565b6000601f19601f8301169050919050565b60006200222982620021c3565b620022358185620021ce565b935062002247818560208601620021df565b62002252816200220b565b840191505092915050565b600060208201905081810360008301526200227981846200221c565b905092915050565b60008115159050919050565b620022988162002281565b82525050565b6000602082019050620022b560008301846200228d565b92915050565b600080fd5b600080fd5b7f4e487b7100000000000000000000000000000000000000000000000000000000600052604160045260246000fd5b620022ff826200220b565b810181811067ffffffffffffffff82111715620023215762002320620022c5565b5b80604052505050565b6000620023366200207d565b9050620023448282620022f4565b919050565b600067ffffffffffffffff821115620023675762002366620022c5565b5b62002372826200220b565b9050602081019050919050565b82818337600083830152505050565b6000620023a56200239f8462002349565b6200232a565b905082815260208101848484011115620023c457620023c3620022c0565b5b620023d18482856200237f565b509392505050565b600082601f830112620023f157620023f0620022bb565b5b8135620024038482602086016200238e565b91505092915050565b600080600080600060a086880312156200242b576200242a62002087565b5b60006200243b888289016200214c565b955050602086013567ffffffffffffffff8111156200245f576200245e6200208c565b5b6200246d88828901620023d9565b945050604062002480888289016200214c565b935050606062002493888289016200214c565b9250506080620024a6888289016200214c565b9150509295509295909350565b620024be8162002128565b82525050565b6000604082019050620024db6000830185620024b3565b620024ea60208301846200228d565b9392505050565b600080604083850312156200250b576200250a62002087565b5b600083013567ffffffffffffffff8111156200252c576200252b6200208c565b5b6200253a85828601620023d9565b925050602083013567ffffffffffffffff8111156200255e576200255d6200208c565b5b6200256c85828601620023d9565b9150509250929050565b7f4f6e6c79206279206d616e616765722e00000000000000000000000000000000600082015250565b6000620025ae601083620021ce565b9150620025bb8262002576565b602082019050919050565b60006020820190508181036000830152620025e1816200259f565b9050919050565b7f5468697320526571756972656d656e7420456e67696e6565722068617320616c60008201527f7265616479206578697374656421000000000000000000000000000000000000602082015250565b600062002646602e83620021ce565b91506200265382620025e8565b604082019050919050565b60006020820190508181036000830152620026798162002637565b9050919050565b7f4e487b7100000000000000000000000000000000000000000000000000000000600052603260045260246000fd5b6000620026c6620026c08462002349565b6200232a565b905082815260208101848484011115620026e557620026e4620022c0565b5b620026f2848285620021df565b509392505050565b600082601f830112620027125762002711620022bb565b5b815162002724848260208601620026af565b91505092915050565b60006020828403121562002746576200274562002087565b5b600082015167ffffffffffffffff8111156200276757620027666200208c565b5b6200277584828501620026fa565b91505092915050565b7f4f6e6c7920627920526571756972656d656e7420456e67696e65657273000000600082015250565b6000620027b6601d83620021ce565b9150620027c3826200277e565b602082019050919050565b60006020820190508181036000830152620027e981620027a7565b9050919050565b7f4e6f7420617661696c61626c652e000000000000000000000000000000000000600082015250565b600062002828600e83620021ce565b91506200283582620027f0565b602082019050919050565b600060208201905081810360008301526200285b8162002819565b9050919050565b6000819050919050565b6000819050919050565b600062002897620028916200288b8462002862565b6200286c565b62002128565b9050919050565b620028a98162002876565b82525050565b6000602082019050620028c660008301846200289e565b92915050565b7f4f6e6c7920627920526571756972656d656e7420416e616c7973747300000000600082015250565b600062002904601c83620021ce565b91506200291182620028cc565b602082019050919050565b600060208201905081810360008301526200293781620028f5565b9050919050565b6000819050919050565b600062002969620029636200295d846200293e565b6200286c565b62002128565b9050919050565b6200297b8162002948565b82525050565b600060208201905062002998600083018462002970565b92915050565b600081519050620029af8162002132565b92915050565b600060208284031215620029ce57620029cd62002087565b5b6000620029de848285016200299e565b91505092915050565b600060a082019050620029fe6000830188620024b3565b818103602083015262002a1281876200221c565b9050818103604083015262002a2881866200221c565b905062002a39606083018562002195565b62002a48608083018462002195565b9695505050505050565b7f4e487b7100000000000000000000000000000000000000000000000000000000600052601160045260246000fd5b600062002a8e8262002128565b91507fffffffffffffffffffffffffffffffffffffffffffffffffffffffffffffffff820362002ac35762002ac262002a52565b5b600182019050919050565b7f5468697320526571756972656d656e7420416e616c7973742068617320616c7260008201527f6561647920657869737465642100000000000000000000000000000000000000602082015250565b600062002b2c602d83620021ce565b915062002b398262002ace565b604082019050919050565b6000602082019050818103600083015262002b5f8162002b1d565b9050919050565b6000819050919050565b600062002b9162002b8b62002b858462002b66565b6200286c565b62002128565b9050919050565b62002ba38162002b70565b82525050565b600060208201905062002bc0600083018462002b98565b92915050565b600060208201905062002bdd6000830184620024b3565b92915050565b7f4572726f723a20696e646578206f7574206f6620626f756e6473000000000000600082015250565b600062002c1b601a83620021ce565b915062002c288262002be3565b602082019050919050565b6000602082019050818103600083015262002c4e8162002c0c565b9050919050565b600062002c628262002128565b915062002c6f8362002128565b925082820390508181111562002c8a5762002c8962002a52565b5b92915050565b600062002c9d8262002128565b915062002caa8362002128565b925082820190508082111562002cc55762002cc462002a52565b5b92915050565b7f4e487b7100000000000000000000000000000000000000000000000000000000600052603160045260246000fdfe60806040526000600760056101000a81548160ff021916908360048111156200002d576200002c62000181565b5b02179055503480156200003f57600080fd5b50604051620038be380380620038be8339818101604052810190620000659190620003e3565b8460008190555083600190816200007d9190620006ea565b5082600690816200008f9190620006ea565b5081600260006101000a81548173ffffffffffffffffffffffffffffffffffffffff021916908373ffffffffffffffffffffffffffffffffffffffff16021790555080600560006101000a81548173ffffffffffffffffffffffffffffffffffffffff021916908373ffffffffffffffffffffffffffffffffffffffff1602179055506000600760006101000a81548160ff0219169083151502179055506000600760016101000a81548160ff0219169083151502179055506001600760056101000a81548160ff0219169083600481111562000171576200017062000181565b5b02179055505050505050620007d1565b7f4e487b7100000000000000000000000000000000000000000000000000000000600052602160045260246000fd5b6000604051905090565b600080fd5b600080fd5b6000819050919050565b620001d981620001c4565b8114620001e557600080fd5b50565b600081519050620001f981620001ce565b92915050565b600080fd5b600080fd5b6000601f19601f8301169050919050565b7f4e487b7100000000000000000000000000000000000000000000000000000000600052604160045260246000fd5b620002548262000209565b810181811067ffffffffffffffff821117156200027657620002756200021a565b5b80604052505050565b60006200028b620001b0565b905062000299828262000249565b919050565b600067ffffffffffffffff821115620002bc57620002bb6200021a565b5b620002c78262000209565b9050602081019050919050565b60005b83811015620002f4578082015181840152602081019050620002d7565b60008484015250505050565b60006200031762000311846200029e565b6200027f565b90508281526020810184848401111562000336576200033562000204565b5b62000343848285620002d4565b509392505050565b600082601f830112620003635762000362620001ff565b5b81516200037584826020860162000300565b91505092915050565b600073ffffffffffffffffffffffffffffffffffffffff82169050919050565b6000620003ab826200037e565b9050919050565b620003bd816200039e565b8114620003c957600080fd5b50565b600081519050620003dd81620003b2565b92915050565b600080600080600060a08688031215620004025762000401620001ba565b5b60006200041288828901620001e8565b955050602086015167ffffffffffffffff811115620004365762000435620001bf565b5b62000444888289016200034b565b945050604086015167ffffffffffffffff811115620004685762000467620001bf565b5b62000476888289016200034b565b93505060606200048988828901620003cc565b92505060806200049c88828901620003cc565b9150509295509295909350565b600081519050919050565b7f4e487b7100000000000000000000000000000000000000000000000000000000600052602260045260246000fd5b60006002820490506001821680620004fc57607f821691505b602082108103620005125762000511620004b4565b5b50919050565b60008190508160005260206000209050919050565b60006020601f8301049050919050565b600082821b905092915050565b6000600883026200057c7fffffffffffffffffffffffffffffffffffffffffffffffffffffffffffffffff826200053d565b6200058886836200053d565b95508019841693508086168417925050509392505050565b6000819050919050565b6000620005cb620005c5620005bf84620001c4565b620005a0565b620001c4565b9050919050565b6000819050919050565b620005e783620005aa565b620005ff620005f682620005d2565b8484546200054a565b825550505050565b600090565b6200061662000607565b62000623818484620005dc565b505050565b5b818110156200064b576200063f6000826200060c565b60018101905062000629565b5050565b601f8211156200069a57620006648162000518565b6200066f846200052d565b810160208510156200067f578190505b620006976200068e856200052d565b83018262000628565b50505b505050565b600082821c905092915050565b6000620006bf600019846008026200069f565b1980831691505092915050565b6000620006da8383620006ac565b9150826002028217905092915050565b620006f582620004a9565b67ffffffffffffffff8111156200071157620007106200021a565b5b6200071d8254620004e3565b6200072a8282856200064f565b600060209050601f8311600181146200076257600084156200074d578287015190505b620007598582620006cc565b865550620007c9565b601f198416620007728662000518565b60005b828110156200079c5784890151825560018201915060208501945060208101905062000775565b86831015620007bc5784890151620007b8601f891682620006ac565b8355505b6001600288020188555050505b505050505050565b6130dd80620007e16000396000f3fe608060405234801561001057600080fd5b50600436106101fb5760003560e01c80635d8c6faa1161011a578063a813dea6116100ad578063d75088a11161007c578063d75088a114610582578063eeb1191a146105a0578063f6c8f7e1146105bc578063fc735e99146105da578063fcaa7664146105e4576101fb565b8063a813dea6146104fa578063b11a19e814610516578063b3205dfa14610546578063d05c662714610564576101fb565b806371dce7da116100e957806371dce7da1461047257806380007e83146104a257806390c3f38f146104c0578063a8113654146104dc576101fb565b80635d8c6faa146103ea5780636900a3ae146104085780636901f6681461043857806371aad10d14610442576101fb565b806321a50a931161019257806351b7aa301161016157806351b7aa3014610362578063524fa88e1461038057806356ca623e1461039c5780635d1ca631146103cc576101fb565b806321a50a93146102f057806324a872f81461030c5780633bcbe08a1461032a5780633eb1d77714610346576101fb565b806315dae03e116101ce57806315dae03e1461027857806317a2da081461029657806317d7de7c146102b45780631a092541146102d2576101fb565b806302676d391461020057806302955b141461021e5780630d0ccfb61461023c5780630ee2cb101461025a575b600080fd5b610208610602565b6040516102159190611dd0565b60405180910390f35b61022661062b565b6040516102339190611e7b565b60405180910390f35b610244610759565b6040516102519190611e7b565b60405180910390f35b6102626108be565b60405161026f9190611ede565b60405180910390f35b6102806108e8565b60405161028d9190611dd0565b60405180910390f35b61029e610911565b6040516102ab9190611e7b565b60405180910390f35b6102bc6109fa565b6040516102c99190611e7b565b60405180910390f35b6102da610a8c565b6040516102e79190611e7b565b60405180910390f35b61030a60048036038101906103059190611f39565b610b1e565b005b610314610c51565b6040516103219190611f81565b60405180910390f35b610344600480360381019061033f9190611fc8565b610c68565b005b610360600480360381019061035b9190611f39565b610cac565b005b61036a610e05565b6040516103779190611e7b565b60405180910390f35b61039a60048036038101906103959190611fc8565b610f7a565b005b6103b660048036038101906103b19190611fc8565b610fbe565b6040516103c39190611e7b565b60405180910390f35b6103d4610fef565b6040516103e19190611dd0565b60405180910390f35b6103f2610ff8565b6040516103ff9190611e7b565b60405180910390f35b610422600480360381019061041d9190611f39565b611126565b60405161042f9190611e7b565b60405180910390f35b610440611157565b005b61045c6004803603810190610457919061212a565b611210565b6040516104699190611e7b565b60405180910390f35b61048c6004803603810190610487919061219f565b611504565b6040516104999190611e7b565b60405180910390f35b6104aa611587565b6040516104b79190611f81565b60405180910390f35b6104da60048036038101906104d5919061226d565b61159e565b005b6104e46115fd565b6040516104f19190611e7b565b60405180910390f35b610514600480360381019061050f9190611f39565b61164f565b005b610530600480360381019061052b91906122ec565b611749565b60405161053d9190611e7b565b60405180910390f35b61054e61177a565b60405161055b9190611e7b565b60405180910390f35b61056c611998565b6040516105799190611e7b565b60405180910390f35b61058a611a4e565b6040516105979190611dd0565b60405180910390f35b6105ba60048036038101906105b59190611f39565b611a77565b005b6105c4611baa565b6040516105d19190611e7b565b60405180910390f35b6105e2611cd5565b005b6105ec611d8e565b6040516105f99190611dd0565b60405180910390f35b6000600760049054906101000a900460ff16600281111561062657610625612319565b5b905090565b60606000600281111561064157610640612319565b5b600760039054906101000a900460ff16600281111561066357610662612319565b5b036106a5576040518060400160405280600381526020017f6c6f7700000000000000000000000000000000000000000000000000000000008152509050610756565b600160028111156106b9576106b8612319565b5b600760039054906101000a900460ff1660028111156106db576106da612319565b5b0361071d576040518060400160405280600681526020017f6d656469756d00000000000000000000000000000000000000000000000000008152509050610756565b6040518060400160405280600481526020017f686967680000000000000000000000000000000000000000000000000000000081525090505b90565b60606000610788600260009054906101000a900473ffffffffffffffffffffffffffffffffffffffff16610fbe565b90508060405160200161079b91906123aa565b6040516020818303038152906040529050806040516020016107bd91906123f6565b604051602081830303815290604052905060006107fb600360009054906101000a900473ffffffffffffffffffffffffffffffffffffffff16610fbe565b90508060405160200161080e9190612442565b60405160208183030381529060405290508060405160200161083091906123f6565b6040516020818303038152906040529050600061086e600460009054906101000a900473ffffffffffffffffffffffffffffffffffffffff16610fbe565b905080604051602001610881919061248e565b60405160208183030381529060405290508282826040516020016108a7939291906124b4565b604051602081830303815290604052935050505090565b6000600260009054906101000a900473ffffffffffffffffffffffffffffffffffffffff16905090565b6000600760029054906101000a900460ff16600181111561090c5761090b612319565b5b905090565b6060600061091d611998565b905080604051602001610930919061250b565b6040516020818303038152906040529050600061094b61062b565b90508060405160200161095e9190612566565b60405160208183030381529060405290506000610979610ff8565b90508060405160200161098c91906125c1565b604051602081830303815290604052905060006109a761177a565b9050806040516020016109ba919061261c565b6040516020818303038152906040529050838383836040516020016109e29493929190612651565b60405160208183030381529060405294505050505090565b606060018054610a09906126be565b80601f0160208091040260200160405190810160405280929190818152602001828054610a35906126be565b8015610a825780601f10610a5757610100808354040283529160200191610a82565b820191906000526020600020905b815481529060010190602001808311610a6557829003601f168201915b5050505050905090565b606060068054610a9b906126be565b80601f0160208091040260200160405190810160405280929190818152602001828054610ac7906126be565b8015610b145780601f10610ae957610100808354040283529160200191610b14565b820191906000526020600020905b815481529060010190602001808311610af757829003601f168201915b5050505050905090565b600381818110610b63576040517f08c379a0000000000000000000000000000000000000000000000000000000008152600401610b5a9061273b565b60405180910390fd5b600180610b6e611d8e565b14610bae576040517f08c379a0000000000000000000000000000000000000000000000000000000008152600401610ba5906127a7565b60405180910390fd5b60008403610be6576000600760036101000a81548160ff02191690836002811115610bdc57610bdb612319565b5b0217905550610c4b565b60018403610c1e576001600760036101000a81548160ff02191690836002811115610c1457610c13612319565b5b0217905550610c4a565b6002600760036101000a81548160ff02191690836002811115610c4457610c43612319565b5b02179055505b5b50505050565b6000600760019054906101000a900460ff16905090565b80600360006101000a81548173ffffffffffffffffffffffffffffffffffffffff021916908373ffffffffffffffffffffffffffffffffffffffff16021790555050565b600581818110610cf1576040517f08c379a0000000000000000000000000000000000000000000000000000000008152600401610ce89061273b565b60405180910390fd5b60008303610d29576000600760056101000a81548160ff02191690836004811115610d1f57610d1e612319565b5b0217905550610e00565b60018303610d61576001600760056101000a81548160ff02191690836004811115610d5757610d56612319565b5b0217905550610dff565b60028303610d99576002600760056101000a81548160ff02191690836004811115610d8f57610d8e612319565b5b0217905550610dfe565b60038303610dd1576003600760056101000a81548160ff02191690836004811115610dc757610dc6612319565b5b0217905550610dfd565b6004600760056101000a81548160ff02191690836004811115610df757610df6612319565b5b02179055505b5b5b5b505050565b60606000610e34600260009054906101000a900473ffffffffffffffffffffffffffffffffffffffff16610fbe565b905080604051602001610e4791906127c7565b60405160208183030381529060405290506000610e85600360009054906101000a900473ffffffffffffffffffffffffffffffffffffffff16610fbe565b905080604051602001610e989190612822565b60405160208183030381529060405290506000610ed6600460009054906101000a900473ffffffffffffffffffffffffffffffffffffffff16610fbe565b905080604051602001610ee9919061287d565b60405160208183030381529060405290506000610f27600560009054906101000a900473ffffffffffffffffffffffffffffffffffffffff16610fbe565b905080604051602001610f3a91906128d8565b604051602081830303815290604052905083838383604051602001610f629493929190612651565b60405160208183030381529060405294505050505090565b80600460006101000a81548173ffffffffffffffffffffffffffffffffffffffff021916908373ffffffffffffffffffffffffffffffffffffffff16021790555050565b6060610fe882604051602001610fd49190612955565b604051602081830303815290604052611210565b9050919050565b60008054905090565b60606000600281111561100e5761100d612319565b5b600760049054906101000a900460ff1660028111156110305761102f612319565b5b03611072576040518060400160405280600381526020017f6c6f7700000000000000000000000000000000000000000000000000000000008152509050611123565b6001600281111561108657611085612319565b5b600760049054906101000a900460ff1660028111156110a8576110a7612319565b5b036110ea576040518060400160405280600681526020017f6d656469756d00000000000000000000000000000000000000000000000000008152509050611123565b6040518060400160405280600481526020017f686967680000000000000000000000000000000000000000000000000000000081525090505b90565b60606111508260405160200161113c9190612991565b604051602081830303815290604052611210565b9050919050565b600760019054906101000a900460ff16156111a7576040517f08c379a000000000000000000000000000000000000000000000000000000000815260040161119e906129f8565b60405180910390fd5b6003806111b2611d8e565b146111f2576040517f08c379a00000000000000000000000000000000000000000000000000000000081526004016111e9906127a7565b60405180910390fd5b6001600760016101000a81548160ff02191690831515021790555050565b606060006040518060400160405280601081526020017f3031323334353637383961626364656600000000000000000000000000000000815250905060006002845161125c9190612a47565b60026112689190612a89565b67ffffffffffffffff81111561128157611280611fff565b5b6040519080825280601f01601f1916602001820160405280156112b35781602001600182028036833780820191505090505b5090507f3000000000000000000000000000000000000000000000000000000000000000816000815181106112eb576112ea612abd565b5b60200101907effffffffffffffffffffffffffffffffffffffffffffffffffffffffffffff1916908160001a9053507f78000000000000000000000000000000000000000000000000000000000000008160018151811061134f5761134e612abd565b5b60200101907effffffffffffffffffffffffffffffffffffffffffffffffffffffffffffff1916908160001a90535060005b84518110156114f9578260048683815181106113a05761139f612abd565b5b602001015160f81c60f81b7effffffffffffffffffffffffffffffffffffffffffffffffffffffffffffff1916901c60f81c60ff16815181106113e6576113e5612abd565b5b602001015160f81c60f81b826002836113ff9190612a47565b600261140b9190612a89565b8151811061141c5761141b612abd565b5b60200101907effffffffffffffffffffffffffffffffffffffffffffffffffffffffffffff1916908160001a90535082600f60f81b86838151811061146457611463612abd565b5b602001015160f81c60f81b1660f81c60ff168151811061148757611486612abd565b5b602001015160f81c60f81b826002836114a09190612a47565b60036114ac9190612a89565b815181106114bd576114bc612abd565b5b60200101907effffffffffffffffffffffffffffffffffffffffffffffffffffffffffffff1916908160001a9053508080600101915050611381565b508092505050919050565b60608115611549576040518060400160405280600481526020017f74727565000000000000000000000000000000000000000000000000000000008152509050611582565b6040518060400160405280600581526020017f66616c736500000000000000000000000000000000000000000000000000000081525090505b919050565b6000600760009054906101000a900460ff16905090565b6001806115a9611d8e565b146115e9576040517f08c379a00000000000000000000000000000000000000000000000000000000081526004016115e0906127a7565b60405180910390fd5b81600690816115f89190612c98565b505050565b60606000611609611baa565b90506000611615610911565b90506000611621610e05565b9050828282604051602001611638939291906124b4565b604051602081830303815290604052935050505090565b600281818110611694576040517f08c379a000000000000000000000000000000000000000000000000000000000815260040161168b9061273b565b60405180910390fd5b60018061169f611d8e565b146116df576040517f08c379a00000000000000000000000000000000000000000000000000000000081526004016116d6906127a7565b60405180910390fd5b60008403611717576000600760026101000a81548160ff0219169083600181111561170d5761170c612319565b5b0217905550611743565b6001600760026101000a81548160ff0219169083600181111561173d5761173c612319565b5b02179055505b50505050565b60606117738260405160200161175f9190612d8b565b604051602081830303815290604052611210565b9050919050565b6060600060048111156117905761178f612319565b5b600760059054906101000a900460ff1660048111156117b2576117b1612319565b5b036117f4576040518060400160405280600781526020017f646566696e6564000000000000000000000000000000000000000000000000008152509050611995565b6001600481111561180857611807612319565b5b600760059054906101000a900460ff16600481111561182a57611829612319565b5b0361186c576040518060400160405280600781526020017f726566696e6564000000000000000000000000000000000000000000000000008152509050611995565b600260048111156118805761187f612319565b5b600760059054906101000a900460ff1660048111156118a2576118a1612319565b5b036118e4576040518060400160405280600881526020017f76657269666965640000000000000000000000000000000000000000000000008152509050611995565b600360048111156118f8576118f7612319565b5b600760059054906101000a900460ff16600481111561191a57611919612319565b5b0361195c576040518060400160405280600981526020017f56616c69646174656400000000000000000000000000000000000000000000008152509050611995565b6040518060400160405280600881526020017f66696e697368656400000000000000000000000000000000000000000000000081525090505b90565b6060600060018111156119ae576119ad612319565b5b600760029054906101000a900460ff1660018111156119d0576119cf612319565b5b03611a12576040518060400160405280600a81526020017f66756e6374696f6e616c000000000000000000000000000000000000000000008152509050611a4b565b6040518060400160405280600e81526020017f4e6f6e2d46756e6374696f6e616c00000000000000000000000000000000000081525090505b90565b6000600760039054906101000a900460ff166002811115611a7257611a71612319565b5b905090565b600381818110611abc576040517f08c379a0000000000000000000000000000000000000000000000000000000008152600401611ab39061273b565b60405180910390fd5b600180611ac7611d8e565b14611b07576040517f08c379a0000000000000000000000000000000000000000000000000000000008152600401611afe906127a7565b60405180910390fd5b60008403611b3f576000600760046101000a81548160ff02191690836002811115611b3557611b34612319565b5b0217905550611ba4565b60018403611b77576001600760046101000a81548160ff02191690836002811115611b6d57611b6c612319565b5b0217905550611ba3565b6002600760046101000a81548160ff02191690836002811115611b9d57611b9c612319565b5b02179055505b5b50505050565b60606000611bb9600054611126565b905080604051602001611bcc9190612dcc565b604051602081830303815290604052905060006001604051602001611bf19190612eaa565b604051602081830303815290604052905060006006604051602001611c169190612f05565b60405160208183030381529060405290506000611c41600760019054906101000a900460ff16611504565b905080604051602001611c549190612f60565b60405160208183030381529060405290506000611c7f600760009054906101000a900460ff16611504565b905080604051602001611c929190612fbb565b60405160208183030381529060405290508484848385604051602001611cbc959493929190612ff0565b6040516020818303038152906040529550505050505090565b600760009054906101000a900460ff1615611d25576040517f08c379a0000000000000000000000000000000000000000000000000000000008152600401611d1c90613087565b60405180910390fd5b600280611d30611d8e565b14611d70576040517f08c379a0000000000000000000000000000000000000000000000000000000008152600401611d67906127a7565b60405180910390fd5b6001600760006101000a81548160ff02191690831515021790555050565b6000600760059054906101000a900460ff166004811115611db257611db1612319565b5b905090565b6000819050919050565b611dca81611db7565b82525050565b6000602082019050611de56000830184611dc1565b92915050565b600081519050919050565b600082825260208201905092915050565b60005b83811015611e25578082015181840152602081019050611e0a565b60008484015250505050565b6000601f19601f8301169050919050565b6000611e4d82611deb565b611e578185611df6565b9350611e67818560208601611e07565b611e7081611e31565b840191505092915050565b60006020820190508181036000830152611e958184611e42565b905092915050565b600073ffffffffffffffffffffffffffffffffffffffff82169050919050565b6000611ec882611e9d565b9050919050565b611ed881611ebd565b82525050565b6000602082019050611ef36000830184611ecf565b92915050565b6000604051905090565b600080fd5b600080fd5b611f1681611db7565b8114611f2157600080fd5b50565b600081359050611f3381611f0d565b92915050565b600060208284031215611f4f57611f4e611f03565b5b6000611f5d84828501611f24565b91505092915050565b60008115159050919050565b611f7b81611f66565b82525050565b6000602082019050611f966000830184611f72565b92915050565b611fa581611ebd565b8114611fb057600080fd5b50565b600081359050611fc281611f9c565b92915050565b600060208284031215611fde57611fdd611f03565b5b6000611fec84828501611fb3565b91505092915050565b600080fd5b600080fd5b7f4e487b7100000000000000000000000000000000000000000000000000000000600052604160045260246000fd5b61203782611e31565b810181811067ffffffffffffffff8211171561205657612055611fff565b5b80604052505050565b6000612069611ef9565b9050612075828261202e565b919050565b600067ffffffffffffffff82111561209557612094611fff565b5b61209e82611e31565b9050602081019050919050565b82818337600083830152505050565b60006120cd6120c88461207a565b61205f565b9050828152602081018484840111156120e9576120e8611ffa565b5b6120f48482856120ab565b509392505050565b600082601f83011261211157612110611ff5565b5b81356121218482602086016120ba565b91505092915050565b6000602082840312156121405761213f611f03565b5b600082013567ffffffffffffffff81111561215e5761215d611f08565b5b61216a848285016120fc565b91505092915050565b61217c81611f66565b811461218757600080fd5b50565b60008135905061219981612173565b92915050565b6000602082840312156121b5576121b4611f03565b5b60006121c38482850161218a565b91505092915050565b600067ffffffffffffffff8211156121e7576121e6611fff565b5b6121f082611e31565b9050602081019050919050565b600061221061220b846121cc565b61205f565b90508281526020810184848401111561222c5761222b611ffa565b5b6122378482856120ab565b509392505050565b600082601f83011261225457612253611ff5565b5b81356122648482602086016121fd565b91505092915050565b60006020828403121561228357612282611f03565b5b600082013567ffffffffffffffff8111156122a1576122a0611f08565b5b6122ad8482850161223f565b91505092915050565b6000819050919050565b6122c9816122b6565b81146122d457600080fd5b50565b6000813590506122e6816122c0565b92915050565b60006020828403121561230257612301611f03565b5b6000612310848285016122d7565b91505092915050565b7f4e487b7100000000000000000000000000000000000000000000000000000000600052602160045260246000fd5b7f63726561746f723a200000000000000000000000000000000000000000000000815250565b600081905092915050565b600061238482611deb565b61238e818561236e565b935061239e818560208601611e07565b80840191505092915050565b60006123b582612348565b6009820191506123c58284612379565b915081905092915050565b7f202d2d2d20000000000000000000000000000000000000000000000000000000815250565b60006124028284612379565b915061240d826123d0565b60058201915081905092915050565b7f526571756972656d656e7420456e67696e6565723a2000000000000000000000815250565b600061244d8261241c565b60168201915061245d8284612379565b915081905092915050565b7f526571756972656d656e7420416e616c7973743a200000000000000000000000815250565b600061249982612468565b6015820191506124a98284612379565b915081905092915050565b60006124c08286612379565b91506124cc8285612379565b91506124d88284612379565b9150819050949350505050565b7f747970653a000000000000000000000000000000000000000000000000000000815250565b6000612516826124e5565b6005820191506125268284612379565b9150612531826123d0565b60058201915081905092915050565b7f7072696f726974793a2000000000000000000000000000000000000000000000815250565b600061257182612540565b600a820191506125818284612379565b915061258c826123d0565b60058201915081905092915050565b7f7269736b3a200000000000000000000000000000000000000000000000000000815250565b60006125cc8261259b565b6006820191506125dc8284612379565b91506125e7826123d0565b60058201915081905092915050565b7f73746167653a2000000000000000000000000000000000000000000000000000815250565b6000612627826125f6565b6007820191506126378284612379565b9150612642826123d0565b60058201915081905092915050565b600061265d8287612379565b91506126698286612379565b91506126758285612379565b91506126818284612379565b915081905095945050505050565b7f4e487b7100000000000000000000000000000000000000000000000000000000600052602260045260246000fd5b600060028204905060018216806126d657607f821691505b6020821081036126e9576126e861268f565b5b50919050565b7f4261642072616e67652e00000000000000000000000000000000000000000000600082015250565b6000612725600a83611df6565b9150612730826126ef565b602082019050919050565b6000602082019050818103600083015261275481612718565b9050919050565b7f496e636f72726563742053746167652100000000000000000000000000000000600082015250565b6000612791601083611df6565b915061279c8261275b565b602082019050919050565b600060208201905081810360008301526127c081612784565b9050919050565b60006127d282612348565b6009820191506127e28284612379565b91506127ed826123d0565b60058201915081905092915050565b7f726571756972656d656e7420656e67696e6565723a2000000000000000000000815250565b600061282d826127fc565b60168201915061283d8284612379565b9150612848826123d0565b60058201915081905092915050565b7f726571756972656d656e7420616e616c7973743a200000000000000000000000815250565b600061288882612857565b6015820191506128988284612379565b91506128a3826123d0565b60058201915081905092915050565b7f6d616e616765723a200000000000000000000000000000000000000000000000815250565b60006128e3826128b2565b6009820191506128f38284612379565b91506128fe826123d0565b60058201915081905092915050565b60008160601b9050919050565b60006129258261290d565b9050919050565b60006129378261291a565b9050919050565b61294f61294a82611ebd565b61292c565b82525050565b6000612961828461293e565b60148201915081905092915050565b6000819050919050565b61298b61298682611db7565b612970565b82525050565b600061299d828461297a565b60208201915081905092915050565b7f497420686173206265656e2076616c6964617465642e00000000000000000000600082015250565b60006129e2601683611df6565b91506129ed826129ac565b602082019050919050565b60006020820190508181036000830152612a11816129d5565b9050919050565b7f4e487b7100000000000000000000000000000000000000000000000000000000600052601160045260246000fd5b6000612a5282611db7565b9150612a5d83611db7565b9250828202612a6b81611db7565b91508282048414831517612a8257612a81612a18565b5b5092915050565b6000612a9482611db7565b9150612a9f83611db7565b9250828201905080821115612ab757612ab6612a18565b5b92915050565b7f4e487b7100000000000000000000000000000000000000000000000000000000600052603260045260246000fd5b60008190508160005260206000209050919050565b60006020601f8301049050919050565b600082821b905092915050565b600060088302612b4e7fffffffffffffffffffffffffffffffffffffffffffffffffffffffffffffffff82612b11565b612b588683612b11565b95508019841693508086168417925050509392505050565b6000819050919050565b6000612b95612b90612b8b84611db7565b612b70565b611db7565b9050919050565b6000819050919050565b612baf83612b7a565b612bc3612bbb82612b9c565b848454612b1e565b825550505050565b600090565b612bd8612bcb565b612be3818484612ba6565b505050565b5b81811015612c0757612bfc600082612bd0565b600181019050612be9565b5050565b601f821115612c4c57612c1d81612aec565b612c2684612b01565b81016020851015612c35578190505b612c49612c4185612b01565b830182612be8565b50505b505050565b600082821c905092915050565b6000612c6f60001984600802612c51565b1980831691505092915050565b6000612c888383612c5e565b9150826002028217905092915050565b612ca182611deb565b67ffffffffffffffff811115612cba57612cb9611fff565b5b612cc482546126be565b612ccf828285612c0b565b600060209050601f831160018114612d025760008415612cf0578287015190505b612cfa8582612c7c565b865550612d62565b601f198416612d1086612aec565b60005b82811015612d3857848901518255600182019150602085019450602081019050612d13565b86831015612d555784890151612d51601f891682612c5e565b8355505b6001600288020188555050505b505050505050565b6000819050919050565b612d85612d80826122b6565b612d6a565b82525050565b6000612d978284612d74565b60208201915081905092915050565b7f69643a2000000000000000000000000000000000000000000000000000000000815250565b6000612dd782612da6565b600482019150612de78284612379565b9150612df2826123d0565b60058201915081905092915050565b7f6e616d653a200000000000000000000000000000000000000000000000000000815250565b60008154612e34816126be565b612e3e818661236e565b94506001821660008114612e595760018114612e6e57612ea1565b60ff1983168652811515820286019350612ea1565b612e7785612aec565b60005b83811015612e9957815481890152600182019150602081019050612e7a565b838801955050505b50505092915050565b6000612eb582612e01565b600682019150612ec58284612e27565b9150612ed0826123d0565b60058201915081905092915050565b7f6465736372697074696f6e3a2000000000000000000000000000000000000000815250565b6000612f1082612edf565b600d82019150612f208284612e27565b9150612f2b826123d0565b60058201915081905092915050565b7f76616c6964617465643a20000000000000000000000000000000000000000000815250565b6000612f6b82612f3a565b600b82019150612f7b8284612379565b9150612f86826123d0565b60058201915081905092915050565b7f76657269666965643a2000000000000000000000000000000000000000000000815250565b6000612fc682612f95565b600a82019150612fd68284612379565b9150612fe1826123d0565b60058201915081905092915050565b6000612ffc8288612379565b91506130088287612379565b91506130148286612379565b91506130208285612379565b915061302c8284612379565b91508190509695505050505050565b7f497420686173206265656e2076657269666965642e0000000000000000000000600082015250565b6000613071601583611df6565b915061307c8261303b565b602082019050919050565b600060208201905081810360008301526130a081613064565b905091905056fea2646970667358221220d201dc9da01f89feefed4ece818ab6c79b08c461e6f19e355d6cef7bf7caaba264736f6c63430008180033a2646970667358221220a48d63087e2300c15c8538d117992c0e2929e13d2e09601d6acb993cbde7f4cc64736f6c63430008180033",
  "linkReferences": {},
  "deployedLinkReferences": {}
}