{
  "_format": "hh-sol-artifact-1",
  "contractName": "RequirementEngineering",
  "sourceName": "contracts/RequirementEngineering.sol",
  "abi": [
    {
      "inputs": [],
      "stateMutability": "nonpayable",
      "type": "constructor"
    },
    {
      "inputs": [
        {
          "internalType": "string",
          "name": "_name",
          "type": "string"
        },
        {
          "internalType": "string",
          "name": "_description",
          "type": "string"
        }
      ],
      "name": "addRequirement",
      "outputs": [],
      "stateMutability": "nonpayable",
      "type": "function"
    },
    {
      "inputs": [
        {
          "internalType": "address",
          "name": "_reqAnalyst",
          "type": "address"
        }
      ],
      "name": "addRequirementAnalyst",
      "outputs": [],
      "stateMutability": "nonpayable",
      "type": "function"
    },
    {
      "inputs": [
        {
          "internalType": "address",
          "name": "_reqEngineer",
          "type": "address"
        }
      ],
      "name": "addRequirementEngineer",
      "outputs": [],
      "stateMutability": "nonpayable",
      "type": "function"
    },
    {
      "inputs": [
        {
          "internalType": "address",
          "name": "",
          "type": "address"
        }
      ],
      "name": "availableRequirementAnalyst",
      "outputs": [
        {
          "internalType": "bool",
          "name": "",
          "type": "bool"
        }
      ],
      "stateMutability": "view",
      "type": "function"
    },
    {
      "inputs": [
        {
          "internalType": "address",
          "name": "",
          "type": "address"
        }
      ],
      "name": "availableRequirementEngineers",
      "outputs": [
        {
          "internalType": "bool",
          "name": "",
          "type": "bool"
        }
      ],
      "stateMutability": "view",
      "type": "function"
    },
    {
      "inputs": [
        {
          "internalType": "uint256",
          "name": "",
          "type": "uint256"
        }
      ],
      "name": "availableRequirements",
      "outputs": [
        {
          "internalType": "bool",
          "name": "",
          "type": "bool"
        }
      ],
      "stateMutability": "view",
      "type": "function"
    },
    {
      "inputs": [
        {
          "internalType": "uint256",
          "name": "_reqNumber",
          "type": "uint256"
        }
      ],
      "name": "contains",
      "outputs": [
        {
          "internalType": "bool",
          "name": "",
          "type": "bool"
        }
      ],
      "stateMutability": "view",
      "type": "function"
    },
    {
      "inputs": [],
      "name": "getManager",
      "outputs": [
        {
          "internalType": "address",
          "name": "",
          "type": "address"
        }
      ],
      "stateMutability": "view",
      "type": "function"
    },
    {
      "inputs": [],
      "name": "getNumbersOfReqiurements",
      "outputs": [
        {
          "internalType": "uint256",
          "name": "",
          "type": "uint256"
        }
      ],
      "stateMutability": "view",
      "type": "function"
    },
    {
      "inputs": [
        {
          "internalType": "uint256",
          "name": "_reqNumber",
          "type": "uint256"
        }
      ],
      "name": "indexOf",
      "outputs": [
        {
          "internalType": "uint256",
          "name": "",
          "type": "uint256"
        },
        {
          "internalType": "bool",
          "name": "",
          "type": "bool"
        }
      ],
      "stateMutability": "view",
      "type": "function"
    },
    {
      "inputs": [
        {
          "internalType": "uint256",
          "name": "_reqNumber",
          "type": "uint256"
        }
      ],
      "name": "isRequirement",
      "outputs": [
        {
          "internalType": "bool",
          "name": "",
          "type": "bool"
        }
      ],
      "stateMutability": "view",
      "type": "function"
    },
    {
      "inputs": [
        {
          "internalType": "address",
          "name": "rqAn",
          "type": "address"
        }
      ],
      "name": "isRequirementAnalyst",
      "outputs": [
        {
          "internalType": "bool",
          "name": "",
          "type": "bool"
        }
      ],
      "stateMutability": "view",
      "type": "function"
    },
    {
      "inputs": [
        {
          "internalType": "address",
          "name": "rqEn",
          "type": "address"
        }
      ],
      "name": "isRequirementEngineer",
      "outputs": [
        {
          "internalType": "bool",
          "name": "",
          "type": "bool"
        }
      ],
      "stateMutability": "view",
      "type": "function"
    },
    {
      "inputs": [],
      "name": "manager",
      "outputs": [
        {
          "internalType": "address",
          "name": "",
          "type": "address"
        }
      ],
      "stateMutability": "view",
      "type": "function"
    },
    {
      "inputs": [
        {
          "internalType": "uint256",
          "name": "_reqNumber",
          "type": "uint256"
        },
        {
          "internalType": "string",
          "name": "_description",
          "type": "string"
        },
        {
          "internalType": "uint256",
          "name": "_priority",
          "type": "uint256"
        },
        {
          "internalType": "uint256",
          "name": "_type",
          "type": "uint256"
        },
        {
          "internalType": "uint256",
          "name": "_risk",
          "type": "uint256"
        }
      ],
      "name": "refine",
      "outputs": [],
      "stateMutability": "nonpayable",
      "type": "function"
    },
    {
      "inputs": [
        {
          "internalType": "uint256",
          "name": "_reqNumber",
          "type": "uint256"
        }
      ],
      "name": "removeRequirement",
      "outputs": [],
      "stateMutability": "nonpayable",
      "type": "function"
    },
    {
      "inputs": [
        {
          "internalType": "uint256",
          "name": "",
          "type": "uint256"
        }
      ],
      "name": "requirementAnalysts",
      "outputs": [
        {
          "internalType": "address",
          "name": "",
          "type": "address"
        }
      ],
      "stateMutability": "view",
      "type": "function"
    },
    {
      "inputs": [
        {
          "internalType": "uint256",
          "name": "",
          "type": "uint256"
        }
      ],
      "name": "requirementEngineers",
      "outputs": [
        {
          "internalType": "address",
          "name": "",
          "type": "address"
        }
      ],
      "stateMutability": "view",
      "type": "function"
    },
    {
      "inputs": [],
      "name": "seeAllReq",
      "outputs": [
        {
          "internalType": "string",
          "name": "",
          "type": "string"
        }
      ],
      "stateMutability": "view",
      "type": "function"
    },
    {
      "inputs": [
        {
          "internalType": "uint256",
          "name": "_reqNumber",
          "type": "uint256"
        }
      ],
      "name": "seeReq",
      "outputs": [
        {
          "internalType": "string",
          "name": "",
          "type": "string"
        }
      ],
      "stateMutability": "view",
      "type": "function"
    },
    {
      "inputs": [
        {
          "internalType": "uint256",
          "name": "_reqNumber",
          "type": "uint256"
        }
      ],
      "name": "validate",
      "outputs": [],
      "stateMutability": "nonpayable",
      "type": "function"
    },
    {
      "inputs": [
        {
          "internalType": "uint256",
          "name": "_reqNumber",
          "type": "uint256"
        }
      ],
      "name": "verify",
      "outputs": [],
      "stateMutability": "nonpayable",
      "type": "function"
    }
  ],
  "bytecode": "0x608060405234801561001057600080fd5b5033600360006101000a81548173ffffffffffffffffffffffffffffffffffffffff021916908373ffffffffffffffffffffffffffffffffffffffff16021790555060008081905550616500806100686000396000f3fe60806040523480156200001157600080fd5b5060043610620001605760003560e01c8063aae0f62811620000c9578063ce4d01a31162000087578063ce4d01a3146200041c578063d5009584146200043c578063dcaaf1e9146200045e578063e2b2bdb61462000494578063fae8fe0414620004b4578063fe1000e814620004ea5762000160565b8063aae0f628146200033a578063b2a655bb146200035a578063b2eda2db1462000390578063b627c0b814620003c6578063c34052e014620003e65762000160565b80635bff0e1d11620001235780635bff0e1d146200023557806372f3b3ba146200026b57806374d881c8146200028d57806376d87c8414620002ad5780638753367f14620002e357806391ac7e6514620003035762000160565b80631f712f9014620001655780633807610e1462000185578063481c6a7514620001bb5780634b0d985014620001dd578063577d675614620001ff575b600080fd5b6200018360048036038101906200017d9190620021d9565b62000520565b005b620001a360048036038101906200019d919062002246565b62000703565b604051620001b2919062002289565b60405180910390f35b620001c562000743565b604051620001d4919062002289565b60405180910390f35b620001e762000769565b604051620001f69190620022b7565b60405180910390f35b6200021d600480360381019062000217919062002246565b62000772565b6040516200022c91906200236e565b60405180910390f35b6200025360048036038101906200024d9190620021d9565b62000844565b604051620002629190620023af565b60405180910390f35b620002756200089a565b6040516200028491906200236e565b60405180910390f35b620002ab6004803603810190620002a591906200251d565b620009c0565b005b620002cb6004803603810190620002c5919062002246565b62000b97565b604051620002da9190620023af565b60405180910390f35b620003016004803603810190620002fb919062002246565b62000bc1565b005b6200032160048036038101906200031b919062002246565b62000eb7565b60405162000331929190620025c4565b60405180910390f35b620003586004803603810190620003529190620025f1565b62000fb6565b005b62000378600480360381019062000372919062002246565b620010cc565b604051620003879190620023af565b60405180910390f35b620003ae6004803603810190620003a8919062002246565b620010ec565b604051620003bd919062002289565b60405180910390f35b620003e46004803603810190620003de9190620021d9565b6200112c565b005b620004046004803603810190620003fe919062002246565b6200130f565b604051620004139190620023af565b60405180910390f35b6200043a600480360381019062000434919062002246565b62001329565b005b620004466200161f565b60405162000455919062002289565b60405180910390f35b6200047c6004803603810190620004769190620021d9565b62001649565b6040516200048b9190620023af565b60405180910390f35b620004b26004803603810190620004ac919062002246565b6200169f565b005b620004d26004803603810190620004cc9190620021d9565b620017a1565b604051620004e19190620023af565b60405180910390f35b620005086004803603810190620005029190620021d9565b620017c1565b604051620005179190620023af565b60405180910390f35b600360009054906101000a900473ffffffffffffffffffffffffffffffffffffffff1673ffffffffffffffffffffffffffffffffffffffff163373ffffffffffffffffffffffffffffffffffffffff1614620005b3576040517f08c379a0000000000000000000000000000000000000000000000000000000008152600401620005aa90620026c6565b60405180910390fd5b80600560008273ffffffffffffffffffffffffffffffffffffffff1673ffffffffffffffffffffffffffffffffffffffff16815260200190815260200160002060009054906101000a900460ff161562000644576040517f08c379a00000000000000000000000000000000000000000000000000000000081526004016200063b906200275e565b60405180910390fd5b6004829080600181540180825580915050600190039060005260206000200160009091909190916101000a81548173ffffffffffffffffffffffffffffffffffffffff021916908373ffffffffffffffffffffffffffffffffffffffff1602179055506001600560008473ffffffffffffffffffffffffffffffffffffffff1673ffffffffffffffffffffffffffffffffffffffff16815260200190815260200160002060006101000a81548160ff0219169083151502179055505050565b600481815481106200071457600080fd5b906000526020600020016000915054906101000a900473ffffffffffffffffffffffffffffffffffffffff1681565b600360009054906101000a900473ffffffffffffffffffffffffffffffffffffffff1681565b60008054905090565b60606000620007818362000eb7565b509050600181815481106200079b576200079a62002780565b5b9060005260206000200160009054906101000a900473ffffffffffffffffffffffffffffffffffffffff1673ffffffffffffffffffffffffffffffffffffffff1663a81136546040518163ffffffff1660e01b8152600401600060405180830381865afa15801562000811573d6000803e3d6000fd5b505050506040513d6000823e3d601f19601f820116820180604052508101906200083c91906200282d565b915050919050565b6000600560008373ffffffffffffffffffffffffffffffffffffffff1673ffffffffffffffffffffffffffffffffffffffff16815260200190815260200160002060009054906101000a900460ff169050919050565b606060006001805490509050600060405180602001604052806000815250905060005b82811015620009b757600060018281548110620008df57620008de62002780565b5b9060005260206000200160009054906101000a900473ffffffffffffffffffffffffffffffffffffffff1673ffffffffffffffffffffffffffffffffffffffff1663a81136546040518163ffffffff1660e01b8152600401600060405180830381865afa15801562000955573d6000803e3d6000fd5b505050506040513d6000823e3d601f19601f820116820180604052508101906200098091906200282d565b9050828160405160200162000997929190620028e6565b6040516020818303038152906040529250508080600101915050620008bd565b50809250505090565b600560003373ffffffffffffffffffffffffffffffffffffffff1673ffffffffffffffffffffffffffffffffffffffff16815260200190815260200160002060009054906101000a900460ff1662000a4f576040517f08c379a000000000000000000000000000000000000000000000000000000000815260040162000a46906200296f565b60405180910390fd5b8462000a5b816200130f565b62000a9d576040517f08c379a000000000000000000000000000000000000000000000000000000000815260040162000a9490620029e1565b60405180910390fd5b62000aa98686620017e1565b62000ab5868562001984565b62000ac1868462001b27565b62000acd868362001d7a565b600062000ada8762000eb7565b5090506001818154811062000af45762000af362002780565b5b9060005260206000200160009054906101000a900473ffffffffffffffffffffffffffffffffffffffff1673ffffffffffffffffffffffffffffffffffffffff16633eb1d77760026040518263ffffffff1660e01b815260040162000b5a919062002a50565b600060405180830381600087803b15801562000b7557600080fd5b505af115801562000b8a573d6000803e3d6000fd5b5050505050505050505050565b60006002600083815260200190815260200160002060009054906101000a900460ff169050919050565b600760003373ffffffffffffffffffffffffffffffffffffffff1673ffffffffffffffffffffffffffffffffffffffff16815260200190815260200160002060009054906101000a900460ff1662000c50576040517f08c379a000000000000000000000000000000000000000000000000000000000815260040162000c479062002abd565b60405180910390fd5b8062000c5c816200130f565b62000c9e576040517f08c379a000000000000000000000000000000000000000000000000000000000815260040162000c9590620029e1565b60405180910390fd5b600062000cab8362000eb7565b5090506001818154811062000cc55762000cc462002780565b5b9060005260206000200160009054906101000a900473ffffffffffffffffffffffffffffffffffffffff1673ffffffffffffffffffffffffffffffffffffffff1663fc735e996040518163ffffffff1660e01b8152600401600060405180830381600087803b15801562000d3857600080fd5b505af115801562000d4d573d6000803e3d6000fd5b505050506001818154811062000d685762000d6762002780565b5b9060005260206000200160009054906101000a900473ffffffffffffffffffffffffffffffffffffffff1673ffffffffffffffffffffffffffffffffffffffff1663524fa88e336040518263ffffffff1660e01b815260040162000dcd919062002289565b600060405180830381600087803b15801562000de857600080fd5b505af115801562000dfd573d6000803e3d6000fd5b505050506001818154811062000e185762000e1762002780565b5b9060005260206000200160009054906101000a900473ffffffffffffffffffffffffffffffffffffffff1673ffffffffffffffffffffffffffffffffffffffff16633eb1d77760036040518263ffffffff1660e01b815260040162000e7e919062002b22565b600060405180830381600087803b15801562000e9957600080fd5b505af115801562000eae573d6000803e3d6000fd5b50505050505050565b6000806000600180549050905060005b8181101562000fa757846001828154811062000ee85762000ee762002780565b5b9060005260206000200160009054906101000a900473ffffffffffffffffffffffffffffffffffffffff1673ffffffffffffffffffffffffffffffffffffffff16635d1ca6316040518163ffffffff1660e01b8152600401602060405180830381865afa15801562000f5e573d6000803e3d6000fd5b505050506040513d601f19601f8201168201806040525081019062000f84919062002b56565b0362000f995780600193509350505062000fb1565b808060010191505062000ec7565b5060008092509250505b915091565b60008054838333600360009054906101000a900473ffffffffffffffffffffffffffffffffffffffff1660405162000fee9062002152565b62000ffe95949392919062002b88565b604051809103906000f0801580156200101b573d6000803e3d6000fd5b5090506001819080600181540180825580915050600190039060005260206000200160009091909190916101000a81548173ffffffffffffffffffffffffffffffffffffffff021916908373ffffffffffffffffffffffffffffffffffffffff1602179055506001600260008054815260200190815260200160002060006101000a81548160ff021916908315150217905550600080815480929190620010c29062002c22565b9190505550505050565b60026020528060005260406000206000915054906101000a900460ff1681565b60068181548110620010fd57600080fd5b906000526020600020016000915054906101000a900473ffffffffffffffffffffffffffffffffffffffff1681565b600360009054906101000a900473ffffffffffffffffffffffffffffffffffffffff1673ffffffffffffffffffffffffffffffffffffffff163373ffffffffffffffffffffffffffffffffffffffff1614620011bf576040517f08c379a0000000000000000000000000000000000000000000000000000000008152600401620011b690620026c6565b60405180910390fd5b80600760008273ffffffffffffffffffffffffffffffffffffffff1673ffffffffffffffffffffffffffffffffffffffff16815260200190815260200160002060009054906101000a900460ff161562001250576040517f08c379a0000000000000000000000000000000000000000000000000000000008152600401620012479062002ce5565b60405180910390fd5b6006829080600181540180825580915050600190039060005260206000200160009091909190916101000a81548173ffffffffffffffffffffffffffffffffffffffff021916908373ffffffffffffffffffffffffffffffffffffffff1602179055506001600760008473ffffffffffffffffffffffffffffffffffffffff1673ffffffffffffffffffffffffffffffffffffffff16815260200190815260200160002060006101000a81548160ff0219169083151502179055505050565b6000806200131d8362000eb7565b91505080915050919050565b600760003373ffffffffffffffffffffffffffffffffffffffff1673ffffffffffffffffffffffffffffffffffffffff16815260200190815260200160002060009054906101000a900460ff16620013b8576040517f08c379a0000000000000000000000000000000000000000000000000000000008152600401620013af9062002abd565b60405180910390fd5b80620013c4816200130f565b62001406576040517f08c379a0000000000000000000000000000000000000000000000000000000008152600401620013fd90620029e1565b60405180910390fd5b6000620014138362000eb7565b509050600181815481106200142d576200142c62002780565b5b9060005260206000200160009054906101000a900473ffffffffffffffffffffffffffffffffffffffff1673ffffffffffffffffffffffffffffffffffffffff16636901f6686040518163ffffffff1660e01b8152600401600060405180830381600087803b158015620014a057600080fd5b505af1158015620014b5573d6000803e3d6000fd5b5050505060018181548110620014d057620014cf62002780565b5b9060005260206000200160009054906101000a900473ffffffffffffffffffffffffffffffffffffffff1673ffffffffffffffffffffffffffffffffffffffff1663524fa88e336040518263ffffffff1660e01b815260040162001535919062002289565b600060405180830381600087803b1580156200155057600080fd5b505af115801562001565573d6000803e3d6000fd5b505050506001818154811062001580576200157f62002780565b5b9060005260206000200160009054906101000a900473ffffffffffffffffffffffffffffffffffffffff1673ffffffffffffffffffffffffffffffffffffffff16633eb1d77760046040518263ffffffff1660e01b8152600401620015e6919062002d4a565b600060405180830381600087803b1580156200160157600080fd5b505af115801562001616573d6000803e3d6000fd5b50505050505050565b6000600360009054906101000a900473ffffffffffffffffffffffffffffffffffffffff16905090565b6000600760008373ffffffffffffffffffffffffffffffffffffffff1673ffffffffffffffffffffffffffffffffffffffff16815260200190815260200160002060009054906101000a900460ff169050919050565b600360009054906101000a900473ffffffffffffffffffffffffffffffffffffffff1673ffffffffffffffffffffffffffffffffffffffff163373ffffffffffffffffffffffffffffffffffffffff161462001732576040517f08c379a00000000000000000000000000000000000000000000000000000000081526004016200172990620026c6565b60405180910390fd5b806200173e816200130f565b62001780576040517f08c379a00000000000000000000000000000000000000000000000000000000081526004016200177790620029e1565b60405180910390fd5b60006200178d8362000eb7565b5090506200179b8162001f1d565b50505050565b60076020528060005260406000206000915054906101000a900460ff1681565b60056020528060005260406000206000915054906101000a900460ff1681565b600560003373ffffffffffffffffffffffffffffffffffffffff1673ffffffffffffffffffffffffffffffffffffffff16815260200190815260200160002060009054906101000a900460ff1662001870576040517f08c379a000000000000000000000000000000000000000000000000000000000815260040162001867906200296f565b60405180910390fd5b816200187c816200130f565b620018be576040517f08c379a0000000000000000000000000000000000000000000000000000000008152600401620018b590620029e1565b60405180910390fd5b6000620018cb8462000eb7565b50905060018181548110620018e557620018e462002780565b5b9060005260206000200160009054906101000a900473ffffffffffffffffffffffffffffffffffffffff1673ffffffffffffffffffffffffffffffffffffffff166390c3f38f846040518263ffffffff1660e01b81526004016200194a91906200236e565b600060405180830381600087803b1580156200196557600080fd5b505af11580156200197a573d6000803e3d6000fd5b5050505050505050565b600560003373ffffffffffffffffffffffffffffffffffffffff1673ffffffffffffffffffffffffffffffffffffffff16815260200190815260200160002060009054906101000a900460ff1662001a13576040517f08c379a000000000000000000000000000000000000000000000000000000000815260040162001a0a906200296f565b60405180910390fd5b8162001a1f816200130f565b62001a61576040517f08c379a000000000000000000000000000000000000000000000000000000000815260040162001a5890620029e1565b60405180910390fd5b600062001a6e8462000eb7565b5090506001818154811062001a885762001a8762002780565b5b9060005260206000200160009054906101000a900473ffffffffffffffffffffffffffffffffffffffff1673ffffffffffffffffffffffffffffffffffffffff166321a50a93846040518263ffffffff1660e01b815260040162001aed9190620022b7565b600060405180830381600087803b15801562001b0857600080fd5b505af115801562001b1d573d6000803e3d6000fd5b5050505050505050565b600560003373ffffffffffffffffffffffffffffffffffffffff1673ffffffffffffffffffffffffffffffffffffffff16815260200190815260200160002060009054906101000a900460ff1662001bb6576040517f08c379a000000000000000000000000000000000000000000000000000000000815260040162001bad906200296f565b60405180910390fd5b8162001bc2816200130f565b62001c04576040517f08c379a000000000000000000000000000000000000000000000000000000000815260040162001bfb90620029e1565b60405180910390fd5b600062001c118462000eb7565b5090506001818154811062001c2b5762001c2a62002780565b5b9060005260206000200160009054906101000a900473ffffffffffffffffffffffffffffffffffffffff1673ffffffffffffffffffffffffffffffffffffffff1663a813dea6846040518263ffffffff1660e01b815260040162001c909190620022b7565b600060405180830381600087803b15801562001cab57600080fd5b505af115801562001cc0573d6000803e3d6000fd5b505050506001818154811062001cdb5762001cda62002780565b5b9060005260206000200160009054906101000a900473ffffffffffffffffffffffffffffffffffffffff1673ffffffffffffffffffffffffffffffffffffffff16633bcbe08a336040518263ffffffff1660e01b815260040162001d40919062002289565b600060405180830381600087803b15801562001d5b57600080fd5b505af115801562001d70573d6000803e3d6000fd5b5050505050505050565b600560003373ffffffffffffffffffffffffffffffffffffffff1673ffffffffffffffffffffffffffffffffffffffff16815260200190815260200160002060009054906101000a900460ff1662001e09576040517f08c379a000000000000000000000000000000000000000000000000000000000815260040162001e00906200296f565b60405180910390fd5b8162001e15816200130f565b62001e57576040517f08c379a000000000000000000000000000000000000000000000000000000000815260040162001e4e90620029e1565b60405180910390fd5b600062001e648462000eb7565b5090506001818154811062001e7e5762001e7d62002780565b5b9060005260206000200160009054906101000a900473ffffffffffffffffffffffffffffffffffffffff1673ffffffffffffffffffffffffffffffffffffffff1663eeb1191a846040518263ffffffff1660e01b815260040162001ee39190620022b7565b600060405180830381600087803b15801562001efe57600080fd5b505af115801562001f13573d6000803e3d6000fd5b5050505050505050565b600080600180549050905080831062001f6d576040517f08c379a000000000000000000000000000000000000000000000000000000000815260040162001f649062002db7565b60405180910390fd5b60006001848154811062001f865762001f8562002780565b5b9060005260206000200160009054906101000a900473ffffffffffffffffffffffffffffffffffffffff1673ffffffffffffffffffffffffffffffffffffffff16635d1ca6316040518163ffffffff1660e01b8152600401602060405180830381865afa15801562001ffc573d6000803e3d6000fd5b505050506040513d601f19601f8201168201806040525081019062002022919062002b56565b905060008490505b60018362002039919062002dd9565b811015620020fd576001808262002051919062002e14565b8154811062002065576200206462002780565b5b9060005260206000200160009054906101000a900473ffffffffffffffffffffffffffffffffffffffff1660018281548110620020a757620020a662002780565b5b9060005260206000200160006101000a81548173ffffffffffffffffffffffffffffffffffffffff021916908373ffffffffffffffffffffffffffffffffffffffff16021790555080806001019150506200202a565b50600180548062002113576200211262002e4f565b5b6001900381819060005260206000200160006101000a81549073ffffffffffffffffffffffffffffffffffffffff021916905590558092505050919050565b61364c8062002e7f83390190565b6000604051905090565b600080fd5b600080fd5b600073ffffffffffffffffffffffffffffffffffffffff82169050919050565b6000620021a18262002174565b9050919050565b620021b38162002194565b8114620021bf57600080fd5b50565b600081359050620021d381620021a8565b92915050565b600060208284031215620021f257620021f16200216a565b5b60006200220284828501620021c2565b91505092915050565b6000819050919050565b62002220816200220b565b81146200222c57600080fd5b50565b600081359050620022408162002215565b92915050565b6000602082840312156200225f576200225e6200216a565b5b60006200226f848285016200222f565b91505092915050565b620022838162002194565b82525050565b6000602082019050620022a0600083018462002278565b92915050565b620022b1816200220b565b82525050565b6000602082019050620022ce6000830184620022a6565b92915050565b600081519050919050565b600082825260208201905092915050565b60005b8381101562002310578082015181840152602081019050620022f3565b60008484015250505050565b6000601f19601f8301169050919050565b60006200233a82620022d4565b620023468185620022df565b935062002358818560208601620022f0565b62002363816200231c565b840191505092915050565b600060208201905081810360008301526200238a81846200232d565b905092915050565b60008115159050919050565b620023a98162002392565b82525050565b6000602082019050620023c660008301846200239e565b92915050565b600080fd5b600080fd5b7f4e487b7100000000000000000000000000000000000000000000000000000000600052604160045260246000fd5b62002410826200231c565b810181811067ffffffffffffffff82111715620024325762002431620023d6565b5b80604052505050565b60006200244762002160565b905062002455828262002405565b919050565b600067ffffffffffffffff821115620024785762002477620023d6565b5b62002483826200231c565b9050602081019050919050565b82818337600083830152505050565b6000620024b6620024b0846200245a565b6200243b565b905082815260208101848484011115620024d557620024d4620023d1565b5b620024e284828562002490565b509392505050565b600082601f830112620025025762002501620023cc565b5b8135620025148482602086016200249f565b91505092915050565b600080600080600060a086880312156200253c576200253b6200216a565b5b60006200254c888289016200222f565b955050602086013567ffffffffffffffff81111562002570576200256f6200216f565b5b6200257e88828901620024ea565b945050604062002591888289016200222f565b9350506060620025a4888289016200222f565b9250506080620025b7888289016200222f565b9150509295509295909350565b6000604082019050620025db6000830185620022a6565b620025ea60208301846200239e565b9392505050565b600080604083850312156200260b576200260a6200216a565b5b600083013567ffffffffffffffff8111156200262c576200262b6200216f565b5b6200263a85828601620024ea565b925050602083013567ffffffffffffffff8111156200265e576200265d6200216f565b5b6200266c85828601620024ea565b9150509250929050565b7f4f6e6c79206279206d616e616765722e00000000000000000000000000000000600082015250565b6000620026ae601083620022df565b9150620026bb8262002676565b602082019050919050565b60006020820190508181036000830152620026e1816200269f565b9050919050565b7f5468697320526571756972656d656e7420456e67696e6565722068617320616c60008201527f7265616479206578697374656421000000000000000000000000000000000000602082015250565b600062002746602e83620022df565b91506200275382620026e8565b604082019050919050565b60006020820190508181036000830152620027798162002737565b9050919050565b7f4e487b7100000000000000000000000000000000000000000000000000000000600052603260045260246000fd5b6000620027c6620027c0846200245a565b6200243b565b905082815260208101848484011115620027e557620027e4620023d1565b5b620027f2848285620022f0565b509392505050565b600082601f830112620028125762002811620023cc565b5b815162002824848260208601620027af565b91505092915050565b6000602082840312156200284657620028456200216a565b5b600082015167ffffffffffffffff8111156200286757620028666200216f565b5b6200287584828501620027fa565b91505092915050565b600081905092915050565b60006200289682620022d4565b620028a281856200287e565b9350620028b4818560208601620022f0565b80840191505092915050565b7f202e2e2e20000000000000000000000000000000000000000000000000000000815250565b6000620028f4828562002889565b91506200290182620028c0565b60058201915062002913828462002889565b91508190509392505050565b7f4f6e6c7920627920526571756972656d656e7420456e67696e65657273000000600082015250565b600062002957601d83620022df565b915062002964826200291f565b602082019050919050565b600060208201905081810360008301526200298a8162002948565b9050919050565b7f4e6f7420617661696c61626c652e000000000000000000000000000000000000600082015250565b6000620029c9600e83620022df565b9150620029d68262002991565b602082019050919050565b60006020820190508181036000830152620029fc81620029ba565b9050919050565b6000819050919050565b6000819050919050565b600062002a3862002a3262002a2c8462002a03565b62002a0d565b6200220b565b9050919050565b62002a4a8162002a17565b82525050565b600060208201905062002a67600083018462002a3f565b92915050565b7f4f6e6c7920627920526571756972656d656e7420416e616c7973747300000000600082015250565b600062002aa5601c83620022df565b915062002ab28262002a6d565b602082019050919050565b6000602082019050818103600083015262002ad88162002a96565b9050919050565b6000819050919050565b600062002b0a62002b0462002afe8462002adf565b62002a0d565b6200220b565b9050919050565b62002b1c8162002ae9565b82525050565b600060208201905062002b39600083018462002b11565b92915050565b60008151905062002b508162002215565b92915050565b60006020828403121562002b6f5762002b6e6200216a565b5b600062002b7f8482850162002b3f565b91505092915050565b600060a08201905062002b9f6000830188620022a6565b818103602083015262002bb381876200232d565b9050818103604083015262002bc981866200232d565b905062002bda606083018562002278565b62002be9608083018462002278565b9695505050505050565b7f4e487b7100000000000000000000000000000000000000000000000000000000600052601160045260246000fd5b600062002c2f826200220b565b91507fffffffffffffffffffffffffffffffffffffffffffffffffffffffffffffffff820362002c645762002c6362002bf3565b5b600182019050919050565b7f5468697320526571756972656d656e7420416e616c7973742068617320616c7260008201527f6561647920657869737465642100000000000000000000000000000000000000602082015250565b600062002ccd602d83620022df565b915062002cda8262002c6f565b604082019050919050565b6000602082019050818103600083015262002d008162002cbe565b9050919050565b6000819050919050565b600062002d3262002d2c62002d268462002d07565b62002a0d565b6200220b565b9050919050565b62002d448162002d11565b82525050565b600060208201905062002d61600083018462002d39565b92915050565b7f4572726f723a20696e646578206f7574206f6620626f756e6473000000000000600082015250565b600062002d9f601a83620022df565b915062002dac8262002d67565b602082019050919050565b6000602082019050818103600083015262002dd28162002d90565b9050919050565b600062002de6826200220b565b915062002df3836200220b565b925082820390508181111562002e0e5762002e0d62002bf3565b5b92915050565b600062002e21826200220b565b915062002e2e836200220b565b925082820190508082111562002e495762002e4862002bf3565b5b92915050565b7f4e487b7100000000000000000000000000000000000000000000000000000000600052603160045260246000fdfe60806040526000600760056101000a81548160ff021916908360048111156200002d576200002c62000181565b5b02179055503480156200003f57600080fd5b506040516200364c3803806200364c8339818101604052810190620000659190620003e3565b8460008190555083600190816200007d9190620006ea565b5082600690816200008f9190620006ea565b5081600260006101000a81548173ffffffffffffffffffffffffffffffffffffffff021916908373ffffffffffffffffffffffffffffffffffffffff16021790555080600560006101000a81548173ffffffffffffffffffffffffffffffffffffffff021916908373ffffffffffffffffffffffffffffffffffffffff1602179055506000600760006101000a81548160ff0219169083151502179055506000600760016101000a81548160ff0219169083151502179055506001600760056101000a81548160ff0219169083600481111562000171576200017062000181565b5b02179055505050505050620007d1565b7f4e487b7100000000000000000000000000000000000000000000000000000000600052602160045260246000fd5b6000604051905090565b600080fd5b600080fd5b6000819050919050565b620001d981620001c4565b8114620001e557600080fd5b50565b600081519050620001f981620001ce565b92915050565b600080fd5b600080fd5b6000601f19601f8301169050919050565b7f4e487b7100000000000000000000000000000000000000000000000000000000600052604160045260246000fd5b620002548262000209565b810181811067ffffffffffffffff821117156200027657620002756200021a565b5b80604052505050565b60006200028b620001b0565b905062000299828262000249565b919050565b600067ffffffffffffffff821115620002bc57620002bb6200021a565b5b620002c78262000209565b9050602081019050919050565b60005b83811015620002f4578082015181840152602081019050620002d7565b60008484015250505050565b60006200031762000311846200029e565b6200027f565b90508281526020810184848401111562000336576200033562000204565b5b62000343848285620002d4565b509392505050565b600082601f830112620003635762000362620001ff565b5b81516200037584826020860162000300565b91505092915050565b600073ffffffffffffffffffffffffffffffffffffffff82169050919050565b6000620003ab826200037e565b9050919050565b620003bd816200039e565b8114620003c957600080fd5b50565b600081519050620003dd81620003b2565b92915050565b600080600080600060a08688031215620004025762000401620001ba565b5b60006200041288828901620001e8565b955050602086015167ffffffffffffffff811115620004365762000435620001bf565b5b62000444888289016200034b565b945050604086015167ffffffffffffffff811115620004685762000467620001bf565b5b62000476888289016200034b565b93505060606200048988828901620003cc565b92505060806200049c88828901620003cc565b9150509295509295909350565b600081519050919050565b7f4e487b7100000000000000000000000000000000000000000000000000000000600052602260045260246000fd5b60006002820490506001821680620004fc57607f821691505b602082108103620005125762000511620004b4565b5b50919050565b60008190508160005260206000209050919050565b60006020601f8301049050919050565b600082821b905092915050565b6000600883026200057c7fffffffffffffffffffffffffffffffffffffffffffffffffffffffffffffffff826200053d565b6200058886836200053d565b95508019841693508086168417925050509392505050565b6000819050919050565b6000620005cb620005c5620005bf84620001c4565b620005a0565b620001c4565b9050919050565b6000819050919050565b620005e783620005aa565b620005ff620005f682620005d2565b8484546200054a565b825550505050565b600090565b6200061662000607565b62000623818484620005dc565b505050565b5b818110156200064b576200063f6000826200060c565b60018101905062000629565b5050565b601f8211156200069a57620006648162000518565b6200066f846200052d565b810160208510156200067f578190505b620006976200068e856200052d565b83018262000628565b50505b505050565b600082821c905092915050565b6000620006bf600019846008026200069f565b1980831691505092915050565b6000620006da8383620006ac565b9150826002028217905092915050565b620006f582620004a9565b67ffffffffffffffff8111156200071157620007106200021a565b5b6200071d8254620004e3565b6200072a8282856200064f565b600060209050601f8311600181146200076257600084156200074d578287015190505b620007598582620006cc565b865550620007c9565b601f198416620007728662000518565b60005b828110156200079c5784890151825560018201915060208501945060208101905062000775565b86831015620007bc5784890151620007b8601f891682620006ac565b8355505b6001600288020188555050505b505050505050565b612e6b80620007e16000396000f3fe608060405234801561001057600080fd5b50600436106101f05760003560e01c80636900a3ae1161010f578063b11a19e8116100a2578063eeb1191a11610071578063eeb1191a14610577578063f6c8f7e114610593578063fc735e99146105b1578063fcaa7664146105bb576101f0565b8063b11a19e8146104ed578063b3205dfa1461051d578063d05c66271461053b578063d75088a114610559576101f0565b806380007e83116100de57806380007e831461047957806390c3f38f14610497578063a8113654146104b3578063a813dea6146104d1576101f0565b80636900a3ae146103df5780636901f6681461040f57806371aad10d1461041957806371dce7da14610449576101f0565b806324a872f811610187578063524fa88e11610156578063524fa88e1461035757806356ca623e146103735780635d1ca631146103a35780635d8c6faa146103c1576101f0565b806324a872f8146102e35780633bcbe08a146103015780633eb1d7771461031d57806351b7aa3014610339576101f0565b806317a2da08116101c357806317a2da081461026d57806317d7de7c1461028b5780631a092541146102a957806321a50a93146102c7576101f0565b806302676d39146101f557806302955b14146102135780630ee2cb101461023157806315dae03e1461024f575b600080fd5b6101fd6105d9565b60405161020a9190611c42565b60405180910390f35b61021b610602565b6040516102289190611ced565b60405180910390f35b610239610730565b6040516102469190611d50565b60405180910390f35b61025761075a565b6040516102649190611c42565b60405180910390f35b610275610783565b6040516102829190611ced565b60405180910390f35b61029361086c565b6040516102a09190611ced565b60405180910390f35b6102b16108fe565b6040516102be9190611ced565b60405180910390f35b6102e160048036038101906102dc9190611dab565b610990565b005b6102eb610ac3565b6040516102f89190611df3565b60405180910390f35b61031b60048036038101906103169190611e3a565b610ada565b005b61033760048036038101906103329190611dab565b610b1e565b005b610341610c77565b60405161034e9190611ced565b60405180910390f35b610371600480360381019061036c9190611e3a565b610dec565b005b61038d60048036038101906103889190611e3a565b610e30565b60405161039a9190611ced565b60405180910390f35b6103ab610e61565b6040516103b89190611c42565b60405180910390f35b6103c9610e6a565b6040516103d69190611ced565b60405180910390f35b6103f960048036038101906103f49190611dab565b610f98565b6040516104069190611ced565b60405180910390f35b610417610fc9565b005b610433600480360381019061042e9190611f9c565b611082565b6040516104409190611ced565b60405180910390f35b610463600480360381019061045e9190612011565b611376565b6040516104709190611ced565b60405180910390f35b6104816113f9565b60405161048e9190611df3565b60405180910390f35b6104b160048036038101906104ac91906120df565b611410565b005b6104bb61146f565b6040516104c89190611ced565b60405180910390f35b6104eb60048036038101906104e69190611dab565b6114c1565b005b6105076004803603810190610502919061215e565b6115bb565b6040516105149190611ced565b60405180910390f35b6105256115ec565b6040516105329190611ced565b60405180910390f35b61054361180a565b6040516105509190611ced565b60405180910390f35b6105616118c0565b60405161056e9190611c42565b60405180910390f35b610591600480360381019061058c9190611dab565b6118e9565b005b61059b611a1c565b6040516105a89190611ced565b60405180910390f35b6105b9611b47565b005b6105c3611c00565b6040516105d09190611c42565b60405180910390f35b6000600760049054906101000a900460ff1660028111156105fd576105fc61218b565b5b905090565b6060600060028111156106185761061761218b565b5b600760039054906101000a900460ff16600281111561063a5761063961218b565b5b0361067c576040518060400160405280600381526020017f6c6f770000000000000000000000000000000000000000000000000000000000815250905061072d565b600160028111156106905761068f61218b565b5b600760039054906101000a900460ff1660028111156106b2576106b161218b565b5b036106f4576040518060400160405280600681526020017f6d656469756d0000000000000000000000000000000000000000000000000000815250905061072d565b6040518060400160405280600481526020017f686967680000000000000000000000000000000000000000000000000000000081525090505b90565b6000600260009054906101000a900473ffffffffffffffffffffffffffffffffffffffff16905090565b6000600760029054906101000a900460ff16600181111561077e5761077d61218b565b5b905090565b6060600061078f61180a565b9050806040516020016107a29190612242565b604051602081830303815290604052905060006107bd610602565b9050806040516020016107d0919061229d565b604051602081830303815290604052905060006107eb610e6a565b9050806040516020016107fe91906122f8565b604051602081830303815290604052905060006108196115ec565b90508060405160200161082c9190612353565b6040516020818303038152906040529050838383836040516020016108549493929190612388565b60405160208183030381529060405294505050505090565b60606001805461087b906123f5565b80601f01602080910402602001604051908101604052809291908181526020018280546108a7906123f5565b80156108f45780601f106108c9576101008083540402835291602001916108f4565b820191906000526020600020905b8154815290600101906020018083116108d757829003601f168201915b5050505050905090565b60606006805461090d906123f5565b80601f0160208091040260200160405190810160405280929190818152602001828054610939906123f5565b80156109865780601f1061095b57610100808354040283529160200191610986565b820191906000526020600020905b81548152906001019060200180831161096957829003601f168201915b5050505050905090565b6003818181106109d5576040517f08c379a00000000000000000000000000000000000000000000000000000000081526004016109cc90612472565b60405180910390fd5b6001806109e0611c00565b14610a20576040517f08c379a0000000000000000000000000000000000000000000000000000000008152600401610a17906124de565b60405180910390fd5b60008403610a58576000600760036101000a81548160ff02191690836002811115610a4e57610a4d61218b565b5b0217905550610abd565b60018403610a90576001600760036101000a81548160ff02191690836002811115610a8657610a8561218b565b5b0217905550610abc565b6002600760036101000a81548160ff02191690836002811115610ab657610ab561218b565b5b02179055505b5b50505050565b6000600760019054906101000a900460ff16905090565b80600360006101000a81548173ffffffffffffffffffffffffffffffffffffffff021916908373ffffffffffffffffffffffffffffffffffffffff16021790555050565b600581818110610b63576040517f08c379a0000000000000000000000000000000000000000000000000000000008152600401610b5a90612472565b60405180910390fd5b60008303610b9b576000600760056101000a81548160ff02191690836004811115610b9157610b9061218b565b5b0217905550610c72565b60018303610bd3576001600760056101000a81548160ff02191690836004811115610bc957610bc861218b565b5b0217905550610c71565b60028303610c0b576002600760056101000a81548160ff02191690836004811115610c0157610c0061218b565b5b0217905550610c70565b60038303610c43576003600760056101000a81548160ff02191690836004811115610c3957610c3861218b565b5b0217905550610c6f565b6004600760056101000a81548160ff02191690836004811115610c6957610c6861218b565b5b02179055505b5b5b5b505050565b60606000610ca6600260009054906101000a900473ffffffffffffffffffffffffffffffffffffffff16610e30565b905080604051602001610cb99190612524565b60405160208183030381529060405290506000610cf7600360009054906101000a900473ffffffffffffffffffffffffffffffffffffffff16610e30565b905080604051602001610d0a919061257f565b60405160208183030381529060405290506000610d48600460009054906101000a900473ffffffffffffffffffffffffffffffffffffffff16610e30565b905080604051602001610d5b91906125da565b60405160208183030381529060405290506000610d99600560009054906101000a900473ffffffffffffffffffffffffffffffffffffffff16610e30565b905080604051602001610dac9190612635565b604051602081830303815290604052905083838383604051602001610dd49493929190612388565b60405160208183030381529060405294505050505090565b80600460006101000a81548173ffffffffffffffffffffffffffffffffffffffff021916908373ffffffffffffffffffffffffffffffffffffffff16021790555050565b6060610e5a82604051602001610e4691906126b2565b604051602081830303815290604052611082565b9050919050565b60008054905090565b606060006002811115610e8057610e7f61218b565b5b600760049054906101000a900460ff166002811115610ea257610ea161218b565b5b03610ee4576040518060400160405280600381526020017f6c6f7700000000000000000000000000000000000000000000000000000000008152509050610f95565b60016002811115610ef857610ef761218b565b5b600760049054906101000a900460ff166002811115610f1a57610f1961218b565b5b03610f5c576040518060400160405280600681526020017f6d656469756d00000000000000000000000000000000000000000000000000008152509050610f95565b6040518060400160405280600481526020017f686967680000000000000000000000000000000000000000000000000000000081525090505b90565b6060610fc282604051602001610fae91906126ee565b604051602081830303815290604052611082565b9050919050565b600760019054906101000a900460ff1615611019576040517f08c379a000000000000000000000000000000000000000000000000000000000815260040161101090612755565b60405180910390fd5b600380611024611c00565b14611064576040517f08c379a000000000000000000000000000000000000000000000000000000000815260040161105b906124de565b60405180910390fd5b6001600760016101000a81548160ff02191690831515021790555050565b606060006040518060400160405280601081526020017f303132333435363738396162636465660000000000000000000000000000000081525090506000600284516110ce91906127a4565b60026110da91906127e6565b67ffffffffffffffff8111156110f3576110f2611e71565b5b6040519080825280601f01601f1916602001820160405280156111255781602001600182028036833780820191505090505b5090507f30000000000000000000000000000000000000000000000000000000000000008160008151811061115d5761115c61281a565b5b60200101907effffffffffffffffffffffffffffffffffffffffffffffffffffffffffffff1916908160001a9053507f7800000000000000000000000000000000000000000000000000000000000000816001815181106111c1576111c061281a565b5b60200101907effffffffffffffffffffffffffffffffffffffffffffffffffffffffffffff1916908160001a90535060005b845181101561136b578260048683815181106112125761121161281a565b5b602001015160f81c60f81b7effffffffffffffffffffffffffffffffffffffffffffffffffffffffffffff1916901c60f81c60ff16815181106112585761125761281a565b5b602001015160f81c60f81b8260028361127191906127a4565b600261127d91906127e6565b8151811061128e5761128d61281a565b5b60200101907effffffffffffffffffffffffffffffffffffffffffffffffffffffffffffff1916908160001a90535082600f60f81b8683815181106112d6576112d561281a565b5b602001015160f81c60f81b1660f81c60ff16815181106112f9576112f861281a565b5b602001015160f81c60f81b8260028361131291906127a4565b600361131e91906127e6565b8151811061132f5761132e61281a565b5b60200101907effffffffffffffffffffffffffffffffffffffffffffffffffffffffffffff1916908160001a90535080806001019150506111f3565b508092505050919050565b606081156113bb576040518060400160405280600481526020017f747275650000000000000000000000000000000000000000000000000000000081525090506113f4565b6040518060400160405280600581526020017f66616c736500000000000000000000000000000000000000000000000000000081525090505b919050565b6000600760009054906101000a900460ff16905090565b60018061141b611c00565b1461145b576040517f08c379a0000000000000000000000000000000000000000000000000000000008152600401611452906124de565b60405180910390fd5b816006908161146a91906129f5565b505050565b6060600061147b611a1c565b90506000611487610783565b90506000611493610c77565b90508282826040516020016114aa93929190612ac7565b604051602081830303815290604052935050505090565b600281818110611506576040517f08c379a00000000000000000000000000000000000000000000000000000000081526004016114fd90612472565b60405180910390fd5b600180611511611c00565b14611551576040517f08c379a0000000000000000000000000000000000000000000000000000000008152600401611548906124de565b60405180910390fd5b60008403611589576000600760026101000a81548160ff0219169083600181111561157f5761157e61218b565b5b02179055506115b5565b6001600760026101000a81548160ff021916908360018111156115af576115ae61218b565b5b02179055505b50505050565b60606115e5826040516020016115d19190612b19565b604051602081830303815290604052611082565b9050919050565b6060600060048111156116025761160161218b565b5b600760059054906101000a900460ff1660048111156116245761162361218b565b5b03611666576040518060400160405280600781526020017f646566696e6564000000000000000000000000000000000000000000000000008152509050611807565b6001600481111561167a5761167961218b565b5b600760059054906101000a900460ff16600481111561169c5761169b61218b565b5b036116de576040518060400160405280600781526020017f726566696e6564000000000000000000000000000000000000000000000000008152509050611807565b600260048111156116f2576116f161218b565b5b600760059054906101000a900460ff1660048111156117145761171361218b565b5b03611756576040518060400160405280600881526020017f76657269666965640000000000000000000000000000000000000000000000008152509050611807565b6003600481111561176a5761176961218b565b5b600760059054906101000a900460ff16600481111561178c5761178b61218b565b5b036117ce576040518060400160405280600981526020017f56616c69646174656400000000000000000000000000000000000000000000008152509050611807565b6040518060400160405280600881526020017f66696e697368656400000000000000000000000000000000000000000000000081525090505b90565b6060600060018111156118205761181f61218b565b5b600760029054906101000a900460ff1660018111156118425761184161218b565b5b03611884576040518060400160405280600a81526020017f66756e6374696f6e616c0000000000000000000000000000000000000000000081525090506118bd565b6040518060400160405280600e81526020017f4e6f6e2d46756e6374696f6e616c00000000000000000000000000000000000081525090505b90565b6000600760039054906101000a900460ff1660028111156118e4576118e361218b565b5b905090565b60038181811061192e576040517f08c379a000000000000000000000000000000000000000000000000000000000815260040161192590612472565b60405180910390fd5b600180611939611c00565b14611979576040517f08c379a0000000000000000000000000000000000000000000000000000000008152600401611970906124de565b60405180910390fd5b600084036119b1576000600760046101000a81548160ff021916908360028111156119a7576119a661218b565b5b0217905550611a16565b600184036119e9576001600760046101000a81548160ff021916908360028111156119df576119de61218b565b5b0217905550611a15565b6002600760046101000a81548160ff02191690836002811115611a0f57611a0e61218b565b5b02179055505b5b50505050565b60606000611a2b600054610f98565b905080604051602001611a3e9190612b5a565b604051602081830303815290604052905060006001604051602001611a639190612c38565b604051602081830303815290604052905060006006604051602001611a889190612c93565b60405160208183030381529060405290506000611ab3600760019054906101000a900460ff16611376565b905080604051602001611ac69190612cee565b60405160208183030381529060405290506000611af1600760009054906101000a900460ff16611376565b905080604051602001611b049190612d49565b60405160208183030381529060405290508484848385604051602001611b2e959493929190612d7e565b6040516020818303038152906040529550505050505090565b600760009054906101000a900460ff1615611b97576040517f08c379a0000000000000000000000000000000000000000000000000000000008152600401611b8e90612e15565b60405180910390fd5b600280611ba2611c00565b14611be2576040517f08c379a0000000000000000000000000000000000000000000000000000000008152600401611bd9906124de565b60405180910390fd5b6001600760006101000a81548160ff02191690831515021790555050565b6000600760059054906101000a900460ff166004811115611c2457611c2361218b565b5b905090565b6000819050919050565b611c3c81611c29565b82525050565b6000602082019050611c576000830184611c33565b92915050565b600081519050919050565b600082825260208201905092915050565b60005b83811015611c97578082015181840152602081019050611c7c565b60008484015250505050565b6000601f19601f8301169050919050565b6000611cbf82611c5d565b611cc98185611c68565b9350611cd9818560208601611c79565b611ce281611ca3565b840191505092915050565b60006020820190508181036000830152611d078184611cb4565b905092915050565b600073ffffffffffffffffffffffffffffffffffffffff82169050919050565b6000611d3a82611d0f565b9050919050565b611d4a81611d2f565b82525050565b6000602082019050611d656000830184611d41565b92915050565b6000604051905090565b600080fd5b600080fd5b611d8881611c29565b8114611d9357600080fd5b50565b600081359050611da581611d7f565b92915050565b600060208284031215611dc157611dc0611d75565b5b6000611dcf84828501611d96565b91505092915050565b60008115159050919050565b611ded81611dd8565b82525050565b6000602082019050611e086000830184611de4565b92915050565b611e1781611d2f565b8114611e2257600080fd5b50565b600081359050611e3481611e0e565b92915050565b600060208284031215611e5057611e4f611d75565b5b6000611e5e84828501611e25565b91505092915050565b600080fd5b600080fd5b7f4e487b7100000000000000000000000000000000000000000000000000000000600052604160045260246000fd5b611ea982611ca3565b810181811067ffffffffffffffff82111715611ec857611ec7611e71565b5b80604052505050565b6000611edb611d6b565b9050611ee78282611ea0565b919050565b600067ffffffffffffffff821115611f0757611f06611e71565b5b611f1082611ca3565b9050602081019050919050565b82818337600083830152505050565b6000611f3f611f3a84611eec565b611ed1565b905082815260208101848484011115611f5b57611f5a611e6c565b5b611f66848285611f1d565b509392505050565b600082601f830112611f8357611f82611e67565b5b8135611f93848260208601611f2c565b91505092915050565b600060208284031215611fb257611fb1611d75565b5b600082013567ffffffffffffffff811115611fd057611fcf611d7a565b5b611fdc84828501611f6e565b91505092915050565b611fee81611dd8565b8114611ff957600080fd5b50565b60008135905061200b81611fe5565b92915050565b60006020828403121561202757612026611d75565b5b600061203584828501611ffc565b91505092915050565b600067ffffffffffffffff82111561205957612058611e71565b5b61206282611ca3565b9050602081019050919050565b600061208261207d8461203e565b611ed1565b90508281526020810184848401111561209e5761209d611e6c565b5b6120a9848285611f1d565b509392505050565b600082601f8301126120c6576120c5611e67565b5b81356120d684826020860161206f565b91505092915050565b6000602082840312156120f5576120f4611d75565b5b600082013567ffffffffffffffff81111561211357612112611d7a565b5b61211f848285016120b1565b91505092915050565b6000819050919050565b61213b81612128565b811461214657600080fd5b50565b60008135905061215881612132565b92915050565b60006020828403121561217457612173611d75565b5b600061218284828501612149565b91505092915050565b7f4e487b7100000000000000000000000000000000000000000000000000000000600052602160045260246000fd5b7f747970653a000000000000000000000000000000000000000000000000000000815250565b600081905092915050565b60006121f682611c5d565b61220081856121e0565b9350612210818560208601611c79565b80840191505092915050565b7f202c200000000000000000000000000000000000000000000000000000000000815250565b600061224d826121ba565b60058201915061225d82846121eb565b91506122688261221c565b60038201915081905092915050565b7f7072696f726974793a2000000000000000000000000000000000000000000000815250565b60006122a882612277565b600a820191506122b882846121eb565b91506122c38261221c565b60038201915081905092915050565b7f7269736b3a200000000000000000000000000000000000000000000000000000815250565b6000612303826122d2565b60068201915061231382846121eb565b915061231e8261221c565b60038201915081905092915050565b7f73746167653a2000000000000000000000000000000000000000000000000000815250565b600061235e8261232d565b60078201915061236e82846121eb565b91506123798261221c565b60038201915081905092915050565b600061239482876121eb565b91506123a082866121eb565b91506123ac82856121eb565b91506123b882846121eb565b915081905095945050505050565b7f4e487b7100000000000000000000000000000000000000000000000000000000600052602260045260246000fd5b6000600282049050600182168061240d57607f821691505b6020821081036124205761241f6123c6565b5b50919050565b7f4261642072616e67652e00000000000000000000000000000000000000000000600082015250565b600061245c600a83611c68565b915061246782612426565b602082019050919050565b6000602082019050818103600083015261248b8161244f565b9050919050565b7f496e636f72726563742053746167652100000000000000000000000000000000600082015250565b60006124c8601083611c68565b91506124d382612492565b602082019050919050565b600060208201905081810360008301526124f7816124bb565b9050919050565b7f63726561746f723a200000000000000000000000000000000000000000000000815250565b600061252f826124fe565b60098201915061253f82846121eb565b915061254a8261221c565b60038201915081905092915050565b7f726571756972656d656e7420656e67696e6565723a2000000000000000000000815250565b600061258a82612559565b60168201915061259a82846121eb565b91506125a58261221c565b60038201915081905092915050565b7f726571756972656d656e7420616e616c7973743a200000000000000000000000815250565b60006125e5826125b4565b6015820191506125f582846121eb565b91506126008261221c565b60038201915081905092915050565b7f6d616e616765723a200000000000000000000000000000000000000000000000815250565b60006126408261260f565b60098201915061265082846121eb565b915061265b8261221c565b60038201915081905092915050565b60008160601b9050919050565b60006126828261266a565b9050919050565b600061269482612677565b9050919050565b6126ac6126a782611d2f565b612689565b82525050565b60006126be828461269b565b60148201915081905092915050565b6000819050919050565b6126e86126e382611c29565b6126cd565b82525050565b60006126fa82846126d7565b60208201915081905092915050565b7f497420686173206265656e2076616c6964617465642e00000000000000000000600082015250565b600061273f601683611c68565b915061274a82612709565b602082019050919050565b6000602082019050818103600083015261276e81612732565b9050919050565b7f4e487b7100000000000000000000000000000000000000000000000000000000600052601160045260246000fd5b60006127af82611c29565b91506127ba83611c29565b92508282026127c881611c29565b915082820484148315176127df576127de612775565b5b5092915050565b60006127f182611c29565b91506127fc83611c29565b925082820190508082111561281457612813612775565b5b92915050565b7f4e487b7100000000000000000000000000000000000000000000000000000000600052603260045260246000fd5b60008190508160005260206000209050919050565b60006020601f8301049050919050565b600082821b905092915050565b6000600883026128ab7fffffffffffffffffffffffffffffffffffffffffffffffffffffffffffffffff8261286e565b6128b5868361286e565b95508019841693508086168417925050509392505050565b6000819050919050565b60006128f26128ed6128e884611c29565b6128cd565b611c29565b9050919050565b6000819050919050565b61290c836128d7565b612920612918826128f9565b84845461287b565b825550505050565b600090565b612935612928565b612940818484612903565b505050565b5b818110156129645761295960008261292d565b600181019050612946565b5050565b601f8211156129a95761297a81612849565b6129838461285e565b81016020851015612992578190505b6129a661299e8561285e565b830182612945565b50505b505050565b600082821c905092915050565b60006129cc600019846008026129ae565b1980831691505092915050565b60006129e583836129bb565b9150826002028217905092915050565b6129fe82611c5d565b67ffffffffffffffff811115612a1757612a16611e71565b5b612a2182546123f5565b612a2c828285612968565b600060209050601f831160018114612a5f5760008415612a4d578287015190505b612a5785826129d9565b865550612abf565b601f198416612a6d86612849565b60005b82811015612a9557848901518255600182019150602085019450602081019050612a70565b86831015612ab25784890151612aae601f8916826129bb565b8355505b6001600288020188555050505b505050505050565b6000612ad382866121eb565b9150612adf82856121eb565b9150612aeb82846121eb565b9150819050949350505050565b6000819050919050565b612b13612b0e82612128565b612af8565b82525050565b6000612b258284612b02565b60208201915081905092915050565b7f69643a2000000000000000000000000000000000000000000000000000000000815250565b6000612b6582612b34565b600482019150612b7582846121eb565b9150612b808261221c565b60038201915081905092915050565b7f6e616d653a200000000000000000000000000000000000000000000000000000815250565b60008154612bc2816123f5565b612bcc81866121e0565b94506001821660008114612be75760018114612bfc57612c2f565b60ff1983168652811515820286019350612c2f565b612c0585612849565b60005b83811015612c2757815481890152600182019150602081019050612c08565b838801955050505b50505092915050565b6000612c4382612b8f565b600682019150612c538284612bb5565b9150612c5e8261221c565b60038201915081905092915050565b7f6465736372697074696f6e3a2000000000000000000000000000000000000000815250565b6000612c9e82612c6d565b600d82019150612cae8284612bb5565b9150612cb98261221c565b60038201915081905092915050565b7f76616c6964617465643a20000000000000000000000000000000000000000000815250565b6000612cf982612cc8565b600b82019150612d0982846121eb565b9150612d148261221c565b60038201915081905092915050565b7f76657269666965643a2000000000000000000000000000000000000000000000815250565b6000612d5482612d23565b600a82019150612d6482846121eb565b9150612d6f8261221c565b60038201915081905092915050565b6000612d8a82886121eb565b9150612d9682876121eb565b9150612da282866121eb565b9150612dae82856121eb565b9150612dba82846121eb565b91508190509695505050505050565b7f497420686173206265656e2076657269666965642e0000000000000000000000600082015250565b6000612dff601583611c68565b9150612e0a82612dc9565b602082019050919050565b60006020820190508181036000830152612e2e81612df2565b905091905056fea2646970667358221220b2eb69d49431af9e7fda497a6c21ab46691447835efb2a8508bab35f442ac32464736f6c63430008180033a264697066735822122089b34f730451192baf829035832511c91fca15140acc682895b999988a48b96f64736f6c63430008180033",
  "linkReferences": {},
  "deployedLinkReferences": {}
}